{
  "contractName": "Bright",
  "abi": [
    {
      "inputs": [],
      "payable": false,
      "stateMutability": "nonpayable",
      "type": "constructor"
    },
    {
      "anonymous": false,
      "inputs": [
        {
          "indexed": false,
          "name": "name",
          "type": "string"
        },
        {
          "indexed": false,
          "name": "hash",
          "type": "address"
        }
      ],
      "name": "UserProfileSetEvent",
      "type": "event"
    },
    {
      "anonymous": false,
      "inputs": [
        {
          "indexed": false,
          "name": "userHash",
          "type": "address"
        },
        {
          "indexed": false,
          "name": "numberOfCommits",
          "type": "uint256"
        }
      ],
      "name": "UserNewCommit",
      "type": "event"
    },
    {
      "anonymous": false,
      "inputs": [
        {
          "indexed": false,
          "name": "userHash",
          "type": "address"
        },
        {
          "indexed": false,
          "name": "numberOfReviews",
          "type": "uint256"
        }
      ],
      "name": "UserNewReview",
      "type": "event"
    },
    {
      "anonymous": false,
      "inputs": [
        {
          "indexed": true,
          "name": "previousOwner",
          "type": "address"
        },
        {
          "indexed": true,
          "name": "newOwner",
          "type": "address"
        }
      ],
      "name": "OwnershipTransferred",
      "type": "event"
    },
    {
      "anonymous": false,
      "inputs": [
        {
          "indexed": false,
          "name": "currentSeason",
          "type": "uint256"
        }
      ],
      "name": "SeasonEnds",
      "type": "event"
    },
    {
      "constant": false,
      "inputs": [
        {
          "name": "_root",
          "type": "address"
        },
        {
          "name": "seasonIndex",
          "type": "uint256"
        },
        {
          "name": "initialTimestamp",
          "type": "uint256"
        }
      ],
      "name": "init",
      "outputs": [],
      "payable": false,
      "stateMutability": "nonpayable",
      "type": "function"
    },
    {
      "constant": false,
      "inputs": [
        {
          "name": "newOwner",
          "type": "address"
        }
      ],
      "name": "transferOwnership",
      "outputs": [],
      "payable": false,
      "stateMutability": "nonpayable",
      "type": "function"
    },
    {
      "constant": false,
      "inputs": [
        {
          "name": "a",
          "type": "address"
        }
      ],
      "name": "setRootAddress",
      "outputs": [],
      "payable": false,
      "stateMutability": "nonpayable",
      "type": "function"
    },
    {
      "constant": false,
      "inputs": [
        {
          "name": "name",
          "type": "string"
        },
        {
          "name": "email",
          "type": "string"
        }
      ],
      "name": "setProfile",
      "outputs": [],
      "payable": false,
      "stateMutability": "nonpayable",
      "type": "function"
    },
    {
      "constant": true,
      "inputs": [],
      "name": "getUsersAddress",
      "outputs": [
        {
          "name": "",
          "type": "address[]"
        }
      ],
      "payable": false,
      "stateMutability": "view",
      "type": "function"
    },
    {
      "constant": true,
      "inputs": [
        {
          "name": "email",
          "type": "bytes32"
        }
      ],
      "name": "getAddressByEmail",
      "outputs": [
        {
          "name": "",
          "type": "address"
        }
      ],
      "payable": false,
      "stateMutability": "view",
      "type": "function"
    },
    {
      "constant": true,
      "inputs": [
        {
          "name": "userHash",
          "type": "address"
        }
      ],
      "name": "getUser",
      "outputs": [
        {
          "name": "",
          "type": "string"
        },
        {
          "name": "",
          "type": "string"
        },
        {
          "name": "",
          "type": "uint256"
        },
        {
          "name": "",
          "type": "uint256"
        },
        {
          "name": "",
          "type": "uint256"
        },
        {
          "name": "",
          "type": "uint256"
        },
        {
          "name": "",
          "type": "uint256"
        }
      ],
      "payable": false,
      "stateMutability": "view",
      "type": "function"
    },
    {
      "constant": true,
      "inputs": [
        {
          "name": "userHash",
          "type": "address"
        },
        {
          "name": "seasonIndex",
          "type": "uint256"
        }
      ],
      "name": "getUserSeasonReputation",
      "outputs": [
        {
          "name": "",
          "type": "string"
        },
        {
          "name": "",
          "type": "uint256"
        },
        {
          "name": "",
          "type": "uint256"
        },
        {
          "name": "",
          "type": "string"
        },
        {
          "name": "",
          "type": "uint256"
        },
        {
          "name": "",
          "type": "uint256"
        },
        {
          "name": "",
          "type": "uint256"
        },
        {
          "name": "",
          "type": "address"
        },
        {
          "name": "",
          "type": "uint256"
        }
      ],
      "payable": false,
      "stateMutability": "view",
      "type": "function"
    },
    {
      "constant": true,
      "inputs": [
        {
          "name": "userHash",
          "type": "address"
        }
      ],
      "name": "getUserGlobalReputation",
      "outputs": [
        {
          "name": "",
          "type": "string"
        },
        {
          "name": "",
          "type": "uint256"
        },
        {
          "name": "",
          "type": "uint256"
        },
        {
          "name": "",
          "type": "string"
        },
        {
          "name": "",
          "type": "uint256"
        },
        {
          "name": "",
          "type": "uint256"
        },
        {
          "name": "",
          "type": "uint256"
        },
        {
          "name": "",
          "type": "address"
        }
      ],
      "payable": false,
      "stateMutability": "view",
      "type": "function"
    },
    {
      "constant": false,
      "inputs": [
        {
          "name": "url",
          "type": "bytes32"
        }
      ],
      "name": "setCommit",
      "outputs": [],
      "payable": false,
      "stateMutability": "nonpayable",
      "type": "function"
    },
    {
      "constant": false,
      "inputs": [
        {
          "name": "a",
          "type": "string"
        },
        {
          "name": "email",
          "type": "bytes32"
        }
      ],
      "name": "notifyCommit",
      "outputs": [],
      "payable": false,
      "stateMutability": "nonpayable",
      "type": "function"
    },
    {
      "constant": true,
      "inputs": [
        {
          "name": "userHash",
          "type": "address"
        }
      ],
      "name": "getUserCommits",
      "outputs": [
        {
          "name": "",
          "type": "bytes32[]"
        },
        {
          "name": "",
          "type": "bytes32[]"
        },
        {
          "name": "",
          "type": "bytes32[]"
        }
      ],
      "payable": false,
      "stateMutability": "view",
      "type": "function"
    },
    {
      "constant": true,
      "inputs": [],
      "name": "getNumbers",
      "outputs": [
        {
          "name": "",
          "type": "uint256"
        }
      ],
      "payable": false,
      "stateMutability": "view",
      "type": "function"
    },
    {
      "constant": false,
      "inputs": [
        {
          "name": "url",
          "type": "bytes32"
        },
        {
          "name": "author",
          "type": "address"
        }
      ],
      "name": "setReview",
      "outputs": [],
      "payable": false,
      "stateMutability": "nonpayable",
      "type": "function"
    },
    {
      "constant": true,
      "inputs": [
        {
          "name": "userHash",
          "type": "address"
        }
      ],
      "name": "getUserName",
      "outputs": [
        {
          "name": "",
          "type": "string"
        }
      ],
      "payable": false,
      "stateMutability": "view",
      "type": "function"
    },
    {
      "constant": true,
      "inputs": [
        {
          "name": "url",
          "type": "bytes32"
        }
      ],
      "name": "getFeedback",
      "outputs": [
        {
          "name": "",
          "type": "bool"
        }
      ],
      "payable": false,
      "stateMutability": "view",
      "type": "function"
    },
    {
      "constant": false,
      "inputs": [
        {
          "name": "url",
          "type": "bytes32"
        },
        {
          "name": "user",
          "type": "address"
        },
        {
          "name": "value",
          "type": "bool"
        },
        {
          "name": "vote",
          "type": "uint256"
        }
      ],
      "name": "setFeedback",
      "outputs": [],
      "payable": false,
      "stateMutability": "nonpayable",
      "type": "function"
    },
    {
      "constant": true,
      "inputs": [
        {
          "name": "userHash",
          "type": "address"
        }
      ],
      "name": "getToRead",
      "outputs": [
        {
          "name": "",
          "type": "bytes32[]"
        }
      ],
      "payable": false,
      "stateMutability": "view",
      "type": "function"
    },
    {
      "constant": true,
      "inputs": [
        {
          "name": "userHash",
          "type": "address"
        },
        {
          "name": "global",
          "type": "bool"
        },
        {
          "name": "indSeason",
          "type": "uint256"
        }
      ],
      "name": "getVotes",
      "outputs": [
        {
          "name": "",
          "type": "uint256"
        },
        {
          "name": "",
          "type": "uint256"
        }
      ],
      "payable": false,
      "stateMutability": "view",
      "type": "function"
    },
    {
      "constant": true,
      "inputs": [],
      "name": "getCurrentSeason",
      "outputs": [
        {
          "name": "",
          "type": "uint256"
        },
        {
          "name": "",
          "type": "uint256"
        }
      ],
      "payable": false,
      "stateMutability": "view",
      "type": "function"
    },
    {
      "constant": true,
      "inputs": [
        {
          "name": "seasonIndex",
          "type": "uint256"
        },
        {
          "name": "userAddr",
          "type": "address"
        }
      ],
      "name": "getAllUserSeasonUrls",
      "outputs": [
        {
          "name": "",
          "type": "bytes32[]"
        }
      ],
      "payable": false,
      "stateMutability": "view",
      "type": "function"
    },
    {
      "constant": true,
      "inputs": [
        {
          "name": "url",
          "type": "bytes32"
        },
        {
          "name": "author",
          "type": "address"
        }
      ],
      "name": "checkCommitSeason",
      "outputs": [
        {
          "name": "",
          "type": "bool"
        }
      ],
      "payable": false,
      "stateMutability": "view",
      "type": "function"
    },
    {
      "constant": false,
      "inputs": [
        {
          "name": "name",
          "type": "string"
        },
        {
          "name": "mail",
          "type": "string"
        },
        {
          "name": "hash",
          "type": "address"
        },
        {
          "name": "perct",
          "type": "uint256"
        },
        {
          "name": "tmRw",
          "type": "uint256"
        },
        {
          "name": "pos",
          "type": "uint256"
        },
        {
          "name": "neg",
          "type": "uint256"
        },
        {
          "name": "rep",
          "type": "uint256"
        },
        {
          "name": "rev",
          "type": "uint256"
        }
      ],
      "name": "setAllUserData",
      "outputs": [],
      "payable": false,
      "stateMutability": "nonpayable",
      "type": "function"
    },
    {
      "constant": false,
      "inputs": [
        {
          "name": "season",
          "type": "uint256"
        },
        {
          "name": "userAddr",
          "type": "address"
        },
        {
          "name": "percentage",
          "type": "uint256"
        },
        {
          "name": "tmRw",
          "type": "uint256"
        },
        {
          "name": "posVotes",
          "type": "uint256"
        },
        {
          "name": "negVotes",
          "type": "uint256"
        },
        {
          "name": "reputation",
          "type": "uint256"
        },
        {
          "name": "rev",
          "type": "uint256"
        },
        {
          "name": "complexity",
          "type": "uint256"
        }
      ],
      "name": "setAllUserSeasonData",
      "outputs": [],
      "payable": false,
      "stateMutability": "nonpayable",
      "type": "function"
    },
    {
      "constant": false,
      "inputs": [
        {
          "name": "h",
          "type": "address"
        },
        {
          "name": "pendCom",
          "type": "bytes32[]"
        },
        {
          "name": "finRev",
          "type": "bytes32[]"
        },
        {
          "name": "pendRev",
          "type": "bytes32[]"
        },
        {
          "name": "toRd",
          "type": "bytes32[]"
        }
      ],
      "name": "setAllUserDataTwo",
      "outputs": [],
      "payable": false,
      "stateMutability": "nonpayable",
      "type": "function"
    },
    {
      "constant": false,
      "inputs": [
        {
          "name": "seasonIndex",
          "type": "uint256"
        },
        {
          "name": "userAddr",
          "type": "address"
        },
        {
          "name": "urls",
          "type": "bytes32[]"
        }
      ],
      "name": "setUrlsSeason",
      "outputs": [],
      "payable": false,
      "stateMutability": "nonpayable",
      "type": "function"
    }
  ],
  "bytecode": "0x6060604052341561000f57600080fd5b33600760006101000a81548173ffffffffffffffffffffffffffffffffffffffff021916908373ffffffffffffffffffffffffffffffffffffffff1602179055506155b980620000606000396000f300606060405260043610610154576000357c0100000000000000000000000000000000000000000000000000000000900463ffffffff168063069157f9146101595780631451952b146101b357806317ba8a20146101ec5780631d93b515146103255780631f75b3461461038d578063232b0e79146103f4578063241d82ab146104335780633b8cf8ee146104b55780633c410744146105435780636f77926b14610638578063719e37ae14610779578063805ac6f214610819578063839eb57f1461099d57806389f915f614610b115780638c2dd66714610b3a5780638f359d7014610bbb57806393dbed3e14610c19578063955179bb14610c83578063a4a2a9f614610d1a578063ba37175214610d65578063c7945fbd14610dab578063ccdb681d14610dd2578063d3b30b7514610e3c578063d84f55ee14610e6c578063e3009fda14610f1e578063f2fde38b1461103c575b600080fd5b341561016457600080fd5b6101b160048080356000191690602001909190803573ffffffffffffffffffffffffffffffffffffffff169060200190919080351515906020019091908035906020019091905050611075565b005b34156101be57600080fd5b6101ea600480803573ffffffffffffffffffffffffffffffffffffffff169060200190919050506113af565b005b34156101f757600080fd5b610323600480803573ffffffffffffffffffffffffffffffffffffffff169060200190919080359060200190820180359060200190808060200260200160405190810160405280939291908181526020018383602002808284378201915050505050509190803590602001908201803590602001908080602002602001604051908101604052809392919081815260200183836020028082843782019150505050505091908035906020019082018035906020019080806020026020016040519081016040528093929190818152602001838360200280828437820191505050505050919080359060200190820180359060200190808060200260200160405190810160405280939291908181526020018383602002808284378201915050505050509190505061144f565b005b341561033057600080fd5b610370600480803573ffffffffffffffffffffffffffffffffffffffff1690602001909190803515159060200190919080359060200190919050506116c7565b604051808381526020018281526020019250505060405180910390f35b341561039857600080fd5b6103b26004808035600019169060200190919050506118c4565b604051808273ffffffffffffffffffffffffffffffffffffffff1673ffffffffffffffffffffffffffffffffffffffff16815260200191505060405180910390f35b34156103ff57600080fd5b6104196004808035600019169060200190919050506119a3565b604051808215151515815260200191505060405180910390f35b341561043e57600080fd5b6104b3600480803590602001909190803573ffffffffffffffffffffffffffffffffffffffff1690602001909190803590602001908201803590602001908080602002602001604051908101604052809392919081815260200183836020028082843782019150505050505091905050611b21565b005b34156104c057600080fd5b6104ec600480803573ffffffffffffffffffffffffffffffffffffffff16906020019091905050611cc4565b6040518080602001828103825283818151815260200191508051906020019060200280838360005b8381101561052f578082015181840152602081019050610514565b505050509050019250505060405180910390f35b341561054e57600080fd5b610636600480803590602001908201803590602001908080601f0160208091040260200160405190810160405280939291908181526020018383808284378201915050505050509190803590602001908201803590602001908080601f0160208091040260200160405190810160405280939291908181526020018383808284378201915050505050509190803573ffffffffffffffffffffffffffffffffffffffff16906020019091908035906020019091908035906020019091908035906020019091908035906020019091908035906020019091908035906020019091905050611dfd565b005b341561064357600080fd5b61066f600480803573ffffffffffffffffffffffffffffffffffffffff16906020019091905050612071565b60405180806020018060200188815260200187815260200186815260200185815260200184815260200183810383528a818151815260200191508051906020019080838360005b838110156106d15780820151818401526020810190506106b6565b50505050905090810190601f1680156106fe5780820380516001836020036101000a031916815260200191505b50838103825289818151815260200191508051906020019080838360005b8381101561073757808201518184015260208101905061071c565b50505050905090810190601f1680156107645780820380516001836020036101000a031916815260200191505b50995050505050505050505060405180910390f35b341561078457600080fd5b610817600480803590602001908201803590602001908080601f0160208091040260200160405190810160405280939291908181526020018383808284378201915050505050509190803590602001908201803590602001908080601f01602080910402602001604051908101604052809392919081815260200183838082843782019150505050505091905050612527565b005b341561082457600080fd5b610859600480803573ffffffffffffffffffffffffffffffffffffffff16906020019091908035906020019091905050612bd0565b60405180806020018a8152602001898152602001806020018881526020018781526020018681526020018573ffffffffffffffffffffffffffffffffffffffff1673ffffffffffffffffffffffffffffffffffffffff16815260200184815260200183810383528c818151815260200191508051906020019080838360005b838110156108f35780820151818401526020810190506108d8565b50505050905090810190601f1680156109205780820380516001836020036101000a031916815260200191505b50838103825289818151815260200191508051906020019080838360005b8381101561095957808201518184015260208101905061093e565b50505050905090810190601f1680156109865780820380516001836020036101000a031916815260200191505b509b50505050505050505050505060405180910390f35b34156109a857600080fd5b6109d4600480803573ffffffffffffffffffffffffffffffffffffffff169060200190919050506131c6565b6040518080602001898152602001888152602001806020018781526020018681526020018581526020018473ffffffffffffffffffffffffffffffffffffffff1673ffffffffffffffffffffffffffffffffffffffff16815260200183810383528b818151815260200191508051906020019080838360005b83811015610a68578082015181840152602081019050610a4d565b50505050905090810190601f168015610a955780820380516001836020036101000a031916815260200191505b50838103825288818151815260200191508051906020019080838360005b83811015610ace578082015181840152602081019050610ab3565b50505050905090810190601f168015610afb5780820380516001836020036101000a031916815260200191505b509a505050505050505050505060405180910390f35b3415610b1c57600080fd5b610b24613687565b6040518082815260200191505060405180910390f35b3415610b4557600080fd5b610bb9600480803590602001909190803573ffffffffffffffffffffffffffffffffffffffff16906020019091908035906020019091908035906020019091908035906020019091908035906020019091908035906020019091908035906020019091908035906020019091905050613726565b005b3415610bc657600080fd5b610bff60048080356000191690602001909190803573ffffffffffffffffffffffffffffffffffffffff169060200190919050506138b2565b604051808215151515815260200191505060405180910390f35b3415610c2457600080fd5b610c2c6139d0565b6040518080602001828103825283818151815260200191508051906020019060200280838360005b83811015610c6f578082015181840152602081019050610c54565b505050509050019250505060405180910390f35b3415610c8e57600080fd5b610cc3600480803590602001909190803573ffffffffffffffffffffffffffffffffffffffff16906020019091905050613af6565b6040518080602001828103825283818151815260200191508051906020019060200280838360005b83811015610d06578082015181840152602081019050610ceb565b505050509050019250505060405180910390f35b3415610d2557600080fd5b610d63600480803573ffffffffffffffffffffffffffffffffffffffff16906020019091908035906020019091908035906020019091905050613cc0565b005b3415610d7057600080fd5b610da960048080356000191690602001909190803573ffffffffffffffffffffffffffffffffffffffff16906020019091905050613da7565b005b3415610db657600080fd5b610dd060048080356000191690602001909190505061430f565b005b3415610ddd57600080fd5b610e3a600480803590602001908201803590602001908080601f01602080910402602001604051908101604052809392919081815260200183838082843782019150505050505091908035600019169060200190919050506145e1565b005b3415610e4757600080fd5b610e4f6149ac565b604051808381526020018281526020019250505060405180910390f35b3415610e7757600080fd5b610ea3600480803573ffffffffffffffffffffffffffffffffffffffff16906020019091905050614a63565b6040518080602001828103825283818151815260200191508051906020019080838360005b83811015610ee3578082015181840152602081019050610ec8565b50505050905090810190601f168015610f105780820380516001836020036101000a031916815260200191505b509250505060405180910390f35b3415610f2957600080fd5b610f55600480803573ffffffffffffffffffffffffffffffffffffffff16906020019091905050614be2565b60405180806020018060200180602001848103845287818151815260200191508051906020019060200280838360005b83811015610fa0578082015181840152602081019050610f85565b50505050905001848103835286818151815260200191508051906020019060200280838360005b83811015610fe2578082015181840152602081019050610fc7565b50505050905001848103825285818151815260200191508051906020019060200280838360005b83811015611024578082015181840152602081019050611009565b50505050905001965050505050505060405180910390f35b341561104757600080fd5b611073600480803573ffffffffffffffffffffffffffffffffffffffff16906020019091905050615070565b005b600080600080600660009054906101000a900473ffffffffffffffffffffffffffffffffffffffff1673ffffffffffffffffffffffffffffffffffffffff163373ffffffffffffffffffffffffffffffffffffffff161415156110d757600080fd5b869350329250600360000160008573ffffffffffffffffffffffffffffffffffffffff1673ffffffffffffffffffffffffffffffffffffffff16815260200190815260200160002091506111296151c8565b85156112ef57600360000160008473ffffffffffffffffffffffffffffffffffffffff1673ffffffffffffffffffffffffffffffffffffffff168152602001908152602001600020600e01600060015481526020019081526020016000206007016000896000191660001916815260200190815260200160002060009054906101000a9050508160060180548060010182816111c591906152ef565b916000526020600020900160008a909190915090600019169055506001851415611205578160070160040160008154809291906001019190505550611227565b60028514156112265781600701600501600081548092919060010191905055505b5b8160070160050154826007016004015401606483600701600401540281151561124c57fe5b048260070160030181905550600360000160008473ffffffffffffffffffffffffffffffffffffffff1673ffffffffffffffffffffffffffffffffffffffff168152602001908152602001600020600e01600060015481526020019081526020016000206007016000896000191660001916815260200190815260200160002060009054906101000a900460ff16156112ea576112e9878661522f565b5b6113a5565b600090505b81600601805490508110156113a457816006018181548110151561131457fe5b90600052602060002090015460001916886000191614156113975781600601600183600601805490500381548110151561134a57fe5b906000526020600020900154826006018281548110151561136757fe5b9060005260206000209001816000191690555081600601805480919060019003611391919061531b565b506113a4565b80806001019150506112f4565b5b5050505050505050565b600760009054906101000a900473ffffffffffffffffffffffffffffffffffffffff1673ffffffffffffffffffffffffffffffffffffffff163373ffffffffffffffffffffffffffffffffffffffff1614151561140b57600080fd5b80600660006101000a81548173ffffffffffffffffffffffffffffffffffffffff021916908373ffffffffffffffffffffffffffffffffffffffff16021790555050565b600660009054906101000a900473ffffffffffffffffffffffffffffffffffffffff1673ffffffffffffffffffffffffffffffffffffffff163373ffffffffffffffffffffffffffffffffffffffff1614806114d657503273ffffffffffffffffffffffffffffffffffffffff163373ffffffffffffffffffffffffffffffffffffffff16145b15156114e157600080fd5b73__MigrationLib__________________________639b22613e6003635d77438488888888886040518863ffffffff167c0100000000000000000000000000000000000000000000000000000000028152600401808881526020018781526020018673ffffffffffffffffffffffffffffffffffffffff1673ffffffffffffffffffffffffffffffffffffffff16815260200180602001806020018060200180602001858103855289818151815260200191508051906020019060200280838360005b838110156115bf5780820151818401526020810190506115a4565b50505050905001858103845288818151815260200191508051906020019060200280838360005b838110156116015780820151818401526020810190506115e6565b50505050905001858103835287818151815260200191508051906020019060200280838360005b83811015611643578082015181840152602081019050611628565b50505050905001858103825286818151815260200191508051906020019060200280838360005b8381101561168557808201518184015260208101905061166a565b505050509050019b50505050505050505050505060006040518083038186803b15156116b057600080fd5b5af415156116bd57600080fd5b5050505050505050565b600080600660009054906101000a900473ffffffffffffffffffffffffffffffffffffffff1673ffffffffffffffffffffffffffffffffffffffff163373ffffffffffffffffffffffffffffffffffffffff16148061175157503273ffffffffffffffffffffffffffffffffffffffff163373ffffffffffffffffffffffffffffffffffffffff16145b151561175c57600080fd5b83156117fd57600360000160008673ffffffffffffffffffffffffffffffffffffffff1673ffffffffffffffffffffffffffffffffffffffff16815260200190815260200160002060070160040154600360000160008773ffffffffffffffffffffffffffffffffffffffff1673ffffffffffffffffffffffffffffffffffffffff16815260200190815260200160002060070160050154915091506118bc565b600360000160008673ffffffffffffffffffffffffffffffffffffffff1673ffffffffffffffffffffffffffffffffffffffff168152602001908152602001600020600e01600084815260200190815260200160002060000160040154600360000160008773ffffffffffffffffffffffffffffffffffffffff1673ffffffffffffffffffffffffffffffffffffffff168152602001908152602001600020600e01600085815260200190815260200160002060000160050154915091505b935093915050565b600080600660009054906101000a900473ffffffffffffffffffffffffffffffffffffffff1673ffffffffffffffffffffffffffffffffffffffff163373ffffffffffffffffffffffffffffffffffffffff16148061194e57503273ffffffffffffffffffffffffffffffffffffffff163373ffffffffffffffffffffffffffffffffffffffff16145b151561195957600080fd5b60046000016000846000191660001916815260200190815260200160002060009054906101000a900473ffffffffffffffffffffffffffffffffffffffff16905080915050919050565b600080600080600660009054906101000a900473ffffffffffffffffffffffffffffffffffffffff1673ffffffffffffffffffffffffffffffffffffffff163373ffffffffffffffffffffffffffffffffffffffff161480611a3057503273ffffffffffffffffffffffffffffffffffffffff163373ffffffffffffffffffffffffffffffffffffffff16145b1515611a3b57600080fd5b32925060009150600090505b600360000160008473ffffffffffffffffffffffffffffffffffffffff1673ffffffffffffffffffffffffffffffffffffffff16815260200190815260200160002060060180549050811015611b16578460001916600360000160008573ffffffffffffffffffffffffffffffffffffffff1673ffffffffffffffffffffffffffffffffffffffff16815260200190815260200160002060060182815481101515611aee57fe5b906000526020600020900154600019161415611b0957600191505b8080600101915050611a47565b819350505050919050565b600660009054906101000a900473ffffffffffffffffffffffffffffffffffffffff1673ffffffffffffffffffffffffffffffffffffffff163373ffffffffffffffffffffffffffffffffffffffff161480611ba857503273ffffffffffffffffffffffffffffffffffffffff163373ffffffffffffffffffffffffffffffffffffffff16145b1515611bb357600080fd5b73__MigrationLib__________________________63b603f50f6003635d7743848686866040518663ffffffff167c0100000000000000000000000000000000000000000000000000000000028152600401808681526020018581526020018481526020018373ffffffffffffffffffffffffffffffffffffffff1673ffffffffffffffffffffffffffffffffffffffff16815260200180602001828103825283818151815260200191508051906020019060200280838360005b83811015611c89578082015181840152602081019050611c6e565b50505050905001965050505050505060006040518083038186803b1515611caf57600080fd5b5af41515611cbc57600080fd5b505050505050565b611ccc615347565b600660009054906101000a900473ffffffffffffffffffffffffffffffffffffffff1673ffffffffffffffffffffffffffffffffffffffff163373ffffffffffffffffffffffffffffffffffffffff161480611d5357503273ffffffffffffffffffffffffffffffffffffffff163373ffffffffffffffffffffffffffffffffffffffff16145b1515611d5e57600080fd5b600360000160008373ffffffffffffffffffffffffffffffffffffffff1673ffffffffffffffffffffffffffffffffffffffff168152602001908152602001600020600601805480602002602001604051908101604052809291908181526020018280548015611df157602002820191906000526020600020905b81546000191681526020019060010190808311611dd9575b50505050509050919050565b600660009054906101000a900473ffffffffffffffffffffffffffffffffffffffff1673ffffffffffffffffffffffffffffffffffffffff163373ffffffffffffffffffffffffffffffffffffffff161480611e8457503273ffffffffffffffffffffffffffffffffffffffff163373ffffffffffffffffffffffffffffffffffffffff16145b1515611e8f57600080fd5b73__MigrationLib__________________________63e3212ed5600560036004635d7743848e8e8e8e8e8e8e8e8e6040518e63ffffffff167c0100000000000000000000000000000000000000000000000000000000028152600401808e81526020018d81526020018c81526020018b815260200180602001806020018a73ffffffffffffffffffffffffffffffffffffffff1673ffffffffffffffffffffffffffffffffffffffff16815260200189815260200188815260200187815260200186815260200185815260200184815260200183810383528c818151815260200191508051906020019080838360005b83811015611f9a578082015181840152602081019050611f7f565b50505050905090810190601f168015611fc75780820380516001836020036101000a031916815260200191505b5083810382528b818151815260200191508051906020019080838360005b83811015612000578082015181840152602081019050611fe5565b50505050905090810190601f16801561202d5780820380516001836020036101000a031916815260200191505b509f5050505050505050505050505050505060006040518083038186803b151561205657600080fd5b5af4151561206357600080fd5b505050505050505050505050565b61207961535b565b61208161535b565b600080600080600061209161536f565b600660009054906101000a900473ffffffffffffffffffffffffffffffffffffffff1673ffffffffffffffffffffffffffffffffffffffff163373ffffffffffffffffffffffffffffffffffffffff16148061211857503273ffffffffffffffffffffffffffffffffffffffff163373ffffffffffffffffffffffffffffffffffffffff16145b151561212357600080fd5b600360000160008a73ffffffffffffffffffffffffffffffffffffffff1673ffffffffffffffffffffffffffffffffffffffff1681526020019081526020016000206101006040519081016040529081600082018054600181600116156101000203166002900480601f01602080910402602001604051908101604052809291908181526020018280546001816001161561010002031660029004801561220b5780601f106121e05761010080835404028352916020019161220b565b820191906000526020600020905b8154815290600101906020018083116121ee57829003601f168201915b50505050508152602001600182018054600181600116156101000203166002900480601f0160208091040260200160405190810160405280929190818152602001828054600181600116156101000203166002900480156122ad5780601f10612282576101008083540402835291602001916122ad565b820191906000526020600020905b81548152906001019060200180831161229057829003601f168201915b505050505081526020016002820160009054906101000a900473ffffffffffffffffffffffffffffffffffffffff1673ffffffffffffffffffffffffffffffffffffffff1673ffffffffffffffffffffffffffffffffffffffff1681526020016003820180548060200260200160405190810160405280929190818152602001828054801561235f57602002820191906000526020600020905b81546000191681526020019060010190808311612347575b50505050508152602001600482018054806020026020016040519081016040528092919081815260200182805480156123bb57602002820191906000526020600020905b815460001916815260200190600101908083116123a3575b505050505081526020016005820180548060200260200160405190810160405280929190818152602001828054801561241757602002820191906000526020600020905b815460001916815260200190600101908083116123ff575b505050505081526020016006820180548060200260200160405190810160405280929190818152602001828054801561247357602002820191906000526020600020905b8154600019168152602001906001019080831161245b575b505050505081526020016007820160e06040519081016040529081600082015481526020016001820154815260200160028201548152602001600382015481526020016004820154815260200160058201548152602001600682015481525050815250509050806000015181602001518260800151518360a00151518460600151518560e00151600001518660e0015160600151869650859550975097509750975097509750975050919395979092949650565b600080600080600660009054906101000a900473ffffffffffffffffffffffffffffffffffffffff1673ffffffffffffffffffffffffffffffffffffffff163373ffffffffffffffffffffffffffffffffffffffff1614806125b457503273ffffffffffffffffffffffffffffffffffffffff163373ffffffffffffffffffffffffffffffffffffffff16145b15156125bf57600080fd5b329350846040518082805190602001908083835b6020831015156125f857805182526020820191506020810190506020830392506125d3565b6001836020036101000a038019825116818451168082178552505050505050905001915050604051809103902092506000600360000160008673ffffffffffffffffffffffffffffffffffffffff1673ffffffffffffffffffffffffffffffffffffffff1681526020019081526020016000206000018054600181600116156101000203166002900490501480156126e957506000600360000160008673ffffffffffffffffffffffffffffffffffffffff1673ffffffffffffffffffffffffffffffffffffffff168152602001908152602001600020600101805460018160011615610100020316600290049050145b1561286c57600360000160008573ffffffffffffffffffffffffffffffffffffffff1673ffffffffffffffffffffffffffffffffffffffff16815260200190815260200160002091508582600001908051906020019061274a9291906153f5565b50848260010190805190602001906127639291906153f5565b50838260020160006101000a81548173ffffffffffffffffffffffffffffffffffffffff021916908373ffffffffffffffffffffffffffffffffffffffff1602179055508360046000016000856000191660001916815260200190815260200160002060006101000a81548173ffffffffffffffffffffffffffffffffffffffff021916908373ffffffffffffffffffffffffffffffffffffffff160217905550600580548060010182816128189190615475565b9160005260206000209001600086909190916101000a81548173ffffffffffffffffffffffffffffffffffffffff021916908373ffffffffffffffffffffffffffffffffffffffff16021790555050612af8565b600360000160008573ffffffffffffffffffffffffffffffffffffffff1673ffffffffffffffffffffffffffffffffffffffff168152602001908152602001600020600101604051808280546001816001161561010002031660029004801561290c5780601f106128ea57610100808354040283529182019161290c565b820191906000526020600020905b8154815290600101906020018083116128f8575b505091505060405180910390209050806000191683600019161415612a9d57600073ffffffffffffffffffffffffffffffffffffffff1660046000016000856000191660001916815260200190815260200160002060009054906101000a900473ffffffffffffffffffffffffffffffffffffffff1673ffffffffffffffffffffffffffffffffffffffff161415156129a457600080fd5b60046000016000826000191660001916815260200190815260200160002060006101000a81549073ffffffffffffffffffffffffffffffffffffffff021916905584600360000160008673ffffffffffffffffffffffffffffffffffffffff1673ffffffffffffffffffffffffffffffffffffffff1681526020019081526020016000206001019080519060200190612a3e9291906153f5565b508360046000016000856000191660001916815260200190815260200160002060006101000a81548173ffffffffffffffffffffffffffffffffffffffff021916908373ffffffffffffffffffffffffffffffffffffffff1602179055505b85600360000160008673ffffffffffffffffffffffffffffffffffffffff1673ffffffffffffffffffffffffffffffffffffffff1681526020019081526020016000206000019080519060200190612af69291906153f5565b505b7f352ab20050877eafaf7fe3110fc72725dd9a1e7b9d7028b1cc4fd59839626908868560405180806020018373ffffffffffffffffffffffffffffffffffffffff1673ffffffffffffffffffffffffffffffffffffffff168152602001828103825284818151815260200191508051906020019080838360005b83811015612b8d578082015181840152602081019050612b72565b50505050905090810190601f168015612bba5780820380516001836020036101000a031916815260200191505b50935050505060405180910390a1505050505050565b612bd861535b565b600080612be361535b565b6000806000806000612bf361536f565b612bfb6154a1565b600660009054906101000a900473ffffffffffffffffffffffffffffffffffffffff1673ffffffffffffffffffffffffffffffffffffffff163373ffffffffffffffffffffffffffffffffffffffff161480612c8257503273ffffffffffffffffffffffffffffffffffffffff163373ffffffffffffffffffffffffffffffffffffffff16145b1515612c8d57600080fd5b600360000160008e73ffffffffffffffffffffffffffffffffffffffff1673ffffffffffffffffffffffffffffffffffffffff1681526020019081526020016000206101006040519081016040529081600082018054600181600116156101000203166002900480601f016020809104026020016040519081016040528092919081815260200182805460018160011615610100020316600290048015612d755780601f10612d4a57610100808354040283529160200191612d75565b820191906000526020600020905b815481529060010190602001808311612d5857829003601f168201915b50505050508152602001600182018054600181600116156101000203166002900480601f016020809104026020016040519081016040528092919081815260200182805460018160011615610100020316600290048015612e175780601f10612dec57610100808354040283529160200191612e17565b820191906000526020600020905b815481529060010190602001808311612dfa57829003601f168201915b505050505081526020016002820160009054906101000a900473ffffffffffffffffffffffffffffffffffffffff1673ffffffffffffffffffffffffffffffffffffffff1673ffffffffffffffffffffffffffffffffffffffff16815260200160038201805480602002602001604051908101604052809291908181526020018280548015612ec957602002820191906000526020600020905b81546000191681526020019060010190808311612eb1575b5050505050815260200160048201805480602002602001604051908101604052809291908181526020018280548015612f2557602002820191906000526020600020905b81546000191681526020019060010190808311612f0d575b5050505050815260200160058201805480602002602001604051908101604052809291908181526020018280548015612f8157602002820191906000526020600020905b81546000191681526020019060010190808311612f69575b5050505050815260200160068201805480602002602001604051908101604052809291908181526020018280548015612fdd57602002820191906000526020600020905b81546000191681526020019060010190808311612fc5575b505050505081526020016007820160e06040519081016040529081600082015481526020016001820154815260200160028201548152602001600382015481526020016004820154815260200160058201548152602001600682015481525050815250509150600360000160008e73ffffffffffffffffffffffffffffffffffffffff1673ffffffffffffffffffffffffffffffffffffffff168152602001908152602001600020600e0160008d81526020019081526020016000206040805190810160405290816000820160e0604051908101604052908160008201548152602001600182015481526020016002820154815260200160038201548152602001600482015481526020016005820154815260200160068201548152505081526020016008820180548060200260200160405190810160405280929190818152602001828054801561315257602002820191906000526020600020905b8154600019168152602001906001019080831161313a575b505050505081525050905081602001518160000151600001518260000151604001518460000151846000015160600151856020015151866000015160c0015188604001518860000151602001518898508595509a509a509a509a509a509a509a509a509a5050509295985092959850929598565b6131ce61535b565b6000806131d961535b565b6000806000806131e761536f565b600660009054906101000a900473ffffffffffffffffffffffffffffffffffffffff1673ffffffffffffffffffffffffffffffffffffffff163373ffffffffffffffffffffffffffffffffffffffff16148061326e57503273ffffffffffffffffffffffffffffffffffffffff163373ffffffffffffffffffffffffffffffffffffffff16145b151561327957600080fd5b600360000160008b73ffffffffffffffffffffffffffffffffffffffff1673ffffffffffffffffffffffffffffffffffffffff1681526020019081526020016000206101006040519081016040529081600082018054600181600116156101000203166002900480601f0160208091040260200160405190810160405280929190818152602001828054600181600116156101000203166002900480156133615780601f1061333657610100808354040283529160200191613361565b820191906000526020600020905b81548152906001019060200180831161334457829003601f168201915b50505050508152602001600182018054600181600116156101000203166002900480601f0160208091040260200160405190810160405280929190818152602001828054600181600116156101000203166002900480156134035780601f106133d857610100808354040283529160200191613403565b820191906000526020600020905b8154815290600101906020018083116133e657829003601f168201915b505050505081526020016002820160009054906101000a900473ffffffffffffffffffffffffffffffffffffffff1673ffffffffffffffffffffffffffffffffffffffff1673ffffffffffffffffffffffffffffffffffffffff168152602001600382018054806020026020016040519081016040528092919081815260200182805480156134b557602002820191906000526020600020905b8154600019168152602001906001019080831161349d575b505050505081526020016004820180548060200260200160405190810160405280929190818152602001828054801561351157602002820191906000526020600020905b815460001916815260200190600101908083116134f9575b505050505081526020016005820180548060200260200160405190810160405280929190818152602001828054801561356d57602002820191906000526020600020905b81546000191681526020019060010190808311613555575b50505050508152602001600682018054806020026020016040519081016040528092919081815260200182805480156135c957602002820191906000526020600020905b815460001916815260200190600101908083116135b1575b505050505081526020016007820160e0604051908101604052908160008201548152602001600182015481526020016002820154815260200160038201548152602001600482015481526020016005820154815260200160068201548152505081525050905080602001518160e00151600001518260e001516040015183600001518460e001516060015185606001515186608001515187604001518797508494509850985098509850985098509850985050919395975091939597565b6000600660009054906101000a900473ffffffffffffffffffffffffffffffffffffffff1673ffffffffffffffffffffffffffffffffffffffff163373ffffffffffffffffffffffffffffffffffffffff16148061371057503273ffffffffffffffffffffffffffffffffffffffff163373ffffffffffffffffffffffffffffffffffffffff16145b151561371b57600080fd5b600580549050905090565b600660009054906101000a900473ffffffffffffffffffffffffffffffffffffffff1673ffffffffffffffffffffffffffffffffffffffff163373ffffffffffffffffffffffffffffffffffffffff1614806137ad57503273ffffffffffffffffffffffffffffffffffffffff163373ffffffffffffffffffffffffffffffffffffffff16145b15156137b857600080fd5b73__MigrationLib__________________________63c63ddf0660038b8b8b8b8b8b8b8b8b6040518b63ffffffff167c0100000000000000000000000000000000000000000000000000000000028152600401808b81526020018a81526020018973ffffffffffffffffffffffffffffffffffffffff1673ffffffffffffffffffffffffffffffffffffffff1681526020018881526020018781526020018681526020018581526020018481526020018381526020018281526020019a505050505050505050505060006040518083038186803b151561389757600080fd5b5af415156138a457600080fd5b505050505050505050505050565b6000600660009054906101000a900473ffffffffffffffffffffffffffffffffffffffff1673ffffffffffffffffffffffffffffffffffffffff163373ffffffffffffffffffffffffffffffffffffffff16148061393b57503273ffffffffffffffffffffffffffffffffffffffff163373ffffffffffffffffffffffffffffffffffffffff16145b151561394657600080fd5b600360000160008373ffffffffffffffffffffffffffffffffffffffff1673ffffffffffffffffffffffffffffffffffffffff168152602001908152602001600020600e01600060015481526020019081526020016000206007016000846000191660001916815260200190815260200160002060009054906101000a900460ff16905092915050565b6139d86154c9565b600660009054906101000a900473ffffffffffffffffffffffffffffffffffffffff1673ffffffffffffffffffffffffffffffffffffffff163373ffffffffffffffffffffffffffffffffffffffff161480613a5f57503273ffffffffffffffffffffffffffffffffffffffff163373ffffffffffffffffffffffffffffffffffffffff16145b1515613a6a57600080fd5b6005805480602002602001604051908101604052809291908181526020018280548015613aec57602002820191906000526020600020905b8160009054906101000a900473ffffffffffffffffffffffffffffffffffffffff1673ffffffffffffffffffffffffffffffffffffffff1681526020019060010190808311613aa2575b5050505050905090565b613afe615347565b613b066154a1565b600660009054906101000a900473ffffffffffffffffffffffffffffffffffffffff1673ffffffffffffffffffffffffffffffffffffffff163373ffffffffffffffffffffffffffffffffffffffff161480613b8d57503273ffffffffffffffffffffffffffffffffffffffff163373ffffffffffffffffffffffffffffffffffffffff16145b1515613b9857600080fd5b600360000160008473ffffffffffffffffffffffffffffffffffffffff1673ffffffffffffffffffffffffffffffffffffffff168152602001908152602001600020600e0160008581526020019081526020016000206040805190810160405290816000820160e06040519081016040529081600082015481526020016001820154815260200160028201548152602001600382015481526020016004820154815260200160058201548152602001600682015481525050815260200160088201805480602002602001604051908101604052809291908181526020018280548015613ca757602002820191906000526020600020905b81546000191681526020019060010190808311613c8f575b5050505050815250509050806020015191505092915050565b600069ffffffffffffffffffff16600660009054906101000a900473ffffffffffffffffffffffffffffffffffffffff1673ffffffffffffffffffffffffffffffffffffffff16141515613d1357600080fd5b826000806101000a81548173ffffffffffffffffffffffffffffffffffffffff021916908373ffffffffffffffffffffffffffffffffffffffff16021790555082600660006101000a81548173ffffffffffffffffffffffffffffffffffffffff021916908373ffffffffffffffffffffffffffffffffffffffff1602179055508160018190555080600281905550505050565b6000806000806000600660009054906101000a900473ffffffffffffffffffffffffffffffffffffffff1673ffffffffffffffffffffffffffffffffffffffff163373ffffffffffffffffffffffffffffffffffffffff16141515613e0b57600080fd5b3294508573ffffffffffffffffffffffffffffffffffffffff16600360000160008873ffffffffffffffffffffffffffffffffffffffff1673ffffffffffffffffffffffffffffffffffffffff16815260200190815260200160002060020160009054906101000a900473ffffffffffffffffffffffffffffffffffffffff1673ffffffffffffffffffffffffffffffffffffffff16148015613f3e57508473ffffffffffffffffffffffffffffffffffffffff16600360000160008773ffffffffffffffffffffffffffffffffffffffff1673ffffffffffffffffffffffffffffffffffffffff16815260200190815260200160002060020160009054906101000a900473ffffffffffffffffffffffffffffffffffffffff1673ffffffffffffffffffffffffffffffffffffffff16145b1515613f4957600080fd5b613f516151c8565b600360000160008773ffffffffffffffffffffffffffffffffffffffff1673ffffffffffffffffffffffffffffffffffffffff168152602001908152602001600020935083600e016000600154815260200190815260200160002092508360070160020160008154809291906001019190505550600360000160008673ffffffffffffffffffffffffffffffffffffffff1673ffffffffffffffffffffffffffffffffffffffff1681526020019081526020016000209150600090505b81600501805490508110156140be57816005018181548110151561402e57fe5b90600052602060002090015460001916876000191614156140b15781600501600183600501805490500381548110151561406457fe5b906000526020600020900154826005018281548110151561408157fe5b90600052602060002090018160001916905550816005018054809190600190036140ab919061531b565b506140be565b808060010191505061400e565b600360000160008673ffffffffffffffffffffffffffffffffffffffff1673ffffffffffffffffffffffffffffffffffffffff168152602001908152602001600020600401805480600101828161411591906152ef565b916000526020600020900160008990919091509060001916905550826007016000886000191660001916815260200190815260200160002060009054906101000a900460ff16156142945782600001600201600081548092919060010191905055506000809054906101000a900473ffffffffffffffffffffffffffffffffffffffff1673ffffffffffffffffffffffffffffffffffffffff16638babbaeb88856000016000015486600001600101546040518463ffffffff167c010000000000000000000000000000000000000000000000000000000002815260040180846000191660001916815260200183815260200182815260200193505050506040805180830381600087803b151561422b57600080fd5b5af1151561423857600080fd5b5050506040518051906020018051905084600001600001600086600001600101600084919050558391905055505081600e0160006001548152602001908152602001600020600001600601600081548092919060010191905055505b7fa05df6b8cf7a13c906834fc84584aad390dd7873693cd544dbca447b1acf466a858360040180549050604051808373ffffffffffffffffffffffffffffffffffffffff1673ffffffffffffffffffffffffffffffffffffffff1681526020018281526020019250505060405180910390a150505050505050565b600080600080600660009054906101000a900473ffffffffffffffffffffffffffffffffffffffff1673ffffffffffffffffffffffffffffffffffffffff163373ffffffffffffffffffffffffffffffffffffffff1614151561437157600080fd5b32935060009250600091505b600360000160008573ffffffffffffffffffffffffffffffffffffffff1673ffffffffffffffffffffffffffffffffffffffff16815260200190815260200160002060030180549050821015614450578460001916600360000160008673ffffffffffffffffffffffffffffffffffffffff1673ffffffffffffffffffffffffffffffffffffffff1681526020019081526020016000206003018381548110151561442457fe5b9060005260206000209001546000191614156144435760019250614450565b818060010192505061437d565b8215156145da57600360000160008573ffffffffffffffffffffffffffffffffffffffff1673ffffffffffffffffffffffffffffffffffffffff16815260200190815260200160002090508060030180548060010182816144b191906152ef565b9160005260206000209001600087909190915090600019169055506144d46151c8565b80600e0160006001548152602001908152602001600020600801805480600101828161450091906152ef565b916000526020600020900160008790919091509060001916905550600181600e01600060015481526020019081526020016000206007016000876000191660001916815260200190815260200160002060006101000a81548160ff0219169083151502179055507f9a6cc1de297d644311ea73fdd0248b8983031f5c9a6cd92269c787697896144f848260030180549050604051808373ffffffffffffffffffffffffffffffffffffffff1673ffffffffffffffffffffffffffffffffffffffff1681526020018281526020019250505060405180910390a15b5050505050565b600080600080600080600660009054906101000a900473ffffffffffffffffffffffffffffffffffffffff1673ffffffffffffffffffffffffffffffffffffffff163373ffffffffffffffffffffffffffffffffffffffff1614151561464657600080fd5b876040518082805190602001908083835b60208310151561467c5780518252602082019150602081019050602083039250614657565b6001836020036101000a038019825116818451168082178552505050505050905001915050604051809103902095503294506146b7876118c4565b9350600073ffffffffffffffffffffffffffffffffffffffff168473ffffffffffffffffffffffffffffffffffffffff16141515156146f557600080fd5b60009250600360000160008573ffffffffffffffffffffffffffffffffffffffff1673ffffffffffffffffffffffffffffffffffffffff168152602001908152602001600020600601805480600101828161475091906152ef565b916000526020600020900160008890919091509060001916905550600091505b600360000160008673ffffffffffffffffffffffffffffffffffffffff1673ffffffffffffffffffffffffffffffffffffffff16815260200190815260200160002060030180549050821015614843578560001916600360000160008773ffffffffffffffffffffffffffffffffffffffff1673ffffffffffffffffffffffffffffffffffffffff1681526020019081526020016000206003018381548110151561481757fe5b9060005260206000209001546000191614156148365760019250614843565b8180600101925050614770565b60009050600091505b600360000160008573ffffffffffffffffffffffffffffffffffffffff1673ffffffffffffffffffffffffffffffffffffffff1681526020019081526020016000206005018054905082101561491f578560001916600360000160008673ffffffffffffffffffffffffffffffffffffffff1673ffffffffffffffffffffffffffffffffffffffff168152602001908152602001600020600501838154811015156148f357fe5b906000526020600020900154600019161415614912576001905061491f565b818060010192505061484c565b8015801561492a5750825b156149a257600360000160008573ffffffffffffffffffffffffffffffffffffffff1673ffffffffffffffffffffffffffffffffffffffff168152602001908152602001600020600501805480600101828161498691906152ef565b9160005260206000209001600088909190915090600019169055505b5050505050505050565b600080600080600660009054906101000a900473ffffffffffffffffffffffffffffffffffffffff1673ffffffffffffffffffffffffffffffffffffffff163373ffffffffffffffffffffffffffffffffffffffff161480614a3957503273ffffffffffffffffffffffffffffffffffffffff163373ffffffffffffffffffffffffffffffffffffffff16145b1515614a4457600080fd5b6276a70060015402915081600254019050600154819350935050509091565b614a6b61535b565b600660009054906101000a900473ffffffffffffffffffffffffffffffffffffffff1673ffffffffffffffffffffffffffffffffffffffff163373ffffffffffffffffffffffffffffffffffffffff161480614af257503273ffffffffffffffffffffffffffffffffffffffff163373ffffffffffffffffffffffffffffffffffffffff16145b1515614afd57600080fd5b600360000160008373ffffffffffffffffffffffffffffffffffffffff1673ffffffffffffffffffffffffffffffffffffffff1681526020019081526020016000206000018054600181600116156101000203166002900480601f016020809104026020016040519081016040528092919081815260200182805460018160011615610100020316600290048015614bd65780601f10614bab57610100808354040283529160200191614bd6565b820191906000526020600020905b815481529060010190602001808311614bb957829003601f168201915b50505050509050919050565b614bea615347565b614bf2615347565b614bfa615347565b614c0261536f565b600660009054906101000a900473ffffffffffffffffffffffffffffffffffffffff1673ffffffffffffffffffffffffffffffffffffffff163373ffffffffffffffffffffffffffffffffffffffff161480614c8957503273ffffffffffffffffffffffffffffffffffffffff163373ffffffffffffffffffffffffffffffffffffffff16145b1515614c9457600080fd5b600360000160008673ffffffffffffffffffffffffffffffffffffffff1673ffffffffffffffffffffffffffffffffffffffff1681526020019081526020016000206101006040519081016040529081600082018054600181600116156101000203166002900480601f016020809104026020016040519081016040528092919081815260200182805460018160011615610100020316600290048015614d7c5780601f10614d5157610100808354040283529160200191614d7c565b820191906000526020600020905b815481529060010190602001808311614d5f57829003601f168201915b50505050508152602001600182018054600181600116156101000203166002900480601f016020809104026020016040519081016040528092919081815260200182805460018160011615610100020316600290048015614e1e5780601f10614df357610100808354040283529160200191614e1e565b820191906000526020600020905b815481529060010190602001808311614e0157829003601f168201915b505050505081526020016002820160009054906101000a900473ffffffffffffffffffffffffffffffffffffffff1673ffffffffffffffffffffffffffffffffffffffff1673ffffffffffffffffffffffffffffffffffffffff16815260200160038201805480602002602001604051908101604052809291908181526020018280548015614ed057602002820191906000526020600020905b81546000191681526020019060010190808311614eb8575b5050505050815260200160048201805480602002602001604051908101604052809291908181526020018280548015614f2c57602002820191906000526020600020905b81546000191681526020019060010190808311614f14575b5050505050815260200160058201805480602002602001604051908101604052809291908181526020018280548015614f8857602002820191906000526020600020905b81546000191681526020019060010190808311614f70575b5050505050815260200160068201805480602002602001604051908101604052809291908181526020018280548015614fe457602002820191906000526020600020905b81546000191681526020019060010190808311614fcc575b505050505081526020016007820160e060405190810160405290816000820154815260200160018201548152602001600282015481526020016003820154815260200160048201548152602001600582015481526020016006820154815250508152505090508060a0015181608001518260600151829250819150809050935093509350509193909250565b600760009054906101000a900473ffffffffffffffffffffffffffffffffffffffff1673ffffffffffffffffffffffffffffffffffffffff163373ffffffffffffffffffffffffffffffffffffffff161415156150cc57600080fd5b600073ffffffffffffffffffffffffffffffffffffffff168173ffffffffffffffffffffffffffffffffffffffff161415151561510857600080fd5b8073ffffffffffffffffffffffffffffffffffffffff16600760009054906101000a900473ffffffffffffffffffffffffffffffffffffffff1673ffffffffffffffffffffffffffffffffffffffff167f8be0079c531659141344cd1fd0a4f28419497f9722a3daafe3b4186f6b6457e060405160405180910390a380600760006101000a81548173ffffffffffffffffffffffffffffffffffffffff021916908373ffffffffffffffffffffffffffffffffffffffff16021790555050565b60006276a700600154026002540190508042111561522c576001600081548092919060010191905055507f0642eb39e815bb6d523156e9d708a547bb70ab6b00e8ab0a2b999ecab305190c6001546040518082815260200191505060405180910390a15b50565b6000600360000160008473ffffffffffffffffffffffffffffffffffffffff1673ffffffffffffffffffffffffffffffffffffffff168152602001908152602001600020600e0160006001548152602001908152602001600020600001905060018214156152b05780600401600081548092919060010191905055506152c5565b80600501600081548092919060010191905055505b806005015481600401540160648260040154028115156152e157fe5b048160030181905550505050565b8154818355818115116153165781836000526020600020918201910161531591906154dd565b5b505050565b8154818355818115116153425781836000526020600020918201910161534191906154dd565b5b505050565b602060405190810160405280600081525090565b602060405190810160405280600081525090565b6101c060405190810160405280615384615502565b8152602001615391615502565b8152602001600073ffffffffffffffffffffffffffffffffffffffff1681526020016153bb615516565b81526020016153c8615516565b81526020016153d5615516565b81526020016153e2615516565b81526020016153ef61552a565b81525090565b828054600181600116156101000203166002900490600052602060002090601f016020900481019282601f1061543657805160ff1916838001178555615464565b82800160010185558215615464579182015b82811115615463578251825591602001919060010190615448565b5b5090506154719190615568565b5090565b81548183558181151161549c5781836000526020600020918201910161549b9190615568565b5b505050565b610100604051908101604052806154b661552a565b81526020016154c3615516565b81525090565b602060405190810160405280600081525090565b6154ff91905b808211156154fb5760008160009055506001016154e3565b5090565b90565b602060405190810160405280600081525090565b602060405190810160405280600081525090565b60e060405190810160405280600081526020016000815260200160008152602001600081526020016000815260200160008152602001600081525090565b61558a91905b8082111561558657600081600090555060010161556e565b5090565b905600a165627a7a72305820386c25b3aa820a210b91f3ad9b74e80c6e8492ff4b4388ce366d421034ffdbc70029",
  "source": "pragma solidity 0.4.21;\nimport \"./Root.sol\";\n\nimport { MigrationLib } from \"./MigrationLib.sol\";\nimport { BrightModels } from \"./BrightModels.sol\";\n\ncontract Bright {\n    uint256 private constant FEEDBACK_MULTIPLER = 100;\n    uint256 private constant SEASON_LENGTH_SECS = 90 * 24 * 60 * 60;\n    uint256 private constant MIGRATION_END_TIMESTAMP = 1568097156;\n    Root private root;\n    uint256 private currentSeasonIndex;\n    uint256 private initialSeasonTimestamp;\n    BrightModels.HashUserMap private hashUserMap;\n    BrightModels.EmailUserMap private emailUserMap;\n    address[] private allUsersArray;\n\n    address private rootAddress;\n    address private owner;\n    \n    event UserProfileSetEvent (string name, address hash);\n    event UserNewCommit (address userHash, uint256 numberOfCommits);\n    event UserNewReview (address userHash, uint256 numberOfReviews);\n    event OwnershipTransferred(address indexed previousOwner, address indexed newOwner);\n    event SeasonEnds (uint256 currentSeason);\n\n    function Bright() public {\n        owner = msg.sender;\n    }\n\n    modifier onlyOwner() {\n        require(msg.sender == owner);\n        _;\n    }\n\n    modifier onlyRoot() {\n        require(msg.sender == rootAddress);\n        _;\n    }\n\n    modifier onlyDapp() {\n        require (msg.sender == rootAddress || msg.sender == tx.origin);\n        _;\n    }\n\n    function init(address _root, uint256 seasonIndex, uint256 initialTimestamp) public {\n        require(rootAddress == uint80(0));\n        root = Root(_root);\n        rootAddress = _root;\n        currentSeasonIndex = seasonIndex;\n        initialSeasonTimestamp = initialTimestamp;\n    }\n\n    function transferOwnership(address newOwner) public onlyOwner {\n        require(newOwner != address(0));\n        emit OwnershipTransferred(owner, newOwner);\n        owner = newOwner;\n    }\n\n    function setRootAddress(address a) public onlyOwner {\n        rootAddress = a;\n    }\n\n    function setProfile (string name, string email) public onlyDapp {\n        address user = tx.origin;\n        bytes32 emailId = keccak256(email);\n        if (bytes(hashUserMap.map[user].name).length == 0 && bytes(hashUserMap.map[user].email).length == 0){\n            BrightModels.UserProfile storage newUser = hashUserMap.map[user];\n            newUser.name = name;\n            newUser.email = email;\n            newUser.hash = user;\n            emailUserMap.map[emailId] = user;\n            allUsersArray.push(user);\n        } else {\n            bytes32 userEmail = keccak256(hashUserMap.map[user].email);\n            if(emailId == userEmail) {\n                require(emailUserMap.map[emailId] == address(0));\n                delete emailUserMap.map[userEmail];\n                hashUserMap.map[user].email = email;\n                emailUserMap.map[emailId] = user;\n            }\n            hashUserMap.map[user].name = name;\n        }\n        emit UserProfileSetEvent(name, user);\n    }\n\n    function getUsersAddress() public onlyDapp view returns (address[]) {\n        return allUsersArray;\n    }\n\n    function getAddressByEmail(bytes32 email) public onlyDapp view returns(address){\n        address a = emailUserMap.map[email];\n        return a;\n    }\n\n    function getUser (address userHash) public onlyDapp view returns (string, string, uint, uint, uint, uint256, uint256) {\n        BrightModels.UserProfile memory user = hashUserMap.map[userHash];\n        return (user.name,\n            user.email,\n            user.finishedReviews.length,\n            user.pendingReviews.length,\n            user.pendingCommits.length,\n            user.globalStats.reputation,\n            user.globalStats.agreedPercentage\n        );\n    }\n\n    function getUserSeasonReputation(address userHash, uint256 seasonIndex) public onlyDapp view returns(string, uint256, uint256, string, uint256, uint, uint256, address, uint256) {\n        BrightModels.UserProfile memory user = hashUserMap.map[userHash];\n        BrightModels.UserSeason memory season = hashUserMap.map[userHash].seasonData[seasonIndex];\n        return (user.email,\n            season.seasonStats.reputation,\n            season.seasonStats.numberOfTimesReview,\n            user.name,\n            season.seasonStats.agreedPercentage,\n            season.urlSeasonCommits.length,\n            season.seasonStats.reviewsMade,\n            user.hash,\n            season.seasonStats.cumulativeComplexity\n        );\n    }\n\n    function getUserGlobalReputation(address userHash) public onlyDapp view returns(string, uint256, uint256, string, uint256, uint, uint, address) {\n        BrightModels.UserProfile memory user = hashUserMap.map[userHash];\n        return (user.email,\n                user.globalStats.reputation,\n                user.globalStats.numberOfTimesReview,\n                user.name,\n                user.globalStats.agreedPercentage,\n                user.pendingCommits.length,\n                user.finishedReviews.length,\n                user.hash\n        );\n    }\n\n    function setCommit(bytes32 url) public onlyRoot {\n        address sender = tx.origin;\n        bool saved = false;\n        for (uint256 i = 0; i < hashUserMap.map[sender].pendingCommits.length; i++){\n            if(hashUserMap.map[sender].pendingCommits[i] == url){\n                saved = true;\n                break;\n            }\n        }\n        if(!saved){\n            BrightModels.UserProfile storage user = hashUserMap.map[sender];\n            user.pendingCommits.push(url);\n            checkSeason();\n            user.seasonData[currentSeasonIndex].urlSeasonCommits.push(url);\n            user.seasonData[currentSeasonIndex].seasonCommits[url] = true;\n            emit UserNewCommit(sender, user.pendingCommits.length);\n        }\n    }\n\n    function notifyCommit (string a, bytes32 email) public onlyRoot {\n        bytes32 url = keccak256(a);\n        address sender = tx.origin;\n        address user = getAddressByEmail(email);\n        require(user != address(0));\n        bool saved = false;\n        hashUserMap.map[user].toRead.push(url);\n        for (uint256 i = 0; i < hashUserMap.map[sender].pendingCommits.length; i++){\n            if(hashUserMap.map[sender].pendingCommits[i] == url){\n                saved = true;\n                break;\n            }\n        }\n        bool done = false;\n        for (i = 0; i < hashUserMap.map[user].pendingReviews.length; i++){\n            if(hashUserMap.map[user].pendingReviews[i] == url){\n                done = true;\n                break;\n            }\n        }\n        if (!done && saved){\n            hashUserMap.map[user].pendingReviews.push(url);\n        }\n    }\n\n    function getUserCommits(address userHash) public onlyDapp view returns(bytes32[], bytes32[], bytes32[]){\n        BrightModels.UserProfile memory user = hashUserMap.map[userHash];\n        return (user.pendingReviews,\n                user.finishedReviews,\n                user.pendingCommits\n        );\n    }\n\n    function getNumbers() public onlyDapp view returns(uint){\n        return allUsersArray.length;\n    }\n\n    function setReview(bytes32 url,address author) public onlyRoot {\n        address sender = tx.origin;\n        require(hashUserMap.map[author].hash == author && hashUserMap.map[sender].hash == sender);\n        checkSeason();\n        BrightModels.UserProfile storage user = hashUserMap.map[author];\n        BrightModels.UserSeason storage userSeason = user.seasonData[currentSeasonIndex];\n\n        user.globalStats.numberOfTimesReview ++;\n        \n        BrightModels.UserProfile storage reviewer = hashUserMap.map[sender];\n        for (uint256 j = 0 ; j < reviewer.pendingReviews.length; j++){\n            if (url == reviewer.pendingReviews[j]){\n                reviewer.pendingReviews[j] = reviewer.pendingReviews[reviewer.pendingReviews.length-1];\n                reviewer.pendingReviews.length--;\n                break;\n            }\n        }\n        hashUserMap.map[sender].finishedReviews.push(url);\n        if(userSeason.seasonCommits[url]) {\n            userSeason.seasonStats.numberOfTimesReview++;\n            (userSeason.seasonStats.reputation, userSeason.seasonStats.cumulativeComplexity) = root.calculateUserReputation(url, userSeason.seasonStats.reputation, userSeason.seasonStats.cumulativeComplexity);\n            reviewer.seasonData[currentSeasonIndex].seasonStats.reviewsMade++;\n        }\n        emit UserNewReview(sender, reviewer.finishedReviews.length);\n    }\n\n    function getUserName(address userHash) public onlyDapp view returns (string) {\n        return (hashUserMap.map[userHash].name);\n    }\n\n    function getFeedback(bytes32 url) public onlyDapp view returns (bool){\n        address sender = tx.origin;\n        bool read = false;\n        for (uint i = 0; i<hashUserMap.map[sender].toRead.length; i++){\n            if(hashUserMap.map[sender].toRead[i] == url){\n                read = true;\n            }\n        }\n        return read;\n    }\n\n    function setFeedback(bytes32 url, address user, bool value, uint256 vote) public onlyRoot{\n        address sender = user;\n        address maker = tx.origin;\n        BrightModels.UserProfile storage userMap = hashUserMap.map[sender];\n        checkSeason();\n        if(value){\n            hashUserMap.map[maker].seasonData[currentSeasonIndex].seasonCommits[url];\n            userMap.toRead.push(url);\n            if(vote == 1) {\n                userMap.globalStats.positeVotes++;\n            }\n            else if (vote == 2){\n                userMap.globalStats.negativeVotes++;\n            }\n            userMap.globalStats.agreedPercentage = (userMap.globalStats.positeVotes * FEEDBACK_MULTIPLER) / (userMap.globalStats.positeVotes + userMap.globalStats.negativeVotes);\n            if(hashUserMap.map[maker].seasonData[currentSeasonIndex].seasonCommits[url]) {\n                setSeasonFeedback(user, vote);\n            }\n        }\n        else{\n            for (uint256 i = 0 ; i < userMap.toRead.length; i++){\n                if (url == userMap.toRead[i]){\n                    userMap.toRead[i] = userMap.toRead[userMap.toRead.length - 1];\n                    userMap.toRead.length--;\n                    break;\n                }\n            }\n        }\n    }\n\n    function setSeasonFeedback(address user, uint256 vote) private {\n        BrightModels.UserStats storage season = hashUserMap.map[user].seasonData[currentSeasonIndex].seasonStats;\n        if(vote == 1){\n            season.positeVotes++;\n        } else {\n            season.negativeVotes++;\n        }\n        season.agreedPercentage = (season.positeVotes * FEEDBACK_MULTIPLER) / (season.positeVotes + season.negativeVotes);\n    }\n\n    function getToRead(address userHash) public onlyDapp view returns (bytes32[]) {\n        return (hashUserMap.map[userHash].toRead);\n    }\n\n    function getVotes(address userHash, bool global, uint256 indSeason) public onlyDapp view returns (uint, uint) {\n        if(global) {\n            return (hashUserMap.map[userHash].globalStats.positeVotes, hashUserMap.map[userHash].globalStats.negativeVotes);\n        } else {\n            return (hashUserMap.map[userHash].seasonData[indSeason].seasonStats.positeVotes, hashUserMap.map[userHash].seasonData[indSeason].seasonStats.negativeVotes);\n        }\n    }\n\n    function getCurrentSeason() public onlyDapp view returns (uint256, uint256) {\n        uint256 totalTimeSeasons = currentSeasonIndex * SEASON_LENGTH_SECS;\n        uint256 seasonFinaleTime = initialSeasonTimestamp + totalTimeSeasons;\n        return (currentSeasonIndex, seasonFinaleTime);\n    }\n\n    function getAllUserSeasonUrls(uint256 seasonIndex, address userAddr) public onlyDapp view returns (bytes32[]) {\n        BrightModels.UserSeason memory season = hashUserMap.map[userAddr].seasonData[seasonIndex];\n        return season.urlSeasonCommits;\n    }\n\n    function checkSeason() private {\n        uint256 seasonFinale = initialSeasonTimestamp + (currentSeasonIndex * SEASON_LENGTH_SECS);\n        if(block.timestamp > seasonFinale) {\n            currentSeasonIndex++;\n            emit SeasonEnds(currentSeasonIndex);\n        }\n    }\n    function checkCommitSeason(bytes32 url,address author) public onlyDapp view returns (bool) {\n        return hashUserMap.map[author].seasonData[currentSeasonIndex].seasonCommits[url];\n    }\n    \n    function setAllUserData(string name, string mail, address hash, uint256 perct, uint256 tmRw, uint256 pos, uint256 neg, uint256 rep, uint256 rev) public onlyDapp {\n        MigrationLib.setAllUserData(allUsersArray, hashUserMap, emailUserMap, MIGRATION_END_TIMESTAMP, name, mail,hash, perct, tmRw, pos, neg, rep, rev);\n    }\n\n    function setAllUserSeasonData(uint season, address userAddr, uint percentage, uint tmRw, uint posVotes, uint negVotes, uint reputation, uint rev, uint complexity) public onlyDapp {\n        MigrationLib.setAllUserSeasonData(hashUserMap, season, userAddr, percentage, tmRw, posVotes, negVotes, reputation, rev, complexity);\n    }\n\n    function setAllUserDataTwo(address h, bytes32[] pendCom,  bytes32[] finRev, bytes32[] pendRev, bytes32[] toRd) public onlyDapp { \n        MigrationLib.setAllUserDataTwo(hashUserMap, MIGRATION_END_TIMESTAMP, h, pendCom,  finRev, pendRev, toRd);\n    }\n\n    function setUrlsSeason(uint256 seasonIndex, address userAddr, bytes32[] urls) public onlyDapp {\n        MigrationLib.setUrlsSeason(hashUserMap, MIGRATION_END_TIMESTAMP, seasonIndex, userAddr, urls);\n    }\n}\n",
  "sourcePath": "/home/rdemera/brightbyte/contracts/Bright.sol",
  "compiler": {
    "name": "solc",
    "version": "0.4.21+commit.dfe3193c.Emscripten.clang"
  },
  "schemaVersion": "3.0.11",
  "updatedAt": "2019-09-06T09:37:03.308Z",
  "devdoc": {
    "methods": {}
  },
  "userdoc": {
    "methods": {}
  }
}