{
  "contractName": "Reputation",
  "abi": [
    {
      "constant": true,
      "inputs": [
        {
          "name": "cleanliness",
          "type": "uint256[]"
        },
        {
          "name": "complexity",
          "type": "uint256[]"
        },
        {
          "name": "revKnowledge",
          "type": "uint256[]"
        }
      ],
      "name": "calculateCommitPonderation",
      "outputs": [
        {
          "name": "",
          "type": "uint256"
        },
        {
          "name": "",
          "type": "uint256"
        }
      ],
      "payable": false,
      "stateMutability": "pure",
      "type": "function"
    },
    {
      "constant": true,
      "inputs": [
        {
          "name": "prevReputation",
          "type": "uint256"
        },
        {
          "name": "prevPonderation",
          "type": "uint256"
        },
        {
          "name": "commitScore",
          "type": "uint256"
        },
        {
          "name": "commitComplexity",
          "type": "uint256"
        },
        {
          "name": "prevScore",
          "type": "uint256"
        },
        {
          "name": "prevComplexity",
          "type": "uint256"
        }
      ],
      "name": "calculateUserReputation",
      "outputs": [
        {
          "name": "",
          "type": "uint256"
        },
        {
          "name": "",
          "type": "uint256"
        }
      ],
      "payable": false,
      "stateMutability": "pure",
      "type": "function"
    }
  ],
  "bytecode": "0x6060604052341561000f57600080fd5b61030f8061001e6000396000f30060606040526004361061004c576000357c0100000000000000000000000000000000000000000000000000000000900463ffffffff168063b44d1da014610051578063e2fd6e0914610146575b600080fd5b341561005c57600080fd5b61012960048080359060200190820180359060200190808060200260200160405190810160405280939291908181526020018383602002808284378201915050505050509190803590602001908201803590602001908080602002602001604051908101604052809392919081815260200183836020028082843782019150505050505091908035906020019082018035906020019080806020026020016040519081016040528093929190818152602001838360200280828437820191505050505050919050506101b1565b604051808381526020018281526020019250505060405180910390f35b341561015157600080fd5b6101946004808035906020019091908035906020019091908035906020019091908035906020019091908035906020019091908035906020019091905050610294565b604051808381526020018281526020019250505060405180910390f35b600080600080600080600080600095506000945060009350600092505b8a518310156102005788838151811015156101e557fe5b906020019060200201518401935082806001019350506101ce565b600091505b8a5182101561028057836103e88a8481518110151561022057fe5b906020019060200201510281151561023457fe5b049050808b8381518110151561024657fe5b906020019060200201510286019550808a8381518110151561026457fe5b9060200190602002015102850194508180600101925050610205565b858597509750505050505050935093915050565b60008060008060008789028688028b8d020301925087868b03019150816103e884028115156102bf57fe5b0490506103e8818115156102cf57fe5b0482945094505050509650969450505050505600a165627a7a72305820b44e2958a7912170f63b395b956ed78b53e460a1e8d3861acca5b3530270700a0029",
  "source": "pragma solidity 0.4.21;\n\ncontract Reputation {\n\n    uint256 private constant WEIGHT_FACTOR = 1000;\n    function calculateCommitPonderation(uint256[] cleanliness, uint256[] complexity, uint256[] revKnowledge) public pure returns (uint256, uint256) {\n        uint256 weightedCleanliness = 0;\n        uint256 complexityPonderation = 0;\n        uint256 totalKnowledge = 0;\n        for(uint j = 0; j < cleanliness.length; j++) {\n            totalKnowledge += revKnowledge[j];\n        }\n        for(uint i = 0; i < cleanliness.length; i++) {\n            uint256 userKnowledge = (uint256(revKnowledge[i]) * WEIGHT_FACTOR) / totalKnowledge;\n            weightedCleanliness += (cleanliness[i] * userKnowledge);\n            complexityPonderation += (complexity[i] * userKnowledge);\n        }\n        return (weightedCleanliness, complexityPonderation);\n    }\n\n    function calculateUserReputation(uint256 prevReputation, uint256 prevPonderation, uint256 commitScore, uint256 commitComplexity, uint256 prevScore, uint256 prevComplexity) public pure returns (uint256, uint256) {\n        uint256 num = (prevReputation * prevPonderation) - (prevScore * prevComplexity) + (commitScore * commitComplexity);\n        uint256 cumulativePonderation = prevPonderation - prevComplexity + commitComplexity;\n        uint256 reputation = (num * WEIGHT_FACTOR) / cumulativePonderation;\n        return (reputation/WEIGHT_FACTOR, cumulativePonderation);\n    }\n}\n",
  "sourcePath": "/home/agomez/Escritorio/quorum-websockets-example-master/contracts/Reputation.sol",
  "compiler": {
    "name": "solc",
    "version": "0.4.21+commit.dfe3193c.Emscripten.clang"
  },
  "schemaVersion": "3.0.11",
  "updatedAt": "2019-09-11T06:47:47.909Z",
  "devdoc": {
    "methods": {}
  },
  "userdoc": {
    "methods": {}
  }
}