{
  "contractName": "Bright",
  "abi": [
    {
      "constant": true,
      "inputs": [],
      "name": "owner",
      "outputs": [
        {
          "name": "",
          "type": "address"
        }
      ],
      "payable": false,
      "stateMutability": "view",
      "type": "function"
    },
    {
      "constant": true,
      "inputs": [
        {
          "name": "",
          "type": "address"
        }
      ],
      "name": "hashUserMap",
      "outputs": [
        {
          "name": "name",
          "type": "string"
        },
        {
          "name": "email",
          "type": "string"
        },
        {
          "name": "hash",
          "type": "address"
        },
        {
          "name": "numberCommitsReviewedbyMe",
          "type": "uint256"
        },
        {
          "name": "numberCommitsToReviewbyMe",
          "type": "uint256"
        },
        {
          "name": "numbermyCommits",
          "type": "uint256"
        }
      ],
      "payable": false,
      "stateMutability": "view",
      "type": "function"
    },
    {
      "constant": false,
      "inputs": [
        {
          "name": "newOwner",
          "type": "address"
        }
      ],
      "name": "transferOwnership",
      "outputs": [],
      "payable": false,
      "stateMutability": "nonpayable",
      "type": "function"
    },
    {
      "anonymous": false,
      "inputs": [
        {
          "indexed": false,
          "name": "name",
          "type": "string"
        },
        {
          "indexed": false,
          "name": "hash",
          "type": "address"
        }
      ],
      "name": "UserProfileSetEvent",
      "type": "event"
    },
    {
      "anonymous": false,
      "inputs": [
        {
          "indexed": true,
          "name": "previousOwner",
          "type": "address"
        },
        {
          "indexed": true,
          "name": "newOwner",
          "type": "address"
        }
      ],
      "name": "OwnershipTransferred",
      "type": "event"
    },
    {
      "constant": false,
      "inputs": [
        {
          "name": "_name",
          "type": "string"
        },
        {
          "name": "_email",
          "type": "string"
        }
      ],
      "name": "setProfile",
      "outputs": [],
      "payable": false,
      "stateMutability": "nonpayable",
      "type": "function"
    },
    {
      "constant": true,
      "inputs": [
        {
          "name": "_hash",
          "type": "address"
        }
      ],
      "name": "getUser",
      "outputs": [
        {
          "name": "",
          "type": "string"
        },
        {
          "name": "",
          "type": "string"
        },
        {
          "name": "",
          "type": "uint256"
        },
        {
          "name": "",
          "type": "uint256"
        },
        {
          "name": "",
          "type": "uint256"
        }
      ],
      "payable": false,
      "stateMutability": "view",
      "type": "function"
    },
    {
      "constant": false,
      "inputs": [
        {
          "name": "_id",
          "type": "string"
        },
        {
          "name": "_url",
          "type": "string"
        },
        {
          "name": "_project",
          "type": "string"
        },
        {
          "name": "_emailuser1",
          "type": "string"
        },
        {
          "name": "_emailuser2",
          "type": "string"
        },
        {
          "name": "_emailuser3",
          "type": "string"
        },
        {
          "name": "_emailuser4",
          "type": "string"
        }
      ],
      "name": "setNewCommit",
      "outputs": [],
      "payable": false,
      "stateMutability": "nonpayable",
      "type": "function"
    },
    {
      "constant": true,
      "inputs": [
        {
          "name": "_index",
          "type": "uint256"
        }
      ],
      "name": "getUserCommits",
      "outputs": [
        {
          "name": "",
          "type": "string"
        }
      ],
      "payable": false,
      "stateMutability": "view",
      "type": "function"
    },
    {
      "constant": true,
      "inputs": [],
      "name": "getNumberUserCommits",
      "outputs": [
        {
          "name": "",
          "type": "uint256"
        }
      ],
      "payable": false,
      "stateMutability": "view",
      "type": "function"
    },
    {
      "constant": true,
      "inputs": [
        {
          "name": "_index",
          "type": "uint256"
        }
      ],
      "name": "getAllUserEmail",
      "outputs": [
        {
          "name": "",
          "type": "string"
        }
      ],
      "payable": false,
      "stateMutability": "view",
      "type": "function"
    },
    {
      "constant": true,
      "inputs": [],
      "name": "getAllUserNumber",
      "outputs": [
        {
          "name": "",
          "type": "uint256"
        }
      ],
      "payable": false,
      "stateMutability": "view",
      "type": "function"
    }
  ],
  "bytecode": "0x60806040526000600455336000806101000a81548173ffffffffffffffffffffffffffffffffffffffff021916908373ffffffffffffffffffffffffffffffffffffffff160217905550612e8e806100586000396000f3006080604052600436106100a4576000357c0100000000000000000000000000000000000000000000000000000000900463ffffffff16806305f4ca68146100a95780631a747219146100d4578063274430ac1461017a5780636749bbe3146103875780636f77926b1461042d578063719e37ae1461056a5780638da5cb5b14610619578063e15c2d0b14610670578063f2fde38b146107e0578063f7da107014610823575b600080fd5b3480156100b557600080fd5b506100be61084e565b6040518082815260200191505060405180910390f35b3480156100e057600080fd5b506100ff60048036038101908080359060200190929190505050610858565b6040518080602001828103825283818151815260200191508051906020019080838360005b8381101561013f578082015181840152602081019050610124565b50505050905090810190601f16801561016c5780820380516001836020036101000a031916815260200191505b509250505060405180910390f35b34801561018657600080fd5b50610385600480360381019080803590602001908201803590602001908080601f0160208091040260200160405190810160405280939291908181526020018383808284378201915050505050509192919290803590602001908201803590602001908080601f0160208091040260200160405190810160405280939291908181526020018383808284378201915050505050509192919290803590602001908201803590602001908080601f0160208091040260200160405190810160405280939291908181526020018383808284378201915050505050509192919290803590602001908201803590602001908080601f0160208091040260200160405190810160405280939291908181526020018383808284378201915050505050509192919290803590602001908201803590602001908080601f0160208091040260200160405190810160405280939291908181526020018383808284378201915050505050509192919290803590602001908201803590602001908080601f0160208091040260200160405190810160405280939291908181526020018383808284378201915050505050509192919290803590602001908201803590602001908080601f0160208091040260200160405190810160405280939291908181526020018383808284378201915050505050509192919290505050610953565b005b34801561039357600080fd5b506103b260048036038101908080359060200190929190505050611e5b565b6040518080602001828103825283818151815260200191508051906020019080838360005b838110156103f25780820151818401526020810190506103d7565b50505050905090810190601f16801561041f5780820380516001836020036101000a031916815260200191505b509250505060405180910390f35b34801561043957600080fd5b5061046e600480360381019080803573ffffffffffffffffffffffffffffffffffffffff169060200190929190505050611f13565b604051808060200180602001868152602001858152602001848152602001838103835288818151815260200191508051906020019080838360005b838110156104c45780820151818401526020810190506104a9565b50505050905090810190601f1680156104f15780820380516001836020036101000a031916815260200191505b50838103825287818151815260200191508051906020019080838360005b8381101561052a57808201518184015260208101905061050f565b50505050905090810190601f1680156105575780820380516001836020036101000a031916815260200191505b5097505050505050505060405180910390f35b34801561057657600080fd5b50610617600480360381019080803590602001908201803590602001908080601f0160208091040260200160405190810160405280939291908181526020018383808284378201915050505050509192919290803590602001908201803590602001908080601f016020809104026020016040519081016040528093929190818152602001838380828437820191505050505050919291929050505061231c565b005b34801561062557600080fd5b5061062e612966565b604051808273ffffffffffffffffffffffffffffffffffffffff1673ffffffffffffffffffffffffffffffffffffffff16815260200191505060405180910390f35b34801561067c57600080fd5b506106b1600480360381019080803573ffffffffffffffffffffffffffffffffffffffff16906020019092919050505061298b565b6040518080602001806020018773ffffffffffffffffffffffffffffffffffffffff1673ffffffffffffffffffffffffffffffffffffffff168152602001868152602001858152602001848152602001838103835289818151815260200191508051906020019080838360005b8381101561073957808201518184015260208101905061071e565b50505050905090810190601f1680156107665780820380516001836020036101000a031916815260200191505b50838103825288818151815260200191508051906020019080838360005b8381101561079f578082015181840152602081019050610784565b50505050905090810190601f1680156107cc5780820380516001836020036101000a031916815260200191505b509850505050505050505060405180910390f35b3480156107ec57600080fd5b50610821600480360381019080803573ffffffffffffffffffffffffffffffffffffffff169060200190929190505050612b17565b005b34801561082f57600080fd5b50610838612c6c565b6040518082815260200191505060405180910390f35b6000600454905090565b6060600160003373ffffffffffffffffffffffffffffffffffffffff1673ffffffffffffffffffffffffffffffffffffffff16815260200190815260200160002060060160006001840381526020019081526020016000206001018054600181600116156101000203166002900480601f0160208091040260200160405190810160405280929190818152602001828054600181600116156101000203166002900480156109475780601f1061091c57610100808354040283529160200191610947565b820191906000526020600020905b81548152906001019060200180831161092a57829003601f168201915b50505050509050919050565b600060c0604051908101604052808981526020018881526020013373ffffffffffffffffffffffffffffffffffffffff16815260200142815260200187815260200160008152506003896040518082805190602001908083835b6020831015156109d257805182526020820191506020810190506020830392506109ad565b6001836020036101000a03801982511681845116808217855250505050505090500191505090815260200160405180910390206000820151816000019080519060200190610a21929190612cb6565b506020820151816001019080519060200190610a3e929190612cb6565b5060408201518160020160006101000a81548173ffffffffffffffffffffffffffffffffffffffff021916908373ffffffffffffffffffffffffffffffffffffffff160217905550606082015181600301556080820151816004019080519060200190610aac929190612cb6565b5060a082015181600501559050506003886040518082805190602001908083835b602083101515610af25780518252602082019150602081019050602083039250610acd565b6001836020036101000a0380198251168184511680821785525050505050509050019150509081526020016040518091039020600160003373ffffffffffffffffffffffffffffffffffffffff1673ffffffffffffffffffffffffffffffffffffffff1681526020019081526020016000206006016000600160003373ffffffffffffffffffffffffffffffffffffffff1673ffffffffffffffffffffffffffffffffffffffff16815260200190815260200160002060050154815260200190815260200160002060008201816000019080546001816001161561010002031660029004610be1929190612d36565b5060018201816001019080546001816001161561010002031660029004610c09929190612d36565b506002820160009054906101000a900473ffffffffffffffffffffffffffffffffffffffff168160020160006101000a81548173ffffffffffffffffffffffffffffffffffffffff021916908373ffffffffffffffffffffffffffffffffffffffff1602179055506003820154816003015560048201816004019080546001816001161561010002031660029004610ca2929190612d36565b5060058201548160050155905050600160003373ffffffffffffffffffffffffffffffffffffffff1673ffffffffffffffffffffffffffffffffffffffff16815260200190815260200160002060050160008154809291906001019190505550600090505b600454811015611e5157846040518082805190602001908083835b602083101515610d475780518252602082019150602081019050602083039250610d22565b6001836020036101000a038019825116818451168082178552505050505050905001915050604051809103902060001916600260008381526020019081526020016000206001016040518082805460018160011615610100020316600290048015610de95780601f10610dc7576101008083540402835291820191610de9565b820191906000526020600020905b815481529060010190602001808311610dd5575b5050915050604051809103902060001916141561115e576003886040518082805190602001908083835b602083101515610e385780518252602082019150602081019050602083039250610e13565b6001836020036101000a0380198251168184511680821785525050505050509050019150509081526020016040518091039020600160006002600085815260200190815260200160002060020160009054906101000a900473ffffffffffffffffffffffffffffffffffffffff1673ffffffffffffffffffffffffffffffffffffffff1673ffffffffffffffffffffffffffffffffffffffff1681526020019081526020016000206007016000600160006002600087815260200190815260200160002060020160009054906101000a900473ffffffffffffffffffffffffffffffffffffffff1673ffffffffffffffffffffffffffffffffffffffff1673ffffffffffffffffffffffffffffffffffffffff16815260200190815260200160002060040154815260200190815260200160002060008201816000019080546001816001161561010002031660029004610f93929190612d36565b5060018201816001019080546001816001161561010002031660029004610fbb929190612d36565b506002820160009054906101000a900473ffffffffffffffffffffffffffffffffffffffff168160020160006101000a81548173ffffffffffffffffffffffffffffffffffffffff021916908373ffffffffffffffffffffffffffffffffffffffff1602179055506003820154816003015560048201816004019080546001816001161561010002031660029004611054929190612d36565b506005820154816005015590505060018060006002600085815260200190815260200160002060020160009054906101000a900473ffffffffffffffffffffffffffffffffffffffff1673ffffffffffffffffffffffffffffffffffffffff1673ffffffffffffffffffffffffffffffffffffffff1681526020019081526020016000206004015401600160006002600085815260200190815260200160002060020160009054906101000a900473ffffffffffffffffffffffffffffffffffffffff1673ffffffffffffffffffffffffffffffffffffffff1673ffffffffffffffffffffffffffffffffffffffff16815260200190815260200160002060040181905550611e44565b836040518082805190602001908083835b602083101515611194578051825260208201915060208101905060208303925061116f565b6001836020036101000a0380198251168184511680821785525050505050509050019150506040518091039020600019166002600083815260200190815260200160002060010160405180828054600181600116156101000203166002900480156112365780601f10611214576101008083540402835291820191611236565b820191906000526020600020905b815481529060010190602001808311611222575b505091505060405180910390206000191614156115ab576003886040518082805190602001908083835b6020831015156112855780518252602082019150602081019050602083039250611260565b6001836020036101000a0380198251168184511680821785525050505050509050019150509081526020016040518091039020600160006002600085815260200190815260200160002060020160009054906101000a900473ffffffffffffffffffffffffffffffffffffffff1673ffffffffffffffffffffffffffffffffffffffff1673ffffffffffffffffffffffffffffffffffffffff1681526020019081526020016000206007016000600160006002600087815260200190815260200160002060020160009054906101000a900473ffffffffffffffffffffffffffffffffffffffff1673ffffffffffffffffffffffffffffffffffffffff1673ffffffffffffffffffffffffffffffffffffffff168152602001908152602001600020600401548152602001908152602001600020600082018160000190805460018160011615610100020316600290046113e0929190612d36565b5060018201816001019080546001816001161561010002031660029004611408929190612d36565b506002820160009054906101000a900473ffffffffffffffffffffffffffffffffffffffff168160020160006101000a81548173ffffffffffffffffffffffffffffffffffffffff021916908373ffffffffffffffffffffffffffffffffffffffff16021790555060038201548160030155600482018160040190805460018160011615610100020316600290046114a1929190612d36565b506005820154816005015590505060018060006002600085815260200190815260200160002060020160009054906101000a900473ffffffffffffffffffffffffffffffffffffffff1673ffffffffffffffffffffffffffffffffffffffff1673ffffffffffffffffffffffffffffffffffffffff1681526020019081526020016000206004015401600160006002600085815260200190815260200160002060020160009054906101000a900473ffffffffffffffffffffffffffffffffffffffff1673ffffffffffffffffffffffffffffffffffffffff1673ffffffffffffffffffffffffffffffffffffffff16815260200190815260200160002060040181905550611e43565b826040518082805190602001908083835b6020831015156115e157805182526020820191506020810190506020830392506115bc565b6001836020036101000a0380198251168184511680821785525050505050509050019150506040518091039020600019166002600083815260200190815260200160002060010160405180828054600181600116156101000203166002900480156116835780601f10611661576101008083540402835291820191611683565b820191906000526020600020905b81548152906001019060200180831161166f575b505091505060405180910390206000191614156119f8576003886040518082805190602001908083835b6020831015156116d257805182526020820191506020810190506020830392506116ad565b6001836020036101000a0380198251168184511680821785525050505050509050019150509081526020016040518091039020600160006002600085815260200190815260200160002060020160009054906101000a900473ffffffffffffffffffffffffffffffffffffffff1673ffffffffffffffffffffffffffffffffffffffff1673ffffffffffffffffffffffffffffffffffffffff1681526020019081526020016000206007016000600160006002600087815260200190815260200160002060020160009054906101000a900473ffffffffffffffffffffffffffffffffffffffff1673ffffffffffffffffffffffffffffffffffffffff1673ffffffffffffffffffffffffffffffffffffffff1681526020019081526020016000206004015481526020019081526020016000206000820181600001908054600181600116156101000203166002900461182d929190612d36565b5060018201816001019080546001816001161561010002031660029004611855929190612d36565b506002820160009054906101000a900473ffffffffffffffffffffffffffffffffffffffff168160020160006101000a81548173ffffffffffffffffffffffffffffffffffffffff021916908373ffffffffffffffffffffffffffffffffffffffff16021790555060038201548160030155600482018160040190805460018160011615610100020316600290046118ee929190612d36565b506005820154816005015590505060018060006002600085815260200190815260200160002060020160009054906101000a900473ffffffffffffffffffffffffffffffffffffffff1673ffffffffffffffffffffffffffffffffffffffff1673ffffffffffffffffffffffffffffffffffffffff1681526020019081526020016000206004015401600160006002600085815260200190815260200160002060020160009054906101000a900473ffffffffffffffffffffffffffffffffffffffff1673ffffffffffffffffffffffffffffffffffffffff1673ffffffffffffffffffffffffffffffffffffffff16815260200190815260200160002060040181905550611e42565b816040518082805190602001908083835b602083101515611a2e5780518252602082019150602081019050602083039250611a09565b6001836020036101000a038019825116818451168082178552505050505050905001915050604051809103902060001916600260008381526020019081526020016000206001016040518082805460018160011615610100020316600290048015611ad05780601f10611aae576101008083540402835291820191611ad0565b820191906000526020600020905b815481529060010190602001808311611abc575b50509150506040518091039020600019161415611e41576003886040518082805190602001908083835b602083101515611b1f5780518252602082019150602081019050602083039250611afa565b6001836020036101000a0380198251168184511680821785525050505050509050019150509081526020016040518091039020600160006002600085815260200190815260200160002060020160009054906101000a900473ffffffffffffffffffffffffffffffffffffffff1673ffffffffffffffffffffffffffffffffffffffff1673ffffffffffffffffffffffffffffffffffffffff1681526020019081526020016000206007016000600160006002600087815260200190815260200160002060020160009054906101000a900473ffffffffffffffffffffffffffffffffffffffff1673ffffffffffffffffffffffffffffffffffffffff1673ffffffffffffffffffffffffffffffffffffffff16815260200190815260200160002060040154815260200190815260200160002060008201816000019080546001816001161561010002031660029004611c7a929190612d36565b5060018201816001019080546001816001161561010002031660029004611ca2929190612d36565b506002820160009054906101000a900473ffffffffffffffffffffffffffffffffffffffff168160020160006101000a81548173ffffffffffffffffffffffffffffffffffffffff021916908373ffffffffffffffffffffffffffffffffffffffff1602179055506003820154816003015560048201816004019080546001816001161561010002031660029004611d3b929190612d36565b506005820154816005015590505060018060006002600085815260200190815260200160002060020160009054906101000a900473ffffffffffffffffffffffffffffffffffffffff1673ffffffffffffffffffffffffffffffffffffffff1673ffffffffffffffffffffffffffffffffffffffff1681526020019081526020016000206004015401600160006002600085815260200190815260200160002060020160009054906101000a900473ffffffffffffffffffffffffffffffffffffffff1673ffffffffffffffffffffffffffffffffffffffff1673ffffffffffffffffffffffffffffffffffffffff168152602001908152602001600020600401819055505b5b5b5b8080600101915050610d07565b5050505050505050565b6060600260008381526020019081526020016000206001018054600181600116156101000203166002900480601f016020809104026020016040519081016040528092919081815260200182805460018160011615610100020316600290048015611f075780601f10611edc57610100808354040283529160200191611f07565b820191906000526020600020905b815481529060010190602001808311611eea57829003601f168201915b50505050509050919050565b60608060008060008573ffffffffffffffffffffffffffffffffffffffff163373ffffffffffffffffffffffffffffffffffffffff1614156121e357600160008773ffffffffffffffffffffffffffffffffffffffff1673ffffffffffffffffffffffffffffffffffffffff168152602001908152602001600020600001600160008873ffffffffffffffffffffffffffffffffffffffff1673ffffffffffffffffffffffffffffffffffffffff168152602001908152602001600020600101600160008973ffffffffffffffffffffffffffffffffffffffff1673ffffffffffffffffffffffffffffffffffffffff16815260200190815260200160002060030154600160008a73ffffffffffffffffffffffffffffffffffffffff1673ffffffffffffffffffffffffffffffffffffffff16815260200190815260200160002060040154600160008b73ffffffffffffffffffffffffffffffffffffffff1673ffffffffffffffffffffffffffffffffffffffff16815260200190815260200160002060050154848054600181600116156101000203166002900480601f0160208091040260200160405190810160405280929190818152602001828054600181600116156101000203166002900480156121315780601f1061210657610100808354040283529160200191612131565b820191906000526020600020905b81548152906001019060200180831161211457829003601f168201915b50505050509450838054600181600116156101000203166002900480601f0160208091040260200160405190810160405280929190818152602001828054600181600116156101000203166002900480156121cd5780601f106121a2576101008083540402835291602001916121cd565b820191906000526020600020905b8154815290600101906020018083116121b057829003601f168201915b5050505050935094509450945094509450612313565b600160008773ffffffffffffffffffffffffffffffffffffffff1673ffffffffffffffffffffffffffffffffffffffff1681526020019081526020016000206000016000806000838054600181600116156101000203166002900480601f0160208091040260200160405190810160405280929190818152602001828054600181600116156101000203166002900480156122bf5780601f10612294576101008083540402835291602001916122bf565b820191906000526020600020905b8154815290600101906020018083116122a257829003601f168201915b505050505093506040805190810160405280600181526020017f2d00000000000000000000000000000000000000000000000000000000000000815250929190829250819150809050945094509450945094505b91939590929450565b6000600160003373ffffffffffffffffffffffffffffffffffffffff1673ffffffffffffffffffffffffffffffffffffffff1681526020019081526020016000206000018054600181600116156101000203166002900490501480156123d857506000600160003373ffffffffffffffffffffffffffffffffffffffff1673ffffffffffffffffffffffffffffffffffffffff168152602001908152602001600020600101805460018160011615610100020316600290049050145b156127235781600160003373ffffffffffffffffffffffffffffffffffffffff1673ffffffffffffffffffffffffffffffffffffffff1681526020019081526020016000206000019080519060200190612433929190612dbd565b5080600160003373ffffffffffffffffffffffffffffffffffffffff1673ffffffffffffffffffffffffffffffffffffffff168152602001908152602001600020600101908051906020019061248a929190612dbd565b5033600160003373ffffffffffffffffffffffffffffffffffffffff1673ffffffffffffffffffffffffffffffffffffffff16815260200190815260200160002060020160006101000a81548173ffffffffffffffffffffffffffffffffffffffff021916908373ffffffffffffffffffffffffffffffffffffffff1602179055506000600160003373ffffffffffffffffffffffffffffffffffffffff1673ffffffffffffffffffffffffffffffffffffffff168152602001908152602001600020600301819055506000600160003373ffffffffffffffffffffffffffffffffffffffff1673ffffffffffffffffffffffffffffffffffffffff168152602001908152602001600020600401819055506000600160003373ffffffffffffffffffffffffffffffffffffffff1673ffffffffffffffffffffffffffffffffffffffff16815260200190815260200160002060050181905550600160003373ffffffffffffffffffffffffffffffffffffffff1673ffffffffffffffffffffffffffffffffffffffff1681526020019081526020016000206002600060045481526020019081526020016000206000820181600001908054600181600116156101000203166002900461265f929190612d36565b5060018201816001019080546001816001161561010002031660029004612687929190612d36565b506002820160009054906101000a900473ffffffffffffffffffffffffffffffffffffffff168160020160006101000a81548173ffffffffffffffffffffffffffffffffffffffff021916908373ffffffffffffffffffffffffffffffffffffffff1602179055506003820154816003015560048201548160040155600582015481600501559050506004600081548092919060010191905055505b6000600160003373ffffffffffffffffffffffffffffffffffffffff1673ffffffffffffffffffffffffffffffffffffffff16815260200190815260200160002060000180546001816001161561010002031660029004905011806127de57506000600160003373ffffffffffffffffffffffffffffffffffffffff1673ffffffffffffffffffffffffffffffffffffffff168152602001908152602001600020600101805460018160011615610100020316600290049050115b156128925781600160003373ffffffffffffffffffffffffffffffffffffffff1673ffffffffffffffffffffffffffffffffffffffff1681526020019081526020016000206000019080519060200190612839929190612dbd565b5080600160003373ffffffffffffffffffffffffffffffffffffffff1673ffffffffffffffffffffffffffffffffffffffff1681526020019081526020016000206001019080519060200190612890929190612dbd565b505b7f352ab20050877eafaf7fe3110fc72725dd9a1e7b9d7028b1cc4fd59839626908823360405180806020018373ffffffffffffffffffffffffffffffffffffffff1673ffffffffffffffffffffffffffffffffffffffff168152602001828103825284818151815260200191508051906020019080838360005b8381101561292757808201518184015260208101905061290c565b50505050905090810190601f1680156129545780820380516001836020036101000a031916815260200191505b50935050505060405180910390a15050565b6000809054906101000a900473ffffffffffffffffffffffffffffffffffffffff1681565b6001602052806000526040600020600091509050806000018054600181600116156101000203166002900480601f016020809104026020016040519081016040528092919081815260200182805460018160011615610100020316600290048015612a375780601f10612a0c57610100808354040283529160200191612a37565b820191906000526020600020905b815481529060010190602001808311612a1a57829003601f168201915b505050505090806001018054600181600116156101000203166002900480601f016020809104026020016040519081016040528092919081815260200182805460018160011615610100020316600290048015612ad55780601f10612aaa57610100808354040283529160200191612ad5565b820191906000526020600020905b815481529060010190602001808311612ab857829003601f168201915b5050505050908060020160009054906101000a900473ffffffffffffffffffffffffffffffffffffffff16908060030154908060040154908060050154905086565b6000809054906101000a900473ffffffffffffffffffffffffffffffffffffffff1673ffffffffffffffffffffffffffffffffffffffff163373ffffffffffffffffffffffffffffffffffffffff16141515612b7257600080fd5b600073ffffffffffffffffffffffffffffffffffffffff168173ffffffffffffffffffffffffffffffffffffffff1614151515612bae57600080fd5b8073ffffffffffffffffffffffffffffffffffffffff166000809054906101000a900473ffffffffffffffffffffffffffffffffffffffff1673ffffffffffffffffffffffffffffffffffffffff167f8be0079c531659141344cd1fd0a4f28419497f9722a3daafe3b4186f6b6457e060405160405180910390a3806000806101000a81548173ffffffffffffffffffffffffffffffffffffffff021916908373ffffffffffffffffffffffffffffffffffffffff16021790555050565b6000600160003373ffffffffffffffffffffffffffffffffffffffff1673ffffffffffffffffffffffffffffffffffffffff16815260200190815260200160002060050154905090565b828054600181600116156101000203166002900490600052602060002090601f016020900481019282601f10612cf757805160ff1916838001178555612d25565b82800160010185558215612d25579182015b82811115612d24578251825591602001919060010190612d09565b5b509050612d329190612e3d565b5090565b828054600181600116156101000203166002900490600052602060002090601f016020900481019282601f10612d6f5780548555612dac565b82800160010185558215612dac57600052602060002091601f016020900482015b82811115612dab578254825591600101919060010190612d90565b5b509050612db99190612e3d565b5090565b828054600181600116156101000203166002900490600052602060002090601f016020900481019282601f10612dfe57805160ff1916838001178555612e2c565b82800160010185558215612e2c579182015b82811115612e2b578251825591602001919060010190612e10565b5b509050612e399190612e3d565b5090565b612e5f91905b80821115612e5b576000816000905550600101612e43565b5090565b905600a165627a7a72305820f3f9767aaa634e74c04b8e2a1323393f1afaa9467e434ff317668c92ebf6210f0029",
  "source": "pragma solidity ^0.4.24;\nimport \"./Ownable.sol\";\n\ncontract Bright is Ownable {\n    \n    event UserProfileSetEvent (string name, address hash);\n    mapping (address => UserProfile) public hashUserMap;\n    mapping (uint => UserProfile) allUsersArray;\n    mapping (string => Commit) storedData;\n    uint numberOfUsers = 0;\n\n\n    struct UserProfile {\n        string name;\n        string email;\n        address hash;\n        uint numberCommitsReviewedbyMe;\n        uint numberCommitsToReviewbyMe;\n        uint numbermyCommits;\n        mapping (uint => Commit) userCommits;\n        mapping (uint => Commit) commitsToReview;\n\n        \n    }\n    struct Commit {\n        string id;\n\t    string url;\n        address author;\n        uint timestamp;\n        string project;\n        uint reviews;\n\n    }\n\n    function setProfile (string _name, string _email) public {\n        //require(_hash == msg.sender);\n        if (bytes(hashUserMap[msg.sender].name).length == 0 && bytes(hashUserMap[msg.sender].email).length == 0){\n           \n            hashUserMap[msg.sender].name = _name;\n            hashUserMap[msg.sender].email = _email;\n\t        hashUserMap[msg.sender].hash = msg.sender;\n\t        hashUserMap[msg.sender].numberCommitsReviewedbyMe = 0;\n            hashUserMap[msg.sender].numberCommitsToReviewbyMe = 0;\n            hashUserMap[msg.sender].numbermyCommits=0;\n            allUsersArray[numberOfUsers] = hashUserMap[msg.sender];\n            numberOfUsers++;\n\n        }\n        if(bytes(hashUserMap[msg.sender].name).length > 0 || bytes(hashUserMap[msg.sender].email).length > 0){\n            hashUserMap[msg.sender].name = _name;\n            hashUserMap[msg.sender].email = _email;\n        }\n        emit UserProfileSetEvent(_name, msg.sender);\n    }\n\n    function getUser (address _hash) public view returns (string, string, uint, uint, uint) { //TODO: we need a getuser function using the email address instead of hash\n            \n        if (msg.sender == _hash){ //If you are calling the function\n        return (hashUserMap[_hash].name,\n                hashUserMap[_hash].email,\n                hashUserMap[_hash].numberCommitsReviewedbyMe,\n                hashUserMap[_hash].numberCommitsToReviewbyMe,\n                hashUserMap[_hash].numbermyCommits\n                );\n        } else{ //If other person is calling the function\n\t\t    return (hashUserMap[_hash].name,\"-\",0,0,0);\n\t\t}\n    }\n    \n    function setNewCommit (string _id, string _url, string _project, string _emailuser1, string _emailuser2, string _emailuser3, string _emailuser4) public { //_users separated by commas.\n                \n        storedData[_id] = Commit(_id, _url, msg.sender, block.timestamp, _project, 0);\n        hashUserMap[msg.sender].userCommits[hashUserMap[msg.sender].numbermyCommits] = storedData[_id];\n        hashUserMap[msg.sender].numbermyCommits++;\n        \n        //Send the notificatios to reviewers\n        for(uint i = 0; i < numberOfUsers; i++){\n            \n            if(keccak256(allUsersArray[i].email) == keccak256(_emailuser1)){\n                hashUserMap[allUsersArray[i].hash].commitsToReview[hashUserMap[allUsersArray[i].hash].numberCommitsToReviewbyMe] = storedData[_id];\n                hashUserMap[allUsersArray[i].hash].numberCommitsToReviewbyMe = (hashUserMap[allUsersArray[i].hash].numberCommitsToReviewbyMe + 1);  \n            }else if(keccak256(allUsersArray[i].email) == keccak256(_emailuser2)){\n                hashUserMap[allUsersArray[i].hash].commitsToReview[hashUserMap[allUsersArray[i].hash].numberCommitsToReviewbyMe] = storedData[_id];\n                hashUserMap[allUsersArray[i].hash].numberCommitsToReviewbyMe = hashUserMap[allUsersArray[i].hash].numberCommitsToReviewbyMe + 1;\n            }else if(keccak256(allUsersArray[i].email) == keccak256(_emailuser3)){\n                hashUserMap[allUsersArray[i].hash].commitsToReview[hashUserMap[allUsersArray[i].hash].numberCommitsToReviewbyMe] = storedData[_id];\n                hashUserMap[allUsersArray[i].hash].numberCommitsToReviewbyMe = hashUserMap[allUsersArray[i].hash].numberCommitsToReviewbyMe + 1;\n            }else if(keccak256(allUsersArray[i].email) == keccak256(_emailuser4)){\n                hashUserMap[allUsersArray[i].hash].commitsToReview[hashUserMap[allUsersArray[i].hash].numberCommitsToReviewbyMe] = storedData[_id];\n                hashUserMap[allUsersArray[i].hash].numberCommitsToReviewbyMe = hashUserMap[allUsersArray[i].hash].numberCommitsToReviewbyMe + 1;\n            }\n        }\n    }\n    function getUserCommits(uint _index) public view returns(string){ //_index starts in 1\n        return hashUserMap[msg.sender].userCommits[_index-1].url;\n    }\n    function getNumberUserCommits()public view returns(uint){\n        return hashUserMap[msg.sender].numbermyCommits;\n    }\n    function getAllUserEmail(uint _index) public view returns(string){ //_index starts in 0\n        return allUsersArray[_index].email;\n    }\n    function getAllUserNumber() public view returns(uint){ \n        return numberOfUsers;\n    }\n}",
  "sourcePath": "/home/arodriguez/Documentos/truffle-BrightByte/contracts/Bright.sol",
  "compiler": {
    "name": "solc",
    "version": "0.4.24+commit.e67f0147.Emscripten.clang"
  },
  "schemaVersion": "2.0.0",
  "updatedAt": "2018-06-19T07:02:30.872Z"
}