{
  "contractName": "Bright",
  "abi": [
    {
      "constant": true,
      "inputs": [],
      "name": "owner",
      "outputs": [
        {
          "name": "",
          "type": "address"
        }
      ],
      "payable": false,
      "stateMutability": "view",
      "type": "function"
    },
    {
      "constant": true,
      "inputs": [
        {
          "name": "",
          "type": "address"
        }
      ],
      "name": "hashUserMap",
      "outputs": [
        {
          "name": "name",
          "type": "string"
        },
        {
          "name": "email",
          "type": "string"
        },
        {
          "name": "hash",
          "type": "address"
        },
        {
          "name": "numberCommitsReviewedbyMe",
          "type": "uint256"
        },
        {
          "name": "numberCommitsToReviewbyMe",
          "type": "uint256"
        },
        {
          "name": "numbermyCommits",
          "type": "uint256"
        }
      ],
      "payable": false,
      "stateMutability": "view",
      "type": "function"
    },
    {
      "constant": false,
      "inputs": [
        {
          "name": "newOwner",
          "type": "address"
        }
      ],
      "name": "transferOwnership",
      "outputs": [],
      "payable": false,
      "stateMutability": "nonpayable",
      "type": "function"
    },
    {
      "anonymous": false,
      "inputs": [
        {
          "indexed": false,
          "name": "name",
          "type": "string"
        },
        {
          "indexed": false,
          "name": "hash",
          "type": "address"
        }
      ],
      "name": "UserProfileSetEvent",
      "type": "event"
    },
    {
      "anonymous": false,
      "inputs": [
        {
          "indexed": true,
          "name": "previousOwner",
          "type": "address"
        },
        {
          "indexed": true,
          "name": "newOwner",
          "type": "address"
        }
      ],
      "name": "OwnershipTransferred",
      "type": "event"
    },
    {
      "constant": false,
      "inputs": [
        {
          "name": "_name",
          "type": "string"
        },
        {
          "name": "_email",
          "type": "string"
        }
      ],
      "name": "setProfile",
      "outputs": [],
      "payable": false,
      "stateMutability": "nonpayable",
      "type": "function"
    },
    {
      "constant": true,
      "inputs": [
        {
          "name": "_hash",
          "type": "address"
        }
      ],
      "name": "getUser",
      "outputs": [
        {
          "name": "",
          "type": "string"
        },
        {
          "name": "",
          "type": "string"
        },
        {
          "name": "",
          "type": "uint256"
        },
        {
          "name": "",
          "type": "uint256"
        },
        {
          "name": "",
          "type": "uint256"
        }
      ],
      "payable": false,
      "stateMutability": "view",
      "type": "function"
    },
    {
      "constant": false,
      "inputs": [
        {
          "name": "_id",
          "type": "string"
        },
        {
          "name": "_url",
          "type": "string"
        },
        {
          "name": "_project",
          "type": "string"
        },
        {
          "name": "_emailuser1",
          "type": "string"
        },
        {
          "name": "_emailuser2",
          "type": "string"
        },
        {
          "name": "_emailuser3",
          "type": "string"
        },
        {
          "name": "_emailuser4",
          "type": "string"
        }
      ],
      "name": "setNewCommit",
      "outputs": [],
      "payable": false,
      "stateMutability": "nonpayable",
      "type": "function"
    },
    {
      "constant": true,
      "inputs": [
        {
          "name": "_index",
          "type": "uint256"
        }
      ],
      "name": "getUserCommits",
      "outputs": [
        {
          "name": "",
          "type": "string"
        }
      ],
      "payable": false,
      "stateMutability": "view",
      "type": "function"
    },
    {
      "constant": true,
      "inputs": [],
      "name": "getNumberUserCommits",
      "outputs": [
        {
          "name": "",
          "type": "uint256"
        }
      ],
      "payable": false,
      "stateMutability": "view",
      "type": "function"
    }
  ],
  "bytecode": "0x60806040526000600455336000806101000a81548173ffffffffffffffffffffffffffffffffffffffff021916908373ffffffffffffffffffffffffffffffffffffffff160217905550612ce5806100586000396000f30060806040526004361061008e576000357c0100000000000000000000000000000000000000000000000000000000900463ffffffff1680631a74721914610093578063274430ac146101395780636f77926b14610346578063719e37ae146104835780638da5cb5b14610532578063e15c2d0b14610589578063f2fde38b146106f9578063f7da10701461073c575b600080fd5b34801561009f57600080fd5b506100be60048036038101908080359060200190929190505050610767565b6040518080602001828103825283818151815260200191508051906020019080838360005b838110156100fe5780820151818401526020810190506100e3565b50505050905090810190601f16801561012b5780820380516001836020036101000a031916815260200191505b509250505060405180910390f35b34801561014557600080fd5b50610344600480360381019080803590602001908201803590602001908080601f0160208091040260200160405190810160405280939291908181526020018383808284378201915050505050509192919290803590602001908201803590602001908080601f0160208091040260200160405190810160405280939291908181526020018383808284378201915050505050509192919290803590602001908201803590602001908080601f0160208091040260200160405190810160405280939291908181526020018383808284378201915050505050509192919290803590602001908201803590602001908080601f0160208091040260200160405190810160405280939291908181526020018383808284378201915050505050509192919290803590602001908201803590602001908080601f0160208091040260200160405190810160405280939291908181526020018383808284378201915050505050509192919290803590602001908201803590602001908080601f0160208091040260200160405190810160405280939291908181526020018383808284378201915050505050509192919290803590602001908201803590602001908080601f0160208091040260200160405190810160405280939291908181526020018383808284378201915050505050509192919290505050610862565b005b34801561035257600080fd5b50610387600480360381019080803573ffffffffffffffffffffffffffffffffffffffff169060200190929190505050611d6a565b604051808060200180602001868152602001858152602001848152602001838103835288818151815260200191508051906020019080838360005b838110156103dd5780820151818401526020810190506103c2565b50505050905090810190601f16801561040a5780820380516001836020036101000a031916815260200191505b50838103825287818151815260200191508051906020019080838360005b83811015610443578082015181840152602081019050610428565b50505050905090810190601f1680156104705780820380516001836020036101000a031916815260200191505b5097505050505050505060405180910390f35b34801561048f57600080fd5b50610530600480360381019080803590602001908201803590602001908080601f0160208091040260200160405190810160405280939291908181526020018383808284378201915050505050509192919290803590602001908201803590602001908080601f0160208091040260200160405190810160405280939291908181526020018383808284378201915050505050509192919290505050612173565b005b34801561053e57600080fd5b506105476127bd565b604051808273ffffffffffffffffffffffffffffffffffffffff1673ffffffffffffffffffffffffffffffffffffffff16815260200191505060405180910390f35b34801561059557600080fd5b506105ca600480360381019080803573ffffffffffffffffffffffffffffffffffffffff1690602001909291905050506127e2565b6040518080602001806020018773ffffffffffffffffffffffffffffffffffffffff1673ffffffffffffffffffffffffffffffffffffffff168152602001868152602001858152602001848152602001838103835289818151815260200191508051906020019080838360005b83811015610652578082015181840152602081019050610637565b50505050905090810190601f16801561067f5780820380516001836020036101000a031916815260200191505b50838103825288818151815260200191508051906020019080838360005b838110156106b857808201518184015260208101905061069d565b50505050905090810190601f1680156106e55780820380516001836020036101000a031916815260200191505b509850505050505050505060405180910390f35b34801561070557600080fd5b5061073a600480360381019080803573ffffffffffffffffffffffffffffffffffffffff16906020019092919050505061296e565b005b34801561074857600080fd5b50610751612ac3565b6040518082815260200191505060405180910390f35b6060600160003373ffffffffffffffffffffffffffffffffffffffff1673ffffffffffffffffffffffffffffffffffffffff16815260200190815260200160002060060160006001840381526020019081526020016000206001018054600181600116156101000203166002900480601f0160208091040260200160405190810160405280929190818152602001828054600181600116156101000203166002900480156108565780601f1061082b57610100808354040283529160200191610856565b820191906000526020600020905b81548152906001019060200180831161083957829003601f168201915b50505050509050919050565b600060c0604051908101604052808981526020018881526020013373ffffffffffffffffffffffffffffffffffffffff16815260200142815260200187815260200160008152506003896040518082805190602001908083835b6020831015156108e157805182526020820191506020810190506020830392506108bc565b6001836020036101000a03801982511681845116808217855250505050505090500191505090815260200160405180910390206000820151816000019080519060200190610930929190612b0d565b50602082015181600101908051906020019061094d929190612b0d565b5060408201518160020160006101000a81548173ffffffffffffffffffffffffffffffffffffffff021916908373ffffffffffffffffffffffffffffffffffffffff1602179055506060820151816003015560808201518160040190805190602001906109bb929190612b0d565b5060a082015181600501559050506003886040518082805190602001908083835b602083101515610a0157805182526020820191506020810190506020830392506109dc565b6001836020036101000a0380198251168184511680821785525050505050509050019150509081526020016040518091039020600160003373ffffffffffffffffffffffffffffffffffffffff1673ffffffffffffffffffffffffffffffffffffffff1681526020019081526020016000206006016000600160003373ffffffffffffffffffffffffffffffffffffffff1673ffffffffffffffffffffffffffffffffffffffff16815260200190815260200160002060050154815260200190815260200160002060008201816000019080546001816001161561010002031660029004610af0929190612b8d565b5060018201816001019080546001816001161561010002031660029004610b18929190612b8d565b506002820160009054906101000a900473ffffffffffffffffffffffffffffffffffffffff168160020160006101000a81548173ffffffffffffffffffffffffffffffffffffffff021916908373ffffffffffffffffffffffffffffffffffffffff1602179055506003820154816003015560048201816004019080546001816001161561010002031660029004610bb1929190612b8d565b5060058201548160050155905050600160003373ffffffffffffffffffffffffffffffffffffffff1673ffffffffffffffffffffffffffffffffffffffff16815260200190815260200160002060050160008154809291906001019190505550600090505b600454811015611d6057846040518082805190602001908083835b602083101515610c565780518252602082019150602081019050602083039250610c31565b6001836020036101000a038019825116818451168082178552505050505050905001915050604051809103902060001916600260008381526020019081526020016000206001016040518082805460018160011615610100020316600290048015610cf85780601f10610cd6576101008083540402835291820191610cf8565b820191906000526020600020905b815481529060010190602001808311610ce4575b5050915050604051809103902060001916141561106d576003886040518082805190602001908083835b602083101515610d475780518252602082019150602081019050602083039250610d22565b6001836020036101000a0380198251168184511680821785525050505050509050019150509081526020016040518091039020600160006002600085815260200190815260200160002060020160009054906101000a900473ffffffffffffffffffffffffffffffffffffffff1673ffffffffffffffffffffffffffffffffffffffff1673ffffffffffffffffffffffffffffffffffffffff1681526020019081526020016000206007016000600160006002600087815260200190815260200160002060020160009054906101000a900473ffffffffffffffffffffffffffffffffffffffff1673ffffffffffffffffffffffffffffffffffffffff1673ffffffffffffffffffffffffffffffffffffffff16815260200190815260200160002060040154815260200190815260200160002060008201816000019080546001816001161561010002031660029004610ea2929190612b8d565b5060018201816001019080546001816001161561010002031660029004610eca929190612b8d565b506002820160009054906101000a900473ffffffffffffffffffffffffffffffffffffffff168160020160006101000a81548173ffffffffffffffffffffffffffffffffffffffff021916908373ffffffffffffffffffffffffffffffffffffffff1602179055506003820154816003015560048201816004019080546001816001161561010002031660029004610f63929190612b8d565b506005820154816005015590505060018060006002600085815260200190815260200160002060020160009054906101000a900473ffffffffffffffffffffffffffffffffffffffff1673ffffffffffffffffffffffffffffffffffffffff1673ffffffffffffffffffffffffffffffffffffffff1681526020019081526020016000206004015401600160006002600085815260200190815260200160002060020160009054906101000a900473ffffffffffffffffffffffffffffffffffffffff1673ffffffffffffffffffffffffffffffffffffffff1673ffffffffffffffffffffffffffffffffffffffff16815260200190815260200160002060040181905550611d53565b836040518082805190602001908083835b6020831015156110a3578051825260208201915060208101905060208303925061107e565b6001836020036101000a0380198251168184511680821785525050505050509050019150506040518091039020600019166002600083815260200190815260200160002060010160405180828054600181600116156101000203166002900480156111455780601f10611123576101008083540402835291820191611145565b820191906000526020600020905b815481529060010190602001808311611131575b505091505060405180910390206000191614156114ba576003886040518082805190602001908083835b602083101515611194578051825260208201915060208101905060208303925061116f565b6001836020036101000a0380198251168184511680821785525050505050509050019150509081526020016040518091039020600160006002600085815260200190815260200160002060020160009054906101000a900473ffffffffffffffffffffffffffffffffffffffff1673ffffffffffffffffffffffffffffffffffffffff1673ffffffffffffffffffffffffffffffffffffffff1681526020019081526020016000206007016000600160006002600087815260200190815260200160002060020160009054906101000a900473ffffffffffffffffffffffffffffffffffffffff1673ffffffffffffffffffffffffffffffffffffffff1673ffffffffffffffffffffffffffffffffffffffff168152602001908152602001600020600401548152602001908152602001600020600082018160000190805460018160011615610100020316600290046112ef929190612b8d565b5060018201816001019080546001816001161561010002031660029004611317929190612b8d565b506002820160009054906101000a900473ffffffffffffffffffffffffffffffffffffffff168160020160006101000a81548173ffffffffffffffffffffffffffffffffffffffff021916908373ffffffffffffffffffffffffffffffffffffffff16021790555060038201548160030155600482018160040190805460018160011615610100020316600290046113b0929190612b8d565b506005820154816005015590505060018060006002600085815260200190815260200160002060020160009054906101000a900473ffffffffffffffffffffffffffffffffffffffff1673ffffffffffffffffffffffffffffffffffffffff1673ffffffffffffffffffffffffffffffffffffffff1681526020019081526020016000206004015401600160006002600085815260200190815260200160002060020160009054906101000a900473ffffffffffffffffffffffffffffffffffffffff1673ffffffffffffffffffffffffffffffffffffffff1673ffffffffffffffffffffffffffffffffffffffff16815260200190815260200160002060040181905550611d52565b826040518082805190602001908083835b6020831015156114f057805182526020820191506020810190506020830392506114cb565b6001836020036101000a0380198251168184511680821785525050505050509050019150506040518091039020600019166002600083815260200190815260200160002060010160405180828054600181600116156101000203166002900480156115925780601f10611570576101008083540402835291820191611592565b820191906000526020600020905b81548152906001019060200180831161157e575b50509150506040518091039020600019161415611907576003886040518082805190602001908083835b6020831015156115e157805182526020820191506020810190506020830392506115bc565b6001836020036101000a0380198251168184511680821785525050505050509050019150509081526020016040518091039020600160006002600085815260200190815260200160002060020160009054906101000a900473ffffffffffffffffffffffffffffffffffffffff1673ffffffffffffffffffffffffffffffffffffffff1673ffffffffffffffffffffffffffffffffffffffff1681526020019081526020016000206007016000600160006002600087815260200190815260200160002060020160009054906101000a900473ffffffffffffffffffffffffffffffffffffffff1673ffffffffffffffffffffffffffffffffffffffff1673ffffffffffffffffffffffffffffffffffffffff1681526020019081526020016000206004015481526020019081526020016000206000820181600001908054600181600116156101000203166002900461173c929190612b8d565b5060018201816001019080546001816001161561010002031660029004611764929190612b8d565b506002820160009054906101000a900473ffffffffffffffffffffffffffffffffffffffff168160020160006101000a81548173ffffffffffffffffffffffffffffffffffffffff021916908373ffffffffffffffffffffffffffffffffffffffff16021790555060038201548160030155600482018160040190805460018160011615610100020316600290046117fd929190612b8d565b506005820154816005015590505060018060006002600085815260200190815260200160002060020160009054906101000a900473ffffffffffffffffffffffffffffffffffffffff1673ffffffffffffffffffffffffffffffffffffffff1673ffffffffffffffffffffffffffffffffffffffff1681526020019081526020016000206004015401600160006002600085815260200190815260200160002060020160009054906101000a900473ffffffffffffffffffffffffffffffffffffffff1673ffffffffffffffffffffffffffffffffffffffff1673ffffffffffffffffffffffffffffffffffffffff16815260200190815260200160002060040181905550611d51565b816040518082805190602001908083835b60208310151561193d5780518252602082019150602081019050602083039250611918565b6001836020036101000a0380198251168184511680821785525050505050509050019150506040518091039020600019166002600083815260200190815260200160002060010160405180828054600181600116156101000203166002900480156119df5780601f106119bd5761010080835404028352918201916119df565b820191906000526020600020905b8154815290600101906020018083116119cb575b50509150506040518091039020600019161415611d50576003886040518082805190602001908083835b602083101515611a2e5780518252602082019150602081019050602083039250611a09565b6001836020036101000a0380198251168184511680821785525050505050509050019150509081526020016040518091039020600160006002600085815260200190815260200160002060020160009054906101000a900473ffffffffffffffffffffffffffffffffffffffff1673ffffffffffffffffffffffffffffffffffffffff1673ffffffffffffffffffffffffffffffffffffffff1681526020019081526020016000206007016000600160006002600087815260200190815260200160002060020160009054906101000a900473ffffffffffffffffffffffffffffffffffffffff1673ffffffffffffffffffffffffffffffffffffffff1673ffffffffffffffffffffffffffffffffffffffff16815260200190815260200160002060040154815260200190815260200160002060008201816000019080546001816001161561010002031660029004611b89929190612b8d565b5060018201816001019080546001816001161561010002031660029004611bb1929190612b8d565b506002820160009054906101000a900473ffffffffffffffffffffffffffffffffffffffff168160020160006101000a81548173ffffffffffffffffffffffffffffffffffffffff021916908373ffffffffffffffffffffffffffffffffffffffff1602179055506003820154816003015560048201816004019080546001816001161561010002031660029004611c4a929190612b8d565b506005820154816005015590505060018060006002600085815260200190815260200160002060020160009054906101000a900473ffffffffffffffffffffffffffffffffffffffff1673ffffffffffffffffffffffffffffffffffffffff1673ffffffffffffffffffffffffffffffffffffffff1681526020019081526020016000206004015401600160006002600085815260200190815260200160002060020160009054906101000a900473ffffffffffffffffffffffffffffffffffffffff1673ffffffffffffffffffffffffffffffffffffffff1673ffffffffffffffffffffffffffffffffffffffff168152602001908152602001600020600401819055505b5b5b5b8080600101915050610c16565b5050505050505050565b60608060008060008573ffffffffffffffffffffffffffffffffffffffff163373ffffffffffffffffffffffffffffffffffffffff16141561203a57600160008773ffffffffffffffffffffffffffffffffffffffff1673ffffffffffffffffffffffffffffffffffffffff168152602001908152602001600020600001600160008873ffffffffffffffffffffffffffffffffffffffff1673ffffffffffffffffffffffffffffffffffffffff168152602001908152602001600020600101600160008973ffffffffffffffffffffffffffffffffffffffff1673ffffffffffffffffffffffffffffffffffffffff16815260200190815260200160002060030154600160008a73ffffffffffffffffffffffffffffffffffffffff1673ffffffffffffffffffffffffffffffffffffffff16815260200190815260200160002060040154600160008b73ffffffffffffffffffffffffffffffffffffffff1673ffffffffffffffffffffffffffffffffffffffff16815260200190815260200160002060050154848054600181600116156101000203166002900480601f016020809104026020016040519081016040528092919081815260200182805460018160011615610100020316600290048015611f885780601f10611f5d57610100808354040283529160200191611f88565b820191906000526020600020905b815481529060010190602001808311611f6b57829003601f168201915b50505050509450838054600181600116156101000203166002900480601f0160208091040260200160405190810160405280929190818152602001828054600181600116156101000203166002900480156120245780601f10611ff957610100808354040283529160200191612024565b820191906000526020600020905b81548152906001019060200180831161200757829003601f168201915b505050505093509450945094509450945061216a565b600160008773ffffffffffffffffffffffffffffffffffffffff1673ffffffffffffffffffffffffffffffffffffffff1681526020019081526020016000206000016000806000838054600181600116156101000203166002900480601f0160208091040260200160405190810160405280929190818152602001828054600181600116156101000203166002900480156121165780601f106120eb57610100808354040283529160200191612116565b820191906000526020600020905b8154815290600101906020018083116120f957829003601f168201915b505050505093506040805190810160405280600181526020017f2d00000000000000000000000000000000000000000000000000000000000000815250929190829250819150809050945094509450945094505b91939590929450565b6000600160003373ffffffffffffffffffffffffffffffffffffffff1673ffffffffffffffffffffffffffffffffffffffff16815260200190815260200160002060000180546001816001161561010002031660029004905014801561222f57506000600160003373ffffffffffffffffffffffffffffffffffffffff1673ffffffffffffffffffffffffffffffffffffffff168152602001908152602001600020600101805460018160011615610100020316600290049050145b1561257a5781600160003373ffffffffffffffffffffffffffffffffffffffff1673ffffffffffffffffffffffffffffffffffffffff168152602001908152602001600020600001908051906020019061228a929190612c14565b5080600160003373ffffffffffffffffffffffffffffffffffffffff1673ffffffffffffffffffffffffffffffffffffffff16815260200190815260200160002060010190805190602001906122e1929190612c14565b5033600160003373ffffffffffffffffffffffffffffffffffffffff1673ffffffffffffffffffffffffffffffffffffffff16815260200190815260200160002060020160006101000a81548173ffffffffffffffffffffffffffffffffffffffff021916908373ffffffffffffffffffffffffffffffffffffffff1602179055506000600160003373ffffffffffffffffffffffffffffffffffffffff1673ffffffffffffffffffffffffffffffffffffffff168152602001908152602001600020600301819055506000600160003373ffffffffffffffffffffffffffffffffffffffff1673ffffffffffffffffffffffffffffffffffffffff168152602001908152602001600020600401819055506000600160003373ffffffffffffffffffffffffffffffffffffffff1673ffffffffffffffffffffffffffffffffffffffff16815260200190815260200160002060050181905550600160003373ffffffffffffffffffffffffffffffffffffffff1673ffffffffffffffffffffffffffffffffffffffff168152602001908152602001600020600260006004548152602001908152602001600020600082018160000190805460018160011615610100020316600290046124b6929190612b8d565b50600182018160010190805460018160011615610100020316600290046124de929190612b8d565b506002820160009054906101000a900473ffffffffffffffffffffffffffffffffffffffff168160020160006101000a81548173ffffffffffffffffffffffffffffffffffffffff021916908373ffffffffffffffffffffffffffffffffffffffff1602179055506003820154816003015560048201548160040155600582015481600501559050506004600081548092919060010191905055505b6000600160003373ffffffffffffffffffffffffffffffffffffffff1673ffffffffffffffffffffffffffffffffffffffff168152602001908152602001600020600001805460018160011615610100020316600290049050118061263557506000600160003373ffffffffffffffffffffffffffffffffffffffff1673ffffffffffffffffffffffffffffffffffffffff168152602001908152602001600020600101805460018160011615610100020316600290049050115b156126e95781600160003373ffffffffffffffffffffffffffffffffffffffff1673ffffffffffffffffffffffffffffffffffffffff1681526020019081526020016000206000019080519060200190612690929190612c14565b5080600160003373ffffffffffffffffffffffffffffffffffffffff1673ffffffffffffffffffffffffffffffffffffffff16815260200190815260200160002060010190805190602001906126e7929190612c14565b505b7f352ab20050877eafaf7fe3110fc72725dd9a1e7b9d7028b1cc4fd59839626908823360405180806020018373ffffffffffffffffffffffffffffffffffffffff1673ffffffffffffffffffffffffffffffffffffffff168152602001828103825284818151815260200191508051906020019080838360005b8381101561277e578082015181840152602081019050612763565b50505050905090810190601f1680156127ab5780820380516001836020036101000a031916815260200191505b50935050505060405180910390a15050565b6000809054906101000a900473ffffffffffffffffffffffffffffffffffffffff1681565b6001602052806000526040600020600091509050806000018054600181600116156101000203166002900480601f01602080910402602001604051908101604052809291908181526020018280546001816001161561010002031660029004801561288e5780601f106128635761010080835404028352916020019161288e565b820191906000526020600020905b81548152906001019060200180831161287157829003601f168201915b505050505090806001018054600181600116156101000203166002900480601f01602080910402602001604051908101604052809291908181526020018280546001816001161561010002031660029004801561292c5780601f106129015761010080835404028352916020019161292c565b820191906000526020600020905b81548152906001019060200180831161290f57829003601f168201915b5050505050908060020160009054906101000a900473ffffffffffffffffffffffffffffffffffffffff16908060030154908060040154908060050154905086565b6000809054906101000a900473ffffffffffffffffffffffffffffffffffffffff1673ffffffffffffffffffffffffffffffffffffffff163373ffffffffffffffffffffffffffffffffffffffff161415156129c957600080fd5b600073ffffffffffffffffffffffffffffffffffffffff168173ffffffffffffffffffffffffffffffffffffffff1614151515612a0557600080fd5b8073ffffffffffffffffffffffffffffffffffffffff166000809054906101000a900473ffffffffffffffffffffffffffffffffffffffff1673ffffffffffffffffffffffffffffffffffffffff167f8be0079c531659141344cd1fd0a4f28419497f9722a3daafe3b4186f6b6457e060405160405180910390a3806000806101000a81548173ffffffffffffffffffffffffffffffffffffffff021916908373ffffffffffffffffffffffffffffffffffffffff16021790555050565b6000600160003373ffffffffffffffffffffffffffffffffffffffff1673ffffffffffffffffffffffffffffffffffffffff16815260200190815260200160002060050154905090565b828054600181600116156101000203166002900490600052602060002090601f016020900481019282601f10612b4e57805160ff1916838001178555612b7c565b82800160010185558215612b7c579182015b82811115612b7b578251825591602001919060010190612b60565b5b509050612b899190612c94565b5090565b828054600181600116156101000203166002900490600052602060002090601f016020900481019282601f10612bc65780548555612c03565b82800160010185558215612c0357600052602060002091601f016020900482015b82811115612c02578254825591600101919060010190612be7565b5b509050612c109190612c94565b5090565b828054600181600116156101000203166002900490600052602060002090601f016020900481019282601f10612c5557805160ff1916838001178555612c83565b82800160010185558215612c83579182015b82811115612c82578251825591602001919060010190612c67565b5b509050612c909190612c94565b5090565b612cb691905b80821115612cb2576000816000905550600101612c9a565b5090565b905600a165627a7a72305820120d1383385d2d0494737543584adef03d89d441058855fec3337c8bb9593d4c0029",
  "source": "pragma solidity ^0.4.24;\nimport \"./Ownable.sol\";\n\ncontract Bright is Ownable {\n    \n    event UserProfileSetEvent (string name, address hash);\n    mapping (address => UserProfile) public hashUserMap;\n    mapping (uint => UserProfile) allUsersArray;\n    mapping (string => Commit) storedData;\n    uint numberOfUsers = 0;\n\n\n    struct UserProfile {\n        string name;\n        string email;\n        address hash;\n        uint numberCommitsReviewedbyMe;\n        uint numberCommitsToReviewbyMe;\n        uint numbermyCommits;\n        mapping (uint => Commit) userCommits;\n        mapping (uint => Commit) commitsToReview;\n\n        \n    }\n    struct Commit {\n        string id;\n\t    string url;\n        address author;\n        uint timestamp;\n        string project;\n        uint reviews;\n\n    }\n\n    function setProfile (string _name, string _email) public {\n        //require(_hash == msg.sender);\n        if (bytes(hashUserMap[msg.sender].name).length == 0 && bytes(hashUserMap[msg.sender].email).length == 0){\n           \n            hashUserMap[msg.sender].name = _name;\n            hashUserMap[msg.sender].email = _email;\n\t        hashUserMap[msg.sender].hash = msg.sender;\n\t        hashUserMap[msg.sender].numberCommitsReviewedbyMe = 0;\n            hashUserMap[msg.sender].numberCommitsToReviewbyMe = 0;\n            hashUserMap[msg.sender].numbermyCommits=0;\n            allUsersArray[numberOfUsers] = hashUserMap[msg.sender];\n            numberOfUsers++;\n\n        }\n        if(bytes(hashUserMap[msg.sender].name).length > 0 || bytes(hashUserMap[msg.sender].email).length > 0){\n            hashUserMap[msg.sender].name = _name;\n            hashUserMap[msg.sender].email = _email;\n        }\n        emit UserProfileSetEvent(_name, msg.sender);\n    }\n\n    function getUser (address _hash) public view returns (string, string, uint, uint, uint) { //TODO: we need a getuser function using the email address instead of hash\n            \n        if (msg.sender == _hash){ //If you are calling the function\n        return (hashUserMap[_hash].name,\n                hashUserMap[_hash].email,\n                hashUserMap[_hash].numberCommitsReviewedbyMe,\n                hashUserMap[_hash].numberCommitsToReviewbyMe,\n                hashUserMap[_hash].numbermyCommits\n                );\n        } else{ //If other person is calling the function\n\t\t    return (hashUserMap[_hash].name,\"-\",0,0,0);\n\t\t}\n    }\n    \n    function setNewCommit (string _id, string _url, string _project, string _emailuser1, string _emailuser2, string _emailuser3, string _emailuser4) public { //_users separated by commas.\n                \n        storedData[_id] = Commit(_id, _url, msg.sender, block.timestamp, _project, 0);\n        hashUserMap[msg.sender].userCommits[hashUserMap[msg.sender].numbermyCommits] = storedData[_id];\n        hashUserMap[msg.sender].numbermyCommits++;\n        \n        //Send the notificatios to reviewers\n        for(uint i = 0; i < numberOfUsers; i++){\n            \n            if(keccak256(allUsersArray[i].email) == keccak256(_emailuser1)){\n                hashUserMap[allUsersArray[i].hash].commitsToReview[hashUserMap[allUsersArray[i].hash].numberCommitsToReviewbyMe] = storedData[_id];\n                hashUserMap[allUsersArray[i].hash].numberCommitsToReviewbyMe = (hashUserMap[allUsersArray[i].hash].numberCommitsToReviewbyMe + 1);  \n            }else if(keccak256(allUsersArray[i].email) == keccak256(_emailuser2)){\n                hashUserMap[allUsersArray[i].hash].commitsToReview[hashUserMap[allUsersArray[i].hash].numberCommitsToReviewbyMe] = storedData[_id];\n                hashUserMap[allUsersArray[i].hash].numberCommitsToReviewbyMe = hashUserMap[allUsersArray[i].hash].numberCommitsToReviewbyMe + 1;\n            }else if(keccak256(allUsersArray[i].email) == keccak256(_emailuser3)){\n                hashUserMap[allUsersArray[i].hash].commitsToReview[hashUserMap[allUsersArray[i].hash].numberCommitsToReviewbyMe] = storedData[_id];\n                hashUserMap[allUsersArray[i].hash].numberCommitsToReviewbyMe = hashUserMap[allUsersArray[i].hash].numberCommitsToReviewbyMe + 1;\n            }else if(keccak256(allUsersArray[i].email) == keccak256(_emailuser4)){\n                hashUserMap[allUsersArray[i].hash].commitsToReview[hashUserMap[allUsersArray[i].hash].numberCommitsToReviewbyMe] = storedData[_id];\n                hashUserMap[allUsersArray[i].hash].numberCommitsToReviewbyMe = hashUserMap[allUsersArray[i].hash].numberCommitsToReviewbyMe + 1;\n            }\n        }\n    }\n    function getUserCommits(uint _index) public view returns(string){ //_index starts in 1\n        return hashUserMap[msg.sender].userCommits[_index-1].url;\n    }\n    function getNumberUserCommits()public view returns(uint){\n        return hashUserMap[msg.sender].numbermyCommits;\n    }\n}",
  "sourcePath": "/home/arodriguez/Documentos/truffle-BrightByte/contracts/Bright.sol",
  "compiler": {
    "name": "solc",
    "version": "0.4.24+commit.e67f0147.Emscripten.clang"
  },
  "schemaVersion": "2.0.0",
  "updatedAt": "2018-06-15T06:56:45.173Z"
}