{
  "contractName": "Bright",
  "abi": [
    {
      "constant": true,
      "inputs": [],
      "name": "owner",
      "outputs": [
        {
          "name": "",
          "type": "address"
        }
      ],
      "payable": false,
      "stateMutability": "view",
      "type": "function"
    },
    {
      "constant": true,
      "inputs": [
        {
          "name": "",
          "type": "address"
        }
      ],
      "name": "hashUserMap",
      "outputs": [
        {
          "name": "name",
          "type": "string"
        },
        {
          "name": "email",
          "type": "string"
        },
        {
          "name": "hash",
          "type": "address"
        },
        {
          "name": "numberCommitsReviewedbyMe",
          "type": "uint256"
        },
        {
          "name": "numberCommitsToReviewbyMe",
          "type": "uint256"
        },
        {
          "name": "numbermyCommits",
          "type": "uint256"
        }
      ],
      "payable": false,
      "stateMutability": "view",
      "type": "function"
    },
    {
      "constant": false,
      "inputs": [
        {
          "name": "newOwner",
          "type": "address"
        }
      ],
      "name": "transferOwnership",
      "outputs": [],
      "payable": false,
      "stateMutability": "nonpayable",
      "type": "function"
    },
    {
      "anonymous": false,
      "inputs": [
        {
          "indexed": false,
          "name": "name",
          "type": "string"
        },
        {
          "indexed": false,
          "name": "hash",
          "type": "address"
        }
      ],
      "name": "UserProfileSetEvent",
      "type": "event"
    },
    {
      "anonymous": false,
      "inputs": [
        {
          "indexed": true,
          "name": "previousOwner",
          "type": "address"
        },
        {
          "indexed": true,
          "name": "newOwner",
          "type": "address"
        }
      ],
      "name": "OwnershipTransferred",
      "type": "event"
    },
    {
      "constant": false,
      "inputs": [
        {
          "name": "_name",
          "type": "string"
        },
        {
          "name": "_email",
          "type": "string"
        }
      ],
      "name": "setProfile",
      "outputs": [],
      "payable": false,
      "stateMutability": "nonpayable",
      "type": "function"
    },
    {
      "constant": true,
      "inputs": [
        {
          "name": "_hash",
          "type": "address"
        }
      ],
      "name": "getUser",
      "outputs": [
        {
          "name": "",
          "type": "string"
        },
        {
          "name": "",
          "type": "string"
        },
        {
          "name": "",
          "type": "uint256"
        },
        {
          "name": "",
          "type": "uint256"
        },
        {
          "name": "",
          "type": "uint256"
        }
      ],
      "payable": false,
      "stateMutability": "view",
      "type": "function"
    },
    {
      "constant": false,
      "inputs": [
        {
          "name": "_id",
          "type": "string"
        },
        {
          "name": "_url",
          "type": "string"
        },
        {
          "name": "_project",
          "type": "string"
        },
        {
          "name": "_emailuser1",
          "type": "string"
        },
        {
          "name": "_emailuser2",
          "type": "string"
        },
        {
          "name": "_emailuser3",
          "type": "string"
        },
        {
          "name": "_emailuser4",
          "type": "string"
        }
      ],
      "name": "setNewCommit",
      "outputs": [],
      "payable": false,
      "stateMutability": "nonpayable",
      "type": "function"
    },
    {
      "constant": true,
      "inputs": [
        {
          "name": "_id",
          "type": "string"
        }
      ],
      "name": "getDetailsCommits",
      "outputs": [
        {
          "name": "",
          "type": "string"
        },
        {
          "name": "",
          "type": "address"
        },
        {
          "name": "",
          "type": "uint256"
        },
        {
          "name": "",
          "type": "string"
        },
        {
          "name": "",
          "type": "uint256"
        },
        {
          "name": "",
          "type": "uint256"
        },
        {
          "name": "",
          "type": "uint256"
        }
      ],
      "payable": false,
      "stateMutability": "view",
      "type": "function"
    },
    {
      "constant": true,
      "inputs": [
        {
          "name": "_index",
          "type": "uint256"
        }
      ],
      "name": "getUserCommits",
      "outputs": [
        {
          "name": "",
          "type": "string"
        }
      ],
      "payable": false,
      "stateMutability": "view",
      "type": "function"
    },
    {
      "constant": true,
      "inputs": [],
      "name": "getNumberUserCommits",
      "outputs": [
        {
          "name": "",
          "type": "uint256"
        }
      ],
      "payable": false,
      "stateMutability": "view",
      "type": "function"
    },
    {
      "constant": true,
      "inputs": [
        {
          "name": "_index",
          "type": "uint256"
        }
      ],
      "name": "getAllUserEmail",
      "outputs": [
        {
          "name": "",
          "type": "string"
        }
      ],
      "payable": false,
      "stateMutability": "view",
      "type": "function"
    },
    {
      "constant": true,
      "inputs": [],
      "name": "getAllUserNumber",
      "outputs": [
        {
          "name": "",
          "type": "uint256"
        }
      ],
      "payable": false,
      "stateMutability": "view",
      "type": "function"
    },
    {
      "constant": true,
      "inputs": [],
      "name": "getNumberCommitsToReviewByMe",
      "outputs": [
        {
          "name": "",
          "type": "uint256"
        }
      ],
      "payable": false,
      "stateMutability": "view",
      "type": "function"
    },
    {
      "constant": true,
      "inputs": [],
      "name": "getNumberCommitsReviewedByMe",
      "outputs": [
        {
          "name": "",
          "type": "uint256"
        }
      ],
      "payable": false,
      "stateMutability": "view",
      "type": "function"
    },
    {
      "constant": true,
      "inputs": [
        {
          "name": "_index",
          "type": "uint256"
        }
      ],
      "name": "getCommitsToReviewByMe",
      "outputs": [
        {
          "name": "",
          "type": "string"
        }
      ],
      "payable": false,
      "stateMutability": "view",
      "type": "function"
    },
    {
      "constant": true,
      "inputs": [
        {
          "name": "_indexCommit",
          "type": "uint256"
        },
        {
          "name": "_indexComments",
          "type": "uint256"
        }
      ],
      "name": "getCommentsOfCommit",
      "outputs": [
        {
          "name": "",
          "type": "string"
        },
        {
          "name": "",
          "type": "address"
        }
      ],
      "payable": false,
      "stateMutability": "view",
      "type": "function"
    },
    {
      "constant": true,
      "inputs": [
        {
          "name": "_index",
          "type": "uint256"
        }
      ],
      "name": "getNumberComments",
      "outputs": [
        {
          "name": "",
          "type": "uint256"
        }
      ],
      "payable": false,
      "stateMutability": "view",
      "type": "function"
    },
    {
      "constant": false,
      "inputs": [
        {
          "name": "_index",
          "type": "uint256"
        },
        {
          "name": "_text",
          "type": "string"
        }
      ],
      "name": "setReview",
      "outputs": [],
      "payable": false,
      "stateMutability": "nonpayable",
      "type": "function"
    }
  ],
  "bytecode": "0x60806040526000600455336000806101000a81548173ffffffffffffffffffffffffffffffffffffffff021916908373ffffffffffffffffffffffffffffffffffffffff160217905550614a90806100586000396000f3006080604052600436106100f1576000357c0100000000000000000000000000000000000000000000000000000000900463ffffffff16806305f4ca68146100f65780631252f4fa146101215780631a74721914610194578063274430ac1461023a5780632ac06fd6146104475780636749bbe3146104725780636aecb2b4146105185780636f77926b14610559578063719e37ae14610696578063787f74a91461074557806383cd588b146108285780638da5cb5b146108ce5780639b7063bb146109255780639b7950d314610950578063e15c2d0b14610aed578063f2fde38b14610c5d578063f7da107014610ca0575b600080fd5b34801561010257600080fd5b5061010b610ccb565b6040518082815260200191505060405180910390f35b34801561012d57600080fd5b5061019260048036038101908080359060200190929190803590602001908201803590602001908080601f0160208091040260200160405190810160405280939291908181526020018383808284378201915050505050509192919290505050610cd5565b005b3480156101a057600080fd5b506101bf600480360381019080803590602001909291905050506117d7565b6040518080602001828103825283818151815260200191508051906020019080838360005b838110156101ff5780820151818401526020810190506101e4565b50505050905090810190601f16801561022c5780820380516001836020036101000a031916815260200191505b509250505060405180910390f35b34801561024657600080fd5b50610445600480360381019080803590602001908201803590602001908080601f0160208091040260200160405190810160405280939291908181526020018383808284378201915050505050509192919290803590602001908201803590602001908080601f0160208091040260200160405190810160405280939291908181526020018383808284378201915050505050509192919290803590602001908201803590602001908080601f0160208091040260200160405190810160405280939291908181526020018383808284378201915050505050509192919290803590602001908201803590602001908080601f0160208091040260200160405190810160405280939291908181526020018383808284378201915050505050509192919290803590602001908201803590602001908080601f0160208091040260200160405190810160405280939291908181526020018383808284378201915050505050509192919290803590602001908201803590602001908080601f0160208091040260200160405190810160405280939291908181526020018383808284378201915050505050509192919290803590602001908201803590602001908080601f01602080910402602001604051908101604052809392919081815260200183838082843782019150505050505091929192905050506118d2565b005b34801561045357600080fd5b5061045c6130a9565b6040518082815260200191505060405180910390f35b34801561047e57600080fd5b5061049d600480360381019080803590602001909291905050506130f3565b6040518080602001828103825283818151815260200191508051906020019080838360005b838110156104dd5780820151818401526020810190506104c2565b50505050905090810190601f16801561050a5780820380516001836020036101000a031916815260200191505b509250505060405180910390f35b34801561052457600080fd5b50610543600480360381019080803590602001909291905050506131ab565b6040518082815260200191505060405180910390f35b34801561056557600080fd5b5061059a600480360381019080803573ffffffffffffffffffffffffffffffffffffffff16906020019092919050505061327e565b604051808060200180602001868152602001858152602001848152602001838103835288818151815260200191508051906020019080838360005b838110156105f05780820151818401526020810190506105d5565b50505050905090810190601f16801561061d5780820380516001836020036101000a031916815260200191505b50838103825287818151815260200191508051906020019080838360005b8381101561065657808201518184015260208101905061063b565b50505050905090810190601f1680156106835780820380516001836020036101000a031916815260200191505b5097505050505050505060405180910390f35b3480156106a257600080fd5b50610743600480360381019080803590602001908201803590602001908080601f0160208091040260200160405190810160405280939291908181526020018383808284378201915050505050509192919290803590602001908201803590602001908080601f0160208091040260200160405190810160405280939291908181526020018383808284378201915050505050509192919290505050613687565b005b34801561075157600080fd5b5061077a6004803603810190808035906020019092919080359060200190929190505050613cd1565b60405180806020018373ffffffffffffffffffffffffffffffffffffffff1673ffffffffffffffffffffffffffffffffffffffff168152602001828103825284818151815260200191508051906020019080838360005b838110156107ec5780820151818401526020810190506107d1565b50505050905090810190601f1680156108195780820380516001836020036101000a031916815260200191505b50935050505060405180910390f35b34801561083457600080fd5b5061085360048036038101908080359060200190929190505050613f57565b6040518080602001828103825283818151815260200191508051906020019080838360005b83811015610893578082015181840152602081019050610878565b50505050905090810190601f1680156108c05780820380516001836020036101000a031916815260200191505b509250505060405180910390f35b3480156108da57600080fd5b506108e3614052565b604051808273ffffffffffffffffffffffffffffffffffffffff1673ffffffffffffffffffffffffffffffffffffffff16815260200191505060405180910390f35b34801561093157600080fd5b5061093a614077565b6040518082815260200191505060405180910390f35b34801561095c57600080fd5b506109b7600480360381019080803590602001908201803590602001908080601f01602080910402602001604051908101604052809392919081815260200183838082843782019150505050505091929192905050506140c1565b60405180806020018873ffffffffffffffffffffffffffffffffffffffff1673ffffffffffffffffffffffffffffffffffffffff1681526020018781526020018060200186815260200185815260200184815260200183810383528a818151815260200191508051906020019080838360005b83811015610a45578082015181840152602081019050610a2a565b50505050905090810190601f168015610a725780820380516001836020036101000a031916815260200191505b50838103825287818151815260200191508051906020019080838360005b83811015610aab578082015181840152602081019050610a90565b50505050905090810190601f168015610ad85780820380516001836020036101000a031916815260200191505b50995050505050505050505060405180910390f35b348015610af957600080fd5b50610b2e600480360381019080803573ffffffffffffffffffffffffffffffffffffffff169060200190929190505050614545565b6040518080602001806020018773ffffffffffffffffffffffffffffffffffffffff1673ffffffffffffffffffffffffffffffffffffffff168152602001868152602001858152602001848152602001838103835289818151815260200191508051906020019080838360005b83811015610bb6578082015181840152602081019050610b9b565b50505050905090810190601f168015610be35780820380516001836020036101000a031916815260200191505b50838103825288818151815260200191508051906020019080838360005b83811015610c1c578082015181840152602081019050610c01565b50505050905090810190601f168015610c495780820380516001836020036101000a031916815260200191505b509850505050505050505060405180910390f35b348015610c6957600080fd5b50610c9e600480360381019080803573ffffffffffffffffffffffffffffffffffffffff1690602001909291905050506146d1565b005b348015610cac57600080fd5b50610cb5614826565b6040518082815260200191505060405180910390f35b6000600454905090565b806003600160003373ffffffffffffffffffffffffffffffffffffffff1673ffffffffffffffffffffffffffffffffffffffff16815260200190815260200160002060070160008581526020019081526020016000206000016040518082805460018160011615610100020316600290048015610d895780601f10610d67576101008083540402835291820191610d89565b820191906000526020600020905b815481529060010190602001808311610d75575b5050915050908152602001604051809103902060080160006003600160003373ffffffffffffffffffffffffffffffffffffffff1673ffffffffffffffffffffffffffffffffffffffff16815260200190815260200160002060070160008781526020019081526020016000206000016040518082805460018160011615610100020316600290048015610e545780601f10610e32576101008083540402835291820191610e54565b820191906000526020600020905b815481529060010190602001808311610e40575b505091505090815260200160405180910390206007015481526020019081526020016000206000019080519060200190610e8f929190614870565b50336003600160003373ffffffffffffffffffffffffffffffffffffffff1673ffffffffffffffffffffffffffffffffffffffff16815260200190815260200160002060070160008581526020019081526020016000206000016040518082805460018160011615610100020316600290048015610f445780601f10610f22576101008083540402835291820191610f44565b820191906000526020600020905b815481529060010190602001808311610f30575b5050915050908152602001604051809103902060080160006003600160003373ffffffffffffffffffffffffffffffffffffffff1673ffffffffffffffffffffffffffffffffffffffff1681526020019081526020016000206007016000878152602001908152602001600020600001604051808280546001816001161561010002031660029004801561100f5780601f10610fed57610100808354040283529182019161100f565b820191906000526020600020905b815481529060010190602001808311610ffb575b5050915050908152602001604051809103902060070154815260200190815260200160002060010160006101000a81548173ffffffffffffffffffffffffffffffffffffffff021916908373ffffffffffffffffffffffffffffffffffffffff1602179055506003600160003373ffffffffffffffffffffffffffffffffffffffff1673ffffffffffffffffffffffffffffffffffffffff168152602001908152602001600020600701600084815260200190815260200160002060000160405180828054600181600116156101000203166002900480156111285780601f10611106576101008083540402835291820191611128565b820191906000526020600020905b815481529060010190602001808311611114575b50509150509081526020016040518091039020600701600081548092919060010191905055506003600160003373ffffffffffffffffffffffffffffffffffffffff1673ffffffffffffffffffffffffffffffffffffffff168152602001908152602001600020600701600084815260200190815260200160002060000160405180828054600181600116156101000203166002900480156112015780601f106111df576101008083540402835291820191611201565b820191906000526020600020905b8154815290600101906020018083116111ed575b50509150509081526020016040518091039020600501546003600160003373ffffffffffffffffffffffffffffffffffffffff1673ffffffffffffffffffffffffffffffffffffffff168152602001908152602001600020600701600085815260200190815260200160002060000160405180828054600181600116156101000203166002900480156112cb5780601f106112a95761010080835404028352918201916112cb565b820191906000526020600020905b8154815290600101906020018083116112b7575b505091505090815260200160405180910390206007015414156113b85760006003600160003373ffffffffffffffffffffffffffffffffffffffff1673ffffffffffffffffffffffffffffffffffffffff1681526020019081526020016000206007016000858152602001908152602001600020600001604051808280546001816001161561010002031660029004801561139d5780601f1061137b57610100808354040283529182019161139d565b820191906000526020600020905b815481529060010190602001808311611389575b50509150509081526020016040518091039020600601819055505b6003600160003373ffffffffffffffffffffffffffffffffffffffff1673ffffffffffffffffffffffffffffffffffffffff168152602001908152602001600020600701600060018060003373ffffffffffffffffffffffffffffffffffffffff1673ffffffffffffffffffffffffffffffffffffffff1681526020019081526020016000206004015403815260200190815260200160002060000160405180828054600181600116156101000203166002900480156114af5780601f1061148d5761010080835404028352918201916114af565b820191906000526020600020905b81548152906001019060200180831161149b575b50509150509081526020016040518091039020600160003373ffffffffffffffffffffffffffffffffffffffff1673ffffffffffffffffffffffffffffffffffffffff16815260200190815260200160002060070160008481526020019081526020016000206000820181600001908054600181600116156101000203166002900461153c9291906148f0565b50600182018160010190805460018160011615610100020316600290046115649291906148f0565b506002820160009054906101000a900473ffffffffffffffffffffffffffffffffffffffff168160020160006101000a81548173ffffffffffffffffffffffffffffffffffffffff021916908373ffffffffffffffffffffffffffffffffffffffff16021790555060038201548160030155600482018160040190805460018160011615610100020316600290046115fd9291906148f0565b50600582015481600501556006820154816006015560078201548160070155905050600160003373ffffffffffffffffffffffffffffffffffffffff1673ffffffffffffffffffffffffffffffffffffffff1681526020019081526020016000206007016000600160003373ffffffffffffffffffffffffffffffffffffffff1673ffffffffffffffffffffffffffffffffffffffff168152602001908152602001600020600401548152602001908152602001600020600080820160006116c59190614977565b6001820160006116d59190614977565b6002820160006101000a81549073ffffffffffffffffffffffffffffffffffffffff021916905560038201600090556004820160006117149190614977565b6005820160009055600682016000905560078201600090555050600160003373ffffffffffffffffffffffffffffffffffffffff1673ffffffffffffffffffffffffffffffffffffffff1681526020019081526020016000206004016000815480929190600190039190505550600160003373ffffffffffffffffffffffffffffffffffffffff1673ffffffffffffffffffffffffffffffffffffffff168152602001908152602001600020600301600081548092919060010191905055505050565b6060600160003373ffffffffffffffffffffffffffffffffffffffff1673ffffffffffffffffffffffffffffffffffffffff16815260200190815260200160002060060160006001840381526020019081526020016000206001018054600181600116156101000203166002900480601f0160208091040260200160405190810160405280929190818152602001828054600181600116156101000203166002900480156118c65780601f1061189b576101008083540402835291602001916118c6565b820191906000526020600020905b8154815290600101906020018083116118a957829003601f168201915b50505050509050919050565b600080600080925060009150604051806000019050604051809103902060001916876040518082805190602001908083835b6020831015156119295780518252602082019150602081019050602083039250611904565b6001836020036101000a03801982511681845116808217855250505050505090500191505060405180910390206000191614151561196a5782806001019350505b604051806000019050604051809103902060001916866040518082805190602001908083835b6020831015156119b55780518252602082019150602081019050602083039250611990565b6001836020036101000a0380198251168184511680821785525050505050509050019150506040518091039020600019161415156119f65782806001019350505b604051806000019050604051809103902060001916856040518082805190602001908083835b602083101515611a415780518252602082019150602081019050602083039250611a1c565b6001836020036101000a038019825116818451168082178552505050505050905001915050604051809103902060001916141515611a825782806001019350505b604051806000019050604051809103902060001916846040518082805190602001908083835b602083101515611acd5780518252602082019150602081019050602083039250611aa8565b6001836020036101000a038019825116818451168082178552505050505050905001915050604051809103902060001916141515611b0e5782806001019350505b6000831115611b1c57600191505b610100604051908101604052808b81526020018a81526020013373ffffffffffffffffffffffffffffffffffffffff168152602001428152602001898152602001848152602001838152602001600081525060038b6040518082805190602001908083835b602083101515611ba65780518252602082019150602081019050602083039250611b81565b6001836020036101000a03801982511681845116808217855250505050505090500191505090815260200160405180910390206000820151816000019080519060200190611bf59291906149bf565b506020820151816001019080519060200190611c129291906149bf565b5060408201518160020160006101000a81548173ffffffffffffffffffffffffffffffffffffffff021916908373ffffffffffffffffffffffffffffffffffffffff160217905550606082015181600301556080820151816004019080519060200190611c809291906149bf565b5060a0820151816005015560c0820151816006015560e0820151816007015590505060038a6040518082805190602001908083835b602083101515611cda5780518252602082019150602081019050602083039250611cb5565b6001836020036101000a0380198251168184511680821785525050505050509050019150509081526020016040518091039020600160003373ffffffffffffffffffffffffffffffffffffffff1673ffffffffffffffffffffffffffffffffffffffff1681526020019081526020016000206006016000600160003373ffffffffffffffffffffffffffffffffffffffff1673ffffffffffffffffffffffffffffffffffffffff16815260200190815260200160002060050154815260200190815260200160002060008201816000019080546001816001161561010002031660029004611dc99291906148f0565b5060018201816001019080546001816001161561010002031660029004611df19291906148f0565b506002820160009054906101000a900473ffffffffffffffffffffffffffffffffffffffff168160020160006101000a81548173ffffffffffffffffffffffffffffffffffffffff021916908373ffffffffffffffffffffffffffffffffffffffff1602179055506003820154816003015560048201816004019080546001816001161561010002031660029004611e8a9291906148f0565b50600582015481600501556006820154816006015560078201548160070155905050600160003373ffffffffffffffffffffffffffffffffffffffff1673ffffffffffffffffffffffffffffffffffffffff16815260200190815260200160002060050160008154809291906001019190505550600090505b60045481101561309d57866040518082805190602001908083835b602083101515611f435780518252602082019150602081019050602083039250611f1e565b6001836020036101000a038019825116818451168082178552505050505050905001915050604051809103902060001916600260008381526020019081526020016000206001016040518082805460018160011615610100020316600290048015611fe55780601f10611fc3576101008083540402835291820191611fe5565b820191906000526020600020905b815481529060010190602001808311611fd1575b5050915050604051809103902060001916141561236e5760038a6040518082805190602001908083835b602083101515612034578051825260208201915060208101905060208303925061200f565b6001836020036101000a0380198251168184511680821785525050505050509050019150509081526020016040518091039020600160006002600085815260200190815260200160002060020160009054906101000a900473ffffffffffffffffffffffffffffffffffffffff1673ffffffffffffffffffffffffffffffffffffffff1673ffffffffffffffffffffffffffffffffffffffff1681526020019081526020016000206007016000600160006002600087815260200190815260200160002060020160009054906101000a900473ffffffffffffffffffffffffffffffffffffffff1673ffffffffffffffffffffffffffffffffffffffff1673ffffffffffffffffffffffffffffffffffffffff1681526020019081526020016000206004015481526020019081526020016000206000820181600001908054600181600116156101000203166002900461218f9291906148f0565b50600182018160010190805460018160011615610100020316600290046121b79291906148f0565b506002820160009054906101000a900473ffffffffffffffffffffffffffffffffffffffff168160020160006101000a81548173ffffffffffffffffffffffffffffffffffffffff021916908373ffffffffffffffffffffffffffffffffffffffff16021790555060038201548160030155600482018160040190805460018160011615610100020316600290046122509291906148f0565b5060058201548160050155600682015481600601556007820154816007015590505060018060006002600085815260200190815260200160002060020160009054906101000a900473ffffffffffffffffffffffffffffffffffffffff1673ffffffffffffffffffffffffffffffffffffffff1673ffffffffffffffffffffffffffffffffffffffff1681526020019081526020016000206004015401600160006002600085815260200190815260200160002060020160009054906101000a900473ffffffffffffffffffffffffffffffffffffffff1673ffffffffffffffffffffffffffffffffffffffff1673ffffffffffffffffffffffffffffffffffffffff16815260200190815260200160002060040181905550613090565b856040518082805190602001908083835b6020831015156123a4578051825260208201915060208101905060208303925061237f565b6001836020036101000a0380198251168184511680821785525050505050509050019150506040518091039020600019166002600083815260200190815260200160002060010160405180828054600181600116156101000203166002900480156124465780601f10612424576101008083540402835291820191612446565b820191906000526020600020905b815481529060010190602001808311612432575b505091505060405180910390206000191614156127cf5760038a6040518082805190602001908083835b6020831015156124955780518252602082019150602081019050602083039250612470565b6001836020036101000a0380198251168184511680821785525050505050509050019150509081526020016040518091039020600160006002600085815260200190815260200160002060020160009054906101000a900473ffffffffffffffffffffffffffffffffffffffff1673ffffffffffffffffffffffffffffffffffffffff1673ffffffffffffffffffffffffffffffffffffffff1681526020019081526020016000206007016000600160006002600087815260200190815260200160002060020160009054906101000a900473ffffffffffffffffffffffffffffffffffffffff1673ffffffffffffffffffffffffffffffffffffffff1673ffffffffffffffffffffffffffffffffffffffff168152602001908152602001600020600401548152602001908152602001600020600082018160000190805460018160011615610100020316600290046125f09291906148f0565b50600182018160010190805460018160011615610100020316600290046126189291906148f0565b506002820160009054906101000a900473ffffffffffffffffffffffffffffffffffffffff168160020160006101000a81548173ffffffffffffffffffffffffffffffffffffffff021916908373ffffffffffffffffffffffffffffffffffffffff16021790555060038201548160030155600482018160040190805460018160011615610100020316600290046126b19291906148f0565b5060058201548160050155600682015481600601556007820154816007015590505060018060006002600085815260200190815260200160002060020160009054906101000a900473ffffffffffffffffffffffffffffffffffffffff1673ffffffffffffffffffffffffffffffffffffffff1673ffffffffffffffffffffffffffffffffffffffff1681526020019081526020016000206004015401600160006002600085815260200190815260200160002060020160009054906101000a900473ffffffffffffffffffffffffffffffffffffffff1673ffffffffffffffffffffffffffffffffffffffff1673ffffffffffffffffffffffffffffffffffffffff1681526020019081526020016000206004018190555061308f565b846040518082805190602001908083835b60208310151561280557805182526020820191506020810190506020830392506127e0565b6001836020036101000a0380198251168184511680821785525050505050509050019150506040518091039020600019166002600083815260200190815260200160002060010160405180828054600181600116156101000203166002900480156128a75780601f106128855761010080835404028352918201916128a7565b820191906000526020600020905b815481529060010190602001808311612893575b50509150506040518091039020600019161415612c305760038a6040518082805190602001908083835b6020831015156128f657805182526020820191506020810190506020830392506128d1565b6001836020036101000a0380198251168184511680821785525050505050509050019150509081526020016040518091039020600160006002600085815260200190815260200160002060020160009054906101000a900473ffffffffffffffffffffffffffffffffffffffff1673ffffffffffffffffffffffffffffffffffffffff1673ffffffffffffffffffffffffffffffffffffffff1681526020019081526020016000206007016000600160006002600087815260200190815260200160002060020160009054906101000a900473ffffffffffffffffffffffffffffffffffffffff1673ffffffffffffffffffffffffffffffffffffffff1673ffffffffffffffffffffffffffffffffffffffff16815260200190815260200160002060040154815260200190815260200160002060008201816000019080546001816001161561010002031660029004612a519291906148f0565b5060018201816001019080546001816001161561010002031660029004612a799291906148f0565b506002820160009054906101000a900473ffffffffffffffffffffffffffffffffffffffff168160020160006101000a81548173ffffffffffffffffffffffffffffffffffffffff021916908373ffffffffffffffffffffffffffffffffffffffff1602179055506003820154816003015560048201816004019080546001816001161561010002031660029004612b129291906148f0565b5060058201548160050155600682015481600601556007820154816007015590505060018060006002600085815260200190815260200160002060020160009054906101000a900473ffffffffffffffffffffffffffffffffffffffff1673ffffffffffffffffffffffffffffffffffffffff1673ffffffffffffffffffffffffffffffffffffffff1681526020019081526020016000206004015401600160006002600085815260200190815260200160002060020160009054906101000a900473ffffffffffffffffffffffffffffffffffffffff1673ffffffffffffffffffffffffffffffffffffffff1673ffffffffffffffffffffffffffffffffffffffff1681526020019081526020016000206004018190555061308e565b836040518082805190602001908083835b602083101515612c665780518252602082019150602081019050602083039250612c41565b6001836020036101000a038019825116818451168082178552505050505050905001915050604051809103902060001916600260008381526020019081526020016000206001016040518082805460018160011615610100020316600290048015612d085780601f10612ce6576101008083540402835291820191612d08565b820191906000526020600020905b815481529060010190602001808311612cf4575b5050915050604051809103902060001916141561308d5760038a6040518082805190602001908083835b602083101515612d575780518252602082019150602081019050602083039250612d32565b6001836020036101000a0380198251168184511680821785525050505050509050019150509081526020016040518091039020600160006002600085815260200190815260200160002060020160009054906101000a900473ffffffffffffffffffffffffffffffffffffffff1673ffffffffffffffffffffffffffffffffffffffff1673ffffffffffffffffffffffffffffffffffffffff1681526020019081526020016000206007016000600160006002600087815260200190815260200160002060020160009054906101000a900473ffffffffffffffffffffffffffffffffffffffff1673ffffffffffffffffffffffffffffffffffffffff1673ffffffffffffffffffffffffffffffffffffffff16815260200190815260200160002060040154815260200190815260200160002060008201816000019080546001816001161561010002031660029004612eb29291906148f0565b5060018201816001019080546001816001161561010002031660029004612eda9291906148f0565b506002820160009054906101000a900473ffffffffffffffffffffffffffffffffffffffff168160020160006101000a81548173ffffffffffffffffffffffffffffffffffffffff021916908373ffffffffffffffffffffffffffffffffffffffff1602179055506003820154816003015560048201816004019080546001816001161561010002031660029004612f739291906148f0565b5060058201548160050155600682015481600601556007820154816007015590505060018060006002600085815260200190815260200160002060020160009054906101000a900473ffffffffffffffffffffffffffffffffffffffff1673ffffffffffffffffffffffffffffffffffffffff1673ffffffffffffffffffffffffffffffffffffffff1681526020019081526020016000206004015401600160006002600085815260200190815260200160002060020160009054906101000a900473ffffffffffffffffffffffffffffffffffffffff1673ffffffffffffffffffffffffffffffffffffffff1673ffffffffffffffffffffffffffffffffffffffff168152602001908152602001600020600401819055505b5b5b5b8080600101915050611f03565b50505050505050505050565b6000600160003373ffffffffffffffffffffffffffffffffffffffff1673ffffffffffffffffffffffffffffffffffffffff16815260200190815260200160002060030154905090565b6060600260008381526020019081526020016000206001018054600181600116156101000203166002900480601f01602080910402602001604051908101604052809291908181526020018280546001816001161561010002031660029004801561319f5780601f106131745761010080835404028352916020019161319f565b820191906000526020600020905b81548152906001019060200180831161318257829003601f168201915b50505050509050919050565b60006003600160003373ffffffffffffffffffffffffffffffffffffffff1673ffffffffffffffffffffffffffffffffffffffff168152602001908152602001600020600601600084815260200190815260200160002060000160405180828054600181600116156101000203166002900480156132605780601f1061323e576101008083540402835291820191613260565b820191906000526020600020905b81548152906001019060200180831161324c575b50509150509081526020016040518091039020600701549050919050565b60608060008060008573ffffffffffffffffffffffffffffffffffffffff163373ffffffffffffffffffffffffffffffffffffffff16141561354e57600160008773ffffffffffffffffffffffffffffffffffffffff1673ffffffffffffffffffffffffffffffffffffffff168152602001908152602001600020600001600160008873ffffffffffffffffffffffffffffffffffffffff1673ffffffffffffffffffffffffffffffffffffffff168152602001908152602001600020600101600160008973ffffffffffffffffffffffffffffffffffffffff1673ffffffffffffffffffffffffffffffffffffffff16815260200190815260200160002060030154600160008a73ffffffffffffffffffffffffffffffffffffffff1673ffffffffffffffffffffffffffffffffffffffff16815260200190815260200160002060040154600160008b73ffffffffffffffffffffffffffffffffffffffff1673ffffffffffffffffffffffffffffffffffffffff16815260200190815260200160002060050154848054600181600116156101000203166002900480601f01602080910402602001604051908101604052809291908181526020018280546001816001161561010002031660029004801561349c5780601f106134715761010080835404028352916020019161349c565b820191906000526020600020905b81548152906001019060200180831161347f57829003601f168201915b50505050509450838054600181600116156101000203166002900480601f0160208091040260200160405190810160405280929190818152602001828054600181600116156101000203166002900480156135385780601f1061350d57610100808354040283529160200191613538565b820191906000526020600020905b81548152906001019060200180831161351b57829003601f168201915b505050505093509450945094509450945061367e565b600160008773ffffffffffffffffffffffffffffffffffffffff1673ffffffffffffffffffffffffffffffffffffffff1681526020019081526020016000206000016000806000838054600181600116156101000203166002900480601f01602080910402602001604051908101604052809291908181526020018280546001816001161561010002031660029004801561362a5780601f106135ff5761010080835404028352916020019161362a565b820191906000526020600020905b81548152906001019060200180831161360d57829003601f168201915b505050505093506040805190810160405280600181526020017f2d00000000000000000000000000000000000000000000000000000000000000815250929190829250819150809050945094509450945094505b91939590929450565b6000600160003373ffffffffffffffffffffffffffffffffffffffff1673ffffffffffffffffffffffffffffffffffffffff16815260200190815260200160002060000180546001816001161561010002031660029004905014801561374357506000600160003373ffffffffffffffffffffffffffffffffffffffff1673ffffffffffffffffffffffffffffffffffffffff168152602001908152602001600020600101805460018160011615610100020316600290049050145b15613a8e5781600160003373ffffffffffffffffffffffffffffffffffffffff1673ffffffffffffffffffffffffffffffffffffffff168152602001908152602001600020600001908051906020019061379e929190614870565b5080600160003373ffffffffffffffffffffffffffffffffffffffff1673ffffffffffffffffffffffffffffffffffffffff16815260200190815260200160002060010190805190602001906137f5929190614870565b5033600160003373ffffffffffffffffffffffffffffffffffffffff1673ffffffffffffffffffffffffffffffffffffffff16815260200190815260200160002060020160006101000a81548173ffffffffffffffffffffffffffffffffffffffff021916908373ffffffffffffffffffffffffffffffffffffffff1602179055506000600160003373ffffffffffffffffffffffffffffffffffffffff1673ffffffffffffffffffffffffffffffffffffffff168152602001908152602001600020600301819055506000600160003373ffffffffffffffffffffffffffffffffffffffff1673ffffffffffffffffffffffffffffffffffffffff168152602001908152602001600020600401819055506000600160003373ffffffffffffffffffffffffffffffffffffffff1673ffffffffffffffffffffffffffffffffffffffff16815260200190815260200160002060050181905550600160003373ffffffffffffffffffffffffffffffffffffffff1673ffffffffffffffffffffffffffffffffffffffff168152602001908152602001600020600260006004548152602001908152602001600020600082018160000190805460018160011615610100020316600290046139ca9291906148f0565b50600182018160010190805460018160011615610100020316600290046139f29291906148f0565b506002820160009054906101000a900473ffffffffffffffffffffffffffffffffffffffff168160020160006101000a81548173ffffffffffffffffffffffffffffffffffffffff021916908373ffffffffffffffffffffffffffffffffffffffff1602179055506003820154816003015560048201548160040155600582015481600501559050506004600081548092919060010191905055505b6000600160003373ffffffffffffffffffffffffffffffffffffffff1673ffffffffffffffffffffffffffffffffffffffff1681526020019081526020016000206000018054600181600116156101000203166002900490501180613b4957506000600160003373ffffffffffffffffffffffffffffffffffffffff1673ffffffffffffffffffffffffffffffffffffffff168152602001908152602001600020600101805460018160011615610100020316600290049050115b15613bfd5781600160003373ffffffffffffffffffffffffffffffffffffffff1673ffffffffffffffffffffffffffffffffffffffff1681526020019081526020016000206000019080519060200190613ba4929190614870565b5080600160003373ffffffffffffffffffffffffffffffffffffffff1673ffffffffffffffffffffffffffffffffffffffff1681526020019081526020016000206001019080519060200190613bfb929190614870565b505b7f352ab20050877eafaf7fe3110fc72725dd9a1e7b9d7028b1cc4fd59839626908823360405180806020018373ffffffffffffffffffffffffffffffffffffffff1673ffffffffffffffffffffffffffffffffffffffff168152602001828103825284818151815260200191508051906020019080838360005b83811015613c92578082015181840152602081019050613c77565b50505050905090810190601f168015613cbf5780820380516001836020036101000a031916815260200191505b50935050505060405180910390a15050565b606060006003600160003373ffffffffffffffffffffffffffffffffffffffff1673ffffffffffffffffffffffffffffffffffffffff16815260200190815260200160002060060160008681526020019081526020016000206000016040518082805460018160011615610100020316600290048015613d885780601f10613d66576101008083540402835291820191613d88565b820191906000526020600020905b815481529060010190602001808311613d74575b5050915050908152602001604051809103902060080160008481526020019081526020016000206000016003600160003373ffffffffffffffffffffffffffffffffffffffff1673ffffffffffffffffffffffffffffffffffffffff16815260200190815260200160002060060160008781526020019081526020016000206000016040518082805460018160011615610100020316600290048015613e655780601f10613e43576101008083540402835291820191613e65565b820191906000526020600020905b815481529060010190602001808311613e51575b50509150509081526020016040518091039020600801600085815260200190815260200160002060010160009054906101000a900473ffffffffffffffffffffffffffffffffffffffff16818054600181600116156101000203166002900480601f016020809104026020016040519081016040528092919081815260200182805460018160011615610100020316600290048015613f455780601f10613f1a57610100808354040283529160200191613f45565b820191906000526020600020905b815481529060010190602001808311613f2857829003601f168201915b50505050509150915091509250929050565b6060600160003373ffffffffffffffffffffffffffffffffffffffff1673ffffffffffffffffffffffffffffffffffffffff16815260200190815260200160002060070160006001840381526020019081526020016000206001018054600181600116156101000203166002900480601f0160208091040260200160405190810160405280929190818152602001828054600181600116156101000203166002900480156140465780601f1061401b57610100808354040283529160200191614046565b820191906000526020600020905b81548152906001019060200180831161402957829003601f168201915b50505050509050919050565b6000809054906101000a900473ffffffffffffffffffffffffffffffffffffffff1681565b6000600160003373ffffffffffffffffffffffffffffffffffffffff1673ffffffffffffffffffffffffffffffffffffffff16815260200190815260200160002060040154905090565b6060600080606060008060006003886040518082805190602001908083835b60208310151561410557805182526020820191506020810190506020830392506140e0565b6001836020036101000a03801982511681845116808217855250505050505090500191505090815260200160405180910390206001016003896040518082805190602001908083835b602083101515614173578051825260208201915060208101905060208303925061414e565b6001836020036101000a038019825116818451168082178552505050505050905001915050908152602001604051809103902060020160009054906101000a900473ffffffffffffffffffffffffffffffffffffffff1660038a6040518082805190602001908083835b60208310151561420257805182526020820191506020810190506020830392506141dd565b6001836020036101000a03801982511681845116808217855250505050505090500191505090815260200160405180910390206003015460038b6040518082805190602001908083835b602083101515614271578051825260208201915060208101905060208303925061424c565b6001836020036101000a038019825116818451168082178552505050505050905001915050908152602001604051809103902060040160038c6040518082805190602001908083835b6020831015156142df57805182526020820191506020810190506020830392506142ba565b6001836020036101000a03801982511681845116808217855250505050505090500191505090815260200160405180910390206005015460038d6040518082805190602001908083835b60208310151561434e5780518252602082019150602081019050602083039250614329565b6001836020036101000a03801982511681845116808217855250505050505090500191505090815260200160405180910390206006015460038e6040518082805190602001908083835b6020831015156143bd5780518252602082019150602081019050602083039250614398565b6001836020036101000a038019825116818451168082178552505050505050905001915050908152602001604051809103902060070154868054600181600116156101000203166002900480601f0160208091040260200160405190810160405280929190818152602001828054600181600116156101000203166002900480156144895780601f1061445e57610100808354040283529160200191614489565b820191906000526020600020905b81548152906001019060200180831161446c57829003601f168201915b50505050509650838054600181600116156101000203166002900480601f0160208091040260200160405190810160405280929190818152602001828054600181600116156101000203166002900480156145255780601f106144fa57610100808354040283529160200191614525565b820191906000526020600020905b81548152906001019060200180831161450857829003601f168201915b505050505093509650965096509650965096509650919395979092949650565b6001602052806000526040600020600091509050806000018054600181600116156101000203166002900480601f0160208091040260200160405190810160405280929190818152602001828054600181600116156101000203166002900480156145f15780601f106145c6576101008083540402835291602001916145f1565b820191906000526020600020905b8154815290600101906020018083116145d457829003601f168201915b505050505090806001018054600181600116156101000203166002900480601f01602080910402602001604051908101604052809291908181526020018280546001816001161561010002031660029004801561468f5780601f106146645761010080835404028352916020019161468f565b820191906000526020600020905b81548152906001019060200180831161467257829003601f168201915b5050505050908060020160009054906101000a900473ffffffffffffffffffffffffffffffffffffffff16908060030154908060040154908060050154905086565b6000809054906101000a900473ffffffffffffffffffffffffffffffffffffffff1673ffffffffffffffffffffffffffffffffffffffff163373ffffffffffffffffffffffffffffffffffffffff1614151561472c57600080fd5b600073ffffffffffffffffffffffffffffffffffffffff168173ffffffffffffffffffffffffffffffffffffffff161415151561476857600080fd5b8073ffffffffffffffffffffffffffffffffffffffff166000809054906101000a900473ffffffffffffffffffffffffffffffffffffffff1673ffffffffffffffffffffffffffffffffffffffff167f8be0079c531659141344cd1fd0a4f28419497f9722a3daafe3b4186f6b6457e060405160405180910390a3806000806101000a81548173ffffffffffffffffffffffffffffffffffffffff021916908373ffffffffffffffffffffffffffffffffffffffff16021790555050565b6000600160003373ffffffffffffffffffffffffffffffffffffffff1673ffffffffffffffffffffffffffffffffffffffff16815260200190815260200160002060050154905090565b828054600181600116156101000203166002900490600052602060002090601f016020900481019282601f106148b157805160ff19168380011785556148df565b828001600101855582156148df579182015b828111156148de5782518255916020019190600101906148c3565b5b5090506148ec9190614a3f565b5090565b828054600181600116156101000203166002900490600052602060002090601f016020900481019282601f106149295780548555614966565b8280016001018555821561496657600052602060002091601f016020900482015b8281111561496557825482559160010191906001019061494a565b5b5090506149739190614a3f565b5090565b50805460018160011615610100020316600290046000825580601f1061499d57506149bc565b601f0160209004906000526020600020908101906149bb9190614a3f565b5b50565b828054600181600116156101000203166002900490600052602060002090601f016020900481019282601f10614a0057805160ff1916838001178555614a2e565b82800160010185558215614a2e579182015b82811115614a2d578251825591602001919060010190614a12565b5b509050614a3b9190614a3f565b5090565b614a6191905b80821115614a5d576000816000905550600101614a45565b5090565b905600a165627a7a72305820b1f943c93ccaac8d3c764fcbae36bb16ccb7af6cd97b1a476d7319f0d378d21e0029",
  "source": "pragma solidity ^0.4.24;\nimport \"./Ownable.sol\";\n\ncontract Bright is Ownable {\n    \n    event UserProfileSetEvent (string name, address hash);\n    mapping (address => UserProfile) public hashUserMap;\n    mapping (uint => UserProfile) allUsersArray;\n    mapping (string => Commit) storedData;\n    uint numberOfUsers = 0;\n\n    struct UserProfile {\n        string name;\n        string email;\n        address hash;\n        uint numberCommitsReviewedbyMe;\n        uint numberCommitsToReviewbyMe;\n        uint numbermyCommits;\n        mapping (uint => Commit) userCommits;\n        mapping (uint => Commit) commitsToReview;\n    }\n    struct Commit {\n        string id;\n\t    string url;\n        address author;\n        uint timestamp;\n        string project;\n        uint numberReviews; \n        uint pending;\n        uint currentNumberReviews;\n        mapping (uint => comment) comments;\n    }\n    struct comment{\n        string text;\n        address user;\n    }\n    function setProfile (string _name, string _email) public {\n        //require(_hash == msg.sender);\n        if (bytes(hashUserMap[msg.sender].name).length == 0 && bytes(hashUserMap[msg.sender].email).length == 0){\n           \n            hashUserMap[msg.sender].name = _name;\n            hashUserMap[msg.sender].email = _email;\n\t        hashUserMap[msg.sender].hash = msg.sender;\n\t        hashUserMap[msg.sender].numberCommitsReviewedbyMe = 0;\n            hashUserMap[msg.sender].numberCommitsToReviewbyMe = 0;\n            hashUserMap[msg.sender].numbermyCommits=0;\n            allUsersArray[numberOfUsers] = hashUserMap[msg.sender];\n            numberOfUsers++;\n\n        }\n        if(bytes(hashUserMap[msg.sender].name).length > 0 || bytes(hashUserMap[msg.sender].email).length > 0){\n            hashUserMap[msg.sender].name = _name;\n            hashUserMap[msg.sender].email = _email;\n        }\n        emit UserProfileSetEvent(_name, msg.sender);\n    }\n\n    function getUser (address _hash) public view returns (string, string, uint, uint, uint) { //TODO: we need a getuser function using the email address instead of hash\n            \n        if (msg.sender == _hash){ //If you are calling the function\n        return (hashUserMap[_hash].name,\n                hashUserMap[_hash].email,\n                hashUserMap[_hash].numberCommitsReviewedbyMe,\n                hashUserMap[_hash].numberCommitsToReviewbyMe,\n                hashUserMap[_hash].numbermyCommits\n                );\n        } else{ //If other person is calling the function\n\t\t    return (hashUserMap[_hash].name,\"-\",0,0,0);\n\t\t}\n    }\n    \n    function setNewCommit (string _id, string _url, string _project, string _emailuser1, string _emailuser2, string _emailuser3, string _emailuser4) public { //_users separated by commas.\n        uint num = 0;\n        uint pending = 0;\n        if(keccak256(_emailuser1)!=keccak256(\"\")){num++;}\n        if(keccak256(_emailuser2)!=keccak256(\"\")){num++;}\n        if(keccak256(_emailuser3)!=keccak256(\"\")){num++;}\n        if(keccak256(_emailuser4)!=keccak256(\"\")){num++;}\n        if(num>0){pending=1;}\n        storedData[_id] = Commit(_id, _url, msg.sender, block.timestamp, _project, num, pending, 0);\n        hashUserMap[msg.sender].userCommits[hashUserMap[msg.sender].numbermyCommits] = storedData[_id];\n        hashUserMap[msg.sender].numbermyCommits++;\n        \n        //Send the notificatios to reviewers\n        for(uint i = 0; i < numberOfUsers; i++){\n            \n            if(keccak256(allUsersArray[i].email) == keccak256(_emailuser1)){\n                hashUserMap[allUsersArray[i].hash].commitsToReview[hashUserMap[allUsersArray[i].hash].numberCommitsToReviewbyMe] = storedData[_id];\n                hashUserMap[allUsersArray[i].hash].numberCommitsToReviewbyMe = (hashUserMap[allUsersArray[i].hash].numberCommitsToReviewbyMe + 1);  \n            }else if(keccak256(allUsersArray[i].email) == keccak256(_emailuser2)){\n                hashUserMap[allUsersArray[i].hash].commitsToReview[hashUserMap[allUsersArray[i].hash].numberCommitsToReviewbyMe] = storedData[_id];\n                hashUserMap[allUsersArray[i].hash].numberCommitsToReviewbyMe = hashUserMap[allUsersArray[i].hash].numberCommitsToReviewbyMe + 1;\n            }else if(keccak256(allUsersArray[i].email) == keccak256(_emailuser3)){\n                hashUserMap[allUsersArray[i].hash].commitsToReview[hashUserMap[allUsersArray[i].hash].numberCommitsToReviewbyMe] = storedData[_id];\n                hashUserMap[allUsersArray[i].hash].numberCommitsToReviewbyMe = hashUserMap[allUsersArray[i].hash].numberCommitsToReviewbyMe + 1;\n            }else if(keccak256(allUsersArray[i].email) == keccak256(_emailuser4)){\n                hashUserMap[allUsersArray[i].hash].commitsToReview[hashUserMap[allUsersArray[i].hash].numberCommitsToReviewbyMe] = storedData[_id];\n                hashUserMap[allUsersArray[i].hash].numberCommitsToReviewbyMe = hashUserMap[allUsersArray[i].hash].numberCommitsToReviewbyMe + 1;\n            }\n        }\n    }\n    function getDetailsCommits(string _id) public view returns(string, address, uint, string, uint, uint, uint){ //_index starts in 1\n        return (storedData[_id].url,\n            storedData[_id].author,\n            storedData[_id].timestamp,\n            storedData[_id].project,\n            storedData[_id].numberReviews,\n            storedData[_id].pending, //No=>0 and Yes=>1\n            storedData[_id].currentNumberReviews);\n    }\n    function getUserCommits(uint _index) public view returns(string){ //_index starts in 1\n    //TODO Change this function to return author, project,numberReviews,pending and currentNumberReviews.\n        return hashUserMap[msg.sender].userCommits[_index-1].url;\n    }\n    function getNumberUserCommits()public view returns(uint){\n        return hashUserMap[msg.sender].numbermyCommits;\n    }\n    function getAllUserEmail(uint _index) public view returns(string){ //_index starts in 0\n        return allUsersArray[_index].email;\n    }\n    function getAllUserNumber() public view returns(uint){ \n        return numberOfUsers;\n    }\n    function getNumberCommitsToReviewByMe() public view returns(uint){ \n        return hashUserMap[msg.sender].numberCommitsToReviewbyMe;\n    }\n    function getNumberCommitsReviewedByMe() public view returns(uint){ \n        return hashUserMap[msg.sender].numberCommitsReviewedbyMe;\n    }\n    function getCommitsToReviewByMe(uint _index) public view returns(string){ //_index starts in 1\n        return hashUserMap[msg.sender].commitsToReview[_index-1].url;\n    }\n    function getCommentsOfCommit(uint _indexCommit, uint _indexComments)public view returns(string, address){\n        return (storedData[hashUserMap[msg.sender].userCommits[_indexCommit].id].comments[_indexComments].text,\n        storedData[hashUserMap[msg.sender].userCommits[_indexCommit].id].comments[_indexComments].user);\n        \n        //return hashUserMap[msg.sender].userCommits[_indexCommit].comments[_indexComments].text;\n    }\n    function getNumberComments(uint _index)public view returns(uint){\n        //if (hashUserMap[msg.sender].userCommits[_index].id == )\n        return storedData[hashUserMap[msg.sender].userCommits[_index].id].currentNumberReviews;\n        //return hashUserMap[msg.sender].userCommits[_index].currentNumberReviews;\n    }\n    function setReview(uint _index, string _text)public{\n        \n        storedData[hashUserMap[msg.sender].commitsToReview[_index].id].comments[storedData[hashUserMap[msg.sender].commitsToReview[_index].id].currentNumberReviews].text = _text;\n        storedData[hashUserMap[msg.sender].commitsToReview[_index].id].comments[storedData[hashUserMap[msg.sender].commitsToReview[_index].id].currentNumberReviews].user = msg.sender;\n        \n        storedData[hashUserMap[msg.sender].commitsToReview[_index].id].currentNumberReviews++;\n        if(storedData[hashUserMap[msg.sender].commitsToReview[_index].id].currentNumberReviews==storedData[hashUserMap[msg.sender].commitsToReview[_index].id].numberReviews){\n            storedData[hashUserMap[msg.sender].commitsToReview[_index].id].pending = 0;\n        }\n        //User who has to review. \n        hashUserMap[msg.sender].commitsToReview[_index] = storedData[hashUserMap[msg.sender].commitsToReview[hashUserMap[msg.sender].numberCommitsToReviewbyMe-1].id]; //the last commit of the list commitsToReviewByMe is on the position which had the commit i delete\n        delete hashUserMap[msg.sender].commitsToReview[hashUserMap[msg.sender].numberCommitsToReviewbyMe];\n        hashUserMap[msg.sender].numberCommitsToReviewbyMe--; //decrease counter\n        hashUserMap[msg.sender].numberCommitsReviewedbyMe++; //encrease counter\n        \n\n    }\n}",
  "sourcePath": "/home/arodriguez/Documentos/truffle-BrightByte/contracts/Bright.sol",
  "compiler": {
    "name": "solc",
    "version": "0.4.24+commit.e67f0147.Emscripten.clang"
  },
  "schemaVersion": "2.0.0",
  "updatedAt": "2018-06-25T13:21:19.495Z"
}