{
  "contractName": "Bright",
  "abi": [
    {
      "constant": true,
      "inputs": [],
      "name": "owner",
      "outputs": [
        {
          "name": "",
          "type": "address"
        }
      ],
      "payable": false,
      "stateMutability": "view",
      "type": "function"
    },
    {
      "constant": true,
      "inputs": [
        {
          "name": "",
          "type": "address"
        }
      ],
      "name": "hashUserMap",
      "outputs": [
        {
          "name": "name",
          "type": "string"
        },
        {
          "name": "email",
          "type": "string"
        },
        {
          "name": "hash",
          "type": "address"
        },
        {
          "name": "numberCommitsReviewedbyMe",
          "type": "uint256"
        },
        {
          "name": "numberCommitsToReviewbyMe",
          "type": "uint256"
        },
        {
          "name": "numbermyCommits",
          "type": "uint256"
        }
      ],
      "payable": false,
      "stateMutability": "view",
      "type": "function"
    },
    {
      "constant": false,
      "inputs": [
        {
          "name": "newOwner",
          "type": "address"
        }
      ],
      "name": "transferOwnership",
      "outputs": [],
      "payable": false,
      "stateMutability": "nonpayable",
      "type": "function"
    },
    {
      "anonymous": false,
      "inputs": [
        {
          "indexed": false,
          "name": "name",
          "type": "string"
        },
        {
          "indexed": false,
          "name": "hash",
          "type": "address"
        }
      ],
      "name": "UserProfileSetEvent",
      "type": "event"
    },
    {
      "anonymous": false,
      "inputs": [
        {
          "indexed": true,
          "name": "previousOwner",
          "type": "address"
        },
        {
          "indexed": true,
          "name": "newOwner",
          "type": "address"
        }
      ],
      "name": "OwnershipTransferred",
      "type": "event"
    },
    {
      "constant": false,
      "inputs": [
        {
          "name": "_name",
          "type": "string"
        },
        {
          "name": "_email",
          "type": "string"
        }
      ],
      "name": "setProfile",
      "outputs": [],
      "payable": false,
      "stateMutability": "nonpayable",
      "type": "function"
    },
    {
      "constant": true,
      "inputs": [
        {
          "name": "_hash",
          "type": "address"
        }
      ],
      "name": "getUser",
      "outputs": [
        {
          "name": "",
          "type": "string"
        },
        {
          "name": "",
          "type": "string"
        },
        {
          "name": "",
          "type": "uint256"
        },
        {
          "name": "",
          "type": "uint256"
        },
        {
          "name": "",
          "type": "uint256"
        }
      ],
      "payable": false,
      "stateMutability": "view",
      "type": "function"
    },
    {
      "constant": false,
      "inputs": [
        {
          "name": "_id",
          "type": "string"
        },
        {
          "name": "_url",
          "type": "string"
        },
        {
          "name": "_project",
          "type": "string"
        },
        {
          "name": "_emailuser1",
          "type": "string"
        },
        {
          "name": "_emailuser2",
          "type": "string"
        },
        {
          "name": "_emailuser3",
          "type": "string"
        },
        {
          "name": "_emailuser4",
          "type": "string"
        }
      ],
      "name": "setNewCommit",
      "outputs": [],
      "payable": false,
      "stateMutability": "nonpayable",
      "type": "function"
    },
    {
      "constant": true,
      "inputs": [
        {
          "name": "_id",
          "type": "string"
        }
      ],
      "name": "getDetailsCommits",
      "outputs": [
        {
          "name": "",
          "type": "string"
        },
        {
          "name": "",
          "type": "address"
        },
        {
          "name": "",
          "type": "uint256"
        },
        {
          "name": "",
          "type": "string"
        },
        {
          "name": "",
          "type": "uint256"
        },
        {
          "name": "",
          "type": "bool"
        },
        {
          "name": "",
          "type": "uint256"
        }
      ],
      "payable": false,
      "stateMutability": "view",
      "type": "function"
    },
    {
      "constant": true,
      "inputs": [
        {
          "name": "_index",
          "type": "uint256"
        }
      ],
      "name": "getUserCommits",
      "outputs": [
        {
          "name": "",
          "type": "string"
        },
        {
          "name": "",
          "type": "string"
        },
        {
          "name": "",
          "type": "bool"
        }
      ],
      "payable": false,
      "stateMutability": "view",
      "type": "function"
    },
    {
      "constant": true,
      "inputs": [],
      "name": "getNumberUserCommits",
      "outputs": [
        {
          "name": "",
          "type": "uint256"
        }
      ],
      "payable": false,
      "stateMutability": "view",
      "type": "function"
    },
    {
      "constant": true,
      "inputs": [
        {
          "name": "_index",
          "type": "uint256"
        }
      ],
      "name": "getAllUserEmail",
      "outputs": [
        {
          "name": "",
          "type": "string"
        }
      ],
      "payable": false,
      "stateMutability": "view",
      "type": "function"
    },
    {
      "constant": true,
      "inputs": [],
      "name": "getAllUserNumber",
      "outputs": [
        {
          "name": "",
          "type": "uint256"
        }
      ],
      "payable": false,
      "stateMutability": "view",
      "type": "function"
    },
    {
      "constant": true,
      "inputs": [],
      "name": "getNumberCommitsToReviewByMe",
      "outputs": [
        {
          "name": "",
          "type": "uint256"
        }
      ],
      "payable": false,
      "stateMutability": "view",
      "type": "function"
    },
    {
      "constant": true,
      "inputs": [],
      "name": "getNumberCommitsReviewedByMe",
      "outputs": [
        {
          "name": "",
          "type": "uint256"
        }
      ],
      "payable": false,
      "stateMutability": "view",
      "type": "function"
    },
    {
      "constant": true,
      "inputs": [
        {
          "name": "_index",
          "type": "uint256"
        }
      ],
      "name": "getCommitsToReviewByMe",
      "outputs": [
        {
          "name": "",
          "type": "string"
        },
        {
          "name": "",
          "type": "string"
        }
      ],
      "payable": false,
      "stateMutability": "view",
      "type": "function"
    },
    {
      "constant": true,
      "inputs": [
        {
          "name": "_indexCommit",
          "type": "uint256"
        },
        {
          "name": "_indexComments",
          "type": "uint256"
        }
      ],
      "name": "getCommentsOfCommit",
      "outputs": [
        {
          "name": "",
          "type": "string"
        },
        {
          "name": "",
          "type": "address"
        },
        {
          "name": "",
          "type": "string"
        }
      ],
      "payable": false,
      "stateMutability": "view",
      "type": "function"
    },
    {
      "constant": true,
      "inputs": [
        {
          "name": "_index",
          "type": "uint256"
        }
      ],
      "name": "getNumberComments",
      "outputs": [
        {
          "name": "",
          "type": "uint256"
        }
      ],
      "payable": false,
      "stateMutability": "view",
      "type": "function"
    },
    {
      "constant": false,
      "inputs": [
        {
          "name": "_index",
          "type": "uint256"
        },
        {
          "name": "_text",
          "type": "string"
        }
      ],
      "name": "setReview",
      "outputs": [],
      "payable": false,
      "stateMutability": "nonpayable",
      "type": "function"
    }
  ],
  "bytecode": "0x60806040526000600455336000806101000a81548173ffffffffffffffffffffffffffffffffffffffff021916908373ffffffffffffffffffffffffffffffffffffffff16021790555061586f806100586000396000f3006080604052600436106100f1576000357c0100000000000000000000000000000000000000000000000000000000900463ffffffff16806305f4ca68146100f65780631252f4fa146101215780631a74721914610194578063274430ac146102b15780632ac06fd6146104be5780636749bbe3146104e95780636aecb2b41461058f5780636f77926b146105d0578063719e37ae1461070d578063787f74a9146107bc57806383cd588b1461090b5780638da5cb5b14610a1d5780639b7063bb14610a745780639b7950d314610a9f578063e15c2d0b14610c40578063f2fde38b14610db0578063f7da107014610df3575b600080fd5b34801561010257600080fd5b5061010b610e1e565b6040518082815260200191505060405180910390f35b34801561012d57600080fd5b5061019260048036038101908080359060200190929190803590602001908201803590602001908080601f0160208091040260200160405190810160405280939291908181526020018383808284378201915050505050509192919290505050610e28565b005b3480156101a057600080fd5b506101bf6004803603810190808035906020019092919050505061196c565b60405180806020018060200184151515158152602001838103835286818151815260200191508051906020019080838360005b8381101561020d5780820151818401526020810190506101f2565b50505050905090810190601f16801561023a5780820380516001836020036101000a031916815260200191505b50838103825285818151815260200191508051906020019080838360005b83811015610273578082015181840152602081019050610258565b50505050905090810190601f1680156102a05780820380516001836020036101000a031916815260200191505b509550505050505060405180910390f35b3480156102bd57600080fd5b506104bc600480360381019080803590602001908201803590602001908080601f0160208091040260200160405190810160405280939291908181526020018383808284378201915050505050509192919290803590602001908201803590602001908080601f0160208091040260200160405190810160405280939291908181526020018383808284378201915050505050509192919290803590602001908201803590602001908080601f0160208091040260200160405190810160405280939291908181526020018383808284378201915050505050509192919290803590602001908201803590602001908080601f0160208091040260200160405190810160405280939291908181526020018383808284378201915050505050509192919290803590602001908201803590602001908080601f0160208091040260200160405190810160405280939291908181526020018383808284378201915050505050509192919290803590602001908201803590602001908080601f0160208091040260200160405190810160405280939291908181526020018383808284378201915050505050509192919290803590602001908201803590602001908080601f0160208091040260200160405190810160405280939291908181526020018383808284378201915050505050509192919290505050611d1f565b005b3480156104ca57600080fd5b506104d3613b45565b6040518082815260200191505060405180910390f35b3480156104f557600080fd5b5061051460048036038101908080359060200190929190505050613b8f565b6040518080602001828103825283818151815260200191508051906020019080838360005b83811015610554578082015181840152602081019050610539565b50505050905090810190601f1680156105815780820380516001836020036101000a031916815260200191505b509250505060405180910390f35b34801561059b57600080fd5b506105ba60048036038101908080359060200190929190505050613c47565b6040518082815260200191505060405180910390f35b3480156105dc57600080fd5b50610611600480360381019080803573ffffffffffffffffffffffffffffffffffffffff169060200190929190505050613d1a565b604051808060200180602001868152602001858152602001848152602001838103835288818151815260200191508051906020019080838360005b8381101561066757808201518184015260208101905061064c565b50505050905090810190601f1680156106945780820380516001836020036101000a031916815260200191505b50838103825287818151815260200191508051906020019080838360005b838110156106cd5780820151818401526020810190506106b2565b50505050905090810190601f1680156106fa5780820380516001836020036101000a031916815260200191505b5097505050505050505060405180910390f35b34801561071957600080fd5b506107ba600480360381019080803590602001908201803590602001908080601f0160208091040260200160405190810160405280939291908181526020018383808284378201915050505050509192919290803590602001908201803590602001908080601f0160208091040260200160405190810160405280939291908181526020018383808284378201915050505050509192919290505050614123565b005b3480156107c857600080fd5b506107f1600480360381019080803590602001909291908035906020019092919050505061476d565b60405180806020018473ffffffffffffffffffffffffffffffffffffffff1673ffffffffffffffffffffffffffffffffffffffff16815260200180602001838103835286818151815260200191508051906020019080838360005b8381101561086757808201518184015260208101905061084c565b50505050905090810190601f1680156108945780820380516001836020036101000a031916815260200191505b50838103825284818151815260200191508051906020019080838360005b838110156108cd5780820151818401526020810190506108b2565b50505050905090810190601f1680156108fa5780820380516001836020036101000a031916815260200191505b509550505050505060405180910390f35b34801561091757600080fd5b5061093660048036038101908080359060200190929190505050614bd2565b604051808060200180602001838103835285818151815260200191508051906020019080838360005b8381101561097a57808201518184015260208101905061095f565b50505050905090810190601f1680156109a75780820380516001836020036101000a031916815260200191505b50838103825284818151815260200191508051906020019080838360005b838110156109e05780820151818401526020810190506109c5565b50505050905090810190601f168015610a0d5780820380516001836020036101000a031916815260200191505b5094505050505060405180910390f35b348015610a2957600080fd5b50610a32614e24565b604051808273ffffffffffffffffffffffffffffffffffffffff1673ffffffffffffffffffffffffffffffffffffffff16815260200191505060405180910390f35b348015610a8057600080fd5b50610a89614e49565b6040518082815260200191505060405180910390f35b348015610aab57600080fd5b50610b06600480360381019080803590602001908201803590602001908080601f0160208091040260200160405190810160405280939291908181526020018383808284378201915050505050509192919290505050614e93565b60405180806020018873ffffffffffffffffffffffffffffffffffffffff1673ffffffffffffffffffffffffffffffffffffffff168152602001878152602001806020018681526020018515151515815260200184815260200183810383528a818151815260200191508051906020019080838360005b83811015610b98578082015181840152602081019050610b7d565b50505050905090810190601f168015610bc55780820380516001836020036101000a031916815260200191505b50838103825287818151815260200191508051906020019080838360005b83811015610bfe578082015181840152602081019050610be3565b50505050905090810190601f168015610c2b5780820380516001836020036101000a031916815260200191505b50995050505050505050505060405180910390f35b348015610c4c57600080fd5b50610c81600480360381019080803573ffffffffffffffffffffffffffffffffffffffff169060200190929190505050615324565b6040518080602001806020018773ffffffffffffffffffffffffffffffffffffffff1673ffffffffffffffffffffffffffffffffffffffff168152602001868152602001858152602001848152602001838103835289818151815260200191508051906020019080838360005b83811015610d09578082015181840152602081019050610cee565b50505050905090810190601f168015610d365780820380516001836020036101000a031916815260200191505b50838103825288818151815260200191508051906020019080838360005b83811015610d6f578082015181840152602081019050610d54565b50505050905090810190601f168015610d9c5780820380516001836020036101000a031916815260200191505b509850505050505050505060405180910390f35b348015610dbc57600080fd5b50610df1600480360381019080803573ffffffffffffffffffffffffffffffffffffffff1690602001909291905050506154b0565b005b348015610dff57600080fd5b50610e08615605565b6040518082815260200191505060405180910390f35b6000600454905090565b806003600160003373ffffffffffffffffffffffffffffffffffffffff1673ffffffffffffffffffffffffffffffffffffffff16815260200190815260200160002060070160008581526020019081526020016000206000016040518082805460018160011615610100020316600290048015610edc5780601f10610eba576101008083540402835291820191610edc565b820191906000526020600020905b815481529060010190602001808311610ec8575b5050915050908152602001604051809103902060080160006003600160003373ffffffffffffffffffffffffffffffffffffffff1673ffffffffffffffffffffffffffffffffffffffff16815260200190815260200160002060070160008781526020019081526020016000206000016040518082805460018160011615610100020316600290048015610fa75780601f10610f85576101008083540402835291820191610fa7565b820191906000526020600020905b815481529060010190602001808311610f93575b505091505090815260200160405180910390206007015481526020019081526020016000206000019080519060200190610fe292919061564f565b50336003600160003373ffffffffffffffffffffffffffffffffffffffff1673ffffffffffffffffffffffffffffffffffffffff168152602001908152602001600020600701600085815260200190815260200160002060000160405180828054600181600116156101000203166002900480156110975780601f10611075576101008083540402835291820191611097565b820191906000526020600020905b815481529060010190602001808311611083575b5050915050908152602001604051809103902060080160006003600160003373ffffffffffffffffffffffffffffffffffffffff1673ffffffffffffffffffffffffffffffffffffffff168152602001908152602001600020600701600087815260200190815260200160002060000160405180828054600181600116156101000203166002900480156111625780601f10611140576101008083540402835291820191611162565b820191906000526020600020905b81548152906001019060200180831161114e575b5050915050908152602001604051809103902060070154815260200190815260200160002060010160006101000a81548173ffffffffffffffffffffffffffffffffffffffff021916908373ffffffffffffffffffffffffffffffffffffffff1602179055506003600160003373ffffffffffffffffffffffffffffffffffffffff1673ffffffffffffffffffffffffffffffffffffffff1681526020019081526020016000206007016000848152602001908152602001600020600001604051808280546001816001161561010002031660029004801561127b5780601f1061125957610100808354040283529182019161127b565b820191906000526020600020905b815481529060010190602001808311611267575b50509150509081526020016040518091039020600701600081548092919060010191905055506003600160003373ffffffffffffffffffffffffffffffffffffffff1673ffffffffffffffffffffffffffffffffffffffff168152602001908152602001600020600701600084815260200190815260200160002060000160405180828054600181600116156101000203166002900480156113545780601f10611332576101008083540402835291820191611354565b820191906000526020600020905b815481529060010190602001808311611340575b50509150509081526020016040518091039020600501546003600160003373ffffffffffffffffffffffffffffffffffffffff1673ffffffffffffffffffffffffffffffffffffffff1681526020019081526020016000206007016000858152602001908152602001600020600001604051808280546001816001161561010002031660029004801561141e5780601f106113fc57610100808354040283529182019161141e565b820191906000526020600020905b81548152906001019060200180831161140a575b5050915050908152602001604051809103902060070154141561151e5760006003600160003373ffffffffffffffffffffffffffffffffffffffff1673ffffffffffffffffffffffffffffffffffffffff168152602001908152602001600020600701600085815260200190815260200160002060000160405180828054600181600116156101000203166002900480156114f05780601f106114ce5761010080835404028352918201916114f0565b820191906000526020600020905b8154815290600101906020018083116114dc575b5050915050908152602001604051809103902060060160006101000a81548160ff0219169083151502179055505b6003600160003373ffffffffffffffffffffffffffffffffffffffff1673ffffffffffffffffffffffffffffffffffffffff168152602001908152602001600020600701600060018060003373ffffffffffffffffffffffffffffffffffffffff1673ffffffffffffffffffffffffffffffffffffffff1681526020019081526020016000206004015403815260200190815260200160002060000160405180828054600181600116156101000203166002900480156116155780601f106115f3576101008083540402835291820191611615565b820191906000526020600020905b815481529060010190602001808311611601575b50509150509081526020016040518091039020600160003373ffffffffffffffffffffffffffffffffffffffff1673ffffffffffffffffffffffffffffffffffffffff1681526020019081526020016000206007016000848152602001908152602001600020600082018160000190805460018160011615610100020316600290046116a29291906156cf565b50600182018160010190805460018160011615610100020316600290046116ca9291906156cf565b506002820160009054906101000a900473ffffffffffffffffffffffffffffffffffffffff168160020160006101000a81548173ffffffffffffffffffffffffffffffffffffffff021916908373ffffffffffffffffffffffffffffffffffffffff16021790555060038201548160030155600482018160040190805460018160011615610100020316600290046117639291906156cf565b50600582015481600501556006820160009054906101000a900460ff168160060160006101000a81548160ff02191690831515021790555060078201548160070155905050600160003373ffffffffffffffffffffffffffffffffffffffff1673ffffffffffffffffffffffffffffffffffffffff1681526020019081526020016000206007016000600160003373ffffffffffffffffffffffffffffffffffffffff1673ffffffffffffffffffffffffffffffffffffffff1681526020019081526020016000206004015481526020019081526020016000206000808201600061184e9190615756565b60018201600061185e9190615756565b6002820160006101000a81549073ffffffffffffffffffffffffffffffffffffffff0219169055600382016000905560048201600061189d9190615756565b60058201600090556006820160006101000a81549060ff021916905560078201600090555050600160003373ffffffffffffffffffffffffffffffffffffffff1673ffffffffffffffffffffffffffffffffffffffff1681526020019081526020016000206004016000815480929190600190039190505550600160003373ffffffffffffffffffffffffffffffffffffffff1673ffffffffffffffffffffffffffffffffffffffff168152602001908152602001600020600301600081548092919060010191905055505050565b60608060006003600160003373ffffffffffffffffffffffffffffffffffffffff1673ffffffffffffffffffffffffffffffffffffffff16815260200190815260200160002060060160008681526020019081526020016000206000016040518082805460018160011615610100020316600290048015611a245780601f10611a02576101008083540402835291820191611a24565b820191906000526020600020905b815481529060010190602001808311611a10575b505091505090815260200160405180910390206001016003600160003373ffffffffffffffffffffffffffffffffffffffff1673ffffffffffffffffffffffffffffffffffffffff16815260200190815260200160002060060160008781526020019081526020016000206000016040518082805460018160011615610100020316600290048015611aed5780601f10611acb576101008083540402835291820191611aed565b820191906000526020600020905b815481529060010190602001808311611ad9575b505091505090815260200160405180910390206004016003600160003373ffffffffffffffffffffffffffffffffffffffff1673ffffffffffffffffffffffffffffffffffffffff16815260200190815260200160002060060160008881526020019081526020016000206000016040518082805460018160011615610100020316600290048015611bb65780601f10611b94576101008083540402835291820191611bb6565b820191906000526020600020905b815481529060010190602001808311611ba2575b5050915050908152602001604051809103902060060160009054906101000a900460ff16828054600181600116156101000203166002900480601f016020809104026020016040519081016040528092919081815260200182805460018160011615610100020316600290048015611c6f5780601f10611c4457610100808354040283529160200191611c6f565b820191906000526020600020905b815481529060010190602001808311611c5257829003601f168201915b50505050509250818054600181600116156101000203166002900480601f016020809104026020016040519081016040528092919081815260200182805460018160011615610100020316600290048015611d0b5780601f10611ce057610100808354040283529160200191611d0b565b820191906000526020600020905b815481529060010190602001808311611cee57829003601f168201915b505050505091509250925092509193909250565b60008060008092506000915073__StringUtils___________________________6346bdca9a886040518263ffffffff167c0100000000000000000000000000000000000000000000000000000000028152600401808060200180602001838103835284818151815260200191508051906020019080838360005b83811015611db5578082015181840152602081019050611d9a565b50505050905090810190601f168015611de25780820380516001836020036101000a031916815260200191505b50838103825260008152602001602001935050505060206040518083038186803b158015611e0f57600080fd5b505af4158015611e23573d6000803e3d6000fd5b505050506040513d6020811015611e3957600080fd5b81019080805190602001909291905050501515611e595782806001019350505b73__StringUtils___________________________6346bdca9a876040518263ffffffff167c0100000000000000000000000000000000000000000000000000000000028152600401808060200180602001838103835284818151815260200191508051906020019080838360005b83811015611ee3578082015181840152602081019050611ec8565b50505050905090810190601f168015611f105780820380516001836020036101000a031916815260200191505b50838103825260008152602001602001935050505060206040518083038186803b158015611f3d57600080fd5b505af4158015611f51573d6000803e3d6000fd5b505050506040513d6020811015611f6757600080fd5b81019080805190602001909291905050501515611f875782806001019350505b73__StringUtils___________________________6346bdca9a866040518263ffffffff167c0100000000000000000000000000000000000000000000000000000000028152600401808060200180602001838103835284818151815260200191508051906020019080838360005b83811015612011578082015181840152602081019050611ff6565b50505050905090810190601f16801561203e5780820380516001836020036101000a031916815260200191505b50838103825260008152602001602001935050505060206040518083038186803b15801561206b57600080fd5b505af415801561207f573d6000803e3d6000fd5b505050506040513d602081101561209557600080fd5b810190808051906020019092919050505015156120b55782806001019350505b73__StringUtils___________________________6346bdca9a856040518263ffffffff167c0100000000000000000000000000000000000000000000000000000000028152600401808060200180602001838103835284818151815260200191508051906020019080838360005b8381101561213f578082015181840152602081019050612124565b50505050905090810190601f16801561216c5780820380516001836020036101000a031916815260200191505b50838103825260008152602001602001935050505060206040518083038186803b15801561219957600080fd5b505af41580156121ad573d6000803e3d6000fd5b505050506040513d60208110156121c357600080fd5b810190808051906020019092919050505015156121e35782806001019350505b60008311156121f157600191505b610100604051908101604052808b81526020018a81526020013373ffffffffffffffffffffffffffffffffffffffff1681526020014281526020018981526020018481526020018315158152602001600081525060038b6040518082805190602001908083835b60208310151561227d5780518252602082019150602081019050602083039250612258565b6001836020036101000a038019825116818451168082178552505050505050905001915050908152602001604051809103902060008201518160000190805190602001906122cc92919061579e565b5060208201518160010190805190602001906122e992919061579e565b5060408201518160020160006101000a81548173ffffffffffffffffffffffffffffffffffffffff021916908373ffffffffffffffffffffffffffffffffffffffff16021790555060608201518160030155608082015181600401908051906020019061235792919061579e565b5060a0820151816005015560c08201518160060160006101000a81548160ff02191690831515021790555060e0820151816007015590505060038a6040518082805190602001908083835b6020831015156123c757805182526020820191506020810190506020830392506123a2565b6001836020036101000a0380198251168184511680821785525050505050509050019150509081526020016040518091039020600160003373ffffffffffffffffffffffffffffffffffffffff1673ffffffffffffffffffffffffffffffffffffffff1681526020019081526020016000206006016000600160003373ffffffffffffffffffffffffffffffffffffffff1673ffffffffffffffffffffffffffffffffffffffff168152602001908152602001600020600501548152602001908152602001600020600082018160000190805460018160011615610100020316600290046124b69291906156cf565b50600182018160010190805460018160011615610100020316600290046124de9291906156cf565b506002820160009054906101000a900473ffffffffffffffffffffffffffffffffffffffff168160020160006101000a81548173ffffffffffffffffffffffffffffffffffffffff021916908373ffffffffffffffffffffffffffffffffffffffff16021790555060038201548160030155600482018160040190805460018160011615610100020316600290046125779291906156cf565b50600582015481600501556006820160009054906101000a900460ff168160060160006101000a81548160ff02191690831515021790555060078201548160070155905050600160003373ffffffffffffffffffffffffffffffffffffffff1673ffffffffffffffffffffffffffffffffffffffff16815260200190815260200160002060050160008154809291906001019190505550600090505b600454811015613b395773__StringUtils___________________________6346bdca9a60026000848152602001908152602001600020600101896040518363ffffffff167c01000000000000000000000000000000000000000000000000000000000281526004018080602001806020018381038352858181546001816001161561010002031660029004815260200191508054600181600116156101000203166002900480156127065780601f106126db57610100808354040283529160200191612706565b820191906000526020600020905b8154815290600101906020018083116126e957829003601f168201915b5050838103825284818151815260200191508051906020019080838360005b83811015612740578082015181840152602081019050612725565b50505050905090810190601f16801561276d5780820380516001836020036101000a031916815260200191505b5094505050505060206040518083038186803b15801561278c57600080fd5b505af41580156127a0573d6000803e3d6000fd5b505050506040513d60208110156127b657600080fd5b810190808051906020019092919050505015612b615760038a6040518082805190602001908083835b60208310151561280457805182526020820191506020810190506020830392506127df565b6001836020036101000a0380198251168184511680821785525050505050509050019150509081526020016040518091039020600160006002600085815260200190815260200160002060020160009054906101000a900473ffffffffffffffffffffffffffffffffffffffff1673ffffffffffffffffffffffffffffffffffffffff1673ffffffffffffffffffffffffffffffffffffffff1681526020019081526020016000206007016000600160006002600087815260200190815260200160002060020160009054906101000a900473ffffffffffffffffffffffffffffffffffffffff1673ffffffffffffffffffffffffffffffffffffffff1673ffffffffffffffffffffffffffffffffffffffff1681526020019081526020016000206004015481526020019081526020016000206000820181600001908054600181600116156101000203166002900461295f9291906156cf565b50600182018160010190805460018160011615610100020316600290046129879291906156cf565b506002820160009054906101000a900473ffffffffffffffffffffffffffffffffffffffff168160020160006101000a81548173ffffffffffffffffffffffffffffffffffffffff021916908373ffffffffffffffffffffffffffffffffffffffff1602179055506003820154816003015560048201816004019080546001816001161561010002031660029004612a209291906156cf565b50600582015481600501556006820160009054906101000a900460ff168160060160006101000a81548160ff0219169083151502179055506007820154816007015590505060018060006002600085815260200190815260200160002060020160009054906101000a900473ffffffffffffffffffffffffffffffffffffffff1673ffffffffffffffffffffffffffffffffffffffff1673ffffffffffffffffffffffffffffffffffffffff1681526020019081526020016000206004015401600160006002600085815260200190815260200160002060020160009054906101000a900473ffffffffffffffffffffffffffffffffffffffff1673ffffffffffffffffffffffffffffffffffffffff1673ffffffffffffffffffffffffffffffffffffffff16815260200190815260200160002060040181905550613b2c565b73__StringUtils___________________________6346bdca9a60026000848152602001908152602001600020600101886040518363ffffffff167c0100000000000000000000000000000000000000000000000000000000028152600401808060200180602001838103835285818154600181600116156101000203166002900481526020019150805460018160011615610100020316600290048015612c4a5780601f10612c1f57610100808354040283529160200191612c4a565b820191906000526020600020905b815481529060010190602001808311612c2d57829003601f168201915b5050838103825284818151815260200191508051906020019080838360005b83811015612c84578082015181840152602081019050612c69565b50505050905090810190601f168015612cb15780820380516001836020036101000a031916815260200191505b5094505050505060206040518083038186803b158015612cd057600080fd5b505af4158015612ce4573d6000803e3d6000fd5b505050506040513d6020811015612cfa57600080fd5b8101908080519060200190929190505050156130a55760038a6040518082805190602001908083835b602083101515612d485780518252602082019150602081019050602083039250612d23565b6001836020036101000a0380198251168184511680821785525050505050509050019150509081526020016040518091039020600160006002600085815260200190815260200160002060020160009054906101000a900473ffffffffffffffffffffffffffffffffffffffff1673ffffffffffffffffffffffffffffffffffffffff1673ffffffffffffffffffffffffffffffffffffffff1681526020019081526020016000206007016000600160006002600087815260200190815260200160002060020160009054906101000a900473ffffffffffffffffffffffffffffffffffffffff1673ffffffffffffffffffffffffffffffffffffffff1673ffffffffffffffffffffffffffffffffffffffff16815260200190815260200160002060040154815260200190815260200160002060008201816000019080546001816001161561010002031660029004612ea39291906156cf565b5060018201816001019080546001816001161561010002031660029004612ecb9291906156cf565b506002820160009054906101000a900473ffffffffffffffffffffffffffffffffffffffff168160020160006101000a81548173ffffffffffffffffffffffffffffffffffffffff021916908373ffffffffffffffffffffffffffffffffffffffff1602179055506003820154816003015560048201816004019080546001816001161561010002031660029004612f649291906156cf565b50600582015481600501556006820160009054906101000a900460ff168160060160006101000a81548160ff0219169083151502179055506007820154816007015590505060018060006002600085815260200190815260200160002060020160009054906101000a900473ffffffffffffffffffffffffffffffffffffffff1673ffffffffffffffffffffffffffffffffffffffff1673ffffffffffffffffffffffffffffffffffffffff1681526020019081526020016000206004015401600160006002600085815260200190815260200160002060020160009054906101000a900473ffffffffffffffffffffffffffffffffffffffff1673ffffffffffffffffffffffffffffffffffffffff1673ffffffffffffffffffffffffffffffffffffffff16815260200190815260200160002060040181905550613b2b565b73__StringUtils___________________________6346bdca9a60026000848152602001908152602001600020600101876040518363ffffffff167c010000000000000000000000000000000000000000000000000000000002815260040180806020018060200183810383528581815460018160011615610100020316600290048152602001915080546001816001161561010002031660029004801561318e5780601f106131635761010080835404028352916020019161318e565b820191906000526020600020905b81548152906001019060200180831161317157829003601f168201915b5050838103825284818151815260200191508051906020019080838360005b838110156131c85780820151818401526020810190506131ad565b50505050905090810190601f1680156131f55780820380516001836020036101000a031916815260200191505b5094505050505060206040518083038186803b15801561321457600080fd5b505af4158015613228573d6000803e3d6000fd5b505050506040513d602081101561323e57600080fd5b8101908080519060200190929190505050156135e95760038a6040518082805190602001908083835b60208310151561328c5780518252602082019150602081019050602083039250613267565b6001836020036101000a0380198251168184511680821785525050505050509050019150509081526020016040518091039020600160006002600085815260200190815260200160002060020160009054906101000a900473ffffffffffffffffffffffffffffffffffffffff1673ffffffffffffffffffffffffffffffffffffffff1673ffffffffffffffffffffffffffffffffffffffff1681526020019081526020016000206007016000600160006002600087815260200190815260200160002060020160009054906101000a900473ffffffffffffffffffffffffffffffffffffffff1673ffffffffffffffffffffffffffffffffffffffff1673ffffffffffffffffffffffffffffffffffffffff168152602001908152602001600020600401548152602001908152602001600020600082018160000190805460018160011615610100020316600290046133e79291906156cf565b506001820181600101908054600181600116156101000203166002900461340f9291906156cf565b506002820160009054906101000a900473ffffffffffffffffffffffffffffffffffffffff168160020160006101000a81548173ffffffffffffffffffffffffffffffffffffffff021916908373ffffffffffffffffffffffffffffffffffffffff16021790555060038201548160030155600482018160040190805460018160011615610100020316600290046134a89291906156cf565b50600582015481600501556006820160009054906101000a900460ff168160060160006101000a81548160ff0219169083151502179055506007820154816007015590505060018060006002600085815260200190815260200160002060020160009054906101000a900473ffffffffffffffffffffffffffffffffffffffff1673ffffffffffffffffffffffffffffffffffffffff1673ffffffffffffffffffffffffffffffffffffffff1681526020019081526020016000206004015401600160006002600085815260200190815260200160002060020160009054906101000a900473ffffffffffffffffffffffffffffffffffffffff1673ffffffffffffffffffffffffffffffffffffffff1673ffffffffffffffffffffffffffffffffffffffff16815260200190815260200160002060040181905550613b2a565b73__StringUtils___________________________6346bdca9a60026000848152602001908152602001600020600101866040518363ffffffff167c01000000000000000000000000000000000000000000000000000000000281526004018080602001806020018381038352858181546001816001161561010002031660029004815260200191508054600181600116156101000203166002900480156136d25780601f106136a7576101008083540402835291602001916136d2565b820191906000526020600020905b8154815290600101906020018083116136b557829003601f168201915b5050838103825284818151815260200191508051906020019080838360005b8381101561370c5780820151818401526020810190506136f1565b50505050905090810190601f1680156137395780820380516001836020036101000a031916815260200191505b5094505050505060206040518083038186803b15801561375857600080fd5b505af415801561376c573d6000803e3d6000fd5b505050506040513d602081101561378257600080fd5b810190808051906020019092919050505015613b295760038a6040518082805190602001908083835b6020831015156137d057805182526020820191506020810190506020830392506137ab565b6001836020036101000a0380198251168184511680821785525050505050509050019150509081526020016040518091039020600160006002600085815260200190815260200160002060020160009054906101000a900473ffffffffffffffffffffffffffffffffffffffff1673ffffffffffffffffffffffffffffffffffffffff1673ffffffffffffffffffffffffffffffffffffffff1681526020019081526020016000206007016000600160006002600087815260200190815260200160002060020160009054906101000a900473ffffffffffffffffffffffffffffffffffffffff1673ffffffffffffffffffffffffffffffffffffffff1673ffffffffffffffffffffffffffffffffffffffff1681526020019081526020016000206004015481526020019081526020016000206000820181600001908054600181600116156101000203166002900461392b9291906156cf565b50600182018160010190805460018160011615610100020316600290046139539291906156cf565b506002820160009054906101000a900473ffffffffffffffffffffffffffffffffffffffff168160020160006101000a81548173ffffffffffffffffffffffffffffffffffffffff021916908373ffffffffffffffffffffffffffffffffffffffff16021790555060038201548160030155600482018160040190805460018160011615610100020316600290046139ec9291906156cf565b50600582015481600501556006820160009054906101000a900460ff168160060160006101000a81548160ff0219169083151502179055506007820154816007015590505060018060006002600085815260200190815260200160002060020160009054906101000a900473ffffffffffffffffffffffffffffffffffffffff1673ffffffffffffffffffffffffffffffffffffffff1673ffffffffffffffffffffffffffffffffffffffff1681526020019081526020016000206004015401600160006002600085815260200190815260200160002060020160009054906101000a900473ffffffffffffffffffffffffffffffffffffffff1673ffffffffffffffffffffffffffffffffffffffff1673ffffffffffffffffffffffffffffffffffffffff168152602001908152602001600020600401819055505b5b5b5b8080600101915050612613565b50505050505050505050565b6000600160003373ffffffffffffffffffffffffffffffffffffffff1673ffffffffffffffffffffffffffffffffffffffff16815260200190815260200160002060030154905090565b6060600260008381526020019081526020016000206001018054600181600116156101000203166002900480601f016020809104026020016040519081016040528092919081815260200182805460018160011615610100020316600290048015613c3b5780601f10613c1057610100808354040283529160200191613c3b565b820191906000526020600020905b815481529060010190602001808311613c1e57829003601f168201915b50505050509050919050565b60006003600160003373ffffffffffffffffffffffffffffffffffffffff1673ffffffffffffffffffffffffffffffffffffffff16815260200190815260200160002060060160008481526020019081526020016000206000016040518082805460018160011615610100020316600290048015613cfc5780601f10613cda576101008083540402835291820191613cfc565b820191906000526020600020905b815481529060010190602001808311613ce8575b50509150509081526020016040518091039020600701549050919050565b60608060008060008573ffffffffffffffffffffffffffffffffffffffff163373ffffffffffffffffffffffffffffffffffffffff161415613fea57600160008773ffffffffffffffffffffffffffffffffffffffff1673ffffffffffffffffffffffffffffffffffffffff168152602001908152602001600020600001600160008873ffffffffffffffffffffffffffffffffffffffff1673ffffffffffffffffffffffffffffffffffffffff168152602001908152602001600020600101600160008973ffffffffffffffffffffffffffffffffffffffff1673ffffffffffffffffffffffffffffffffffffffff16815260200190815260200160002060030154600160008a73ffffffffffffffffffffffffffffffffffffffff1673ffffffffffffffffffffffffffffffffffffffff16815260200190815260200160002060040154600160008b73ffffffffffffffffffffffffffffffffffffffff1673ffffffffffffffffffffffffffffffffffffffff16815260200190815260200160002060050154848054600181600116156101000203166002900480601f016020809104026020016040519081016040528092919081815260200182805460018160011615610100020316600290048015613f385780601f10613f0d57610100808354040283529160200191613f38565b820191906000526020600020905b815481529060010190602001808311613f1b57829003601f168201915b50505050509450838054600181600116156101000203166002900480601f016020809104026020016040519081016040528092919081815260200182805460018160011615610100020316600290048015613fd45780601f10613fa957610100808354040283529160200191613fd4565b820191906000526020600020905b815481529060010190602001808311613fb757829003601f168201915b505050505093509450945094509450945061411a565b600160008773ffffffffffffffffffffffffffffffffffffffff1673ffffffffffffffffffffffffffffffffffffffff1681526020019081526020016000206000016000806000838054600181600116156101000203166002900480601f0160208091040260200160405190810160405280929190818152602001828054600181600116156101000203166002900480156140c65780601f1061409b576101008083540402835291602001916140c6565b820191906000526020600020905b8154815290600101906020018083116140a957829003601f168201915b505050505093506040805190810160405280600181526020017f2d00000000000000000000000000000000000000000000000000000000000000815250929190829250819150809050945094509450945094505b91939590929450565b6000600160003373ffffffffffffffffffffffffffffffffffffffff1673ffffffffffffffffffffffffffffffffffffffff1681526020019081526020016000206000018054600181600116156101000203166002900490501480156141df57506000600160003373ffffffffffffffffffffffffffffffffffffffff1673ffffffffffffffffffffffffffffffffffffffff168152602001908152602001600020600101805460018160011615610100020316600290049050145b1561452a5781600160003373ffffffffffffffffffffffffffffffffffffffff1673ffffffffffffffffffffffffffffffffffffffff168152602001908152602001600020600001908051906020019061423a92919061564f565b5080600160003373ffffffffffffffffffffffffffffffffffffffff1673ffffffffffffffffffffffffffffffffffffffff168152602001908152602001600020600101908051906020019061429192919061564f565b5033600160003373ffffffffffffffffffffffffffffffffffffffff1673ffffffffffffffffffffffffffffffffffffffff16815260200190815260200160002060020160006101000a81548173ffffffffffffffffffffffffffffffffffffffff021916908373ffffffffffffffffffffffffffffffffffffffff1602179055506000600160003373ffffffffffffffffffffffffffffffffffffffff1673ffffffffffffffffffffffffffffffffffffffff168152602001908152602001600020600301819055506000600160003373ffffffffffffffffffffffffffffffffffffffff1673ffffffffffffffffffffffffffffffffffffffff168152602001908152602001600020600401819055506000600160003373ffffffffffffffffffffffffffffffffffffffff1673ffffffffffffffffffffffffffffffffffffffff16815260200190815260200160002060050181905550600160003373ffffffffffffffffffffffffffffffffffffffff1673ffffffffffffffffffffffffffffffffffffffff168152602001908152602001600020600260006004548152602001908152602001600020600082018160000190805460018160011615610100020316600290046144669291906156cf565b506001820181600101908054600181600116156101000203166002900461448e9291906156cf565b506002820160009054906101000a900473ffffffffffffffffffffffffffffffffffffffff168160020160006101000a81548173ffffffffffffffffffffffffffffffffffffffff021916908373ffffffffffffffffffffffffffffffffffffffff1602179055506003820154816003015560048201548160040155600582015481600501559050506004600081548092919060010191905055505b6000600160003373ffffffffffffffffffffffffffffffffffffffff1673ffffffffffffffffffffffffffffffffffffffff16815260200190815260200160002060000180546001816001161561010002031660029004905011806145e557506000600160003373ffffffffffffffffffffffffffffffffffffffff1673ffffffffffffffffffffffffffffffffffffffff168152602001908152602001600020600101805460018160011615610100020316600290049050115b156146995781600160003373ffffffffffffffffffffffffffffffffffffffff1673ffffffffffffffffffffffffffffffffffffffff168152602001908152602001600020600001908051906020019061464092919061564f565b5080600160003373ffffffffffffffffffffffffffffffffffffffff1673ffffffffffffffffffffffffffffffffffffffff168152602001908152602001600020600101908051906020019061469792919061564f565b505b7f352ab20050877eafaf7fe3110fc72725dd9a1e7b9d7028b1cc4fd59839626908823360405180806020018373ffffffffffffffffffffffffffffffffffffffff1673ffffffffffffffffffffffffffffffffffffffff168152602001828103825284818151815260200191508051906020019080838360005b8381101561472e578082015181840152602081019050614713565b50505050905090810190601f16801561475b5780820380516001836020036101000a031916815260200191505b50935050505060405180910390a15050565b6060600060606003600160003373ffffffffffffffffffffffffffffffffffffffff1673ffffffffffffffffffffffffffffffffffffffff168152602001908152602001600020600601600087815260200190815260200160002060000160405180828054600181600116156101000203166002900480156148265780601f10614804576101008083540402835291820191614826565b820191906000526020600020905b815481529060010190602001808311614812575b5050915050908152602001604051809103902060080160008581526020019081526020016000206000016003600160003373ffffffffffffffffffffffffffffffffffffffff1673ffffffffffffffffffffffffffffffffffffffff168152602001908152602001600020600601600088815260200190815260200160002060000160405180828054600181600116156101000203166002900480156149035780601f106148e1576101008083540402835291820191614903565b820191906000526020600020905b8154815290600101906020018083116148ef575b50509150509081526020016040518091039020600801600086815260200190815260200160002060010160009054906101000a900473ffffffffffffffffffffffffffffffffffffffff16600160006003600160003373ffffffffffffffffffffffffffffffffffffffff1673ffffffffffffffffffffffffffffffffffffffff16815260200190815260200160002060060160008b81526020019081526020016000206000016040518082805460018160011615610100020316600290048015614a055780601f106149e3576101008083540402835291820191614a05565b820191906000526020600020905b8154815290600101906020018083116149f1575b50509150509081526020016040518091039020600801600089815260200190815260200160002060010160009054906101000a900473ffffffffffffffffffffffffffffffffffffffff1673ffffffffffffffffffffffffffffffffffffffff1673ffffffffffffffffffffffffffffffffffffffff168152602001908152602001600020600001828054600181600116156101000203166002900480601f016020809104026020016040519081016040528092919081815260200182805460018160011615610100020316600290048015614b225780601f10614af757610100808354040283529160200191614b22565b820191906000526020600020905b815481529060010190602001808311614b0557829003601f168201915b50505050509250808054600181600116156101000203166002900480601f016020809104026020016040519081016040528092919081815260200182805460018160011615610100020316600290048015614bbe5780601f10614b9357610100808354040283529160200191614bbe565b820191906000526020600020905b815481529060010190602001808311614ba157829003601f168201915b505050505090509250925092509250925092565b606080600160003373ffffffffffffffffffffffffffffffffffffffff1673ffffffffffffffffffffffffffffffffffffffff168152602001908152602001600020600701600084815260200190815260200160002060010160016000600160003373ffffffffffffffffffffffffffffffffffffffff1673ffffffffffffffffffffffffffffffffffffffff168152602001908152602001600020600701600087815260200190815260200160002060020160009054906101000a900473ffffffffffffffffffffffffffffffffffffffff1673ffffffffffffffffffffffffffffffffffffffff1673ffffffffffffffffffffffffffffffffffffffff168152602001908152602001600020600001818054600181600116156101000203166002900480601f016020809104026020016040519081016040528092919081815260200182805460018160011615610100020316600290048015614d785780601f10614d4d57610100808354040283529160200191614d78565b820191906000526020600020905b815481529060010190602001808311614d5b57829003601f168201915b50505050509150808054600181600116156101000203166002900480601f016020809104026020016040519081016040528092919081815260200182805460018160011615610100020316600290048015614e145780601f10614de957610100808354040283529160200191614e14565b820191906000526020600020905b815481529060010190602001808311614df757829003601f168201915b5050505050905091509150915091565b6000809054906101000a900473ffffffffffffffffffffffffffffffffffffffff1681565b6000600160003373ffffffffffffffffffffffffffffffffffffffff1673ffffffffffffffffffffffffffffffffffffffff16815260200190815260200160002060040154905090565b6060600080606060008060006003886040518082805190602001908083835b602083101515614ed75780518252602082019150602081019050602083039250614eb2565b6001836020036101000a03801982511681845116808217855250505050505090500191505090815260200160405180910390206001016003896040518082805190602001908083835b602083101515614f455780518252602082019150602081019050602083039250614f20565b6001836020036101000a038019825116818451168082178552505050505050905001915050908152602001604051809103902060020160009054906101000a900473ffffffffffffffffffffffffffffffffffffffff1660038a6040518082805190602001908083835b602083101515614fd45780518252602082019150602081019050602083039250614faf565b6001836020036101000a03801982511681845116808217855250505050505090500191505090815260200160405180910390206003015460038b6040518082805190602001908083835b602083101515615043578051825260208201915060208101905060208303925061501e565b6001836020036101000a038019825116818451168082178552505050505050905001915050908152602001604051809103902060040160038c6040518082805190602001908083835b6020831015156150b1578051825260208201915060208101905060208303925061508c565b6001836020036101000a03801982511681845116808217855250505050505090500191505090815260200160405180910390206005015460038d6040518082805190602001908083835b60208310151561512057805182526020820191506020810190506020830392506150fb565b6001836020036101000a038019825116818451168082178552505050505050905001915050908152602001604051809103902060060160009054906101000a900460ff1660038e6040518082805190602001908083835b60208310151561519c5780518252602082019150602081019050602083039250615177565b6001836020036101000a038019825116818451168082178552505050505050905001915050908152602001604051809103902060070154868054600181600116156101000203166002900480601f0160208091040260200160405190810160405280929190818152602001828054600181600116156101000203166002900480156152685780601f1061523d57610100808354040283529160200191615268565b820191906000526020600020905b81548152906001019060200180831161524b57829003601f168201915b50505050509650838054600181600116156101000203166002900480601f0160208091040260200160405190810160405280929190818152602001828054600181600116156101000203166002900480156153045780601f106152d957610100808354040283529160200191615304565b820191906000526020600020905b8154815290600101906020018083116152e757829003601f168201915b505050505093509650965096509650965096509650919395979092949650565b6001602052806000526040600020600091509050806000018054600181600116156101000203166002900480601f0160208091040260200160405190810160405280929190818152602001828054600181600116156101000203166002900480156153d05780601f106153a5576101008083540402835291602001916153d0565b820191906000526020600020905b8154815290600101906020018083116153b357829003601f168201915b505050505090806001018054600181600116156101000203166002900480601f01602080910402602001604051908101604052809291908181526020018280546001816001161561010002031660029004801561546e5780601f106154435761010080835404028352916020019161546e565b820191906000526020600020905b81548152906001019060200180831161545157829003601f168201915b5050505050908060020160009054906101000a900473ffffffffffffffffffffffffffffffffffffffff16908060030154908060040154908060050154905086565b6000809054906101000a900473ffffffffffffffffffffffffffffffffffffffff1673ffffffffffffffffffffffffffffffffffffffff163373ffffffffffffffffffffffffffffffffffffffff1614151561550b57600080fd5b600073ffffffffffffffffffffffffffffffffffffffff168173ffffffffffffffffffffffffffffffffffffffff161415151561554757600080fd5b8073ffffffffffffffffffffffffffffffffffffffff166000809054906101000a900473ffffffffffffffffffffffffffffffffffffffff1673ffffffffffffffffffffffffffffffffffffffff167f8be0079c531659141344cd1fd0a4f28419497f9722a3daafe3b4186f6b6457e060405160405180910390a3806000806101000a81548173ffffffffffffffffffffffffffffffffffffffff021916908373ffffffffffffffffffffffffffffffffffffffff16021790555050565b6000600160003373ffffffffffffffffffffffffffffffffffffffff1673ffffffffffffffffffffffffffffffffffffffff16815260200190815260200160002060050154905090565b828054600181600116156101000203166002900490600052602060002090601f016020900481019282601f1061569057805160ff19168380011785556156be565b828001600101855582156156be579182015b828111156156bd5782518255916020019190600101906156a2565b5b5090506156cb919061581e565b5090565b828054600181600116156101000203166002900490600052602060002090601f016020900481019282601f106157085780548555615745565b8280016001018555821561574557600052602060002091601f016020900482015b82811115615744578254825591600101919060010190615729565b5b509050615752919061581e565b5090565b50805460018160011615610100020316600290046000825580601f1061577c575061579b565b601f01602090049060005260206000209081019061579a919061581e565b5b50565b828054600181600116156101000203166002900490600052602060002090601f016020900481019282601f106157df57805160ff191683800117855561580d565b8280016001018555821561580d579182015b8281111561580c5782518255916020019190600101906157f1565b5b50905061581a919061581e565b5090565b61584091905b8082111561583c576000816000905550600101615824565b5090565b905600a165627a7a72305820d1407517f3920b2c9127760b70dcf2b78c8fffb2671759e82a9eeebbb3b9b3e20029",
  "source": "pragma solidity ^0.4.24;\nimport \"./Ownable.sol\";\nimport \"./StringUtils.sol\";\ncontract Bright is Ownable {\n    \n    event UserProfileSetEvent (string name, address hash);\n    mapping (address => UserProfile) public hashUserMap;\n    mapping (uint => UserProfile) allUsersArray;\n    mapping (string => Commit) storedData;\n    uint numberOfUsers = 0;\n\n    struct UserProfile {\n        string name;\n        string email;\n        address hash;\n        uint numberCommitsReviewedbyMe;\n        uint numberCommitsToReviewbyMe;\n        uint numbermyCommits;\n        mapping (uint => Commit) userCommits;\n        mapping (uint => Commit) commitsToReview;\n    }\n    struct Commit {\n        string id;\n\t    string url;\n        address author;\n        uint timestamp;\n        string project;\n        uint numberReviews; \n        bool pending;\n        uint currentNumberReviews;\n        mapping (uint => comment) comments;\n    }\n    struct comment{\n        string text;\n        address user;\n    }\n    function setProfile (string _name, string _email) public {\n        //require(_hash == msg.sender);\n        if (bytes(hashUserMap[msg.sender].name).length == 0 && bytes(hashUserMap[msg.sender].email).length == 0){\n           \n            hashUserMap[msg.sender].name = _name;\n            hashUserMap[msg.sender].email = _email;\n\t        hashUserMap[msg.sender].hash = msg.sender;\n\t        hashUserMap[msg.sender].numberCommitsReviewedbyMe = 0;\n            hashUserMap[msg.sender].numberCommitsToReviewbyMe = 0;\n            hashUserMap[msg.sender].numbermyCommits=0;\n            allUsersArray[numberOfUsers] = hashUserMap[msg.sender];\n            numberOfUsers++;\n\n        }\n        if(bytes(hashUserMap[msg.sender].name).length > 0 || bytes(hashUserMap[msg.sender].email).length > 0){\n            hashUserMap[msg.sender].name = _name;\n            hashUserMap[msg.sender].email = _email;\n        }\n        emit UserProfileSetEvent(_name, msg.sender);\n    }\n\n    function getUser (address _hash) public view returns (string, string, uint, uint, uint) { //TODO: we need a getuser function using the email address instead of hash\n            \n        if (msg.sender == _hash){ //If you are calling the function\n        return (hashUserMap[_hash].name,\n                hashUserMap[_hash].email,\n                hashUserMap[_hash].numberCommitsReviewedbyMe,\n                hashUserMap[_hash].numberCommitsToReviewbyMe,\n                hashUserMap[_hash].numbermyCommits\n                );\n        } else{ //If other person is calling the function\n\t\t    return (hashUserMap[_hash].name,\"-\",0,0,0);\n\t\t}\n    }\n    \n    function setNewCommit (string _id, string _url, string _project, string _emailuser1, string _emailuser2, string _emailuser3, string _emailuser4) public { //_users separated by commas.\n        uint num = 0;\n        bool pending = false;\n        if(!StringUtils.equal(_emailuser1,\"\")){num++;}\n        if(!StringUtils.equal(_emailuser2,\"\")){num++;}\n        if(!StringUtils.equal(_emailuser3,\"\")){num++;}\n        if(!StringUtils.equal(_emailuser4,\"\")){num++;}\n        if(num>0){pending=true;}\n        storedData[_id] = Commit(_id, _url, msg.sender, block.timestamp, _project, num, pending, 0);\n        hashUserMap[msg.sender].userCommits[hashUserMap[msg.sender].numbermyCommits] = storedData[_id];\n        hashUserMap[msg.sender].numbermyCommits++;\n        \n        //Send the notificatios to reviewers\n        for(uint i = 0; i < numberOfUsers; i++){\n            \n            if(StringUtils.equal(allUsersArray[i].email, _emailuser1)){\n                hashUserMap[allUsersArray[i].hash].commitsToReview[hashUserMap[allUsersArray[i].hash].numberCommitsToReviewbyMe] = storedData[_id];\n                hashUserMap[allUsersArray[i].hash].numberCommitsToReviewbyMe = (hashUserMap[allUsersArray[i].hash].numberCommitsToReviewbyMe + 1);  \n            }else if(StringUtils.equal(allUsersArray[i].email, _emailuser2)){\n                hashUserMap[allUsersArray[i].hash].commitsToReview[hashUserMap[allUsersArray[i].hash].numberCommitsToReviewbyMe] = storedData[_id];\n                hashUserMap[allUsersArray[i].hash].numberCommitsToReviewbyMe = hashUserMap[allUsersArray[i].hash].numberCommitsToReviewbyMe + 1;\n            }else if(StringUtils.equal(allUsersArray[i].email, _emailuser3)){\n                hashUserMap[allUsersArray[i].hash].commitsToReview[hashUserMap[allUsersArray[i].hash].numberCommitsToReviewbyMe] = storedData[_id];\n                hashUserMap[allUsersArray[i].hash].numberCommitsToReviewbyMe = hashUserMap[allUsersArray[i].hash].numberCommitsToReviewbyMe + 1;\n            }else if(StringUtils.equal(allUsersArray[i].email, _emailuser4)){\n                hashUserMap[allUsersArray[i].hash].commitsToReview[hashUserMap[allUsersArray[i].hash].numberCommitsToReviewbyMe] = storedData[_id];\n                hashUserMap[allUsersArray[i].hash].numberCommitsToReviewbyMe = hashUserMap[allUsersArray[i].hash].numberCommitsToReviewbyMe + 1;\n            }\n        }\n    }\n    function getDetailsCommits(string _id) public view returns(string, address, uint, string, uint, bool, uint){ //_index starts in 1\n        return (storedData[_id].url,\n            storedData[_id].author,\n            storedData[_id].timestamp,\n            storedData[_id].project,\n            storedData[_id].numberReviews,\n            storedData[_id].pending, //No=>false and Yes=>true\n            storedData[_id].currentNumberReviews);\n    }\n    function getUserCommits(uint _index) public view returns(string, string, bool){\n        return (storedData[hashUserMap[msg.sender].userCommits[_index].id].url,\n        storedData[hashUserMap[msg.sender].userCommits[_index].id].project,\n        storedData[hashUserMap[msg.sender].userCommits[_index].id].pending);\n    }\n    function getNumberUserCommits()public view returns(uint){\n        return hashUserMap[msg.sender].numbermyCommits;\n    }\n    function getAllUserEmail(uint _index) public view returns(string){\n        return allUsersArray[_index].email;\n    }\n    function getAllUserNumber() public view returns(uint){ \n        return numberOfUsers;\n    }\n    function getNumberCommitsToReviewByMe() public view returns(uint){ \n        return hashUserMap[msg.sender].numberCommitsToReviewbyMe;\n    }\n    function getNumberCommitsReviewedByMe() public view returns(uint){ \n        return hashUserMap[msg.sender].numberCommitsReviewedbyMe;\n    }\n    function getCommitsToReviewByMe(uint _index) public view returns(string, string){\n        return (hashUserMap[msg.sender].commitsToReview[_index].url,\n        hashUserMap[hashUserMap[msg.sender].commitsToReview[_index].author].name);\n    }\n    function getCommentsOfCommit(uint _indexCommit, uint _indexComments)public view returns(string, address, string){\n        return (storedData[hashUserMap[msg.sender].userCommits[_indexCommit].id].comments[_indexComments].text,\n        storedData[hashUserMap[msg.sender].userCommits[_indexCommit].id].comments[_indexComments].user,\n        hashUserMap[storedData[hashUserMap[msg.sender].userCommits[_indexCommit].id].comments[_indexComments].user].name);\n    }\n    function getNumberComments(uint _index)public view returns(uint){\n        return storedData[hashUserMap[msg.sender].userCommits[_index].id].currentNumberReviews;\n    }\n    function setReview(uint _index, string _text)public{\n        \n        storedData[hashUserMap[msg.sender].commitsToReview[_index].id].comments[storedData[hashUserMap[msg.sender].commitsToReview[_index].id].currentNumberReviews].text = _text;\n        storedData[hashUserMap[msg.sender].commitsToReview[_index].id].comments[storedData[hashUserMap[msg.sender].commitsToReview[_index].id].currentNumberReviews].user = msg.sender;\n        \n        storedData[hashUserMap[msg.sender].commitsToReview[_index].id].currentNumberReviews++;\n        if(storedData[hashUserMap[msg.sender].commitsToReview[_index].id].currentNumberReviews==storedData[hashUserMap[msg.sender].commitsToReview[_index].id].numberReviews){\n            storedData[hashUserMap[msg.sender].commitsToReview[_index].id].pending = false;\n        }\n        //User who has to review. \n        hashUserMap[msg.sender].commitsToReview[_index] = storedData[hashUserMap[msg.sender].commitsToReview[hashUserMap[msg.sender].numberCommitsToReviewbyMe-1].id]; //the last commit of the list commitsToReviewByMe is on the position which had the commit i delete\n        delete hashUserMap[msg.sender].commitsToReview[hashUserMap[msg.sender].numberCommitsToReviewbyMe];\n        hashUserMap[msg.sender].numberCommitsToReviewbyMe--; //decrease counter\n        hashUserMap[msg.sender].numberCommitsReviewedbyMe++; //encrease counter\n        \n\n    }\n}",
  "sourcePath": "/home/arodriguez/Documentos/truffle-BrightByte/contracts/Bright.sol",
  "compiler": {
    "name": "solc",
    "version": "0.4.24+commit.e67f0147.Emscripten.clang"
  },
  "schemaVersion": "2.0.0",
  "updatedAt": "2018-06-26T10:57:16.233Z"
}