{
  "contractName": "Bright",
  "abi": [
    {
      "constant": true,
      "inputs": [],
      "name": "owner",
      "outputs": [
        {
          "name": "",
          "type": "address"
        }
      ],
      "payable": false,
      "stateMutability": "view",
      "type": "function"
    },
    {
      "constant": true,
      "inputs": [
        {
          "name": "",
          "type": "address"
        }
      ],
      "name": "hashUserMap",
      "outputs": [
        {
          "name": "name",
          "type": "string"
        },
        {
          "name": "email",
          "type": "string"
        },
        {
          "name": "hash",
          "type": "address"
        },
        {
          "name": "numberCommitsReviewedbyMe",
          "type": "uint256"
        },
        {
          "name": "numberCommitsToReviewbyMe",
          "type": "uint256"
        },
        {
          "name": "numbermyCommits",
          "type": "uint256"
        }
      ],
      "payable": false,
      "stateMutability": "view",
      "type": "function"
    },
    {
      "constant": false,
      "inputs": [
        {
          "name": "newOwner",
          "type": "address"
        }
      ],
      "name": "transferOwnership",
      "outputs": [],
      "payable": false,
      "stateMutability": "nonpayable",
      "type": "function"
    },
    {
      "anonymous": false,
      "inputs": [
        {
          "indexed": false,
          "name": "name",
          "type": "string"
        },
        {
          "indexed": false,
          "name": "hash",
          "type": "address"
        }
      ],
      "name": "UserProfileSetEvent",
      "type": "event"
    },
    {
      "anonymous": false,
      "inputs": [
        {
          "indexed": true,
          "name": "previousOwner",
          "type": "address"
        },
        {
          "indexed": true,
          "name": "newOwner",
          "type": "address"
        }
      ],
      "name": "OwnershipTransferred",
      "type": "event"
    },
    {
      "constant": false,
      "inputs": [
        {
          "name": "_name",
          "type": "string"
        },
        {
          "name": "_email",
          "type": "string"
        }
      ],
      "name": "setProfile",
      "outputs": [],
      "payable": false,
      "stateMutability": "nonpayable",
      "type": "function"
    },
    {
      "constant": true,
      "inputs": [
        {
          "name": "_hash",
          "type": "address"
        }
      ],
      "name": "getUser",
      "outputs": [
        {
          "name": "",
          "type": "string"
        },
        {
          "name": "",
          "type": "string"
        },
        {
          "name": "",
          "type": "uint256"
        },
        {
          "name": "",
          "type": "uint256"
        },
        {
          "name": "",
          "type": "uint256"
        }
      ],
      "payable": false,
      "stateMutability": "view",
      "type": "function"
    },
    {
      "constant": false,
      "inputs": [
        {
          "name": "_id",
          "type": "string"
        },
        {
          "name": "_url",
          "type": "string"
        },
        {
          "name": "_project",
          "type": "string"
        },
        {
          "name": "_emailuser1",
          "type": "string"
        },
        {
          "name": "_emailuser2",
          "type": "string"
        },
        {
          "name": "_emailuser3",
          "type": "string"
        },
        {
          "name": "_emailuser4",
          "type": "string"
        }
      ],
      "name": "setNewCommit",
      "outputs": [],
      "payable": false,
      "stateMutability": "nonpayable",
      "type": "function"
    },
    {
      "constant": true,
      "inputs": [
        {
          "name": "_id",
          "type": "string"
        }
      ],
      "name": "getDetailsCommits",
      "outputs": [
        {
          "name": "",
          "type": "string"
        },
        {
          "name": "",
          "type": "address"
        },
        {
          "name": "",
          "type": "uint256"
        },
        {
          "name": "",
          "type": "string"
        },
        {
          "name": "",
          "type": "uint256"
        },
        {
          "name": "",
          "type": "uint256"
        },
        {
          "name": "",
          "type": "uint256"
        }
      ],
      "payable": false,
      "stateMutability": "view",
      "type": "function"
    },
    {
      "constant": true,
      "inputs": [
        {
          "name": "_index",
          "type": "uint256"
        }
      ],
      "name": "getUserCommits",
      "outputs": [
        {
          "name": "",
          "type": "string"
        }
      ],
      "payable": false,
      "stateMutability": "view",
      "type": "function"
    },
    {
      "constant": true,
      "inputs": [],
      "name": "getNumberUserCommits",
      "outputs": [
        {
          "name": "",
          "type": "uint256"
        }
      ],
      "payable": false,
      "stateMutability": "view",
      "type": "function"
    },
    {
      "constant": true,
      "inputs": [
        {
          "name": "_index",
          "type": "uint256"
        }
      ],
      "name": "getAllUserEmail",
      "outputs": [
        {
          "name": "",
          "type": "string"
        }
      ],
      "payable": false,
      "stateMutability": "view",
      "type": "function"
    },
    {
      "constant": true,
      "inputs": [],
      "name": "getAllUserNumber",
      "outputs": [
        {
          "name": "",
          "type": "uint256"
        }
      ],
      "payable": false,
      "stateMutability": "view",
      "type": "function"
    },
    {
      "constant": true,
      "inputs": [],
      "name": "getNumberCommitsToReviewByMe",
      "outputs": [
        {
          "name": "",
          "type": "uint256"
        }
      ],
      "payable": false,
      "stateMutability": "view",
      "type": "function"
    },
    {
      "constant": true,
      "inputs": [],
      "name": "getNumberCommitsReviewedByMe",
      "outputs": [
        {
          "name": "",
          "type": "uint256"
        }
      ],
      "payable": false,
      "stateMutability": "view",
      "type": "function"
    },
    {
      "constant": true,
      "inputs": [
        {
          "name": "_index",
          "type": "uint256"
        }
      ],
      "name": "getCommitsToReviewByMe",
      "outputs": [
        {
          "name": "",
          "type": "string"
        }
      ],
      "payable": false,
      "stateMutability": "view",
      "type": "function"
    },
    {
      "constant": false,
      "inputs": [
        {
          "name": "_index",
          "type": "uint256"
        },
        {
          "name": "_text",
          "type": "string"
        }
      ],
      "name": "setReview",
      "outputs": [],
      "payable": false,
      "stateMutability": "nonpayable",
      "type": "function"
    }
  ],
  "bytecode": "0x60806040526000600455336000806101000a81548173ffffffffffffffffffffffffffffffffffffffff021916908373ffffffffffffffffffffffffffffffffffffffff1602179055506141a6806100586000396000f3006080604052600436106100db576000357c0100000000000000000000000000000000000000000000000000000000900463ffffffff16806305f4ca68146100e05780631252f4fa1461010b5780631a7472191461017e578063274430ac146102245780632ac06fd6146104315780636749bbe31461045c5780636f77926b14610502578063719e37ae1461063f57806383cd588b146106ee5780638da5cb5b146107945780639b7063bb146107eb5780639b7950d314610816578063e15c2d0b146109b3578063f2fde38b14610b23578063f7da107014610b66575b600080fd5b3480156100ec57600080fd5b506100f5610b91565b6040518082815260200191505060405180910390f35b34801561011757600080fd5b5061017c60048036038101908080359060200190929190803590602001908201803590602001908080601f0160208091040260200160405190810160405280939291908181526020018383808284378201915050505050509192919290505050610b9b565b005b34801561018a57600080fd5b506101a960048036038101908080359060200190929190505050611246565b6040518080602001828103825283818151815260200191508051906020019080838360005b838110156101e95780820151818401526020810190506101ce565b50505050905090810190601f1680156102165780820380516001836020036101000a031916815260200191505b509250505060405180910390f35b34801561023057600080fd5b5061042f600480360381019080803590602001908201803590602001908080601f0160208091040260200160405190810160405280939291908181526020018383808284378201915050505050509192919290803590602001908201803590602001908080601f0160208091040260200160405190810160405280939291908181526020018383808284378201915050505050509192919290803590602001908201803590602001908080601f0160208091040260200160405190810160405280939291908181526020018383808284378201915050505050509192919290803590602001908201803590602001908080601f0160208091040260200160405190810160405280939291908181526020018383808284378201915050505050509192919290803590602001908201803590602001908080601f0160208091040260200160405190810160405280939291908181526020018383808284378201915050505050509192919290803590602001908201803590602001908080601f0160208091040260200160405190810160405280939291908181526020018383808284378201915050505050509192919290803590602001908201803590602001908080601f0160208091040260200160405190810160405280939291908181526020018383808284378201915050505050509192919290505050611341565b005b34801561043d57600080fd5b50610446612b18565b6040518082815260200191505060405180910390f35b34801561046857600080fd5b5061048760048036038101908080359060200190929190505050612b62565b6040518080602001828103825283818151815260200191508051906020019080838360005b838110156104c75780820151818401526020810190506104ac565b50505050905090810190601f1680156104f45780820380516001836020036101000a031916815260200191505b509250505060405180910390f35b34801561050e57600080fd5b50610543600480360381019080803573ffffffffffffffffffffffffffffffffffffffff169060200190929190505050612c1a565b604051808060200180602001868152602001858152602001848152602001838103835288818151815260200191508051906020019080838360005b8381101561059957808201518184015260208101905061057e565b50505050905090810190601f1680156105c65780820380516001836020036101000a031916815260200191505b50838103825287818151815260200191508051906020019080838360005b838110156105ff5780820151818401526020810190506105e4565b50505050905090810190601f16801561062c5780820380516001836020036101000a031916815260200191505b5097505050505050505060405180910390f35b34801561064b57600080fd5b506106ec600480360381019080803590602001908201803590602001908080601f0160208091040260200160405190810160405280939291908181526020018383808284378201915050505050509192919290803590602001908201803590602001908080601f0160208091040260200160405190810160405280939291908181526020018383808284378201915050505050509192919290505050613023565b005b3480156106fa57600080fd5b506107196004803603810190808035906020019092919050505061366d565b6040518080602001828103825283818151815260200191508051906020019080838360005b8381101561075957808201518184015260208101905061073e565b50505050905090810190601f1680156107865780820380516001836020036101000a031916815260200191505b509250505060405180910390f35b3480156107a057600080fd5b506107a9613768565b604051808273ffffffffffffffffffffffffffffffffffffffff1673ffffffffffffffffffffffffffffffffffffffff16815260200191505060405180910390f35b3480156107f757600080fd5b5061080061378d565b6040518082815260200191505060405180910390f35b34801561082257600080fd5b5061087d600480360381019080803590602001908201803590602001908080601f01602080910402602001604051908101604052809392919081815260200183838082843782019150505050505091929192905050506137d7565b60405180806020018873ffffffffffffffffffffffffffffffffffffffff1673ffffffffffffffffffffffffffffffffffffffff1681526020018781526020018060200186815260200185815260200184815260200183810383528a818151815260200191508051906020019080838360005b8381101561090b5780820151818401526020810190506108f0565b50505050905090810190601f1680156109385780820380516001836020036101000a031916815260200191505b50838103825287818151815260200191508051906020019080838360005b83811015610971578082015181840152602081019050610956565b50505050905090810190601f16801561099e5780820380516001836020036101000a031916815260200191505b50995050505050505050505060405180910390f35b3480156109bf57600080fd5b506109f4600480360381019080803573ffffffffffffffffffffffffffffffffffffffff169060200190929190505050613c5b565b6040518080602001806020018773ffffffffffffffffffffffffffffffffffffffff1673ffffffffffffffffffffffffffffffffffffffff168152602001868152602001858152602001848152602001838103835289818151815260200191508051906020019080838360005b83811015610a7c578082015181840152602081019050610a61565b50505050905090810190601f168015610aa95780820380516001836020036101000a031916815260200191505b50838103825288818151815260200191508051906020019080838360005b83811015610ae2578082015181840152602081019050610ac7565b50505050905090810190601f168015610b0f5780820380516001836020036101000a031916815260200191505b509850505050505050505060405180910390f35b348015610b2f57600080fd5b50610b64600480360381019080803573ffffffffffffffffffffffffffffffffffffffff169060200190929190505050613de7565b005b348015610b7257600080fd5b50610b7b613f3c565b6040518082815260200191505060405180910390f35b6000600454905090565b80600160003373ffffffffffffffffffffffffffffffffffffffff1673ffffffffffffffffffffffffffffffffffffffff16815260200190815260200160002060070160008481526020019081526020016000206008016000600160003373ffffffffffffffffffffffffffffffffffffffff1673ffffffffffffffffffffffffffffffffffffffff16815260200190815260200160002060070160008681526020019081526020016000206007015481526020019081526020016000206000019080519060200190610c6f929190613f86565b5033600160003373ffffffffffffffffffffffffffffffffffffffff1673ffffffffffffffffffffffffffffffffffffffff16815260200190815260200160002060070160008481526020019081526020016000206008016000600160003373ffffffffffffffffffffffffffffffffffffffff1673ffffffffffffffffffffffffffffffffffffffff168152602001908152602001600020600701600086815260200190815260200160002060070154815260200190815260200160002060010160006101000a81548173ffffffffffffffffffffffffffffffffffffffff021916908373ffffffffffffffffffffffffffffffffffffffff160217905550600160003373ffffffffffffffffffffffffffffffffffffffff1673ffffffffffffffffffffffffffffffffffffffff168152602001908152602001600020600701600083815260200190815260200160002060070160008154809291906001019190505550600160003373ffffffffffffffffffffffffffffffffffffffff1673ffffffffffffffffffffffffffffffffffffffff168152602001908152602001600020600701600083815260200190815260200160002060050154600160003373ffffffffffffffffffffffffffffffffffffffff1673ffffffffffffffffffffffffffffffffffffffff1681526020019081526020016000206007016000848152602001908152602001600020600701541415610ede57600160003373ffffffffffffffffffffffffffffffffffffffff1673ffffffffffffffffffffffffffffffffffffffff1681526020019081526020016000206007016000838152602001908152602001600020505b600160003373ffffffffffffffffffffffffffffffffffffffff1673ffffffffffffffffffffffffffffffffffffffff168152602001908152602001600020600701600083815260200190815260200160002060008082016000610f429190614006565b600182016000610f529190614006565b6002820160006101000a81549073ffffffffffffffffffffffffffffffffffffffff02191690556003820160009055600482016000610f919190614006565b6005820160009055600682016000905560078201600090555050600160003373ffffffffffffffffffffffffffffffffffffffff1673ffffffffffffffffffffffffffffffffffffffff1681526020019081526020016000206007016000600160003373ffffffffffffffffffffffffffffffffffffffff1673ffffffffffffffffffffffffffffffffffffffff168152602001908152602001600020600401548152602001908152602001600020600160003373ffffffffffffffffffffffffffffffffffffffff1673ffffffffffffffffffffffffffffffffffffffff1681526020019081526020016000206007016000848152602001908152602001600020600082018160000190805460018160011615610100020316600290046110ba92919061404e565b50600182018160010190805460018160011615610100020316600290046110e292919061404e565b506002820160009054906101000a900473ffffffffffffffffffffffffffffffffffffffff168160020160006101000a81548173ffffffffffffffffffffffffffffffffffffffff021916908373ffffffffffffffffffffffffffffffffffffffff160217905550600382015481600301556004820181600401908054600181600116156101000203166002900461117b92919061404e565b50600582015481600501556006820154816006015560078201548160070155905050600160003373ffffffffffffffffffffffffffffffffffffffff1673ffffffffffffffffffffffffffffffffffffffff1681526020019081526020016000206004016000815480929190600190039190505550600160003373ffffffffffffffffffffffffffffffffffffffff1673ffffffffffffffffffffffffffffffffffffffff168152602001908152602001600020600301600081548092919060010191905055505050565b6060600160003373ffffffffffffffffffffffffffffffffffffffff1673ffffffffffffffffffffffffffffffffffffffff16815260200190815260200160002060060160006001840381526020019081526020016000206001018054600181600116156101000203166002900480601f0160208091040260200160405190810160405280929190818152602001828054600181600116156101000203166002900480156113355780601f1061130a57610100808354040283529160200191611335565b820191906000526020600020905b81548152906001019060200180831161131857829003601f168201915b50505050509050919050565b600080600080925060009150604051806000019050604051809103902060001916876040518082805190602001908083835b6020831015156113985780518252602082019150602081019050602083039250611373565b6001836020036101000a0380198251168184511680821785525050505050509050019150506040518091039020600019161415156113d95782806001019350505b604051806000019050604051809103902060001916866040518082805190602001908083835b60208310151561142457805182526020820191506020810190506020830392506113ff565b6001836020036101000a0380198251168184511680821785525050505050509050019150506040518091039020600019161415156114655782806001019350505b604051806000019050604051809103902060001916856040518082805190602001908083835b6020831015156114b0578051825260208201915060208101905060208303925061148b565b6001836020036101000a0380198251168184511680821785525050505050509050019150506040518091039020600019161415156114f15782806001019350505b604051806000019050604051809103902060001916846040518082805190602001908083835b60208310151561153c5780518252602082019150602081019050602083039250611517565b6001836020036101000a03801982511681845116808217855250505050505090500191505060405180910390206000191614151561157d5782806001019350505b600083111561158b57600191505b610100604051908101604052808b81526020018a81526020013373ffffffffffffffffffffffffffffffffffffffff168152602001428152602001898152602001848152602001838152602001600081525060038b6040518082805190602001908083835b60208310151561161557805182526020820191506020810190506020830392506115f0565b6001836020036101000a038019825116818451168082178552505050505050905001915050908152602001604051809103902060008201518160000190805190602001906116649291906140d5565b5060208201518160010190805190602001906116819291906140d5565b5060408201518160020160006101000a81548173ffffffffffffffffffffffffffffffffffffffff021916908373ffffffffffffffffffffffffffffffffffffffff1602179055506060820151816003015560808201518160040190805190602001906116ef9291906140d5565b5060a0820151816005015560c0820151816006015560e0820151816007015590505060038a6040518082805190602001908083835b6020831015156117495780518252602082019150602081019050602083039250611724565b6001836020036101000a0380198251168184511680821785525050505050509050019150509081526020016040518091039020600160003373ffffffffffffffffffffffffffffffffffffffff1673ffffffffffffffffffffffffffffffffffffffff1681526020019081526020016000206006016000600160003373ffffffffffffffffffffffffffffffffffffffff1673ffffffffffffffffffffffffffffffffffffffff1681526020019081526020016000206005015481526020019081526020016000206000820181600001908054600181600116156101000203166002900461183892919061404e565b506001820181600101908054600181600116156101000203166002900461186092919061404e565b506002820160009054906101000a900473ffffffffffffffffffffffffffffffffffffffff168160020160006101000a81548173ffffffffffffffffffffffffffffffffffffffff021916908373ffffffffffffffffffffffffffffffffffffffff16021790555060038201548160030155600482018160040190805460018160011615610100020316600290046118f992919061404e565b50600582015481600501556006820154816006015560078201548160070155905050600160003373ffffffffffffffffffffffffffffffffffffffff1673ffffffffffffffffffffffffffffffffffffffff16815260200190815260200160002060050160008154809291906001019190505550600090505b600454811015612b0c57866040518082805190602001908083835b6020831015156119b2578051825260208201915060208101905060208303925061198d565b6001836020036101000a038019825116818451168082178552505050505050905001915050604051809103902060001916600260008381526020019081526020016000206001016040518082805460018160011615610100020316600290048015611a545780601f10611a32576101008083540402835291820191611a54565b820191906000526020600020905b815481529060010190602001808311611a40575b50509150506040518091039020600019161415611ddd5760038a6040518082805190602001908083835b602083101515611aa35780518252602082019150602081019050602083039250611a7e565b6001836020036101000a0380198251168184511680821785525050505050509050019150509081526020016040518091039020600160006002600085815260200190815260200160002060020160009054906101000a900473ffffffffffffffffffffffffffffffffffffffff1673ffffffffffffffffffffffffffffffffffffffff1673ffffffffffffffffffffffffffffffffffffffff1681526020019081526020016000206007016000600160006002600087815260200190815260200160002060020160009054906101000a900473ffffffffffffffffffffffffffffffffffffffff1673ffffffffffffffffffffffffffffffffffffffff1673ffffffffffffffffffffffffffffffffffffffff16815260200190815260200160002060040154815260200190815260200160002060008201816000019080546001816001161561010002031660029004611bfe92919061404e565b5060018201816001019080546001816001161561010002031660029004611c2692919061404e565b506002820160009054906101000a900473ffffffffffffffffffffffffffffffffffffffff168160020160006101000a81548173ffffffffffffffffffffffffffffffffffffffff021916908373ffffffffffffffffffffffffffffffffffffffff1602179055506003820154816003015560048201816004019080546001816001161561010002031660029004611cbf92919061404e565b5060058201548160050155600682015481600601556007820154816007015590505060018060006002600085815260200190815260200160002060020160009054906101000a900473ffffffffffffffffffffffffffffffffffffffff1673ffffffffffffffffffffffffffffffffffffffff1673ffffffffffffffffffffffffffffffffffffffff1681526020019081526020016000206004015401600160006002600085815260200190815260200160002060020160009054906101000a900473ffffffffffffffffffffffffffffffffffffffff1673ffffffffffffffffffffffffffffffffffffffff1673ffffffffffffffffffffffffffffffffffffffff16815260200190815260200160002060040181905550612aff565b856040518082805190602001908083835b602083101515611e135780518252602082019150602081019050602083039250611dee565b6001836020036101000a038019825116818451168082178552505050505050905001915050604051809103902060001916600260008381526020019081526020016000206001016040518082805460018160011615610100020316600290048015611eb55780601f10611e93576101008083540402835291820191611eb5565b820191906000526020600020905b815481529060010190602001808311611ea1575b5050915050604051809103902060001916141561223e5760038a6040518082805190602001908083835b602083101515611f045780518252602082019150602081019050602083039250611edf565b6001836020036101000a0380198251168184511680821785525050505050509050019150509081526020016040518091039020600160006002600085815260200190815260200160002060020160009054906101000a900473ffffffffffffffffffffffffffffffffffffffff1673ffffffffffffffffffffffffffffffffffffffff1673ffffffffffffffffffffffffffffffffffffffff1681526020019081526020016000206007016000600160006002600087815260200190815260200160002060020160009054906101000a900473ffffffffffffffffffffffffffffffffffffffff1673ffffffffffffffffffffffffffffffffffffffff1673ffffffffffffffffffffffffffffffffffffffff1681526020019081526020016000206004015481526020019081526020016000206000820181600001908054600181600116156101000203166002900461205f92919061404e565b506001820181600101908054600181600116156101000203166002900461208792919061404e565b506002820160009054906101000a900473ffffffffffffffffffffffffffffffffffffffff168160020160006101000a81548173ffffffffffffffffffffffffffffffffffffffff021916908373ffffffffffffffffffffffffffffffffffffffff160217905550600382015481600301556004820181600401908054600181600116156101000203166002900461212092919061404e565b5060058201548160050155600682015481600601556007820154816007015590505060018060006002600085815260200190815260200160002060020160009054906101000a900473ffffffffffffffffffffffffffffffffffffffff1673ffffffffffffffffffffffffffffffffffffffff1673ffffffffffffffffffffffffffffffffffffffff1681526020019081526020016000206004015401600160006002600085815260200190815260200160002060020160009054906101000a900473ffffffffffffffffffffffffffffffffffffffff1673ffffffffffffffffffffffffffffffffffffffff1673ffffffffffffffffffffffffffffffffffffffff16815260200190815260200160002060040181905550612afe565b846040518082805190602001908083835b602083101515612274578051825260208201915060208101905060208303925061224f565b6001836020036101000a0380198251168184511680821785525050505050509050019150506040518091039020600019166002600083815260200190815260200160002060010160405180828054600181600116156101000203166002900480156123165780601f106122f4576101008083540402835291820191612316565b820191906000526020600020905b815481529060010190602001808311612302575b5050915050604051809103902060001916141561269f5760038a6040518082805190602001908083835b6020831015156123655780518252602082019150602081019050602083039250612340565b6001836020036101000a0380198251168184511680821785525050505050509050019150509081526020016040518091039020600160006002600085815260200190815260200160002060020160009054906101000a900473ffffffffffffffffffffffffffffffffffffffff1673ffffffffffffffffffffffffffffffffffffffff1673ffffffffffffffffffffffffffffffffffffffff1681526020019081526020016000206007016000600160006002600087815260200190815260200160002060020160009054906101000a900473ffffffffffffffffffffffffffffffffffffffff1673ffffffffffffffffffffffffffffffffffffffff1673ffffffffffffffffffffffffffffffffffffffff168152602001908152602001600020600401548152602001908152602001600020600082018160000190805460018160011615610100020316600290046124c092919061404e565b50600182018160010190805460018160011615610100020316600290046124e892919061404e565b506002820160009054906101000a900473ffffffffffffffffffffffffffffffffffffffff168160020160006101000a81548173ffffffffffffffffffffffffffffffffffffffff021916908373ffffffffffffffffffffffffffffffffffffffff160217905550600382015481600301556004820181600401908054600181600116156101000203166002900461258192919061404e565b5060058201548160050155600682015481600601556007820154816007015590505060018060006002600085815260200190815260200160002060020160009054906101000a900473ffffffffffffffffffffffffffffffffffffffff1673ffffffffffffffffffffffffffffffffffffffff1673ffffffffffffffffffffffffffffffffffffffff1681526020019081526020016000206004015401600160006002600085815260200190815260200160002060020160009054906101000a900473ffffffffffffffffffffffffffffffffffffffff1673ffffffffffffffffffffffffffffffffffffffff1673ffffffffffffffffffffffffffffffffffffffff16815260200190815260200160002060040181905550612afd565b836040518082805190602001908083835b6020831015156126d557805182526020820191506020810190506020830392506126b0565b6001836020036101000a0380198251168184511680821785525050505050509050019150506040518091039020600019166002600083815260200190815260200160002060010160405180828054600181600116156101000203166002900480156127775780601f10612755576101008083540402835291820191612777565b820191906000526020600020905b815481529060010190602001808311612763575b50509150506040518091039020600019161415612afc5760038a6040518082805190602001908083835b6020831015156127c657805182526020820191506020810190506020830392506127a1565b6001836020036101000a0380198251168184511680821785525050505050509050019150509081526020016040518091039020600160006002600085815260200190815260200160002060020160009054906101000a900473ffffffffffffffffffffffffffffffffffffffff1673ffffffffffffffffffffffffffffffffffffffff1673ffffffffffffffffffffffffffffffffffffffff1681526020019081526020016000206007016000600160006002600087815260200190815260200160002060020160009054906101000a900473ffffffffffffffffffffffffffffffffffffffff1673ffffffffffffffffffffffffffffffffffffffff1673ffffffffffffffffffffffffffffffffffffffff1681526020019081526020016000206004015481526020019081526020016000206000820181600001908054600181600116156101000203166002900461292192919061404e565b506001820181600101908054600181600116156101000203166002900461294992919061404e565b506002820160009054906101000a900473ffffffffffffffffffffffffffffffffffffffff168160020160006101000a81548173ffffffffffffffffffffffffffffffffffffffff021916908373ffffffffffffffffffffffffffffffffffffffff16021790555060038201548160030155600482018160040190805460018160011615610100020316600290046129e292919061404e565b5060058201548160050155600682015481600601556007820154816007015590505060018060006002600085815260200190815260200160002060020160009054906101000a900473ffffffffffffffffffffffffffffffffffffffff1673ffffffffffffffffffffffffffffffffffffffff1673ffffffffffffffffffffffffffffffffffffffff1681526020019081526020016000206004015401600160006002600085815260200190815260200160002060020160009054906101000a900473ffffffffffffffffffffffffffffffffffffffff1673ffffffffffffffffffffffffffffffffffffffff1673ffffffffffffffffffffffffffffffffffffffff168152602001908152602001600020600401819055505b5b5b5b8080600101915050611972565b50505050505050505050565b6000600160003373ffffffffffffffffffffffffffffffffffffffff1673ffffffffffffffffffffffffffffffffffffffff16815260200190815260200160002060030154905090565b6060600260008381526020019081526020016000206001018054600181600116156101000203166002900480601f016020809104026020016040519081016040528092919081815260200182805460018160011615610100020316600290048015612c0e5780601f10612be357610100808354040283529160200191612c0e565b820191906000526020600020905b815481529060010190602001808311612bf157829003601f168201915b50505050509050919050565b60608060008060008573ffffffffffffffffffffffffffffffffffffffff163373ffffffffffffffffffffffffffffffffffffffff161415612eea57600160008773ffffffffffffffffffffffffffffffffffffffff1673ffffffffffffffffffffffffffffffffffffffff168152602001908152602001600020600001600160008873ffffffffffffffffffffffffffffffffffffffff1673ffffffffffffffffffffffffffffffffffffffff168152602001908152602001600020600101600160008973ffffffffffffffffffffffffffffffffffffffff1673ffffffffffffffffffffffffffffffffffffffff16815260200190815260200160002060030154600160008a73ffffffffffffffffffffffffffffffffffffffff1673ffffffffffffffffffffffffffffffffffffffff16815260200190815260200160002060040154600160008b73ffffffffffffffffffffffffffffffffffffffff1673ffffffffffffffffffffffffffffffffffffffff16815260200190815260200160002060050154848054600181600116156101000203166002900480601f016020809104026020016040519081016040528092919081815260200182805460018160011615610100020316600290048015612e385780601f10612e0d57610100808354040283529160200191612e38565b820191906000526020600020905b815481529060010190602001808311612e1b57829003601f168201915b50505050509450838054600181600116156101000203166002900480601f016020809104026020016040519081016040528092919081815260200182805460018160011615610100020316600290048015612ed45780601f10612ea957610100808354040283529160200191612ed4565b820191906000526020600020905b815481529060010190602001808311612eb757829003601f168201915b505050505093509450945094509450945061301a565b600160008773ffffffffffffffffffffffffffffffffffffffff1673ffffffffffffffffffffffffffffffffffffffff1681526020019081526020016000206000016000806000838054600181600116156101000203166002900480601f016020809104026020016040519081016040528092919081815260200182805460018160011615610100020316600290048015612fc65780601f10612f9b57610100808354040283529160200191612fc6565b820191906000526020600020905b815481529060010190602001808311612fa957829003601f168201915b505050505093506040805190810160405280600181526020017f2d00000000000000000000000000000000000000000000000000000000000000815250929190829250819150809050945094509450945094505b91939590929450565b6000600160003373ffffffffffffffffffffffffffffffffffffffff1673ffffffffffffffffffffffffffffffffffffffff1681526020019081526020016000206000018054600181600116156101000203166002900490501480156130df57506000600160003373ffffffffffffffffffffffffffffffffffffffff1673ffffffffffffffffffffffffffffffffffffffff168152602001908152602001600020600101805460018160011615610100020316600290049050145b1561342a5781600160003373ffffffffffffffffffffffffffffffffffffffff1673ffffffffffffffffffffffffffffffffffffffff168152602001908152602001600020600001908051906020019061313a929190613f86565b5080600160003373ffffffffffffffffffffffffffffffffffffffff1673ffffffffffffffffffffffffffffffffffffffff1681526020019081526020016000206001019080519060200190613191929190613f86565b5033600160003373ffffffffffffffffffffffffffffffffffffffff1673ffffffffffffffffffffffffffffffffffffffff16815260200190815260200160002060020160006101000a81548173ffffffffffffffffffffffffffffffffffffffff021916908373ffffffffffffffffffffffffffffffffffffffff1602179055506000600160003373ffffffffffffffffffffffffffffffffffffffff1673ffffffffffffffffffffffffffffffffffffffff168152602001908152602001600020600301819055506000600160003373ffffffffffffffffffffffffffffffffffffffff1673ffffffffffffffffffffffffffffffffffffffff168152602001908152602001600020600401819055506000600160003373ffffffffffffffffffffffffffffffffffffffff1673ffffffffffffffffffffffffffffffffffffffff16815260200190815260200160002060050181905550600160003373ffffffffffffffffffffffffffffffffffffffff1673ffffffffffffffffffffffffffffffffffffffff1681526020019081526020016000206002600060045481526020019081526020016000206000820181600001908054600181600116156101000203166002900461336692919061404e565b506001820181600101908054600181600116156101000203166002900461338e92919061404e565b506002820160009054906101000a900473ffffffffffffffffffffffffffffffffffffffff168160020160006101000a81548173ffffffffffffffffffffffffffffffffffffffff021916908373ffffffffffffffffffffffffffffffffffffffff1602179055506003820154816003015560048201548160040155600582015481600501559050506004600081548092919060010191905055505b6000600160003373ffffffffffffffffffffffffffffffffffffffff1673ffffffffffffffffffffffffffffffffffffffff16815260200190815260200160002060000180546001816001161561010002031660029004905011806134e557506000600160003373ffffffffffffffffffffffffffffffffffffffff1673ffffffffffffffffffffffffffffffffffffffff168152602001908152602001600020600101805460018160011615610100020316600290049050115b156135995781600160003373ffffffffffffffffffffffffffffffffffffffff1673ffffffffffffffffffffffffffffffffffffffff1681526020019081526020016000206000019080519060200190613540929190613f86565b5080600160003373ffffffffffffffffffffffffffffffffffffffff1673ffffffffffffffffffffffffffffffffffffffff1681526020019081526020016000206001019080519060200190613597929190613f86565b505b7f352ab20050877eafaf7fe3110fc72725dd9a1e7b9d7028b1cc4fd59839626908823360405180806020018373ffffffffffffffffffffffffffffffffffffffff1673ffffffffffffffffffffffffffffffffffffffff168152602001828103825284818151815260200191508051906020019080838360005b8381101561362e578082015181840152602081019050613613565b50505050905090810190601f16801561365b5780820380516001836020036101000a031916815260200191505b50935050505060405180910390a15050565b6060600160003373ffffffffffffffffffffffffffffffffffffffff1673ffffffffffffffffffffffffffffffffffffffff16815260200190815260200160002060070160006001840381526020019081526020016000206001018054600181600116156101000203166002900480601f01602080910402602001604051908101604052809291908181526020018280546001816001161561010002031660029004801561375c5780601f106137315761010080835404028352916020019161375c565b820191906000526020600020905b81548152906001019060200180831161373f57829003601f168201915b50505050509050919050565b6000809054906101000a900473ffffffffffffffffffffffffffffffffffffffff1681565b6000600160003373ffffffffffffffffffffffffffffffffffffffff1673ffffffffffffffffffffffffffffffffffffffff16815260200190815260200160002060040154905090565b6060600080606060008060006003886040518082805190602001908083835b60208310151561381b57805182526020820191506020810190506020830392506137f6565b6001836020036101000a03801982511681845116808217855250505050505090500191505090815260200160405180910390206001016003896040518082805190602001908083835b6020831015156138895780518252602082019150602081019050602083039250613864565b6001836020036101000a038019825116818451168082178552505050505050905001915050908152602001604051809103902060020160009054906101000a900473ffffffffffffffffffffffffffffffffffffffff1660038a6040518082805190602001908083835b60208310151561391857805182526020820191506020810190506020830392506138f3565b6001836020036101000a03801982511681845116808217855250505050505090500191505090815260200160405180910390206003015460038b6040518082805190602001908083835b6020831015156139875780518252602082019150602081019050602083039250613962565b6001836020036101000a038019825116818451168082178552505050505050905001915050908152602001604051809103902060040160038c6040518082805190602001908083835b6020831015156139f557805182526020820191506020810190506020830392506139d0565b6001836020036101000a03801982511681845116808217855250505050505090500191505090815260200160405180910390206005015460038d6040518082805190602001908083835b602083101515613a645780518252602082019150602081019050602083039250613a3f565b6001836020036101000a03801982511681845116808217855250505050505090500191505090815260200160405180910390206006015460038e6040518082805190602001908083835b602083101515613ad35780518252602082019150602081019050602083039250613aae565b6001836020036101000a038019825116818451168082178552505050505050905001915050908152602001604051809103902060070154868054600181600116156101000203166002900480601f016020809104026020016040519081016040528092919081815260200182805460018160011615610100020316600290048015613b9f5780601f10613b7457610100808354040283529160200191613b9f565b820191906000526020600020905b815481529060010190602001808311613b8257829003601f168201915b50505050509650838054600181600116156101000203166002900480601f016020809104026020016040519081016040528092919081815260200182805460018160011615610100020316600290048015613c3b5780601f10613c1057610100808354040283529160200191613c3b565b820191906000526020600020905b815481529060010190602001808311613c1e57829003601f168201915b505050505093509650965096509650965096509650919395979092949650565b6001602052806000526040600020600091509050806000018054600181600116156101000203166002900480601f016020809104026020016040519081016040528092919081815260200182805460018160011615610100020316600290048015613d075780601f10613cdc57610100808354040283529160200191613d07565b820191906000526020600020905b815481529060010190602001808311613cea57829003601f168201915b505050505090806001018054600181600116156101000203166002900480601f016020809104026020016040519081016040528092919081815260200182805460018160011615610100020316600290048015613da55780601f10613d7a57610100808354040283529160200191613da5565b820191906000526020600020905b815481529060010190602001808311613d8857829003601f168201915b5050505050908060020160009054906101000a900473ffffffffffffffffffffffffffffffffffffffff16908060030154908060040154908060050154905086565b6000809054906101000a900473ffffffffffffffffffffffffffffffffffffffff1673ffffffffffffffffffffffffffffffffffffffff163373ffffffffffffffffffffffffffffffffffffffff16141515613e4257600080fd5b600073ffffffffffffffffffffffffffffffffffffffff168173ffffffffffffffffffffffffffffffffffffffff1614151515613e7e57600080fd5b8073ffffffffffffffffffffffffffffffffffffffff166000809054906101000a900473ffffffffffffffffffffffffffffffffffffffff1673ffffffffffffffffffffffffffffffffffffffff167f8be0079c531659141344cd1fd0a4f28419497f9722a3daafe3b4186f6b6457e060405160405180910390a3806000806101000a81548173ffffffffffffffffffffffffffffffffffffffff021916908373ffffffffffffffffffffffffffffffffffffffff16021790555050565b6000600160003373ffffffffffffffffffffffffffffffffffffffff1673ffffffffffffffffffffffffffffffffffffffff16815260200190815260200160002060050154905090565b828054600181600116156101000203166002900490600052602060002090601f016020900481019282601f10613fc757805160ff1916838001178555613ff5565b82800160010185558215613ff5579182015b82811115613ff4578251825591602001919060010190613fd9565b5b5090506140029190614155565b5090565b50805460018160011615610100020316600290046000825580601f1061402c575061404b565b601f01602090049060005260206000209081019061404a9190614155565b5b50565b828054600181600116156101000203166002900490600052602060002090601f016020900481019282601f1061408757805485556140c4565b828001600101855582156140c457600052602060002091601f016020900482015b828111156140c35782548255916001019190600101906140a8565b5b5090506140d19190614155565b5090565b828054600181600116156101000203166002900490600052602060002090601f016020900481019282601f1061411657805160ff1916838001178555614144565b82800160010185558215614144579182015b82811115614143578251825591602001919060010190614128565b5b5090506141519190614155565b5090565b61417791905b8082111561417357600081600090555060010161415b565b5090565b905600a165627a7a72305820e3bb717e7114772ccec34e898008a4970abdc5f0576dea1724ed4286939baf360029",
  "source": "pragma solidity ^0.4.24;\nimport \"./Ownable.sol\";\n\ncontract Bright is Ownable {\n    \n    event UserProfileSetEvent (string name, address hash);\n    mapping (address => UserProfile) public hashUserMap;\n    mapping (uint => UserProfile) allUsersArray;\n    mapping (string => Commit) storedData;\n    uint numberOfUsers = 0;\n\n\n    struct UserProfile {\n        string name;\n        string email;\n        address hash;\n        uint numberCommitsReviewedbyMe;\n        uint numberCommitsToReviewbyMe;\n        uint numbermyCommits;\n        mapping (uint => Commit) userCommits;\n        mapping (uint => Commit) commitsToReview;\n    }\n    struct Commit {\n        string id;\n\t    string url;\n        address author;\n        uint timestamp;\n        string project;\n        uint numberReviews; \n        uint pending;\n        uint currentNumberReviews;\n        mapping (uint => comment) comments;\n    }\n    struct comment{\n        string text;\n        address user;\n    }\n    function setProfile (string _name, string _email) public {\n        //require(_hash == msg.sender);\n        if (bytes(hashUserMap[msg.sender].name).length == 0 && bytes(hashUserMap[msg.sender].email).length == 0){\n           \n            hashUserMap[msg.sender].name = _name;\n            hashUserMap[msg.sender].email = _email;\n\t        hashUserMap[msg.sender].hash = msg.sender;\n\t        hashUserMap[msg.sender].numberCommitsReviewedbyMe = 0;\n            hashUserMap[msg.sender].numberCommitsToReviewbyMe = 0;\n            hashUserMap[msg.sender].numbermyCommits=0;\n            allUsersArray[numberOfUsers] = hashUserMap[msg.sender];\n            numberOfUsers++;\n\n        }\n        if(bytes(hashUserMap[msg.sender].name).length > 0 || bytes(hashUserMap[msg.sender].email).length > 0){\n            hashUserMap[msg.sender].name = _name;\n            hashUserMap[msg.sender].email = _email;\n        }\n        emit UserProfileSetEvent(_name, msg.sender);\n    }\n\n    function getUser (address _hash) public view returns (string, string, uint, uint, uint) { //TODO: we need a getuser function using the email address instead of hash\n            \n        if (msg.sender == _hash){ //If you are calling the function\n        return (hashUserMap[_hash].name,\n                hashUserMap[_hash].email,\n                hashUserMap[_hash].numberCommitsReviewedbyMe,\n                hashUserMap[_hash].numberCommitsToReviewbyMe,\n                hashUserMap[_hash].numbermyCommits\n                );\n        } else{ //If other person is calling the function\n\t\t    return (hashUserMap[_hash].name,\"-\",0,0,0);\n\t\t}\n    }\n    \n    function setNewCommit (string _id, string _url, string _project, string _emailuser1, string _emailuser2, string _emailuser3, string _emailuser4) public { //_users separated by commas.\n        uint num = 0;\n        uint pending = 0;\n        if(keccak256(_emailuser1)!=keccak256(\"\")){num++;}\n        if(keccak256(_emailuser2)!=keccak256(\"\")){num++;}\n        if(keccak256(_emailuser3)!=keccak256(\"\")){num++;}\n        if(keccak256(_emailuser4)!=keccak256(\"\")){num++;}\n        if(num>0){pending=1;}\n        storedData[_id] = Commit(_id, _url, msg.sender, block.timestamp, _project, num, pending, 0);\n        hashUserMap[msg.sender].userCommits[hashUserMap[msg.sender].numbermyCommits] = storedData[_id];\n        hashUserMap[msg.sender].numbermyCommits++;\n        \n        //Send the notificatios to reviewers\n        for(uint i = 0; i < numberOfUsers; i++){\n            \n            if(keccak256(allUsersArray[i].email) == keccak256(_emailuser1)){\n                hashUserMap[allUsersArray[i].hash].commitsToReview[hashUserMap[allUsersArray[i].hash].numberCommitsToReviewbyMe] = storedData[_id];\n                hashUserMap[allUsersArray[i].hash].numberCommitsToReviewbyMe = (hashUserMap[allUsersArray[i].hash].numberCommitsToReviewbyMe + 1);  \n            }else if(keccak256(allUsersArray[i].email) == keccak256(_emailuser2)){\n                hashUserMap[allUsersArray[i].hash].commitsToReview[hashUserMap[allUsersArray[i].hash].numberCommitsToReviewbyMe] = storedData[_id];\n                hashUserMap[allUsersArray[i].hash].numberCommitsToReviewbyMe = hashUserMap[allUsersArray[i].hash].numberCommitsToReviewbyMe + 1;\n            }else if(keccak256(allUsersArray[i].email) == keccak256(_emailuser3)){\n                hashUserMap[allUsersArray[i].hash].commitsToReview[hashUserMap[allUsersArray[i].hash].numberCommitsToReviewbyMe] = storedData[_id];\n                hashUserMap[allUsersArray[i].hash].numberCommitsToReviewbyMe = hashUserMap[allUsersArray[i].hash].numberCommitsToReviewbyMe + 1;\n            }else if(keccak256(allUsersArray[i].email) == keccak256(_emailuser4)){\n                hashUserMap[allUsersArray[i].hash].commitsToReview[hashUserMap[allUsersArray[i].hash].numberCommitsToReviewbyMe] = storedData[_id];\n                hashUserMap[allUsersArray[i].hash].numberCommitsToReviewbyMe = hashUserMap[allUsersArray[i].hash].numberCommitsToReviewbyMe + 1;\n            }\n        }\n    }\n    function getDetailsCommits(string _id) public view returns(string, address, uint, string, uint, uint, uint){ //_index starts in 1\n        return (storedData[_id].url,\n            storedData[_id].author,\n            storedData[_id].timestamp,\n            storedData[_id].project,\n            storedData[_id].numberReviews,\n            storedData[_id].pending,\n            storedData[_id].currentNumberReviews);\n    }\n    function getUserCommits(uint _index) public view returns(string){ //_index starts in 1\n    //TODO Change this function to return author, project,numberReviews,pending and currentNumberReviews.\n        return hashUserMap[msg.sender].userCommits[_index-1].url;\n    }\n    function getNumberUserCommits()public view returns(uint){\n        return hashUserMap[msg.sender].numbermyCommits;\n    }\n    function getAllUserEmail(uint _index) public view returns(string){ //_index starts in 0\n        return allUsersArray[_index].email;\n    }\n    function getAllUserNumber() public view returns(uint){ \n        return numberOfUsers;\n    }\n    function getNumberCommitsToReviewByMe() public view returns(uint){ \n        return hashUserMap[msg.sender].numberCommitsToReviewbyMe;\n    }\n    function getNumberCommitsReviewedByMe() public view returns(uint){ \n        return hashUserMap[msg.sender].numberCommitsReviewedbyMe;\n    }\n    function getCommitsToReviewByMe(uint _index) public view returns(string){ //_index starts in 1\n        return hashUserMap[msg.sender].commitsToReview[_index-1].url;\n    }\n    function setReview(uint _index, string _text)public{\n        hashUserMap[msg.sender].commitsToReview[_index].comments[hashUserMap[msg.sender].commitsToReview[_index].currentNumberReviews].text = _text;\n        hashUserMap[msg.sender].commitsToReview[_index].comments[hashUserMap[msg.sender].commitsToReview[_index].currentNumberReviews].user = msg.sender; \n        \n        hashUserMap[msg.sender].commitsToReview[_index].currentNumberReviews++;\n        if(hashUserMap[msg.sender].commitsToReview[_index].currentNumberReviews==hashUserMap[msg.sender].commitsToReview[_index].numberReviews){\n            hashUserMap[msg.sender].commitsToReview[_index].pending;\n        }\n        //User who has to review. \n        delete hashUserMap[msg.sender].commitsToReview[_index]; //delete review commit\n        hashUserMap[msg.sender].commitsToReview[_index] = hashUserMap[msg.sender].commitsToReview[hashUserMap[msg.sender].numberCommitsToReviewbyMe]; //the last commit of the list commitsToReviewByMe is on the position which had the commit i delete\n        hashUserMap[msg.sender].numberCommitsToReviewbyMe--; //decrease counter\n        hashUserMap[msg.sender].numberCommitsReviewedbyMe++; //encrease counter\n        \n\n    }\n}",
  "sourcePath": "/home/arodriguez/Documentos/truffle-BrightByte/contracts/Bright.sol",
  "compiler": {
    "name": "solc",
    "version": "0.4.24+commit.e67f0147.Emscripten.clang"
  },
  "schemaVersion": "2.0.0",
  "updatedAt": "2018-06-22T07:40:38.515Z"
}