{
  "contractName": "Bright",
  "abi": [
    {
      "constant": true,
      "inputs": [],
      "name": "owner",
      "outputs": [
        {
          "name": "",
          "type": "address"
        }
      ],
      "payable": false,
      "stateMutability": "view",
      "type": "function"
    },
    {
      "constant": true,
      "inputs": [
        {
          "name": "",
          "type": "address"
        }
      ],
      "name": "hashUserMap",
      "outputs": [
        {
          "name": "name",
          "type": "string"
        },
        {
          "name": "email",
          "type": "string"
        },
        {
          "name": "hash",
          "type": "address"
        },
        {
          "name": "numberCommitsReviewedbyMe",
          "type": "uint256"
        },
        {
          "name": "numberCommitsToReviewbyMe",
          "type": "uint256"
        },
        {
          "name": "numbermyCommits",
          "type": "uint256"
        }
      ],
      "payable": false,
      "stateMutability": "view",
      "type": "function"
    },
    {
      "constant": false,
      "inputs": [
        {
          "name": "newOwner",
          "type": "address"
        }
      ],
      "name": "transferOwnership",
      "outputs": [],
      "payable": false,
      "stateMutability": "nonpayable",
      "type": "function"
    },
    {
      "anonymous": false,
      "inputs": [
        {
          "indexed": false,
          "name": "name",
          "type": "string"
        },
        {
          "indexed": false,
          "name": "hash",
          "type": "address"
        }
      ],
      "name": "UserProfileSetEvent",
      "type": "event"
    },
    {
      "anonymous": false,
      "inputs": [
        {
          "indexed": true,
          "name": "previousOwner",
          "type": "address"
        },
        {
          "indexed": true,
          "name": "newOwner",
          "type": "address"
        }
      ],
      "name": "OwnershipTransferred",
      "type": "event"
    },
    {
      "constant": false,
      "inputs": [
        {
          "name": "_name",
          "type": "string"
        },
        {
          "name": "_email",
          "type": "string"
        }
      ],
      "name": "setProfile",
      "outputs": [],
      "payable": false,
      "stateMutability": "nonpayable",
      "type": "function"
    },
    {
      "constant": true,
      "inputs": [
        {
          "name": "_hash",
          "type": "address"
        }
      ],
      "name": "getUser",
      "outputs": [
        {
          "name": "",
          "type": "string"
        },
        {
          "name": "",
          "type": "string"
        },
        {
          "name": "",
          "type": "uint256"
        },
        {
          "name": "",
          "type": "uint256"
        },
        {
          "name": "",
          "type": "uint256"
        }
      ],
      "payable": false,
      "stateMutability": "view",
      "type": "function"
    },
    {
      "constant": false,
      "inputs": [
        {
          "name": "_id",
          "type": "string"
        },
        {
          "name": "_url",
          "type": "string"
        },
        {
          "name": "_project",
          "type": "string"
        },
        {
          "name": "_emailuser1",
          "type": "string"
        },
        {
          "name": "_emailuser2",
          "type": "string"
        },
        {
          "name": "_emailuser3",
          "type": "string"
        },
        {
          "name": "_emailuser4",
          "type": "string"
        }
      ],
      "name": "setNewCommit",
      "outputs": [],
      "payable": false,
      "stateMutability": "nonpayable",
      "type": "function"
    },
    {
      "constant": true,
      "inputs": [
        {
          "name": "_index",
          "type": "uint256"
        }
      ],
      "name": "getUserCommits",
      "outputs": [
        {
          "name": "",
          "type": "string"
        }
      ],
      "payable": false,
      "stateMutability": "view",
      "type": "function"
    },
    {
      "constant": true,
      "inputs": [],
      "name": "getNumberUserCommits",
      "outputs": [
        {
          "name": "",
          "type": "uint256"
        }
      ],
      "payable": false,
      "stateMutability": "view",
      "type": "function"
    },
    {
      "constant": true,
      "inputs": [
        {
          "name": "_index",
          "type": "uint256"
        }
      ],
      "name": "getAllUserEmail",
      "outputs": [
        {
          "name": "",
          "type": "string"
        }
      ],
      "payable": false,
      "stateMutability": "view",
      "type": "function"
    },
    {
      "constant": true,
      "inputs": [],
      "name": "getAllUserNumber",
      "outputs": [
        {
          "name": "",
          "type": "uint256"
        }
      ],
      "payable": false,
      "stateMutability": "view",
      "type": "function"
    },
    {
      "constant": true,
      "inputs": [],
      "name": "getNumberCommitsToReviewByMe",
      "outputs": [
        {
          "name": "",
          "type": "uint256"
        }
      ],
      "payable": false,
      "stateMutability": "view",
      "type": "function"
    },
    {
      "constant": true,
      "inputs": [],
      "name": "getNumberCommitsReviewedByMe",
      "outputs": [
        {
          "name": "",
          "type": "uint256"
        }
      ],
      "payable": false,
      "stateMutability": "view",
      "type": "function"
    },
    {
      "constant": true,
      "inputs": [
        {
          "name": "_index",
          "type": "uint256"
        }
      ],
      "name": "getCommitsToReviewByMe",
      "outputs": [
        {
          "name": "",
          "type": "string"
        }
      ],
      "payable": false,
      "stateMutability": "view",
      "type": "function"
    },
    {
      "constant": false,
      "inputs": [
        {
          "name": "_index",
          "type": "uint256"
        },
        {
          "name": "_text",
          "type": "string"
        }
      ],
      "name": "setReview",
      "outputs": [],
      "payable": false,
      "stateMutability": "nonpayable",
      "type": "function"
    }
  ],
  "bytecode": "0x60806040526000600455336000806101000a81548173ffffffffffffffffffffffffffffffffffffffff021916908373ffffffffffffffffffffffffffffffffffffffff160217905550613b7a806100586000396000f3006080604052600436106100d0576000357c0100000000000000000000000000000000000000000000000000000000900463ffffffff16806305f4ca68146100d55780631252f4fa146101005780631a74721914610173578063274430ac146102195780632ac06fd6146104265780636749bbe3146104515780636f77926b146104f7578063719e37ae1461063457806383cd588b146106e35780638da5cb5b146107895780639b7063bb146107e0578063e15c2d0b1461080b578063f2fde38b1461097b578063f7da1070146109be575b600080fd5b3480156100e157600080fd5b506100ea6109e9565b6040518082815260200191505060405180910390f35b34801561010c57600080fd5b5061017160048036038101908080359060200190929190803590602001908201803590602001908080601f01602080910402602001604051908101604052809392919081815260200183838082843782019150505050505091929192905050506109f3565b005b34801561017f57600080fd5b5061019e6004803603810190808035906020019092919050505061109e565b6040518080602001828103825283818151815260200191508051906020019080838360005b838110156101de5780820151818401526020810190506101c3565b50505050905090810190601f16801561020b5780820380516001836020036101000a031916815260200191505b509250505060405180910390f35b34801561022557600080fd5b50610424600480360381019080803590602001908201803590602001908080601f0160208091040260200160405190810160405280939291908181526020018383808284378201915050505050509192919290803590602001908201803590602001908080601f0160208091040260200160405190810160405280939291908181526020018383808284378201915050505050509192919290803590602001908201803590602001908080601f0160208091040260200160405190810160405280939291908181526020018383808284378201915050505050509192919290803590602001908201803590602001908080601f0160208091040260200160405190810160405280939291908181526020018383808284378201915050505050509192919290803590602001908201803590602001908080601f0160208091040260200160405190810160405280939291908181526020018383808284378201915050505050509192919290803590602001908201803590602001908080601f0160208091040260200160405190810160405280939291908181526020018383808284378201915050505050509192919290803590602001908201803590602001908080601f0160208091040260200160405190810160405280939291908181526020018383808284378201915050505050509192919290505050611199565b005b34801561043257600080fd5b5061043b612970565b6040518082815260200191505060405180910390f35b34801561045d57600080fd5b5061047c600480360381019080803590602001909291905050506129ba565b6040518080602001828103825283818151815260200191508051906020019080838360005b838110156104bc5780820151818401526020810190506104a1565b50505050905090810190601f1680156104e95780820380516001836020036101000a031916815260200191505b509250505060405180910390f35b34801561050357600080fd5b50610538600480360381019080803573ffffffffffffffffffffffffffffffffffffffff169060200190929190505050612a72565b604051808060200180602001868152602001858152602001848152602001838103835288818151815260200191508051906020019080838360005b8381101561058e578082015181840152602081019050610573565b50505050905090810190601f1680156105bb5780820380516001836020036101000a031916815260200191505b50838103825287818151815260200191508051906020019080838360005b838110156105f45780820151818401526020810190506105d9565b50505050905090810190601f1680156106215780820380516001836020036101000a031916815260200191505b5097505050505050505060405180910390f35b34801561064057600080fd5b506106e1600480360381019080803590602001908201803590602001908080601f0160208091040260200160405190810160405280939291908181526020018383808284378201915050505050509192919290803590602001908201803590602001908080601f0160208091040260200160405190810160405280939291908181526020018383808284378201915050505050509192919290505050612e7b565b005b3480156106ef57600080fd5b5061070e600480360381019080803590602001909291905050506134c5565b6040518080602001828103825283818151815260200191508051906020019080838360005b8381101561074e578082015181840152602081019050610733565b50505050905090810190601f16801561077b5780820380516001836020036101000a031916815260200191505b509250505060405180910390f35b34801561079557600080fd5b5061079e6135c0565b604051808273ffffffffffffffffffffffffffffffffffffffff1673ffffffffffffffffffffffffffffffffffffffff16815260200191505060405180910390f35b3480156107ec57600080fd5b506107f56135e5565b6040518082815260200191505060405180910390f35b34801561081757600080fd5b5061084c600480360381019080803573ffffffffffffffffffffffffffffffffffffffff16906020019092919050505061362f565b6040518080602001806020018773ffffffffffffffffffffffffffffffffffffffff1673ffffffffffffffffffffffffffffffffffffffff168152602001868152602001858152602001848152602001838103835289818151815260200191508051906020019080838360005b838110156108d45780820151818401526020810190506108b9565b50505050905090810190601f1680156109015780820380516001836020036101000a031916815260200191505b50838103825288818151815260200191508051906020019080838360005b8381101561093a57808201518184015260208101905061091f565b50505050905090810190601f1680156109675780820380516001836020036101000a031916815260200191505b509850505050505050505060405180910390f35b34801561098757600080fd5b506109bc600480360381019080803573ffffffffffffffffffffffffffffffffffffffff1690602001909291905050506137bb565b005b3480156109ca57600080fd5b506109d3613910565b6040518082815260200191505060405180910390f35b6000600454905090565b80600160003373ffffffffffffffffffffffffffffffffffffffff1673ffffffffffffffffffffffffffffffffffffffff16815260200190815260200160002060070160008481526020019081526020016000206008016000600160003373ffffffffffffffffffffffffffffffffffffffff1673ffffffffffffffffffffffffffffffffffffffff16815260200190815260200160002060070160008681526020019081526020016000206007015481526020019081526020016000206000019080519060200190610ac792919061395a565b5033600160003373ffffffffffffffffffffffffffffffffffffffff1673ffffffffffffffffffffffffffffffffffffffff16815260200190815260200160002060070160008481526020019081526020016000206008016000600160003373ffffffffffffffffffffffffffffffffffffffff1673ffffffffffffffffffffffffffffffffffffffff168152602001908152602001600020600701600086815260200190815260200160002060070154815260200190815260200160002060010160006101000a81548173ffffffffffffffffffffffffffffffffffffffff021916908373ffffffffffffffffffffffffffffffffffffffff160217905550600160003373ffffffffffffffffffffffffffffffffffffffff1673ffffffffffffffffffffffffffffffffffffffff168152602001908152602001600020600701600083815260200190815260200160002060070160008154809291906001019190505550600160003373ffffffffffffffffffffffffffffffffffffffff1673ffffffffffffffffffffffffffffffffffffffff168152602001908152602001600020600701600083815260200190815260200160002060050154600160003373ffffffffffffffffffffffffffffffffffffffff1673ffffffffffffffffffffffffffffffffffffffff1681526020019081526020016000206007016000848152602001908152602001600020600701541415610d3657600160003373ffffffffffffffffffffffffffffffffffffffff1673ffffffffffffffffffffffffffffffffffffffff1681526020019081526020016000206007016000838152602001908152602001600020505b600160003373ffffffffffffffffffffffffffffffffffffffff1673ffffffffffffffffffffffffffffffffffffffff168152602001908152602001600020600701600083815260200190815260200160002060008082016000610d9a91906139da565b600182016000610daa91906139da565b6002820160006101000a81549073ffffffffffffffffffffffffffffffffffffffff02191690556003820160009055600482016000610de991906139da565b6005820160009055600682016000905560078201600090555050600160003373ffffffffffffffffffffffffffffffffffffffff1673ffffffffffffffffffffffffffffffffffffffff1681526020019081526020016000206007016000600160003373ffffffffffffffffffffffffffffffffffffffff1673ffffffffffffffffffffffffffffffffffffffff168152602001908152602001600020600401548152602001908152602001600020600160003373ffffffffffffffffffffffffffffffffffffffff1673ffffffffffffffffffffffffffffffffffffffff168152602001908152602001600020600701600084815260200190815260200160002060008201816000019080546001816001161561010002031660029004610f12929190613a22565b5060018201816001019080546001816001161561010002031660029004610f3a929190613a22565b506002820160009054906101000a900473ffffffffffffffffffffffffffffffffffffffff168160020160006101000a81548173ffffffffffffffffffffffffffffffffffffffff021916908373ffffffffffffffffffffffffffffffffffffffff1602179055506003820154816003015560048201816004019080546001816001161561010002031660029004610fd3929190613a22565b50600582015481600501556006820154816006015560078201548160070155905050600160003373ffffffffffffffffffffffffffffffffffffffff1673ffffffffffffffffffffffffffffffffffffffff1681526020019081526020016000206004016000815480929190600190039190505550600160003373ffffffffffffffffffffffffffffffffffffffff1673ffffffffffffffffffffffffffffffffffffffff168152602001908152602001600020600301600081548092919060010191905055505050565b6060600160003373ffffffffffffffffffffffffffffffffffffffff1673ffffffffffffffffffffffffffffffffffffffff16815260200190815260200160002060060160006001840381526020019081526020016000206001018054600181600116156101000203166002900480601f01602080910402602001604051908101604052809291908181526020018280546001816001161561010002031660029004801561118d5780601f106111625761010080835404028352916020019161118d565b820191906000526020600020905b81548152906001019060200180831161117057829003601f168201915b50505050509050919050565b600080600080925060009150604051806000019050604051809103902060001916876040518082805190602001908083835b6020831015156111f057805182526020820191506020810190506020830392506111cb565b6001836020036101000a0380198251168184511680821785525050505050509050019150506040518091039020600019161415156112315782806001019350505b604051806000019050604051809103902060001916866040518082805190602001908083835b60208310151561127c5780518252602082019150602081019050602083039250611257565b6001836020036101000a0380198251168184511680821785525050505050509050019150506040518091039020600019161415156112bd5782806001019350505b604051806000019050604051809103902060001916856040518082805190602001908083835b60208310151561130857805182526020820191506020810190506020830392506112e3565b6001836020036101000a0380198251168184511680821785525050505050509050019150506040518091039020600019161415156113495782806001019350505b604051806000019050604051809103902060001916846040518082805190602001908083835b602083101515611394578051825260208201915060208101905060208303925061136f565b6001836020036101000a0380198251168184511680821785525050505050509050019150506040518091039020600019161415156113d55782806001019350505b60008311156113e357600191505b610100604051908101604052808b81526020018a81526020013373ffffffffffffffffffffffffffffffffffffffff168152602001428152602001898152602001848152602001838152602001600081525060038b6040518082805190602001908083835b60208310151561146d5780518252602082019150602081019050602083039250611448565b6001836020036101000a038019825116818451168082178552505050505050905001915050908152602001604051809103902060008201518160000190805190602001906114bc929190613aa9565b5060208201518160010190805190602001906114d9929190613aa9565b5060408201518160020160006101000a81548173ffffffffffffffffffffffffffffffffffffffff021916908373ffffffffffffffffffffffffffffffffffffffff160217905550606082015181600301556080820151816004019080519060200190611547929190613aa9565b5060a0820151816005015560c0820151816006015560e0820151816007015590505060038a6040518082805190602001908083835b6020831015156115a1578051825260208201915060208101905060208303925061157c565b6001836020036101000a0380198251168184511680821785525050505050509050019150509081526020016040518091039020600160003373ffffffffffffffffffffffffffffffffffffffff1673ffffffffffffffffffffffffffffffffffffffff1681526020019081526020016000206006016000600160003373ffffffffffffffffffffffffffffffffffffffff1673ffffffffffffffffffffffffffffffffffffffff16815260200190815260200160002060050154815260200190815260200160002060008201816000019080546001816001161561010002031660029004611690929190613a22565b50600182018160010190805460018160011615610100020316600290046116b8929190613a22565b506002820160009054906101000a900473ffffffffffffffffffffffffffffffffffffffff168160020160006101000a81548173ffffffffffffffffffffffffffffffffffffffff021916908373ffffffffffffffffffffffffffffffffffffffff1602179055506003820154816003015560048201816004019080546001816001161561010002031660029004611751929190613a22565b50600582015481600501556006820154816006015560078201548160070155905050600160003373ffffffffffffffffffffffffffffffffffffffff1673ffffffffffffffffffffffffffffffffffffffff16815260200190815260200160002060050160008154809291906001019190505550600090505b60045481101561296457866040518082805190602001908083835b60208310151561180a57805182526020820191506020810190506020830392506117e5565b6001836020036101000a0380198251168184511680821785525050505050509050019150506040518091039020600019166002600083815260200190815260200160002060010160405180828054600181600116156101000203166002900480156118ac5780601f1061188a5761010080835404028352918201916118ac565b820191906000526020600020905b815481529060010190602001808311611898575b50509150506040518091039020600019161415611c355760038a6040518082805190602001908083835b6020831015156118fb57805182526020820191506020810190506020830392506118d6565b6001836020036101000a0380198251168184511680821785525050505050509050019150509081526020016040518091039020600160006002600085815260200190815260200160002060020160009054906101000a900473ffffffffffffffffffffffffffffffffffffffff1673ffffffffffffffffffffffffffffffffffffffff1673ffffffffffffffffffffffffffffffffffffffff1681526020019081526020016000206007016000600160006002600087815260200190815260200160002060020160009054906101000a900473ffffffffffffffffffffffffffffffffffffffff1673ffffffffffffffffffffffffffffffffffffffff1673ffffffffffffffffffffffffffffffffffffffff16815260200190815260200160002060040154815260200190815260200160002060008201816000019080546001816001161561010002031660029004611a56929190613a22565b5060018201816001019080546001816001161561010002031660029004611a7e929190613a22565b506002820160009054906101000a900473ffffffffffffffffffffffffffffffffffffffff168160020160006101000a81548173ffffffffffffffffffffffffffffffffffffffff021916908373ffffffffffffffffffffffffffffffffffffffff1602179055506003820154816003015560048201816004019080546001816001161561010002031660029004611b17929190613a22565b5060058201548160050155600682015481600601556007820154816007015590505060018060006002600085815260200190815260200160002060020160009054906101000a900473ffffffffffffffffffffffffffffffffffffffff1673ffffffffffffffffffffffffffffffffffffffff1673ffffffffffffffffffffffffffffffffffffffff1681526020019081526020016000206004015401600160006002600085815260200190815260200160002060020160009054906101000a900473ffffffffffffffffffffffffffffffffffffffff1673ffffffffffffffffffffffffffffffffffffffff1673ffffffffffffffffffffffffffffffffffffffff16815260200190815260200160002060040181905550612957565b856040518082805190602001908083835b602083101515611c6b5780518252602082019150602081019050602083039250611c46565b6001836020036101000a038019825116818451168082178552505050505050905001915050604051809103902060001916600260008381526020019081526020016000206001016040518082805460018160011615610100020316600290048015611d0d5780601f10611ceb576101008083540402835291820191611d0d565b820191906000526020600020905b815481529060010190602001808311611cf9575b505091505060405180910390206000191614156120965760038a6040518082805190602001908083835b602083101515611d5c5780518252602082019150602081019050602083039250611d37565b6001836020036101000a0380198251168184511680821785525050505050509050019150509081526020016040518091039020600160006002600085815260200190815260200160002060020160009054906101000a900473ffffffffffffffffffffffffffffffffffffffff1673ffffffffffffffffffffffffffffffffffffffff1673ffffffffffffffffffffffffffffffffffffffff1681526020019081526020016000206007016000600160006002600087815260200190815260200160002060020160009054906101000a900473ffffffffffffffffffffffffffffffffffffffff1673ffffffffffffffffffffffffffffffffffffffff1673ffffffffffffffffffffffffffffffffffffffff16815260200190815260200160002060040154815260200190815260200160002060008201816000019080546001816001161561010002031660029004611eb7929190613a22565b5060018201816001019080546001816001161561010002031660029004611edf929190613a22565b506002820160009054906101000a900473ffffffffffffffffffffffffffffffffffffffff168160020160006101000a81548173ffffffffffffffffffffffffffffffffffffffff021916908373ffffffffffffffffffffffffffffffffffffffff1602179055506003820154816003015560048201816004019080546001816001161561010002031660029004611f78929190613a22565b5060058201548160050155600682015481600601556007820154816007015590505060018060006002600085815260200190815260200160002060020160009054906101000a900473ffffffffffffffffffffffffffffffffffffffff1673ffffffffffffffffffffffffffffffffffffffff1673ffffffffffffffffffffffffffffffffffffffff1681526020019081526020016000206004015401600160006002600085815260200190815260200160002060020160009054906101000a900473ffffffffffffffffffffffffffffffffffffffff1673ffffffffffffffffffffffffffffffffffffffff1673ffffffffffffffffffffffffffffffffffffffff16815260200190815260200160002060040181905550612956565b846040518082805190602001908083835b6020831015156120cc57805182526020820191506020810190506020830392506120a7565b6001836020036101000a03801982511681845116808217855250505050505090500191505060405180910390206000191660026000838152602001908152602001600020600101604051808280546001816001161561010002031660029004801561216e5780601f1061214c57610100808354040283529182019161216e565b820191906000526020600020905b81548152906001019060200180831161215a575b505091505060405180910390206000191614156124f75760038a6040518082805190602001908083835b6020831015156121bd5780518252602082019150602081019050602083039250612198565b6001836020036101000a0380198251168184511680821785525050505050509050019150509081526020016040518091039020600160006002600085815260200190815260200160002060020160009054906101000a900473ffffffffffffffffffffffffffffffffffffffff1673ffffffffffffffffffffffffffffffffffffffff1673ffffffffffffffffffffffffffffffffffffffff1681526020019081526020016000206007016000600160006002600087815260200190815260200160002060020160009054906101000a900473ffffffffffffffffffffffffffffffffffffffff1673ffffffffffffffffffffffffffffffffffffffff1673ffffffffffffffffffffffffffffffffffffffff16815260200190815260200160002060040154815260200190815260200160002060008201816000019080546001816001161561010002031660029004612318929190613a22565b5060018201816001019080546001816001161561010002031660029004612340929190613a22565b506002820160009054906101000a900473ffffffffffffffffffffffffffffffffffffffff168160020160006101000a81548173ffffffffffffffffffffffffffffffffffffffff021916908373ffffffffffffffffffffffffffffffffffffffff16021790555060038201548160030155600482018160040190805460018160011615610100020316600290046123d9929190613a22565b5060058201548160050155600682015481600601556007820154816007015590505060018060006002600085815260200190815260200160002060020160009054906101000a900473ffffffffffffffffffffffffffffffffffffffff1673ffffffffffffffffffffffffffffffffffffffff1673ffffffffffffffffffffffffffffffffffffffff1681526020019081526020016000206004015401600160006002600085815260200190815260200160002060020160009054906101000a900473ffffffffffffffffffffffffffffffffffffffff1673ffffffffffffffffffffffffffffffffffffffff1673ffffffffffffffffffffffffffffffffffffffff16815260200190815260200160002060040181905550612955565b836040518082805190602001908083835b60208310151561252d5780518252602082019150602081019050602083039250612508565b6001836020036101000a0380198251168184511680821785525050505050509050019150506040518091039020600019166002600083815260200190815260200160002060010160405180828054600181600116156101000203166002900480156125cf5780601f106125ad5761010080835404028352918201916125cf565b820191906000526020600020905b8154815290600101906020018083116125bb575b505091505060405180910390206000191614156129545760038a6040518082805190602001908083835b60208310151561261e57805182526020820191506020810190506020830392506125f9565b6001836020036101000a0380198251168184511680821785525050505050509050019150509081526020016040518091039020600160006002600085815260200190815260200160002060020160009054906101000a900473ffffffffffffffffffffffffffffffffffffffff1673ffffffffffffffffffffffffffffffffffffffff1673ffffffffffffffffffffffffffffffffffffffff1681526020019081526020016000206007016000600160006002600087815260200190815260200160002060020160009054906101000a900473ffffffffffffffffffffffffffffffffffffffff1673ffffffffffffffffffffffffffffffffffffffff1673ffffffffffffffffffffffffffffffffffffffff16815260200190815260200160002060040154815260200190815260200160002060008201816000019080546001816001161561010002031660029004612779929190613a22565b50600182018160010190805460018160011615610100020316600290046127a1929190613a22565b506002820160009054906101000a900473ffffffffffffffffffffffffffffffffffffffff168160020160006101000a81548173ffffffffffffffffffffffffffffffffffffffff021916908373ffffffffffffffffffffffffffffffffffffffff160217905550600382015481600301556004820181600401908054600181600116156101000203166002900461283a929190613a22565b5060058201548160050155600682015481600601556007820154816007015590505060018060006002600085815260200190815260200160002060020160009054906101000a900473ffffffffffffffffffffffffffffffffffffffff1673ffffffffffffffffffffffffffffffffffffffff1673ffffffffffffffffffffffffffffffffffffffff1681526020019081526020016000206004015401600160006002600085815260200190815260200160002060020160009054906101000a900473ffffffffffffffffffffffffffffffffffffffff1673ffffffffffffffffffffffffffffffffffffffff1673ffffffffffffffffffffffffffffffffffffffff168152602001908152602001600020600401819055505b5b5b5b80806001019150506117ca565b50505050505050505050565b6000600160003373ffffffffffffffffffffffffffffffffffffffff1673ffffffffffffffffffffffffffffffffffffffff16815260200190815260200160002060030154905090565b6060600260008381526020019081526020016000206001018054600181600116156101000203166002900480601f016020809104026020016040519081016040528092919081815260200182805460018160011615610100020316600290048015612a665780601f10612a3b57610100808354040283529160200191612a66565b820191906000526020600020905b815481529060010190602001808311612a4957829003601f168201915b50505050509050919050565b60608060008060008573ffffffffffffffffffffffffffffffffffffffff163373ffffffffffffffffffffffffffffffffffffffff161415612d4257600160008773ffffffffffffffffffffffffffffffffffffffff1673ffffffffffffffffffffffffffffffffffffffff168152602001908152602001600020600001600160008873ffffffffffffffffffffffffffffffffffffffff1673ffffffffffffffffffffffffffffffffffffffff168152602001908152602001600020600101600160008973ffffffffffffffffffffffffffffffffffffffff1673ffffffffffffffffffffffffffffffffffffffff16815260200190815260200160002060030154600160008a73ffffffffffffffffffffffffffffffffffffffff1673ffffffffffffffffffffffffffffffffffffffff16815260200190815260200160002060040154600160008b73ffffffffffffffffffffffffffffffffffffffff1673ffffffffffffffffffffffffffffffffffffffff16815260200190815260200160002060050154848054600181600116156101000203166002900480601f016020809104026020016040519081016040528092919081815260200182805460018160011615610100020316600290048015612c905780601f10612c6557610100808354040283529160200191612c90565b820191906000526020600020905b815481529060010190602001808311612c7357829003601f168201915b50505050509450838054600181600116156101000203166002900480601f016020809104026020016040519081016040528092919081815260200182805460018160011615610100020316600290048015612d2c5780601f10612d0157610100808354040283529160200191612d2c565b820191906000526020600020905b815481529060010190602001808311612d0f57829003601f168201915b5050505050935094509450945094509450612e72565b600160008773ffffffffffffffffffffffffffffffffffffffff1673ffffffffffffffffffffffffffffffffffffffff1681526020019081526020016000206000016000806000838054600181600116156101000203166002900480601f016020809104026020016040519081016040528092919081815260200182805460018160011615610100020316600290048015612e1e5780601f10612df357610100808354040283529160200191612e1e565b820191906000526020600020905b815481529060010190602001808311612e0157829003601f168201915b505050505093506040805190810160405280600181526020017f2d00000000000000000000000000000000000000000000000000000000000000815250929190829250819150809050945094509450945094505b91939590929450565b6000600160003373ffffffffffffffffffffffffffffffffffffffff1673ffffffffffffffffffffffffffffffffffffffff168152602001908152602001600020600001805460018160011615610100020316600290049050148015612f3757506000600160003373ffffffffffffffffffffffffffffffffffffffff1673ffffffffffffffffffffffffffffffffffffffff168152602001908152602001600020600101805460018160011615610100020316600290049050145b156132825781600160003373ffffffffffffffffffffffffffffffffffffffff1673ffffffffffffffffffffffffffffffffffffffff1681526020019081526020016000206000019080519060200190612f9292919061395a565b5080600160003373ffffffffffffffffffffffffffffffffffffffff1673ffffffffffffffffffffffffffffffffffffffff1681526020019081526020016000206001019080519060200190612fe992919061395a565b5033600160003373ffffffffffffffffffffffffffffffffffffffff1673ffffffffffffffffffffffffffffffffffffffff16815260200190815260200160002060020160006101000a81548173ffffffffffffffffffffffffffffffffffffffff021916908373ffffffffffffffffffffffffffffffffffffffff1602179055506000600160003373ffffffffffffffffffffffffffffffffffffffff1673ffffffffffffffffffffffffffffffffffffffff168152602001908152602001600020600301819055506000600160003373ffffffffffffffffffffffffffffffffffffffff1673ffffffffffffffffffffffffffffffffffffffff168152602001908152602001600020600401819055506000600160003373ffffffffffffffffffffffffffffffffffffffff1673ffffffffffffffffffffffffffffffffffffffff16815260200190815260200160002060050181905550600160003373ffffffffffffffffffffffffffffffffffffffff1673ffffffffffffffffffffffffffffffffffffffff168152602001908152602001600020600260006004548152602001908152602001600020600082018160000190805460018160011615610100020316600290046131be929190613a22565b50600182018160010190805460018160011615610100020316600290046131e6929190613a22565b506002820160009054906101000a900473ffffffffffffffffffffffffffffffffffffffff168160020160006101000a81548173ffffffffffffffffffffffffffffffffffffffff021916908373ffffffffffffffffffffffffffffffffffffffff1602179055506003820154816003015560048201548160040155600582015481600501559050506004600081548092919060010191905055505b6000600160003373ffffffffffffffffffffffffffffffffffffffff1673ffffffffffffffffffffffffffffffffffffffff168152602001908152602001600020600001805460018160011615610100020316600290049050118061333d57506000600160003373ffffffffffffffffffffffffffffffffffffffff1673ffffffffffffffffffffffffffffffffffffffff168152602001908152602001600020600101805460018160011615610100020316600290049050115b156133f15781600160003373ffffffffffffffffffffffffffffffffffffffff1673ffffffffffffffffffffffffffffffffffffffff168152602001908152602001600020600001908051906020019061339892919061395a565b5080600160003373ffffffffffffffffffffffffffffffffffffffff1673ffffffffffffffffffffffffffffffffffffffff16815260200190815260200160002060010190805190602001906133ef92919061395a565b505b7f352ab20050877eafaf7fe3110fc72725dd9a1e7b9d7028b1cc4fd59839626908823360405180806020018373ffffffffffffffffffffffffffffffffffffffff1673ffffffffffffffffffffffffffffffffffffffff168152602001828103825284818151815260200191508051906020019080838360005b8381101561348657808201518184015260208101905061346b565b50505050905090810190601f1680156134b35780820380516001836020036101000a031916815260200191505b50935050505060405180910390a15050565b6060600160003373ffffffffffffffffffffffffffffffffffffffff1673ffffffffffffffffffffffffffffffffffffffff16815260200190815260200160002060070160006001840381526020019081526020016000206001018054600181600116156101000203166002900480601f0160208091040260200160405190810160405280929190818152602001828054600181600116156101000203166002900480156135b45780601f10613589576101008083540402835291602001916135b4565b820191906000526020600020905b81548152906001019060200180831161359757829003601f168201915b50505050509050919050565b6000809054906101000a900473ffffffffffffffffffffffffffffffffffffffff1681565b6000600160003373ffffffffffffffffffffffffffffffffffffffff1673ffffffffffffffffffffffffffffffffffffffff16815260200190815260200160002060040154905090565b6001602052806000526040600020600091509050806000018054600181600116156101000203166002900480601f0160208091040260200160405190810160405280929190818152602001828054600181600116156101000203166002900480156136db5780601f106136b0576101008083540402835291602001916136db565b820191906000526020600020905b8154815290600101906020018083116136be57829003601f168201915b505050505090806001018054600181600116156101000203166002900480601f0160208091040260200160405190810160405280929190818152602001828054600181600116156101000203166002900480156137795780601f1061374e57610100808354040283529160200191613779565b820191906000526020600020905b81548152906001019060200180831161375c57829003601f168201915b5050505050908060020160009054906101000a900473ffffffffffffffffffffffffffffffffffffffff16908060030154908060040154908060050154905086565b6000809054906101000a900473ffffffffffffffffffffffffffffffffffffffff1673ffffffffffffffffffffffffffffffffffffffff163373ffffffffffffffffffffffffffffffffffffffff1614151561381657600080fd5b600073ffffffffffffffffffffffffffffffffffffffff168173ffffffffffffffffffffffffffffffffffffffff161415151561385257600080fd5b8073ffffffffffffffffffffffffffffffffffffffff166000809054906101000a900473ffffffffffffffffffffffffffffffffffffffff1673ffffffffffffffffffffffffffffffffffffffff167f8be0079c531659141344cd1fd0a4f28419497f9722a3daafe3b4186f6b6457e060405160405180910390a3806000806101000a81548173ffffffffffffffffffffffffffffffffffffffff021916908373ffffffffffffffffffffffffffffffffffffffff16021790555050565b6000600160003373ffffffffffffffffffffffffffffffffffffffff1673ffffffffffffffffffffffffffffffffffffffff16815260200190815260200160002060050154905090565b828054600181600116156101000203166002900490600052602060002090601f016020900481019282601f1061399b57805160ff19168380011785556139c9565b828001600101855582156139c9579182015b828111156139c85782518255916020019190600101906139ad565b5b5090506139d69190613b29565b5090565b50805460018160011615610100020316600290046000825580601f10613a005750613a1f565b601f016020900490600052602060002090810190613a1e9190613b29565b5b50565b828054600181600116156101000203166002900490600052602060002090601f016020900481019282601f10613a5b5780548555613a98565b82800160010185558215613a9857600052602060002091601f016020900482015b82811115613a97578254825591600101919060010190613a7c565b5b509050613aa59190613b29565b5090565b828054600181600116156101000203166002900490600052602060002090601f016020900481019282601f10613aea57805160ff1916838001178555613b18565b82800160010185558215613b18579182015b82811115613b17578251825591602001919060010190613afc565b5b509050613b259190613b29565b5090565b613b4b91905b80821115613b47576000816000905550600101613b2f565b5090565b905600a165627a7a72305820824a05f41b1fa899d3d2882fe6152eee721b7df8abf095f28c1c3ff343954db00029",
  "source": "pragma solidity ^0.4.24;\nimport \"./Ownable.sol\";\n\ncontract Bright is Ownable {\n    \n    event UserProfileSetEvent (string name, address hash);\n    mapping (address => UserProfile) public hashUserMap;\n    mapping (uint => UserProfile) allUsersArray;\n    mapping (string => Commit) storedData;\n    uint numberOfUsers = 0;\n\n\n    struct UserProfile {\n        string name;\n        string email;\n        address hash;\n        uint numberCommitsReviewedbyMe;\n        uint numberCommitsToReviewbyMe;\n        uint numbermyCommits;\n        mapping (uint => Commit) userCommits;\n        mapping (uint => Commit) commitsToReview;\n    }\n    struct Commit {\n        string id;\n\t    string url;\n        address author;\n        uint timestamp;\n        string project;\n        uint numberReviews; \n        uint pending;\n        uint currentNumberReviews;\n        mapping (uint => comment) comments;\n    }\n    struct comment{\n        string text;\n        address user;\n    }\n    function setProfile (string _name, string _email) public {\n        //require(_hash == msg.sender);\n        if (bytes(hashUserMap[msg.sender].name).length == 0 && bytes(hashUserMap[msg.sender].email).length == 0){\n           \n            hashUserMap[msg.sender].name = _name;\n            hashUserMap[msg.sender].email = _email;\n\t        hashUserMap[msg.sender].hash = msg.sender;\n\t        hashUserMap[msg.sender].numberCommitsReviewedbyMe = 0;\n            hashUserMap[msg.sender].numberCommitsToReviewbyMe = 0;\n            hashUserMap[msg.sender].numbermyCommits=0;\n            allUsersArray[numberOfUsers] = hashUserMap[msg.sender];\n            numberOfUsers++;\n\n        }\n        if(bytes(hashUserMap[msg.sender].name).length > 0 || bytes(hashUserMap[msg.sender].email).length > 0){\n            hashUserMap[msg.sender].name = _name;\n            hashUserMap[msg.sender].email = _email;\n        }\n        emit UserProfileSetEvent(_name, msg.sender);\n    }\n\n    function getUser (address _hash) public view returns (string, string, uint, uint, uint) { //TODO: we need a getuser function using the email address instead of hash\n            \n        if (msg.sender == _hash){ //If you are calling the function\n        return (hashUserMap[_hash].name,\n                hashUserMap[_hash].email,\n                hashUserMap[_hash].numberCommitsReviewedbyMe,\n                hashUserMap[_hash].numberCommitsToReviewbyMe,\n                hashUserMap[_hash].numbermyCommits\n                );\n        } else{ //If other person is calling the function\n\t\t    return (hashUserMap[_hash].name,\"-\",0,0,0);\n\t\t}\n    }\n    \n    function setNewCommit (string _id, string _url, string _project, string _emailuser1, string _emailuser2, string _emailuser3, string _emailuser4) public { //_users separated by commas.\n        uint num = 0;\n        uint pending = 0;\n        if(keccak256(_emailuser1)!=keccak256(\"\")){num++;}\n        if(keccak256(_emailuser2)!=keccak256(\"\")){num++;}\n        if(keccak256(_emailuser3)!=keccak256(\"\")){num++;}\n        if(keccak256(_emailuser4)!=keccak256(\"\")){num++;}\n        if(num>0){pending=1;}\n        storedData[_id] = Commit(_id, _url, msg.sender, block.timestamp, _project, num, pending, 0);\n        hashUserMap[msg.sender].userCommits[hashUserMap[msg.sender].numbermyCommits] = storedData[_id];\n        hashUserMap[msg.sender].numbermyCommits++;\n        \n        //Send the notificatios to reviewers\n        for(uint i = 0; i < numberOfUsers; i++){\n            \n            if(keccak256(allUsersArray[i].email) == keccak256(_emailuser1)){\n                hashUserMap[allUsersArray[i].hash].commitsToReview[hashUserMap[allUsersArray[i].hash].numberCommitsToReviewbyMe] = storedData[_id];\n                hashUserMap[allUsersArray[i].hash].numberCommitsToReviewbyMe = (hashUserMap[allUsersArray[i].hash].numberCommitsToReviewbyMe + 1);  \n            }else if(keccak256(allUsersArray[i].email) == keccak256(_emailuser2)){\n                hashUserMap[allUsersArray[i].hash].commitsToReview[hashUserMap[allUsersArray[i].hash].numberCommitsToReviewbyMe] = storedData[_id];\n                hashUserMap[allUsersArray[i].hash].numberCommitsToReviewbyMe = hashUserMap[allUsersArray[i].hash].numberCommitsToReviewbyMe + 1;\n            }else if(keccak256(allUsersArray[i].email) == keccak256(_emailuser3)){\n                hashUserMap[allUsersArray[i].hash].commitsToReview[hashUserMap[allUsersArray[i].hash].numberCommitsToReviewbyMe] = storedData[_id];\n                hashUserMap[allUsersArray[i].hash].numberCommitsToReviewbyMe = hashUserMap[allUsersArray[i].hash].numberCommitsToReviewbyMe + 1;\n            }else if(keccak256(allUsersArray[i].email) == keccak256(_emailuser4)){\n                hashUserMap[allUsersArray[i].hash].commitsToReview[hashUserMap[allUsersArray[i].hash].numberCommitsToReviewbyMe] = storedData[_id];\n                hashUserMap[allUsersArray[i].hash].numberCommitsToReviewbyMe = hashUserMap[allUsersArray[i].hash].numberCommitsToReviewbyMe + 1;\n            }\n        }\n    }\n    function getUserCommits(uint _index) public view returns(string){ //_index starts in 1\n        return hashUserMap[msg.sender].userCommits[_index-1].url;\n    }\n    function getNumberUserCommits()public view returns(uint){\n        return hashUserMap[msg.sender].numbermyCommits;\n    }\n    function getAllUserEmail(uint _index) public view returns(string){ //_index starts in 0\n        return allUsersArray[_index].email;\n    }\n    function getAllUserNumber() public view returns(uint){ \n        return numberOfUsers;\n    }\n    function getNumberCommitsToReviewByMe() public view returns(uint){ \n        return hashUserMap[msg.sender].numberCommitsToReviewbyMe;\n    }\n    function getNumberCommitsReviewedByMe() public view returns(uint){ \n        return hashUserMap[msg.sender].numberCommitsReviewedbyMe;\n    }\n    function getCommitsToReviewByMe(uint _index) public view returns(string){ //_index starts in 1\n        return hashUserMap[msg.sender].commitsToReview[_index-1].url;\n    }\n    function setReview(uint _index, string _text){\n        hashUserMap[msg.sender].commitsToReview[_index].comments[hashUserMap[msg.sender].commitsToReview[_index].currentNumberReviews].text = _text;\n        hashUserMap[msg.sender].commitsToReview[_index].comments[hashUserMap[msg.sender].commitsToReview[_index].currentNumberReviews].user = msg.sender; \n        \n        hashUserMap[msg.sender].commitsToReview[_index].currentNumberReviews++;\n        if(hashUserMap[msg.sender].commitsToReview[_index].currentNumberReviews==hashUserMap[msg.sender].commitsToReview[_index].numberReviews){\n            hashUserMap[msg.sender].commitsToReview[_index].pending;\n        }\n        //User who has to review. \n        delete hashUserMap[msg.sender].commitsToReview[_index]; //delete review commit\n        hashUserMap[msg.sender].commitsToReview[_index] = hashUserMap[msg.sender].commitsToReview[hashUserMap[msg.sender].numberCommitsToReviewbyMe]; //the last commit of the list commitsToReviewByMe is on the position which had the commit i delete\n        hashUserMap[msg.sender].numberCommitsToReviewbyMe--; //decrease counter\n        hashUserMap[msg.sender].numberCommitsReviewedbyMe++; //encrease counter\n        \n\n    }\n}",
  "sourcePath": "/home/arodriguez/Documentos/truffle-BrightByte/contracts/Bright.sol",
  "compiler": {
    "name": "solc",
    "version": "0.4.24+commit.e67f0147.Emscripten.clang"
  },
  "schemaVersion": "2.0.0",
  "updatedAt": "2018-06-21T10:42:54.768Z"
}