{
  "contractName": "Bright",
  "abi": [
    {
      "inputs": [],
      "payable": false,
      "stateMutability": "nonpayable",
      "type": "constructor"
    },
    {
      "anonymous": false,
      "inputs": [
        {
          "indexed": false,
          "name": "name",
          "type": "string"
        },
        {
          "indexed": false,
          "name": "hash",
          "type": "address"
        }
      ],
      "name": "UserProfileSetEvent",
      "type": "event"
    },
    {
      "anonymous": false,
      "inputs": [
        {
          "indexed": true,
          "name": "previousOwner",
          "type": "address"
        },
        {
          "indexed": true,
          "name": "newOwner",
          "type": "address"
        }
      ],
      "name": "OwnershipTransferred",
      "type": "event"
    },
    {
      "constant": false,
      "inputs": [
        {
          "name": "_root",
          "type": "address"
        },
        {
          "name": "seasonIndex",
          "type": "uint256"
        },
        {
          "name": "initialTimestamp",
          "type": "uint256"
        }
      ],
      "name": "init",
      "outputs": [],
      "payable": false,
      "stateMutability": "nonpayable",
      "type": "function"
    },
    {
      "constant": false,
      "inputs": [
        {
          "name": "newOwner",
          "type": "address"
        }
      ],
      "name": "transferOwnership",
      "outputs": [],
      "payable": false,
      "stateMutability": "nonpayable",
      "type": "function"
    },
    {
      "constant": false,
      "inputs": [
        {
          "name": "a",
          "type": "address"
        }
      ],
      "name": "setRootAddress",
      "outputs": [],
      "payable": false,
      "stateMutability": "nonpayable",
      "type": "function"
    },
    {
      "constant": false,
      "inputs": [
        {
          "name": "name",
          "type": "string"
        },
        {
          "name": "email",
          "type": "string"
        }
      ],
      "name": "setProfile",
      "outputs": [],
      "payable": false,
      "stateMutability": "nonpayable",
      "type": "function"
    },
    {
      "constant": true,
      "inputs": [
        {
          "name": "userHash",
          "type": "address"
        }
      ],
      "name": "getUser",
      "outputs": [
        {
          "name": "",
          "type": "string"
        },
        {
          "name": "",
          "type": "string"
        },
        {
          "name": "",
          "type": "uint256"
        },
        {
          "name": "",
          "type": "uint256"
        },
        {
          "name": "",
          "type": "uint256"
        },
        {
          "name": "",
          "type": "uint256"
        },
        {
          "name": "",
          "type": "uint256"
        }
      ],
      "payable": false,
      "stateMutability": "view",
      "type": "function"
    },
    {
      "constant": true,
      "inputs": [
        {
          "name": "email",
          "type": "bytes32"
        }
      ],
      "name": "getAddressByEmail",
      "outputs": [
        {
          "name": "",
          "type": "address"
        }
      ],
      "payable": false,
      "stateMutability": "view",
      "type": "function"
    },
    {
      "constant": false,
      "inputs": [
        {
          "name": "url",
          "type": "bytes32"
        }
      ],
      "name": "setCommit",
      "outputs": [],
      "payable": false,
      "stateMutability": "nonpayable",
      "type": "function"
    },
    {
      "constant": false,
      "inputs": [
        {
          "name": "a",
          "type": "string"
        },
        {
          "name": "email",
          "type": "bytes32"
        }
      ],
      "name": "notifyCommit",
      "outputs": [],
      "payable": false,
      "stateMutability": "nonpayable",
      "type": "function"
    },
    {
      "constant": true,
      "inputs": [
        {
          "name": "add",
          "type": "address"
        }
      ],
      "name": "getUserCommits",
      "outputs": [
        {
          "name": "",
          "type": "bytes32[]"
        },
        {
          "name": "",
          "type": "bytes32[]"
        },
        {
          "name": "",
          "type": "bytes32[]"
        }
      ],
      "payable": false,
      "stateMutability": "view",
      "type": "function"
    },
    {
      "constant": true,
      "inputs": [
        {
          "name": "index",
          "type": "uint256"
        }
      ],
      "name": "getAllUserEmail",
      "outputs": [
        {
          "name": "",
          "type": "string"
        }
      ],
      "payable": false,
      "stateMutability": "view",
      "type": "function"
    },
    {
      "constant": true,
      "inputs": [
        {
          "name": "index",
          "type": "uint256"
        }
      ],
      "name": "getAllUserReputation",
      "outputs": [
        {
          "name": "",
          "type": "string"
        },
        {
          "name": "",
          "type": "uint256"
        },
        {
          "name": "",
          "type": "uint256"
        },
        {
          "name": "",
          "type": "string"
        },
        {
          "name": "",
          "type": "uint256"
        },
        {
          "name": "",
          "type": "uint256"
        },
        {
          "name": "",
          "type": "uint256"
        },
        {
          "name": "",
          "type": "address"
        }
      ],
      "payable": false,
      "stateMutability": "view",
      "type": "function"
    },
    {
      "constant": true,
      "inputs": [],
      "name": "getNumbers",
      "outputs": [
        {
          "name": "",
          "type": "uint256"
        }
      ],
      "payable": false,
      "stateMutability": "view",
      "type": "function"
    },
    {
      "constant": false,
      "inputs": [
        {
          "name": "url",
          "type": "bytes32"
        },
        {
          "name": "author",
          "type": "address"
        }
      ],
      "name": "setReview",
      "outputs": [],
      "payable": false,
      "stateMutability": "nonpayable",
      "type": "function"
    },
    {
      "constant": true,
      "inputs": [
        {
          "name": "userHash",
          "type": "address"
        }
      ],
      "name": "getUserName",
      "outputs": [
        {
          "name": "",
          "type": "string"
        }
      ],
      "payable": false,
      "stateMutability": "view",
      "type": "function"
    },
    {
      "constant": true,
      "inputs": [
        {
          "name": "url",
          "type": "bytes32"
        }
      ],
      "name": "getFeedback",
      "outputs": [
        {
          "name": "",
          "type": "bool"
        }
      ],
      "payable": false,
      "stateMutability": "view",
      "type": "function"
    },
    {
      "constant": false,
      "inputs": [
        {
          "name": "url",
          "type": "bytes32"
        },
        {
          "name": "user",
          "type": "address"
        },
        {
          "name": "value",
          "type": "bool"
        },
        {
          "name": "vote",
          "type": "uint256"
        }
      ],
      "name": "setFeedback",
      "outputs": [],
      "payable": false,
      "stateMutability": "nonpayable",
      "type": "function"
    },
    {
      "constant": true,
      "inputs": [
        {
          "name": "userHash",
          "type": "address"
        }
      ],
      "name": "getToRead",
      "outputs": [
        {
          "name": "",
          "type": "bytes32[]"
        }
      ],
      "payable": false,
      "stateMutability": "view",
      "type": "function"
    },
    {
      "constant": true,
      "inputs": [
        {
          "name": "userHash",
          "type": "address"
        },
        {
          "name": "global",
          "type": "bool"
        },
        {
          "name": "indSeason",
          "type": "uint256"
        }
      ],
      "name": "getVotes",
      "outputs": [
        {
          "name": "",
          "type": "uint256"
        },
        {
          "name": "",
          "type": "uint256"
        }
      ],
      "payable": false,
      "stateMutability": "view",
      "type": "function"
    },
    {
      "constant": true,
      "inputs": [
        {
          "name": "ind",
          "type": "uint256"
        },
        {
          "name": "sea",
          "type": "uint256"
        }
      ],
      "name": "getUserReputation",
      "outputs": [
        {
          "name": "",
          "type": "string"
        },
        {
          "name": "",
          "type": "uint256"
        },
        {
          "name": "",
          "type": "uint256"
        },
        {
          "name": "",
          "type": "string"
        },
        {
          "name": "",
          "type": "uint256"
        },
        {
          "name": "",
          "type": "uint256"
        },
        {
          "name": "",
          "type": "uint256"
        },
        {
          "name": "",
          "type": "address"
        }
      ],
      "payable": false,
      "stateMutability": "view",
      "type": "function"
    },
    {
      "constant": true,
      "inputs": [],
      "name": "getCurrentSeason",
      "outputs": [
        {
          "name": "",
          "type": "uint256"
        },
        {
          "name": "",
          "type": "uint256"
        }
      ],
      "payable": false,
      "stateMutability": "view",
      "type": "function"
    },
    {
      "constant": true,
      "inputs": [
        {
          "name": "seasonIndex",
          "type": "uint256"
        },
        {
          "name": "userAddr",
          "type": "address"
        }
      ],
      "name": "getAllUserSeasonUrls",
      "outputs": [
        {
          "name": "",
          "type": "bytes32[]"
        }
      ],
      "payable": false,
      "stateMutability": "view",
      "type": "function"
    },
    {
      "constant": false,
      "inputs": [
        {
          "name": "name",
          "type": "string"
        },
        {
          "name": "mail",
          "type": "string"
        },
        {
          "name": "hash",
          "type": "address"
        },
        {
          "name": "perct",
          "type": "uint256"
        },
        {
          "name": "tmRw",
          "type": "uint256"
        },
        {
          "name": "pos",
          "type": "uint256"
        },
        {
          "name": "neg",
          "type": "uint256"
        },
        {
          "name": "rep",
          "type": "uint256"
        },
        {
          "name": "rev",
          "type": "uint256"
        }
      ],
      "name": "setAllUserData",
      "outputs": [],
      "payable": false,
      "stateMutability": "nonpayable",
      "type": "function"
    },
    {
      "constant": false,
      "inputs": [
        {
          "name": "sea",
          "type": "uint256"
        },
        {
          "name": "userAddr",
          "type": "address"
        },
        {
          "name": "perct",
          "type": "uint256"
        },
        {
          "name": "tmRw",
          "type": "uint256"
        },
        {
          "name": "pos",
          "type": "uint256"
        },
        {
          "name": "neg",
          "type": "uint256"
        },
        {
          "name": "rep",
          "type": "uint256"
        },
        {
          "name": "rev",
          "type": "uint256"
        }
      ],
      "name": "setAllUserSeasonData",
      "outputs": [],
      "payable": false,
      "stateMutability": "nonpayable",
      "type": "function"
    },
    {
      "constant": false,
      "inputs": [
        {
          "name": "h",
          "type": "address"
        },
        {
          "name": "pendCom",
          "type": "bytes32[]"
        },
        {
          "name": "finRev",
          "type": "bytes32[]"
        },
        {
          "name": "pendRev",
          "type": "bytes32[]"
        },
        {
          "name": "toRd",
          "type": "bytes32[]"
        }
      ],
      "name": "setAllUserDataTwo",
      "outputs": [],
      "payable": false,
      "stateMutability": "nonpayable",
      "type": "function"
    },
    {
      "constant": false,
      "inputs": [
        {
          "name": "seasonIndex",
          "type": "uint256"
        },
        {
          "name": "userAddr",
          "type": "address"
        },
        {
          "name": "urls",
          "type": "bytes32[]"
        }
      ],
      "name": "setUrlsSeason",
      "outputs": [],
      "payable": false,
      "stateMutability": "nonpayable",
      "type": "function"
    },
    {
      "constant": true,
      "inputs": [
        {
          "name": "url",
          "type": "bytes32"
        },
        {
          "name": "author",
          "type": "address"
        }
      ],
      "name": "checkCommitSeason",
      "outputs": [
        {
          "name": "",
          "type": "bool"
        }
      ],
      "payable": false,
      "stateMutability": "view",
      "type": "function"
    }
  ],
  "bytecode": "0x6060604052341561000f57600080fd5b33600760006101000a81548173ffffffffffffffffffffffffffffffffffffffff021916908373ffffffffffffffffffffffffffffffffffffffff1602179055506155f180620000606000396000f300606060405260043610610154576000357c0100000000000000000000000000000000000000000000000000000000900463ffffffff168063069157f9146101595780631451952b146101b357806317ba8a20146101ec5780631d93b515146103255780631f75b3461461038d578063232b0e79146103f4578063241d82ab146104335780633b8cf8ee146104b55780633c41074414610543578063657977371461063857806367268dea146106b05780636749bbe31461080e5780636f77926b146108aa578063719e37ae146109eb57806389f915f614610a8b5780638f359d7014610ab4578063955179bb14610b12578063a4a2a9f614610ba9578063ba37175214610bf4578063c6b2592c14610c3a578063c7945fbd14610da1578063ccdb681d14610dc8578063d3b30b7514610e32578063d84f55ee14610e62578063e3009fda14610f14578063f2fde38b14611032575b600080fd5b341561016457600080fd5b6101b160048080356000191690602001909190803573ffffffffffffffffffffffffffffffffffffffff16906020019091908035151590602001909190803590602001909190505061106b565b005b34156101be57600080fd5b6101ea600480803573ffffffffffffffffffffffffffffffffffffffff1690602001909190505061139c565b005b34156101f757600080fd5b610323600480803573ffffffffffffffffffffffffffffffffffffffff169060200190919080359060200190820180359060200190808060200260200160405190810160405280939291908181526020018383602002808284378201915050505050509190803590602001908201803590602001908080602002602001604051908101604052809392919081815260200183836020028082843782019150505050505091908035906020019082018035906020019080806020026020016040519081016040528093929190818152602001838360200280828437820191505050505050919080359060200190820180359060200190808060200260200160405190810160405280939291908181526020018383602002808284378201915050505050509190505061143c565b005b341561033057600080fd5b610370600480803573ffffffffffffffffffffffffffffffffffffffff1690602001909190803515159060200190919080359060200190919050506116c1565b604051808381526020018281526020019250505060405180910390f35b341561039857600080fd5b6103b26004808035600019169060200190919050506118b2565b604051808273ffffffffffffffffffffffffffffffffffffffff1673ffffffffffffffffffffffffffffffffffffffff16815260200191505060405180910390f35b34156103ff57600080fd5b61041960048080356000191690602001909190505061198e565b604051808215151515815260200191505060405180910390f35b341561043e57600080fd5b6104b3600480803590602001909190803573ffffffffffffffffffffffffffffffffffffffff1690602001909190803590602001908201803590602001908080602002602001604051908101604052809392919081815260200183836020028082843782019150505050505091905050611b06565b005b34156104c057600080fd5b6104ec600480803573ffffffffffffffffffffffffffffffffffffffff16906020019091905050611cbf565b6040518080602001828103825283818151815260200191508051906020019060200280838360005b8381101561052f578082015181840152602081019050610514565b505050509050019250505060405180910390f35b341561054e57600080fd5b610636600480803590602001908201803590602001908080601f0160208091040260200160405190810160405280939291908181526020018383808284378201915050505050509190803590602001908201803590602001908080601f0160208091040260200160405190810160405280939291908181526020018383808284378201915050505050509190803573ffffffffffffffffffffffffffffffffffffffff16906020019091908035906020019091908035906020019091908035906020019091908035906020019091908035906020019091908035906020019091905050611df5565b005b341561064357600080fd5b6106ae600480803590602001909190803573ffffffffffffffffffffffffffffffffffffffff1690602001909190803590602001909190803590602001909190803590602001909190803590602001909190803590602001909190803590602001909190505061218d565b005b34156106bb57600080fd5b6106d160048080359060200190919050506122ce565b6040518080602001898152602001888152602001806020018781526020018681526020018581526020018473ffffffffffffffffffffffffffffffffffffffff1673ffffffffffffffffffffffffffffffffffffffff16815260200183810383528b818151815260200191508051906020019080838360005b8381101561076557808201518184015260208101905061074a565b50505050905090810190601f1680156107925780820380516001836020036101000a031916815260200191505b50838103825288818151815260200191508051906020019080838360005b838110156107cb5780820151818401526020810190506107b0565b50505050905090810190601f1680156107f85780820380516001836020036101000a031916815260200191505b509a505050505050505050505060405180910390f35b341561081957600080fd5b61082f60048080359060200190919050506127c6565b6040518080602001828103825283818151815260200191508051906020019080838360005b8381101561086f578082015181840152602081019050610854565b50505050905090810190601f16801561089c5780820380516001836020036101000a031916815260200191505b509250505060405180910390f35b34156108b557600080fd5b6108e1600480803573ffffffffffffffffffffffffffffffffffffffff1690602001909190505061297c565b60405180806020018060200188815260200187815260200186815260200185815260200184815260200183810383528a818151815260200191508051906020019080838360005b83811015610943578082015181840152602081019050610928565b50505050905090810190601f1680156109705780820380516001836020036101000a031916815260200191505b50838103825289818151815260200191508051906020019080838360005b838110156109a957808201518184015260208101905061098e565b50505050905090810190601f1680156109d65780820380516001836020036101000a031916815260200191505b50995050505050505050505060405180910390f35b34156109f657600080fd5b610a89600480803590602001908201803590602001908080601f0160208091040260200160405190810160405280939291908181526020018383808284378201915050505050509190803590602001908201803590602001908080601f01602080910402602001604051908101604052809392919081815260200183838082843782019150505050505091905050612e2f565b005b3415610a9657600080fd5b610a9e6134ba565b6040518082815260200191505060405180910390f35b3415610abf57600080fd5b610af860048080356000191690602001909190803573ffffffffffffffffffffffffffffffffffffffff16906020019091905050613559565b604051808215151515815260200191505060405180910390f35b3415610b1d57600080fd5b610b52600480803590602001909190803573ffffffffffffffffffffffffffffffffffffffff1690602001909190505061363e565b6040518080602001828103825283818151815260200191508051906020019060200280838360005b83811015610b95578082015181840152602081019050610b7a565b505050509050019250505060405180910390f35b3415610bb457600080fd5b610bf2600480803573ffffffffffffffffffffffffffffffffffffffff16906020019091908035906020019091908035906020019091905050613805565b005b3415610bff57600080fd5b610c3860048080356000191690602001909190803573ffffffffffffffffffffffffffffffffffffffff169060200190919050506138ec565b005b3415610c4557600080fd5b610c646004808035906020019091908035906020019091905050613dd3565b6040518080602001898152602001888152602001806020018781526020018681526020018581526020018473ffffffffffffffffffffffffffffffffffffffff1673ffffffffffffffffffffffffffffffffffffffff16815260200183810383528b818151815260200191508051906020019080838360005b83811015610cf8578082015181840152602081019050610cdd565b50505050905090810190601f168015610d255780820380516001836020036101000a031916815260200191505b50838103825288818151815260200191508051906020019080838360005b83811015610d5e578082015181840152602081019050610d43565b50505050905090810190601f168015610d8b5780820380516001836020036101000a031916815260200191505b509a505050505050505050505060405180910390f35b3415610dac57600080fd5b610dc660048080356000191690602001909190505061442a565b005b3415610dd357600080fd5b610e30600480803590602001908201803590602001908080601f0160208091040260200160405190810160405280939291908181526020018383808284378201915050505050509190803560001916906020019091905050614681565b005b3415610e3d57600080fd5b610e45614a3a565b604051808381526020018281526020019250505060405180910390f35b3415610e6d57600080fd5b610e99600480803573ffffffffffffffffffffffffffffffffffffffff16906020019091905050614af1565b6040518080602001828103825283818151815260200191508051906020019080838360005b83811015610ed9578082015181840152602081019050610ebe565b50505050905090810190601f168015610f065780820380516001836020036101000a031916815260200191505b509250505060405180910390f35b3415610f1f57600080fd5b610f4b600480803573ffffffffffffffffffffffffffffffffffffffff16906020019091905050614c6d565b60405180806020018060200180602001848103845287818151815260200191508051906020019060200280838360005b83811015610f96578082015181840152602081019050610f7b565b50505050905001848103835286818151815260200191508051906020019060200280838360005b83811015610fd8578082015181840152602081019050610fbd565b50505050905001848103825285818151815260200191508051906020019060200280838360005b8381101561101a578082015181840152602081019050610fff565b50505050905001965050505050505060405180910390f35b341561103d57600080fd5b611069600480803573ffffffffffffffffffffffffffffffffffffffff169060200190919050506150f8565b005b600080600080600660009054906101000a900473ffffffffffffffffffffffffffffffffffffffff1673ffffffffffffffffffffffffffffffffffffffff163373ffffffffffffffffffffffffffffffffffffffff161415156110cd57600080fd5b869350329250600360008573ffffffffffffffffffffffffffffffffffffffff1673ffffffffffffffffffffffffffffffffffffffff168152602001908152602001600020915061111c615250565b85156112dc57600360008473ffffffffffffffffffffffffffffffffffffffff1673ffffffffffffffffffffffffffffffffffffffff168152602001908152602001600020600e01600060015481526020019081526020016000206007016000896000191660001916815260200190815260200160002060009054906101000a9050508160060180548060010182816111b5919061533b565b916000526020600020900160008a9091909150906000191690555060018514156111f5578160070160040160008154809291906001019190505550611217565b60028514156112165781600701600501600081548092919060010191905055505b5b8160070160050154826007016004015401606483600701600401540281151561123c57fe5b048260070160030181905550600360008473ffffffffffffffffffffffffffffffffffffffff1673ffffffffffffffffffffffffffffffffffffffff168152602001908152602001600020600e01600060015481526020019081526020016000206007016000896000191660001916815260200190815260200160002060009054906101000a900460ff16156112d7576112d6878661527e565b5b611392565b600090505b816006018054905081101561139157816006018181548110151561130157fe5b90600052602060002090015460001916886000191614156113845781600601600183600601805490500381548110151561133757fe5b906000526020600020900154826006018281548110151561135457fe5b906000526020600020900181600019169055508160060180548091906001900361137e9190615367565b50611391565b80806001019150506112e1565b5b5050505050505050565b600760009054906101000a900473ffffffffffffffffffffffffffffffffffffffff1673ffffffffffffffffffffffffffffffffffffffff163373ffffffffffffffffffffffffffffffffffffffff161415156113f857600080fd5b80600660006101000a81548173ffffffffffffffffffffffffffffffffffffffff021916908373ffffffffffffffffffffffffffffffffffffffff16021790555050565b6000806000806000600660009054906101000a900473ffffffffffffffffffffffffffffffffffffffff1673ffffffffffffffffffffffffffffffffffffffff163373ffffffffffffffffffffffffffffffffffffffff1614806114cb57503273ffffffffffffffffffffffffffffffffffffffff163373ffffffffffffffffffffffffffffffffffffffff16145b15156114d657600080fd5b635d663000421015156114e857600080fd5b600360008b73ffffffffffffffffffffffffffffffffffffffff1673ffffffffffffffffffffffffffffffffffffffff1681526020019081526020016000209450600093505b885184101561158c5784600301805480600101828161154d919061533b565b916000526020600020900160008b8781518110151561156857fe5b9060200190602002015190919091509060001916905550838060010194505061152e565b600092505b87518310156115ef578460040180548060010182816115b0919061533b565b916000526020600020900160008a868151811015156115cb57fe5b90602001906020020151909190915090600019169055508280600101935050611591565b600091505b865182101561165257846005018054806001018281611613919061533b565b91600052602060002090016000898581518110151561162e57fe5b906020019060200201519091909150906000191690555081806001019250506115f4565b600090505b85518110156116b557846006018054806001018281611676919061533b565b91600052602060002090016000888481518110151561169157fe5b90602001906020020151909190915090600019169055508080600101915050611657565b50505050505050505050565b600080600660009054906101000a900473ffffffffffffffffffffffffffffffffffffffff1673ffffffffffffffffffffffffffffffffffffffff163373ffffffffffffffffffffffffffffffffffffffff16148061174b57503273ffffffffffffffffffffffffffffffffffffffff163373ffffffffffffffffffffffffffffffffffffffff16145b151561175657600080fd5b83156117f157600360008673ffffffffffffffffffffffffffffffffffffffff1673ffffffffffffffffffffffffffffffffffffffff16815260200190815260200160002060070160040154600360008773ffffffffffffffffffffffffffffffffffffffff1673ffffffffffffffffffffffffffffffffffffffff16815260200190815260200160002060070160050154915091506118aa565b600360008673ffffffffffffffffffffffffffffffffffffffff1673ffffffffffffffffffffffffffffffffffffffff168152602001908152602001600020600e01600084815260200190815260200160002060000160040154600360008773ffffffffffffffffffffffffffffffffffffffff1673ffffffffffffffffffffffffffffffffffffffff168152602001908152602001600020600e01600085815260200190815260200160002060000160050154915091505b935093915050565b600080600660009054906101000a900473ffffffffffffffffffffffffffffffffffffffff1673ffffffffffffffffffffffffffffffffffffffff163373ffffffffffffffffffffffffffffffffffffffff16148061193c57503273ffffffffffffffffffffffffffffffffffffffff163373ffffffffffffffffffffffffffffffffffffffff16145b151561194757600080fd5b60046000846000191660001916815260200190815260200160002060009054906101000a900473ffffffffffffffffffffffffffffffffffffffff16905080915050919050565b600080600080600660009054906101000a900473ffffffffffffffffffffffffffffffffffffffff1673ffffffffffffffffffffffffffffffffffffffff163373ffffffffffffffffffffffffffffffffffffffff161480611a1b57503273ffffffffffffffffffffffffffffffffffffffff163373ffffffffffffffffffffffffffffffffffffffff16145b1515611a2657600080fd5b32925060009150600090505b600360008473ffffffffffffffffffffffffffffffffffffffff1673ffffffffffffffffffffffffffffffffffffffff16815260200190815260200160002060060180549050811015611afb578460001916600360008573ffffffffffffffffffffffffffffffffffffffff1673ffffffffffffffffffffffffffffffffffffffff16815260200190815260200160002060060182815481101515611ad357fe5b906000526020600020900154600019161415611aee57600191505b8080600101915050611a32565b819350505050919050565b6000806000600660009054906101000a900473ffffffffffffffffffffffffffffffffffffffff1673ffffffffffffffffffffffffffffffffffffffff163373ffffffffffffffffffffffffffffffffffffffff161480611b9257503273ffffffffffffffffffffffffffffffffffffffff163373ffffffffffffffffffffffffffffffffffffffff16145b1515611b9d57600080fd5b635d66300042101515611baf57600080fd5b600360008673ffffffffffffffffffffffffffffffffffffffff1673ffffffffffffffffffffffffffffffffffffffff168152602001908152602001600020925082600e0160008781526020019081526020016000209150600090505b8351811015611cb75760018260070160008684815181101515611c2b57fe5b906020019060200201516000191660001916815260200190815260200160002060006101000a81548160ff021916908315150217905550816008018054806001018281611c78919061533b565b916000526020600020900160008684815181101515611c9357fe5b90602001906020020151909190915090600019169055508080600101915050611c0c565b505050505050565b611cc7615393565b600660009054906101000a900473ffffffffffffffffffffffffffffffffffffffff1673ffffffffffffffffffffffffffffffffffffffff163373ffffffffffffffffffffffffffffffffffffffff161480611d4e57503273ffffffffffffffffffffffffffffffffffffffff163373ffffffffffffffffffffffffffffffffffffffff16145b1515611d5957600080fd5b600360008373ffffffffffffffffffffffffffffffffffffffff1673ffffffffffffffffffffffffffffffffffffffff168152602001908152602001600020600601805480602002602001604051908101604052809291908181526020018280548015611de957602002820191906000526020600020905b81546000191681526020019060010190808311611dd1575b50505050509050919050565b600080600660009054906101000a900473ffffffffffffffffffffffffffffffffffffffff1673ffffffffffffffffffffffffffffffffffffffff163373ffffffffffffffffffffffffffffffffffffffff161480611e7f57503273ffffffffffffffffffffffffffffffffffffffff163373ffffffffffffffffffffffffffffffffffffffff16145b1515611e8a57600080fd5b6000600360008b73ffffffffffffffffffffffffffffffffffffffff1673ffffffffffffffffffffffffffffffffffffffff168152602001908152602001600020600001805460018160011615610100020316600290049050148015611f4657506000600360008b73ffffffffffffffffffffffffffffffffffffffff1673ffffffffffffffffffffffffffffffffffffffff168152602001908152602001600020600101805460018160011615610100020316600290049050145b8015611f555750635d66300042105b1515611f6057600080fd5b600360008a73ffffffffffffffffffffffffffffffffffffffff1673ffffffffffffffffffffffffffffffffffffffff16815260200190815260200160002091508a826000019080519060200190611fb99291906153a7565b5089826001019080519060200190611fd29291906153a7565b50888260020160006101000a81548173ffffffffffffffffffffffffffffffffffffffff021916908373ffffffffffffffffffffffffffffffffffffffff160217905550878260070160030181905550868260070160020181905550858260070160040181905550848260070160050181905550838260070160000181905550828260070160060181905550896040518082805190602001908083835b602083101515612094578051825260208201915060208101905060208303925061206f565b6001836020036101000a038019825116818451168082178552505050505050905001915050604051809103902090508860046000836000191660001916815260200190815260200160002060006101000a81548173ffffffffffffffffffffffffffffffffffffffff021916908373ffffffffffffffffffffffffffffffffffffffff160217905550600580548060010182816121319190615427565b916000526020600020900160008b909190916101000a81548173ffffffffffffffffffffffffffffffffffffffff021916908373ffffffffffffffffffffffffffffffffffffffff160217905550505050505050505050505050565b600080600660009054906101000a900473ffffffffffffffffffffffffffffffffffffffff1673ffffffffffffffffffffffffffffffffffffffff163373ffffffffffffffffffffffffffffffffffffffff16148061221757503273ffffffffffffffffffffffffffffffffffffffff163373ffffffffffffffffffffffffffffffffffffffff16145b151561222257600080fd5b600360008a73ffffffffffffffffffffffffffffffffffffffff1673ffffffffffffffffffffffffffffffffffffffff168152602001908152602001600020915081600e0160008b8152602001908152602001600020905086816000016002018190555087816000016003018190555085816000016004018190555084816000016005018190555083816000016000018190555082816000016006018190555050505050505050505050565b6122d6615453565b6000806122e1615453565b6000806000806122ef615467565b600660009054906101000a900473ffffffffffffffffffffffffffffffffffffffff1673ffffffffffffffffffffffffffffffffffffffff163373ffffffffffffffffffffffffffffffffffffffff16148061237657503273ffffffffffffffffffffffffffffffffffffffff163373ffffffffffffffffffffffffffffffffffffffff16145b151561238157600080fd5b6003600060058c81548110151561239457fe5b906000526020600020900160009054906101000a900473ffffffffffffffffffffffffffffffffffffffff1673ffffffffffffffffffffffffffffffffffffffff1673ffffffffffffffffffffffffffffffffffffffff1681526020019081526020016000206101006040519081016040529081600082018054600181600116156101000203166002900480601f0160208091040260200160405190810160405280929190818152602001828054600181600116156101000203166002900480156124a05780601f10612475576101008083540402835291602001916124a0565b820191906000526020600020905b81548152906001019060200180831161248357829003601f168201915b50505050508152602001600182018054600181600116156101000203166002900480601f0160208091040260200160405190810160405280929190818152602001828054600181600116156101000203166002900480156125425780601f1061251757610100808354040283529160200191612542565b820191906000526020600020905b81548152906001019060200180831161252557829003601f168201915b505050505081526020016002820160009054906101000a900473ffffffffffffffffffffffffffffffffffffffff1673ffffffffffffffffffffffffffffffffffffffff1673ffffffffffffffffffffffffffffffffffffffff168152602001600382018054806020026020016040519081016040528092919081815260200182805480156125f457602002820191906000526020600020905b815460001916815260200190600101908083116125dc575b505050505081526020016004820180548060200260200160405190810160405280929190818152602001828054801561265057602002820191906000526020600020905b81546000191681526020019060010190808311612638575b50505050508152602001600582018054806020026020016040519081016040528092919081815260200182805480156126ac57602002820191906000526020600020905b81546000191681526020019060010190808311612694575b505050505081526020016006820180548060200260200160405190810160405280929190818152602001828054801561270857602002820191906000526020600020905b815460001916815260200190600101908083116126f0575b505050505081526020016007820160e0604051908101604052908160008201548152602001600182015481526020016002820154815260200160038201548152602001600482015481526020016005820154815260200160068201548152505081525050905080602001518160e00151600001518260e001516040015183600001518460e001516060015185606001515186608001515187604001518797508494509850985098509850985098509850985050919395975091939597565b6127ce615453565b600660009054906101000a900473ffffffffffffffffffffffffffffffffffffffff1673ffffffffffffffffffffffffffffffffffffffff163373ffffffffffffffffffffffffffffffffffffffff16148061285557503273ffffffffffffffffffffffffffffffffffffffff163373ffffffffffffffffffffffffffffffffffffffff16145b151561286057600080fd5b6003600060058481548110151561287357fe5b906000526020600020900160009054906101000a900473ffffffffffffffffffffffffffffffffffffffff1673ffffffffffffffffffffffffffffffffffffffff1673ffffffffffffffffffffffffffffffffffffffff1681526020019081526020016000206001018054600181600116156101000203166002900480601f0160208091040260200160405190810160405280929190818152602001828054600181600116156101000203166002900480156129705780601f1061294557610100808354040283529160200191612970565b820191906000526020600020905b81548152906001019060200180831161295357829003601f168201915b50505050509050919050565b612984615453565b61298c615453565b600080600080600061299c615467565b600660009054906101000a900473ffffffffffffffffffffffffffffffffffffffff1673ffffffffffffffffffffffffffffffffffffffff163373ffffffffffffffffffffffffffffffffffffffff161480612a2357503273ffffffffffffffffffffffffffffffffffffffff163373ffffffffffffffffffffffffffffffffffffffff16145b1515612a2e57600080fd5b600360008a73ffffffffffffffffffffffffffffffffffffffff1673ffffffffffffffffffffffffffffffffffffffff1681526020019081526020016000206101006040519081016040529081600082018054600181600116156101000203166002900480601f016020809104026020016040519081016040528092919081815260200182805460018160011615610100020316600290048015612b135780601f10612ae857610100808354040283529160200191612b13565b820191906000526020600020905b815481529060010190602001808311612af657829003601f168201915b50505050508152602001600182018054600181600116156101000203166002900480601f016020809104026020016040519081016040528092919081815260200182805460018160011615610100020316600290048015612bb55780601f10612b8a57610100808354040283529160200191612bb5565b820191906000526020600020905b815481529060010190602001808311612b9857829003601f168201915b505050505081526020016002820160009054906101000a900473ffffffffffffffffffffffffffffffffffffffff1673ffffffffffffffffffffffffffffffffffffffff1673ffffffffffffffffffffffffffffffffffffffff16815260200160038201805480602002602001604051908101604052809291908181526020018280548015612c6757602002820191906000526020600020905b81546000191681526020019060010190808311612c4f575b5050505050815260200160048201805480602002602001604051908101604052809291908181526020018280548015612cc357602002820191906000526020600020905b81546000191681526020019060010190808311612cab575b5050505050815260200160058201805480602002602001604051908101604052809291908181526020018280548015612d1f57602002820191906000526020600020905b81546000191681526020019060010190808311612d07575b5050505050815260200160068201805480602002602001604051908101604052809291908181526020018280548015612d7b57602002820191906000526020600020905b81546000191681526020019060010190808311612d63575b505050505081526020016007820160e06040519081016040529081600082015481526020016001820154815260200160028201548152602001600382015481526020016004820154815260200160058201548152602001600682015481525050815250509050806000015181602001518260800151518360a00151518460600151518560e00151600001518660e0015160600151869650859550975097509750975097509750975050919395979092949650565b600080600080600660009054906101000a900473ffffffffffffffffffffffffffffffffffffffff1673ffffffffffffffffffffffffffffffffffffffff163373ffffffffffffffffffffffffffffffffffffffff161480612ebc57503273ffffffffffffffffffffffffffffffffffffffff163373ffffffffffffffffffffffffffffffffffffffff16145b1515612ec757600080fd5b329350846040518082805190602001908083835b602083101515612f005780518252602082019150602081019050602083039250612edb565b6001836020036101000a038019825116818451168082178552505050505050905001915050604051809103902092506000600360008673ffffffffffffffffffffffffffffffffffffffff1673ffffffffffffffffffffffffffffffffffffffff168152602001908152602001600020600001805460018160011615610100020316600290049050148015612feb57506000600360008673ffffffffffffffffffffffffffffffffffffffff1673ffffffffffffffffffffffffffffffffffffffff168152602001908152602001600020600101805460018160011615610100020316600290049050145b1561316857600360008573ffffffffffffffffffffffffffffffffffffffff1673ffffffffffffffffffffffffffffffffffffffff1681526020019081526020016000209150858260000190805190602001906130499291906153a7565b50848260010190805190602001906130629291906153a7565b50838260020160006101000a81548173ffffffffffffffffffffffffffffffffffffffff021916908373ffffffffffffffffffffffffffffffffffffffff1602179055508360046000856000191660001916815260200190815260200160002060006101000a81548173ffffffffffffffffffffffffffffffffffffffff021916908373ffffffffffffffffffffffffffffffffffffffff160217905550600580548060010182816131149190615427565b9160005260206000209001600086909190916101000a81548173ffffffffffffffffffffffffffffffffffffffff021916908373ffffffffffffffffffffffffffffffffffffffff160217905550506133e2565b600360008573ffffffffffffffffffffffffffffffffffffffff1673ffffffffffffffffffffffffffffffffffffffff16815260200190815260200160002060010160405180828054600181600116156101000203166002900480156132055780601f106131e3576101008083540402835291820191613205565b820191906000526020600020905b8154815290600101906020018083116131f1575b50509150506040518091039020905080600019168360001916141561338a57600073ffffffffffffffffffffffffffffffffffffffff1660046000856000191660001916815260200190815260200160002060009054906101000a900473ffffffffffffffffffffffffffffffffffffffff1673ffffffffffffffffffffffffffffffffffffffff1614151561329a57600080fd5b60046000826000191660001916815260200190815260200160002060006101000a81549073ffffffffffffffffffffffffffffffffffffffff021916905584600360008673ffffffffffffffffffffffffffffffffffffffff1673ffffffffffffffffffffffffffffffffffffffff168152602001908152602001600020600101908051906020019061332e9291906153a7565b508360046000856000191660001916815260200190815260200160002060006101000a81548173ffffffffffffffffffffffffffffffffffffffff021916908373ffffffffffffffffffffffffffffffffffffffff1602179055505b85600360008673ffffffffffffffffffffffffffffffffffffffff1673ffffffffffffffffffffffffffffffffffffffff16815260200190815260200160002060000190805190602001906133e09291906153a7565b505b7f352ab20050877eafaf7fe3110fc72725dd9a1e7b9d7028b1cc4fd59839626908868560405180806020018373ffffffffffffffffffffffffffffffffffffffff1673ffffffffffffffffffffffffffffffffffffffff168152602001828103825284818151815260200191508051906020019080838360005b8381101561347757808201518184015260208101905061345c565b50505050905090810190601f1680156134a45780820380516001836020036101000a031916815260200191505b50935050505060405180910390a1505050505050565b6000600660009054906101000a900473ffffffffffffffffffffffffffffffffffffffff1673ffffffffffffffffffffffffffffffffffffffff163373ffffffffffffffffffffffffffffffffffffffff16148061354357503273ffffffffffffffffffffffffffffffffffffffff163373ffffffffffffffffffffffffffffffffffffffff16145b151561354e57600080fd5b600580549050905090565b6000600660009054906101000a900473ffffffffffffffffffffffffffffffffffffffff1673ffffffffffffffffffffffffffffffffffffffff163373ffffffffffffffffffffffffffffffffffffffff161415156135b757600080fd5b600360008373ffffffffffffffffffffffffffffffffffffffff1673ffffffffffffffffffffffffffffffffffffffff168152602001908152602001600020600e01600060015481526020019081526020016000206007016000846000191660001916815260200190815260200160002060009054906101000a900460ff16905092915050565b613646615393565b61364e6154ed565b600660009054906101000a900473ffffffffffffffffffffffffffffffffffffffff1673ffffffffffffffffffffffffffffffffffffffff163373ffffffffffffffffffffffffffffffffffffffff1614806136d557503273ffffffffffffffffffffffffffffffffffffffff163373ffffffffffffffffffffffffffffffffffffffff16145b15156136e057600080fd5b600360008473ffffffffffffffffffffffffffffffffffffffff1673ffffffffffffffffffffffffffffffffffffffff168152602001908152602001600020600e0160008581526020019081526020016000206040805190810160405290816000820160e060405190810160405290816000820154815260200160018201548152602001600282015481526020016003820154815260200160048201548152602001600582015481526020016006820154815250508152602001600882018054806020026020016040519081016040528092919081815260200182805480156137ec57602002820191906000526020600020905b815460001916815260200190600101908083116137d4575b5050505050815250509050806020015191505092915050565b600069ffffffffffffffffffff16600660009054906101000a900473ffffffffffffffffffffffffffffffffffffffff1673ffffffffffffffffffffffffffffffffffffffff1614151561385857600080fd5b826000806101000a81548173ffffffffffffffffffffffffffffffffffffffff021916908373ffffffffffffffffffffffffffffffffffffffff16021790555082600660006101000a81548173ffffffffffffffffffffffffffffffffffffffff021916908373ffffffffffffffffffffffffffffffffffffffff1602179055508160018190555080600281905550505050565b6000806000806000600660009054906101000a900473ffffffffffffffffffffffffffffffffffffffff1673ffffffffffffffffffffffffffffffffffffffff163373ffffffffffffffffffffffffffffffffffffffff1614151561395057600080fd5b3294508573ffffffffffffffffffffffffffffffffffffffff16600360008873ffffffffffffffffffffffffffffffffffffffff1673ffffffffffffffffffffffffffffffffffffffff16815260200190815260200160002060020160009054906101000a900473ffffffffffffffffffffffffffffffffffffffff1673ffffffffffffffffffffffffffffffffffffffff16148015613a7d57508473ffffffffffffffffffffffffffffffffffffffff16600360008773ffffffffffffffffffffffffffffffffffffffff1673ffffffffffffffffffffffffffffffffffffffff16815260200190815260200160002060020160009054906101000a900473ffffffffffffffffffffffffffffffffffffffff1673ffffffffffffffffffffffffffffffffffffffff16145b1515613a8857600080fd5b613a90615250565b600360008773ffffffffffffffffffffffffffffffffffffffff1673ffffffffffffffffffffffffffffffffffffffff168152602001908152602001600020935083600e016000600154815260200190815260200160002092508360070160020160008154809291906001019190505550600360008673ffffffffffffffffffffffffffffffffffffffff1673ffffffffffffffffffffffffffffffffffffffff1681526020019081526020016000209150600090505b8160050180549050811015613bf7578160050181815481101515613b6757fe5b9060005260206000209001546000191687600019161415613bea57816005016001836005018054905003815481101515613b9d57fe5b9060005260206000209001548260050182815481101515613bba57fe5b9060005260206000209001816000191690555081600501805480919060019003613be49190615367565b50613bf7565b8080600101915050613b47565b600360008673ffffffffffffffffffffffffffffffffffffffff1673ffffffffffffffffffffffffffffffffffffffff1681526020019081526020016000206004018054806001018281613c4b919061533b565b916000526020600020900160008990919091509060001916905550826007016000886000191660001916815260200190815260200160002060009054906101000a900460ff1615613dca5782600001600201600081548092919060010191905055506000809054906101000a900473ffffffffffffffffffffffffffffffffffffffff1673ffffffffffffffffffffffffffffffffffffffff16638babbaeb88856000016000015486600001600101546040518463ffffffff167c010000000000000000000000000000000000000000000000000000000002815260040180846000191660001916815260200183815260200182815260200193505050506040805180830381600087803b1515613d6157600080fd5b5af11515613d6e57600080fd5b5050506040518051906020018051905084600001600001600086600001600101600084919050558391905055505081600e0160006001548152602001908152602001600020600001600601600081548092919060010191905055505b50505050505050565b613ddb615453565b600080613de6615453565b600080600080613df4615467565b613dfc6154ed565b600660009054906101000a900473ffffffffffffffffffffffffffffffffffffffff1673ffffffffffffffffffffffffffffffffffffffff163373ffffffffffffffffffffffffffffffffffffffff161480613e8357503273ffffffffffffffffffffffffffffffffffffffff163373ffffffffffffffffffffffffffffffffffffffff16145b1515613e8e57600080fd5b6003600060058e815481101515613ea157fe5b906000526020600020900160009054906101000a900473ffffffffffffffffffffffffffffffffffffffff1673ffffffffffffffffffffffffffffffffffffffff1673ffffffffffffffffffffffffffffffffffffffff1681526020019081526020016000206101006040519081016040529081600082018054600181600116156101000203166002900480601f016020809104026020016040519081016040528092919081815260200182805460018160011615610100020316600290048015613fad5780601f10613f8257610100808354040283529160200191613fad565b820191906000526020600020905b815481529060010190602001808311613f9057829003601f168201915b50505050508152602001600182018054600181600116156101000203166002900480601f01602080910402602001604051908101604052809291908181526020018280546001816001161561010002031660029004801561404f5780601f106140245761010080835404028352916020019161404f565b820191906000526020600020905b81548152906001019060200180831161403257829003601f168201915b505050505081526020016002820160009054906101000a900473ffffffffffffffffffffffffffffffffffffffff1673ffffffffffffffffffffffffffffffffffffffff1673ffffffffffffffffffffffffffffffffffffffff1681526020016003820180548060200260200160405190810160405280929190818152602001828054801561410157602002820191906000526020600020905b815460001916815260200190600101908083116140e9575b505050505081526020016004820180548060200260200160405190810160405280929190818152602001828054801561415d57602002820191906000526020600020905b81546000191681526020019060010190808311614145575b50505050508152602001600582018054806020026020016040519081016040528092919081815260200182805480156141b957602002820191906000526020600020905b815460001916815260200190600101908083116141a1575b505050505081526020016006820180548060200260200160405190810160405280929190818152602001828054801561421557602002820191906000526020600020905b815460001916815260200190600101908083116141fd575b505050505081526020016007820160e060405190810160405290816000820154815260200160018201548152602001600282015481526020016003820154815260200160048201548152602001600582015481526020016006820154815250508152505091506003600060058e81548110151561428e57fe5b906000526020600020900160009054906101000a900473ffffffffffffffffffffffffffffffffffffffff1673ffffffffffffffffffffffffffffffffffffffff1673ffffffffffffffffffffffffffffffffffffffff168152602001908152602001600020600e0160008c81526020019081526020016000206040805190810160405290816000820160e060405190810160405290816000820154815260200160018201548152602001600282015481526020016003820154815260200160048201548152602001600582015481526020016006820154815250508152602001600882018054806020026020016040519081016040528092919081815260200182805480156143c157602002820191906000526020600020905b815460001916815260200190600101908083116143a9575b505050505081525050905081602001518160000151600001518260000151604001518460000151846000015160600151856020015151866000015160c0015188604001518797508494509950995099509950995099509950995050509295985092959890939650565b600080600080600660009054906101000a900473ffffffffffffffffffffffffffffffffffffffff1673ffffffffffffffffffffffffffffffffffffffff163373ffffffffffffffffffffffffffffffffffffffff1614151561448c57600080fd5b32935060009250600091505b600360008573ffffffffffffffffffffffffffffffffffffffff1673ffffffffffffffffffffffffffffffffffffffff16815260200190815260200160002060030180549050821015614565578460001916600360008673ffffffffffffffffffffffffffffffffffffffff1673ffffffffffffffffffffffffffffffffffffffff1681526020019081526020016000206003018381548110151561453957fe5b9060005260206000209001546000191614156145585760019250614565565b8180600101925050614498565b82151561467a57600360008573ffffffffffffffffffffffffffffffffffffffff1673ffffffffffffffffffffffffffffffffffffffff16815260200190815260200160002090508060030180548060010182816145c3919061533b565b9160005260206000209001600087909190915090600019169055506145e6615250565b80600e01600060015481526020019081526020016000206008018054806001018281614612919061533b565b916000526020600020900160008790919091509060001916905550600181600e01600060015481526020019081526020016000206007016000876000191660001916815260200190815260200160002060006101000a81548160ff0219169083151502179055505b5050505050565b600080600080600080600660009054906101000a900473ffffffffffffffffffffffffffffffffffffffff1673ffffffffffffffffffffffffffffffffffffffff163373ffffffffffffffffffffffffffffffffffffffff161415156146e657600080fd5b876040518082805190602001908083835b60208310151561471c57805182526020820191506020810190506020830392506146f7565b6001836020036101000a03801982511681845116808217855250505050505090500191505060405180910390209550329450614757876118b2565b9350600073ffffffffffffffffffffffffffffffffffffffff168473ffffffffffffffffffffffffffffffffffffffff161415151561479557600080fd5b60009250600360008573ffffffffffffffffffffffffffffffffffffffff1673ffffffffffffffffffffffffffffffffffffffff16815260200190815260200160002060060180548060010182816147ed919061533b565b916000526020600020900160008890919091509060001916905550600091505b600360008673ffffffffffffffffffffffffffffffffffffffff1673ffffffffffffffffffffffffffffffffffffffff168152602001908152602001600020600301805490508210156148da578560001916600360008773ffffffffffffffffffffffffffffffffffffffff1673ffffffffffffffffffffffffffffffffffffffff168152602001908152602001600020600301838154811015156148ae57fe5b9060005260206000209001546000191614156148cd57600192506148da565b818060010192505061480d565b60009050600091505b600360008573ffffffffffffffffffffffffffffffffffffffff1673ffffffffffffffffffffffffffffffffffffffff168152602001908152602001600020600501805490508210156149b0578560001916600360008673ffffffffffffffffffffffffffffffffffffffff1673ffffffffffffffffffffffffffffffffffffffff1681526020019081526020016000206005018381548110151561498457fe5b9060005260206000209001546000191614156149a357600190506149b0565b81806001019250506148e3565b801580156149bb5750825b15614a3057600360008573ffffffffffffffffffffffffffffffffffffffff1673ffffffffffffffffffffffffffffffffffffffff1681526020019081526020016000206005018054806001018281614a14919061533b565b9160005260206000209001600088909190915090600019169055505b5050505050505050565b600080600080600660009054906101000a900473ffffffffffffffffffffffffffffffffffffffff1673ffffffffffffffffffffffffffffffffffffffff163373ffffffffffffffffffffffffffffffffffffffff161480614ac757503273ffffffffffffffffffffffffffffffffffffffff163373ffffffffffffffffffffffffffffffffffffffff16145b1515614ad257600080fd5b6276a70060015402915081600254019050600154819350935050509091565b614af9615453565b600660009054906101000a900473ffffffffffffffffffffffffffffffffffffffff1673ffffffffffffffffffffffffffffffffffffffff163373ffffffffffffffffffffffffffffffffffffffff161480614b8057503273ffffffffffffffffffffffffffffffffffffffff163373ffffffffffffffffffffffffffffffffffffffff16145b1515614b8b57600080fd5b600360008373ffffffffffffffffffffffffffffffffffffffff1673ffffffffffffffffffffffffffffffffffffffff1681526020019081526020016000206000018054600181600116156101000203166002900480601f016020809104026020016040519081016040528092919081815260200182805460018160011615610100020316600290048015614c615780601f10614c3657610100808354040283529160200191614c61565b820191906000526020600020905b815481529060010190602001808311614c4457829003601f168201915b50505050509050919050565b614c75615393565b614c7d615393565b614c85615393565b614c8d615467565b600660009054906101000a900473ffffffffffffffffffffffffffffffffffffffff1673ffffffffffffffffffffffffffffffffffffffff163373ffffffffffffffffffffffffffffffffffffffff161480614d1457503273ffffffffffffffffffffffffffffffffffffffff163373ffffffffffffffffffffffffffffffffffffffff16145b1515614d1f57600080fd5b600360008673ffffffffffffffffffffffffffffffffffffffff1673ffffffffffffffffffffffffffffffffffffffff1681526020019081526020016000206101006040519081016040529081600082018054600181600116156101000203166002900480601f016020809104026020016040519081016040528092919081815260200182805460018160011615610100020316600290048015614e045780601f10614dd957610100808354040283529160200191614e04565b820191906000526020600020905b815481529060010190602001808311614de757829003601f168201915b50505050508152602001600182018054600181600116156101000203166002900480601f016020809104026020016040519081016040528092919081815260200182805460018160011615610100020316600290048015614ea65780601f10614e7b57610100808354040283529160200191614ea6565b820191906000526020600020905b815481529060010190602001808311614e8957829003601f168201915b505050505081526020016002820160009054906101000a900473ffffffffffffffffffffffffffffffffffffffff1673ffffffffffffffffffffffffffffffffffffffff1673ffffffffffffffffffffffffffffffffffffffff16815260200160038201805480602002602001604051908101604052809291908181526020018280548015614f5857602002820191906000526020600020905b81546000191681526020019060010190808311614f40575b5050505050815260200160048201805480602002602001604051908101604052809291908181526020018280548015614fb457602002820191906000526020600020905b81546000191681526020019060010190808311614f9c575b505050505081526020016005820180548060200260200160405190810160405280929190818152602001828054801561501057602002820191906000526020600020905b81546000191681526020019060010190808311614ff8575b505050505081526020016006820180548060200260200160405190810160405280929190818152602001828054801561506c57602002820191906000526020600020905b81546000191681526020019060010190808311615054575b505050505081526020016007820160e060405190810160405290816000820154815260200160018201548152602001600282015481526020016003820154815260200160048201548152602001600582015481526020016006820154815250508152505090508060a0015181608001518260600151829250819150809050935093509350509193909250565b600760009054906101000a900473ffffffffffffffffffffffffffffffffffffffff1673ffffffffffffffffffffffffffffffffffffffff163373ffffffffffffffffffffffffffffffffffffffff1614151561515457600080fd5b600073ffffffffffffffffffffffffffffffffffffffff168173ffffffffffffffffffffffffffffffffffffffff161415151561519057600080fd5b8073ffffffffffffffffffffffffffffffffffffffff16600760009054906101000a900473ffffffffffffffffffffffffffffffffffffffff1673ffffffffffffffffffffffffffffffffffffffff167f8be0079c531659141344cd1fd0a4f28419497f9722a3daafe3b4186f6b6457e060405160405180910390a380600760006101000a81548173ffffffffffffffffffffffffffffffffffffffff021916908373ffffffffffffffffffffffffffffffffffffffff16021790555050565b60006276a700600154026002540190508042111561527b576001600081548092919060010191905055505b50565b6000600360008473ffffffffffffffffffffffffffffffffffffffff1673ffffffffffffffffffffffffffffffffffffffff168152602001908152602001600020600e0160006001548152602001908152602001600020600001905060018214156152fc578060040160008154809291906001019190505550615311565b80600501600081548092919060010191905055505b8060050154816004015401606482600401540281151561532d57fe5b048160030181905550505050565b815481835581811511615362578183600052602060002091820191016153619190615515565b5b505050565b81548183558181151161538e5781836000526020600020918201910161538d9190615515565b5b505050565b602060405190810160405280600081525090565b828054600181600116156101000203166002900490600052602060002090601f016020900481019282601f106153e857805160ff1916838001178555615416565b82800160010185558215615416579182015b828111156154155782518255916020019190600101906153fa565b5b509050615423919061553a565b5090565b81548183558181151161544e5781836000526020600020918201910161544d919061553a565b5b505050565b602060405190810160405280600081525090565b6101c06040519081016040528061547c61555f565b815260200161548961555f565b8152602001600073ffffffffffffffffffffffffffffffffffffffff1681526020016154b3615573565b81526020016154c0615573565b81526020016154cd615573565b81526020016154da615573565b81526020016154e7615587565b81525090565b61010060405190810160405280615502615587565b815260200161550f615573565b81525090565b61553791905b8082111561553357600081600090555060010161551b565b5090565b90565b61555c91905b80821115615558576000816000905550600101615540565b5090565b90565b602060405190810160405280600081525090565b602060405190810160405280600081525090565b60e0604051908101604052806000815260200160008152602001600081526020016000815260200160008152602001600081526020016000815250905600a165627a7a72305820b80d4ddb11ca765399ee65d774f4d594c5b57c99339460e944b3103bd6f3138e0029",
  "source": "pragma solidity 0.4.21;\nimport \"./Root.sol\";\n\ncontract Bright {\n    uint256 private constant FEEDBACK_MULTIPLER = 100;\n    uint256 private constant SEASON_LENGTH_SECS = 90 * 24 * 60 * 60;\n    uint256 private constant MIGRATION_END_TIMESTAMP = 1566978048;\n    Root private root;\n    uint256 private currentSeasonIndex;\n    uint256 private initialSeasonTimestamp;\n    event UserProfileSetEvent (string name, address hash);\n    mapping (address => UserProfile) private hashUserMap;\n    mapping (bytes32 => address) private emailUserMap;\n    address[] private allUsersArray;\n\n    address private rootAddress;\n    address private owner;\n\n    struct UserProfile {\n        string name;\n        string email;\n        address hash;\n        bytes32[] pendingCommits;\n        bytes32[] finishedReviews;\n        bytes32[] pendingReviews;\n        bytes32[] toRead;\n        UserStats globalStats;\n        mapping (uint256 => UserSeason) seasonData;\n    }\n    struct UserStats {\n        uint256 reputation;\n        uint256 cumulativeComplexity;\n        uint256 numberOfTimesReview;\n        uint256 agreedPercentage;\n        uint256 positeVotes;\n        uint256 negativeVotes;\n        uint256 reviewsMade;\n    }\n    struct UserSeason {\n        UserStats seasonStats;\n        mapping (bytes32 => bool) seasonCommits;\n        bytes32[] urlSeasonCommits;\n    }\n\n    event OwnershipTransferred(address indexed previousOwner, address indexed newOwner);\n\n    function Bright() public {\n        owner = msg.sender;\n    }\n\n    modifier onlyOwner() {\n        require(msg.sender == owner);\n        _;\n    }\n\n    modifier onlyRoot() {\n        require(msg.sender == rootAddress);\n        _;\n    }\n\n    modifier onlyDapp() {\n        require (msg.sender == rootAddress || msg.sender == tx.origin);\n        _;\n    }\n\n    function init(address _root, uint256 seasonIndex, uint256 initialTimestamp) public {\n        require(rootAddress == uint80(0));\n        root = Root(_root);\n        rootAddress = _root;\n        currentSeasonIndex = seasonIndex;\n        initialSeasonTimestamp = initialTimestamp;\n    }\n\n    function transferOwnership(address newOwner) public onlyOwner {\n        require(newOwner != address(0));\n        emit OwnershipTransferred(owner, newOwner);\n        owner = newOwner;\n    }\n\n    function setRootAddress(address a) public onlyOwner {\n        rootAddress = a;\n    }\n\n    function setProfile (string name, string email) public onlyDapp {\n        address user = tx.origin;\n        bytes32 emailId = keccak256(email);\n        if (bytes(hashUserMap[user].name).length == 0 && bytes(hashUserMap[user].email).length == 0){\n            UserProfile storage newUser = hashUserMap[user];\n            newUser.name = name;\n            newUser.email = email;\n            newUser.hash = user;\n            emailUserMap[emailId] = user;\n            allUsersArray.push(user);\n        } else {\n            bytes32 userEmail = keccak256(hashUserMap[user].email);\n            if(emailId == userEmail) {\n                require(emailUserMap[emailId] == address(0));\n                delete emailUserMap[userEmail];\n                hashUserMap[user].email = email;\n                emailUserMap[emailId] = user;\n            }\n            hashUserMap[user].name = name;\n        }\n        emit UserProfileSetEvent(name, user);\n    }\n\n    function getUser (address userHash) public onlyDapp view returns (string, string, uint, uint, uint, uint256, uint256) {\n        UserProfile memory user = hashUserMap[userHash];\n        return (user.name,\n            user.email,\n            user.finishedReviews.length,\n            user.pendingReviews.length,\n            user.pendingCommits.length,\n            user.globalStats.reputation,\n            user.globalStats.agreedPercentage\n        );\n    }\n\n    function getAddressByEmail(bytes32 email) public onlyDapp view returns(address){\n        address a = emailUserMap[email];\n        return a;\n    }\n\n    function setCommit(bytes32 url) public onlyRoot {\n        address sender = tx.origin;\n        bool saved = false;\n        for (uint256 i = 0; i < hashUserMap[sender].pendingCommits.length; i++){\n            if(hashUserMap[sender].pendingCommits[i] == url){\n                saved = true;\n                break;\n            }\n        }\n        if(!saved){\n            UserProfile storage user = hashUserMap[sender];\n            user.pendingCommits.push(url);\n            checkSeason();\n            user.seasonData[currentSeasonIndex].urlSeasonCommits.push(url);\n            user.seasonData[currentSeasonIndex].seasonCommits[url] = true;\n\n        }\n    }\n\n    function notifyCommit (string a, bytes32 email) public onlyRoot {\n        bytes32 url = keccak256(a);\n        address sender = tx.origin;\n        address user = getAddressByEmail(email);\n        require(user != address(0));\n        bool saved = false;\n        hashUserMap[user].toRead.push(url);\n        for (uint256 i = 0; i < hashUserMap[sender].pendingCommits.length; i++){\n            if(hashUserMap[sender].pendingCommits[i] == url){\n                saved = true;\n                break;\n            }\n        }\n        bool done = false;\n        for (i = 0; i < hashUserMap[user].pendingReviews.length; i++){\n            if(hashUserMap[user].pendingReviews[i] == url){\n                done = true;\n                break;\n            }\n        }\n        if (!done && saved){\n            hashUserMap[user].pendingReviews.push(url);\n        }\n    }\n\n    function getUserCommits(address add) public onlyDapp view returns(bytes32[], bytes32[], bytes32[]){\n        UserProfile memory user = hashUserMap[add];\n        return (user.pendingReviews,\n                user.finishedReviews,\n                user.pendingCommits\n        );\n    }\n\n    function getAllUserEmail(uint index) public onlyDapp view returns(string){\n        return hashUserMap[allUsersArray[index]].email;\n    }\n\n    function getAllUserReputation(uint index) public onlyDapp view returns(string, uint256, uint256, string, uint256, uint, uint, address) {\n        UserProfile memory user = hashUserMap[allUsersArray[index]];\n        return (user.email,\n                user.globalStats.reputation,\n                user.globalStats.numberOfTimesReview,\n                user.name,\n                user.globalStats.agreedPercentage,\n                user.pendingCommits.length,\n                user.finishedReviews.length,\n                user.hash\n        );\n    }\n\n    function getNumbers() public onlyDapp view returns(uint){\n        return allUsersArray.length;\n    }\n\n    function setReview(bytes32 url,address author) public onlyRoot {\n        address sender = tx.origin;\n        require(hashUserMap[author].hash == author && hashUserMap[sender].hash == sender);\n        checkSeason();\n        UserProfile storage user = hashUserMap[author];\n        UserSeason storage userSeason = user.seasonData[currentSeasonIndex];\n\n        user.globalStats.numberOfTimesReview ++;\n\n        UserProfile storage reviewer = hashUserMap[sender];\n        for (uint256 j = 0 ; j < reviewer.pendingReviews.length; j++){\n            if (url == reviewer.pendingReviews[j]){\n                reviewer.pendingReviews[j] = reviewer.pendingReviews[reviewer.pendingReviews.length-1];\n                reviewer.pendingReviews.length--;\n                break;\n            }\n        }\n        hashUserMap[sender].finishedReviews.push(url);\n        if(userSeason.seasonCommits[url]) {\n            userSeason.seasonStats.numberOfTimesReview++;\n            (userSeason.seasonStats.reputation, userSeason.seasonStats.cumulativeComplexity) = root.calculateUserReputation(url, userSeason.seasonStats.reputation, userSeason.seasonStats.cumulativeComplexity);\n            reviewer.seasonData[currentSeasonIndex].seasonStats.reviewsMade++;\n        }\n    }\n\n    function getUserName(address userHash) public onlyDapp view returns (string) {\n        return (hashUserMap[userHash].name);\n    }\n\n    function getFeedback(bytes32 url) public onlyDapp view returns (bool){\n        address sender = tx.origin;\n        bool read = false;\n        for (uint i = 0; i<hashUserMap[sender].toRead.length; i++){\n            if(hashUserMap[sender].toRead[i] == url){\n                read = true;\n            }\n        }\n        return read;\n    }\n\n    function setFeedback(bytes32 url, address user, bool value, uint256 vote) public onlyRoot{\n        address sender = user;\n        address maker = tx.origin;\n        UserProfile storage userMap = hashUserMap[sender];\n        checkSeason();\n        if(value){\n            hashUserMap[maker].seasonData[currentSeasonIndex].seasonCommits[url];\n            userMap.toRead.push(url);\n            if(vote == 1) {\n                userMap.globalStats.positeVotes++;\n            }\n            else if (vote == 2){\n                userMap.globalStats.negativeVotes++;\n            }\n            userMap.globalStats.agreedPercentage = (userMap.globalStats.positeVotes * FEEDBACK_MULTIPLER) / (userMap.globalStats.positeVotes + userMap.globalStats.negativeVotes);\n            if(hashUserMap[maker].seasonData[currentSeasonIndex].seasonCommits[url]) {\n                setSeasonFeedback(user, vote);\n            }\n        }\n        else{\n            for (uint256 i = 0 ; i < userMap.toRead.length; i++){\n                if (url == userMap.toRead[i]){\n                    userMap.toRead[i] = userMap.toRead[userMap.toRead.length - 1];\n                    userMap.toRead.length--;\n                    break;\n                }\n            }\n        }\n    }\n\n    function setSeasonFeedback(address user, uint256 vote) private {\n        UserStats storage season = hashUserMap[user].seasonData[currentSeasonIndex].seasonStats;\n        if(vote == 1){\n            season.positeVotes++;\n        } else {\n            season.negativeVotes++;\n        }\n        season.agreedPercentage = (season.positeVotes * FEEDBACK_MULTIPLER) / (season.positeVotes + season.negativeVotes);\n    }\n\n    function getToRead(address userHash) public onlyDapp view returns (bytes32[]) {\n        return (hashUserMap[userHash].toRead);\n    }\n\n    function getVotes(address userHash, bool global, uint256 indSeason) public onlyDapp view returns (uint, uint) {\n        if(global) {\n            return (hashUserMap[userHash].globalStats.positeVotes, hashUserMap[userHash].globalStats.negativeVotes);\n        } else {\n            return (hashUserMap[userHash].seasonData[indSeason].seasonStats.positeVotes, hashUserMap[userHash].seasonData[indSeason].seasonStats.negativeVotes);\n        }\n    }\n\n    function getUserReputation(uint ind, uint256 sea) public onlyDapp view returns(string, uint256, uint256, string, uint256, uint, uint256, address) {\n        UserProfile memory user = hashUserMap[allUsersArray[ind]];\n        UserSeason memory season = hashUserMap[allUsersArray[ind]].seasonData[sea];\n        return(user.email,\n            season.seasonStats.reputation,\n            season.seasonStats.numberOfTimesReview,\n            user.name,\n            season.seasonStats.agreedPercentage,\n            season.urlSeasonCommits.length,\n            season.seasonStats.reviewsMade,\n            user.hash\n        );\n    }\n\n    function getCurrentSeason() public onlyDapp view returns (uint256, uint256) {\n        uint256 mul = currentSeasonIndex * SEASON_LENGTH_SECS;\n        uint256 sum = initialSeasonTimestamp + mul;\n        return (currentSeasonIndex, sum);\n    }\n\n    function getAllUserSeasonUrls(uint256 seasonIndex, address userAddr) public onlyDapp view returns (bytes32[]) {\n        UserSeason memory season = hashUserMap[userAddr].seasonData[seasonIndex];\n        return season.urlSeasonCommits;\n    }\n\n    function checkSeason() private {\n        uint256 seasonFinale = initialSeasonTimestamp + (currentSeasonIndex * SEASON_LENGTH_SECS);\n        if(block.timestamp > seasonFinale) {\n            currentSeasonIndex++;\n        }\n    }\n\n    function setAllUserData(string name, string mail, address hash, uint256 perct, uint256 tmRw, uint256 pos, uint256 neg, uint256 rep, uint256 rev) public onlyDapp {\n        require (bytes(hashUserMap[hash].name).length == 0 && bytes(hashUserMap[hash].email).length == 0 && block.timestamp < MIGRATION_END_TIMESTAMP);\n        UserProfile storage user = hashUserMap[hash];\n        user.name = name;\n        user.email = mail;\n        user.hash = hash;\n        user.globalStats.agreedPercentage = perct;\n        user.globalStats.numberOfTimesReview = tmRw;\n        user.globalStats.positeVotes = pos;\n        user.globalStats.negativeVotes = neg;\n        user.globalStats.reputation = rep;\n        user.globalStats.reviewsMade = rev;\n        bytes32 emailId = keccak256(mail);\n        emailUserMap[emailId] = hash;\n        allUsersArray.push(hash);\n    }\n\n    function setAllUserSeasonData(uint256 sea, address userAddr, uint256 perct, uint256 tmRw, uint256 pos, uint256 neg, uint256 rep, uint256 rev) public onlyDapp {\n        UserProfile storage user = hashUserMap[userAddr];\n        UserSeason storage season = user.seasonData[sea];\n        season.seasonStats.numberOfTimesReview = tmRw;\n        season.seasonStats.agreedPercentage = perct;\n        season.seasonStats.positeVotes = pos;\n        season.seasonStats.negativeVotes = neg;\n        season.seasonStats.reputation = rep;\n        season.seasonStats.reviewsMade = rev;\n    }\n\n    function setAllUserDataTwo(address h, bytes32[] pendCom,  bytes32[] finRev, bytes32[] pendRev, bytes32[] toRd) public onlyDapp {\n        require (block.timestamp < MIGRATION_END_TIMESTAMP);\n        UserProfile storage user = hashUserMap[h];\n        for(uint j = 0; j < pendCom.length; j++) {\n            user.pendingCommits.push(pendCom[j]);\n        }\n        for(uint x = 0; x < finRev.length; x++) {\n            user.finishedReviews.push(finRev[x]);\n        }\n        for(uint y = 0; y < pendRev.length; y++) {\n            user.pendingReviews.push(pendRev[y]);\n        }\n        for(uint m = 0; m < toRd.length; m++) {\n            user.toRead.push(toRd[m]);\n        }\n    }\n\n    function setUrlsSeason(uint256 seasonIndex, address userAddr, bytes32[] urls) public onlyDapp {\n        require (block.timestamp < MIGRATION_END_TIMESTAMP);\n        UserProfile storage user = hashUserMap[userAddr];\n        UserSeason storage season = user.seasonData[seasonIndex];\n        for(uint256 i = 0; i < urls.length; i++) {\n            season.seasonCommits[urls[i]] = true;\n            season.urlSeasonCommits.push(urls[i]);\n        }\n    }\n\n    function checkCommitSeason(bytes32 url,address author) public onlyRoot view returns (bool) {\n        return hashUserMap[author].seasonData[currentSeasonIndex].seasonCommits[url];\n    }\n}\n",
  "sourcePath": "/home/rdemera/Descargas/BrightByteMigracion04-04/contracts/Bright.sol",
  "compiler": {
    "name": "solc",
    "version": "0.4.21+commit.dfe3193c.Emscripten.clang"
  },
  "schemaVersion": "3.0.10",
  "updatedAt": "2019-08-23T10:13:18.675Z",
  "devdoc": {
    "methods": {}
  },
  "userdoc": {
    "methods": {}
  }
}