{
  "contractName": "Commits",
  "abi": [
    {
      "inputs": [],
      "payable": false,
      "stateMutability": "nonpayable",
      "type": "constructor"
    },
    {
      "anonymous": false,
      "inputs": [
        {
          "indexed": true,
          "name": "previousOwner",
          "type": "address"
        },
        {
          "indexed": true,
          "name": "newOwner",
          "type": "address"
        }
      ],
      "name": "OwnershipTransferred",
      "type": "event"
    },
    {
      "constant": false,
      "inputs": [
        {
          "name": "_root",
          "type": "address"
        }
      ],
      "name": "init",
      "outputs": [],
      "payable": false,
      "stateMutability": "nonpayable",
      "type": "function"
    },
    {
      "constant": false,
      "inputs": [
        {
          "name": "newOwner",
          "type": "address"
        }
      ],
      "name": "transferOwnership",
      "outputs": [],
      "payable": false,
      "stateMutability": "nonpayable",
      "type": "function"
    },
    {
      "constant": false,
      "inputs": [
        {
          "name": "a",
          "type": "address"
        }
      ],
      "name": "setRootAddress",
      "outputs": [],
      "payable": false,
      "stateMutability": "nonpayable",
      "type": "function"
    },
    {
      "constant": false,
      "inputs": [
        {
          "name": "_title",
          "type": "string"
        },
        {
          "name": "_url",
          "type": "string"
        },
        {
          "name": "_users",
          "type": "uint256"
        }
      ],
      "name": "setNewCommit",
      "outputs": [],
      "payable": false,
      "stateMutability": "nonpayable",
      "type": "function"
    },
    {
      "constant": false,
      "inputs": [
        {
          "name": "url",
          "type": "bytes32"
        },
        {
          "name": "a",
          "type": "address"
        }
      ],
      "name": "notifyCommit",
      "outputs": [],
      "payable": false,
      "stateMutability": "nonpayable",
      "type": "function"
    },
    {
      "constant": true,
      "inputs": [
        {
          "name": "_url",
          "type": "bytes32"
        }
      ],
      "name": "getDetailsCommits",
      "outputs": [
        {
          "name": "",
          "type": "string"
        },
        {
          "name": "",
          "type": "string"
        },
        {
          "name": "",
          "type": "address"
        },
        {
          "name": "",
          "type": "uint256"
        },
        {
          "name": "",
          "type": "uint256"
        },
        {
          "name": "",
          "type": "bool"
        },
        {
          "name": "",
          "type": "uint256"
        },
        {
          "name": "",
          "type": "uint256"
        },
        {
          "name": "",
          "type": "uint256"
        }
      ],
      "payable": false,
      "stateMutability": "view",
      "type": "function"
    },
    {
      "constant": true,
      "inputs": [
        {
          "name": "_id",
          "type": "bytes32"
        }
      ],
      "name": "getCommitScore",
      "outputs": [
        {
          "name": "",
          "type": "uint256"
        },
        {
          "name": "",
          "type": "uint256"
        }
      ],
      "payable": false,
      "stateMutability": "view",
      "type": "function"
    },
    {
      "constant": true,
      "inputs": [],
      "name": "getNumbers",
      "outputs": [
        {
          "name": "",
          "type": "uint256"
        }
      ],
      "payable": false,
      "stateMutability": "view",
      "type": "function"
    },
    {
      "constant": true,
      "inputs": [
        {
          "name": "index",
          "type": "uint256"
        }
      ],
      "name": "getAllCommitsId",
      "outputs": [
        {
          "name": "",
          "type": "bytes32"
        }
      ],
      "payable": false,
      "stateMutability": "view",
      "type": "function"
    },
    {
      "constant": true,
      "inputs": [
        {
          "name": "_url",
          "type": "bytes32"
        }
      ],
      "name": "getNumbersNeedUrl",
      "outputs": [
        {
          "name": "",
          "type": "uint256"
        },
        {
          "name": "",
          "type": "uint256"
        }
      ],
      "payable": false,
      "stateMutability": "view",
      "type": "function"
    },
    {
      "constant": true,
      "inputs": [
        {
          "name": "_url",
          "type": "bytes32"
        }
      ],
      "name": "getCommentsOfCommit",
      "outputs": [
        {
          "name": "",
          "type": "address[]"
        },
        {
          "name": "",
          "type": "address[]"
        }
      ],
      "payable": false,
      "stateMutability": "view",
      "type": "function"
    },
    {
      "constant": true,
      "inputs": [
        {
          "name": "url",
          "type": "bytes32"
        },
        {
          "name": "a",
          "type": "address"
        }
      ],
      "name": "getCommentDetail",
      "outputs": [
        {
          "name": "",
          "type": "string"
        },
        {
          "name": "",
          "type": "uint256"
        },
        {
          "name": "",
          "type": "uint256"
        },
        {
          "name": "",
          "type": "uint256"
        },
        {
          "name": "",
          "type": "address"
        },
        {
          "name": "",
          "type": "uint256[]"
        }
      ],
      "payable": false,
      "stateMutability": "view",
      "type": "function"
    },
    {
      "constant": false,
      "inputs": [
        {
          "name": "_url",
          "type": "string"
        },
        {
          "name": "_text",
          "type": "string"
        },
        {
          "name": "points",
          "type": "uint256[]"
        }
      ],
      "name": "setReview",
      "outputs": [],
      "payable": false,
      "stateMutability": "nonpayable",
      "type": "function"
    },
    {
      "constant": false,
      "inputs": [
        {
          "name": "url",
          "type": "bytes32"
        },
        {
          "name": "user",
          "type": "address"
        },
        {
          "name": "vote",
          "type": "uint256"
        }
      ],
      "name": "setVote",
      "outputs": [],
      "payable": false,
      "stateMutability": "nonpayable",
      "type": "function"
    },
    {
      "constant": false,
      "inputs": [
        {
          "name": "_url",
          "type": "bytes32"
        }
      ],
      "name": "readCommit",
      "outputs": [],
      "payable": false,
      "stateMutability": "nonpayable",
      "type": "function"
    },
    {
      "constant": true,
      "inputs": [
        {
          "name": "_url",
          "type": "bytes32"
        }
      ],
      "name": "isCommit",
      "outputs": [
        {
          "name": "",
          "type": "bool"
        },
        {
          "name": "",
          "type": "bool"
        }
      ],
      "payable": false,
      "stateMutability": "view",
      "type": "function"
    },
    {
      "constant": false,
      "inputs": [
        {
          "name": "title",
          "type": "string"
        },
        {
          "name": "url",
          "type": "string"
        },
        {
          "name": "author",
          "type": "address"
        },
        {
          "name": "creationDate",
          "type": "uint256"
        },
        {
          "name": "needRead",
          "type": "bool"
        },
        {
          "name": "lastMod",
          "type": "uint256"
        },
        {
          "name": "numberReview",
          "type": "uint256"
        },
        {
          "name": "currentReviews",
          "type": "uint256"
        },
        {
          "name": "score",
          "type": "uint256"
        }
      ],
      "name": "setAllCommitData",
      "outputs": [],
      "payable": false,
      "stateMutability": "nonpayable",
      "type": "function"
    },
    {
      "constant": false,
      "inputs": [
        {
          "name": "url",
          "type": "bytes32"
        },
        {
          "name": "pendingComments",
          "type": "address[]"
        },
        {
          "name": "finishedComments",
          "type": "address[]"
        }
      ],
      "name": "setAllCommitDataTwo",
      "outputs": [],
      "payable": false,
      "stateMutability": "nonpayable",
      "type": "function"
    },
    {
      "constant": false,
      "inputs": [
        {
          "name": "url",
          "type": "bytes32"
        },
        {
          "name": "user",
          "type": "address"
        },
        {
          "name": "txt",
          "type": "string"
        },
        {
          "name": "author",
          "type": "address"
        },
        {
          "name": "points",
          "type": "uint256[]"
        },
        {
          "name": "vote",
          "type": "uint256"
        },
        {
          "name": "creationDate",
          "type": "uint256"
        },
        {
          "name": "lastMod",
          "type": "uint256"
        }
      ],
      "name": "setAllCommentData",
      "outputs": [],
      "payable": false,
      "stateMutability": "nonpayable",
      "type": "function"
    },
    {
      "constant": false,
      "inputs": [
        {
          "name": "url",
          "type": "bytes32"
        },
        {
          "name": "hash",
          "type": "address"
        }
      ],
      "name": "setPendingCommentsData",
      "outputs": [],
      "payable": false,
      "stateMutability": "nonpayable",
      "type": "function"
    },
    {
      "constant": true,
      "inputs": [
        {
          "name": "url",
          "type": "bytes32"
        }
      ],
      "name": "getCommitScores",
      "outputs": [
        {
          "name": "",
          "type": "uint256"
        },
        {
          "name": "",
          "type": "uint256"
        },
        {
          "name": "",
          "type": "uint256"
        },
        {
          "name": "",
          "type": "uint256"
        }
      ],
      "payable": false,
      "stateMutability": "view",
      "type": "function"
    }
  ],
  "bytecode": "0x6060604052341561000f57600080fd5b33600760006101000a81548173ffffffffffffffffffffffffffffffffffffffff021916908373ffffffffffffffffffffffffffffffffffffffff1602179055506142418061005f6000396000f30060606040526004361061011d576000357c0100000000000000000000000000000000000000000000000000000000900463ffffffff1680630c7aebcb146101225780631451952b1461028f5780631955d47f146102c857806319ab453c146102ef578063242bb8f814610328578063377cb4de1461036a5780636ca89675146104b957806389f915f6146104f85780639131e788146105215780639cc17d0814610567578063a1af04d2146105b7578063a3e6444314610606578063b786ed911461064c578063c1daa9b714610696578063cecdf6a71461078d578063e8453f2014610890578063f2fde38b14610970578063f3cea463146109a9578063f6064c3a14610a6d578063f9a4840514610b14578063fc88c46a14610b56575b600080fd5b341561012d57600080fd5b610147600480803560001916906020019091905050610bff565b6040518080602001806020018a73ffffffffffffffffffffffffffffffffffffffff1673ffffffffffffffffffffffffffffffffffffffff1681526020018981526020018881526020018715151515815260200186815260200185815260200184815260200183810383528c818151815260200191508051906020019080838360005b838110156101e55780820151818401526020810190506101ca565b50505050905090810190601f1680156102125780820380516001836020036101000a031916815260200191505b5083810382528b818151815260200191508051906020019080838360005b8381101561024b578082015181840152602081019050610230565b50505050905090810190601f1680156102785780820380516001836020036101000a031916815260200191505b509b50505050505050505050505060405180910390f35b341561029a57600080fd5b6102c6600480803573ffffffffffffffffffffffffffffffffffffffff16906020019091905050611058565b005b34156102d357600080fd5b6102ed600480803560001916906020019091905050611138565b005b34156102fa57600080fd5b610326600480803573ffffffffffffffffffffffffffffffffffffffff16906020019091905050611241565b005b341561033357600080fd5b61034d600480803560001916906020019091905050611318565b604051808381526020018281526020019250505060405180910390f35b341561037557600080fd5b6103ae60048080356000191690602001909190803573ffffffffffffffffffffffffffffffffffffffff169060200190919050506113f4565b60405180806020018781526020018681526020018581526020018473ffffffffffffffffffffffffffffffffffffffff1673ffffffffffffffffffffffffffffffffffffffff16815260200180602001838103835289818151815260200191508051906020019080838360005b8381101561043657808201518184015260208101905061041b565b50505050905090810190601f1680156104635780820380516001836020036101000a031916815260200191505b50838103825284818151815260200191508051906020019060200280838360005b8381101561049f578082015181840152602081019050610484565b505050509050019850505050505050505060405180910390f35b34156104c457600080fd5b6104da60048080359060200190919050506116b6565b60405180826000191660001916815260200191505060405180910390f35b341561050357600080fd5b61050b61176c565b6040518082815260200191505060405180910390f35b341561052c57600080fd5b61056560048080356000191690602001909190803573ffffffffffffffffffffffffffffffffffffffff1690602001909190505061180b565b005b341561057257600080fd5b61058c600480803560001916906020019091905050611b17565b6040518085815260200184815260200183815260200182815260200194505050505060405180910390f35b34156105c257600080fd5b61060460048080356000191690602001909190803573ffffffffffffffffffffffffffffffffffffffff16906020019091908035906020019091905050611c3a565b005b341561061157600080fd5b61064a60048080356000191690602001909190803573ffffffffffffffffffffffffffffffffffffffff16906020019091905050611e50565b005b341561065757600080fd5b610671600480803560001916906020019091905050612056565b6040518083151515158152602001821515151581526020019250505060405180910390f35b34156106a157600080fd5b61078b600480803590602001908201803590602001908080601f0160208091040260200160405190810160405280939291908181526020018383808284378201915050505050509190803590602001908201803590602001908080601f0160208091040260200160405190810160405280939291908181526020018383808284378201915050505050509190803573ffffffffffffffffffffffffffffffffffffffff1690602001909190803590602001909190803515159060200190919080359060200190919080359060200190919080359060200190919080359060200190919050506121bd565b005b341561079857600080fd5b61088e60048080356000191690602001909190803573ffffffffffffffffffffffffffffffffffffffff1690602001909190803590602001908201803590602001908080601f0160208091040260200160405190810160405280939291908181526020018383808284378201915050505050509190803573ffffffffffffffffffffffffffffffffffffffff1690602001909190803590602001908201803590602001908080602002602001604051908101604052809392919081815260200183836020028082843782019150505050505091908035906020019091908035906020019091908035906020019091905050612554565b005b341561089b57600080fd5b61096e600480803590602001908201803590602001908080601f0160208091040260200160405190810160405280939291908181526020018383808284378201915050505050509190803590602001908201803590602001908080601f0160208091040260200160405190810160405280939291908181526020018383808284378201915050505050509190803590602001908201803590602001908080602002602001604051908101604052809392919081815260200183836020028082843782019150505050505091905050612738565b005b341561097b57600080fd5b6109a7600480803573ffffffffffffffffffffffffffffffffffffffff1690602001909190505061325a565b005b34156109b457600080fd5b6109ce6004808035600019169060200190919050506133b2565b604051808060200180602001838103835285818151815260200191508051906020019060200280838360005b83811015610a155780820151818401526020810190506109fa565b50505050905001838103825284818151815260200191508051906020019060200280838360005b83811015610a57578082015181840152602081019050610a3c565b5050505090500194505050505060405180910390f35b3415610a7857600080fd5b610b1260048080356000191690602001909190803590602001908201803590602001908080602002602001604051908101604052809392919081815260200183836020028082843782019150505050505091908035906020019082018035906020019080806020026020016040519081016040528093929190818152602001838360200280828437820191505050505050919050506135a9565b005b3415610b1f57600080fd5b610b396004808035600019169060200190919050506137a5565b604051808381526020018281526020019250505060405180910390f35b3415610b6157600080fd5b610bfd600480803590602001908201803590602001908080601f0160208091040260200160405190810160405280939291908181526020018383808284378201915050505050509190803590602001908201803590602001908080601f01602080910402602001604051908101604052809392919081815260200183838082843782019150505050505091908035906020019091905050613887565b005b610c07613d90565b610c0f613d90565b600080600080600080600080610c23613da4565b600160009054906101000a900473ffffffffffffffffffffffffffffffffffffffff1673ffffffffffffffffffffffffffffffffffffffff163373ffffffffffffffffffffffffffffffffffffffff161480610caa57503273ffffffffffffffffffffffffffffffffffffffff163373ffffffffffffffffffffffffffffffffffffffff16145b1515610cb557600080fd5b8b91506003600083600019166000191681526020019081526020016000206101c06040519081016040529081600082018054600181600116156101000203166002900480601f016020809104026020016040519081016040528092919081815260200182805460018160011615610100020316600290048015610d795780601f10610d4e57610100808354040283529160200191610d79565b820191906000526020600020905b815481529060010190602001808311610d5c57829003601f168201915b50505050508152602001600182018054600181600116156101000203166002900480601f016020809104026020016040519081016040528092919081815260200182805460018160011615610100020316600290048015610e1b5780601f10610df057610100808354040283529160200191610e1b565b820191906000526020600020905b815481529060010190602001808311610dfe57829003601f168201915b505050505081526020016002820160009054906101000a900473ffffffffffffffffffffffffffffffffffffffff1673ffffffffffffffffffffffffffffffffffffffff1673ffffffffffffffffffffffffffffffffffffffff168152602001600382015481526020016004820160009054906101000a900460ff161515151581526020016005820154815260200160068201548152602001600782015481526020016008820154815260200160098201548152602001600a8201548152602001600b8201548152602001600c8201805480602002602001604051908101604052809291908181526020018280548015610f6a57602002820191906000526020600020905b8160009054906101000a900473ffffffffffffffffffffffffffffffffffffffff1673ffffffffffffffffffffffffffffffffffffffff1681526020019060010190808311610f20575b50505050508152602001600d8201805480602002602001604051908101604052809291908181526020018280548015610ff857602002820191906000526020600020905b8160009054906101000a900473ffffffffffffffffffffffffffffffffffffffff1673ffffffffffffffffffffffffffffffffffffffff1681526020019060010190808311610fae575b505050505081525050905080602001518160000151826040015183606001518460a0015185608001518660c001518760e001518861010001518898508797509a509a509a509a509a509a509a509a509a5050509193959799909294969850565b600760009054906101000a900473ffffffffffffffffffffffffffffffffffffffff1673ffffffffffffffffffffffffffffffffffffffff163373ffffffffffffffffffffffffffffffffffffffff161415156110b457600080fd5b806000806101000a81548173ffffffffffffffffffffffffffffffffffffffff021916908373ffffffffffffffffffffffffffffffffffffffff16021790555080600160006101000a81548173ffffffffffffffffffffffffffffffffffffffff021916908373ffffffffffffffffffffffffffffffffffffffff16021790555050565b600160009054906101000a900473ffffffffffffffffffffffffffffffffffffffff1673ffffffffffffffffffffffffffffffffffffffff163373ffffffffffffffffffffffffffffffffffffffff1614151561119457600080fd5b3273ffffffffffffffffffffffffffffffffffffffff1660036000836000191660001916815260200190815260200160002060020160009054906101000a900473ffffffffffffffffffffffffffffffffffffffff1673ffffffffffffffffffffffffffffffffffffffff16141561123e57600060036000836000191660001916815260200190815260200160002060040160006101000a81548160ff0219169083151502179055505b50565b600069ffffffffffffffffffff16600160009054906101000a900473ffffffffffffffffffffffffffffffffffffffff1673ffffffffffffffffffffffffffffffffffffffff1614151561129457600080fd5b806000806101000a81548173ffffffffffffffffffffffffffffffffffffffff021916908373ffffffffffffffffffffffffffffffffffffffff16021790555080600160006101000a81548173ffffffffffffffffffffffffffffffffffffffff021916908373ffffffffffffffffffffffffffffffffffffffff16021790555050565b600080600160009054906101000a900473ffffffffffffffffffffffffffffffffffffffff1673ffffffffffffffffffffffffffffffffffffffff163373ffffffffffffffffffffffffffffffffffffffff1614806113a257503273ffffffffffffffffffffffffffffffffffffffff163373ffffffffffffffffffffffffffffffffffffffff16145b15156113ad57600080fd5b600360008460001916600019168152602001908152602001600020600801546003600085600019166000191681526020019081526020016000206009015491509150915091565b6113fc613d90565b60008060008061140a613e44565b611412613e58565b600160009054906101000a900473ffffffffffffffffffffffffffffffffffffffff1673ffffffffffffffffffffffffffffffffffffffff163373ffffffffffffffffffffffffffffffffffffffff16148061149957503273ffffffffffffffffffffffffffffffffffffffff163373ffffffffffffffffffffffffffffffffffffffff16145b15156114a457600080fd5b600360008a60001916600019168152602001908152602001600020600e0160008973ffffffffffffffffffffffffffffffffffffffff1673ffffffffffffffffffffffffffffffffffffffff16815260200190815260200160002060c06040519081016040529081600082018054600181600116156101000203166002900480601f0160208091040260200160405190810160405280929190818152602001828054600181600116156101000203166002900480156115a45780601f10611579576101008083540402835291602001916115a4565b820191906000526020600020905b81548152906001019060200180831161158757829003601f168201915b505050505081526020016001820160009054906101000a900473ffffffffffffffffffffffffffffffffffffffff1673ffffffffffffffffffffffffffffffffffffffff1673ffffffffffffffffffffffffffffffffffffffff1681526020016002820180548060200260200160405190810160405280929190818152602001828054801561165257602002820191906000526020600020905b81548152602001906001019080831161163e575b50505050508152602001600382015481526020016004820154815260200160058201548152505090508060000151816060015182608001518360a0015184602001518560400151859550809050965096509650965096509650509295509295509295565b6000600160009054906101000a900473ffffffffffffffffffffffffffffffffffffffff1673ffffffffffffffffffffffffffffffffffffffff163373ffffffffffffffffffffffffffffffffffffffff16148061173f57503273ffffffffffffffffffffffffffffffffffffffff163373ffffffffffffffffffffffffffffffffffffffff16145b151561174a57600080fd5b60028281548110151561175957fe5b9060005260206000209001549050919050565b6000600160009054906101000a900473ffffffffffffffffffffffffffffffffffffffff1673ffffffffffffffffffffffffffffffffffffffff163373ffffffffffffffffffffffffffffffffffffffff1614806117f557503273ffffffffffffffffffffffffffffffffffffffff163373ffffffffffffffffffffffffffffffffffffffff16145b151561180057600080fd5b600280549050905090565b600080600160009054906101000a900473ffffffffffffffffffffffffffffffffffffffff1673ffffffffffffffffffffffffffffffffffffffff163373ffffffffffffffffffffffffffffffffffffffff1614151561186a57600080fd5b3273ffffffffffffffffffffffffffffffffffffffff1660036000866000191660001916815260200190815260200160002060020160009054906101000a900473ffffffffffffffffffffffffffffffffffffffff1673ffffffffffffffffffffffffffffffffffffffff161415156118e257600080fd5b60009150600090505b600360008560001916600019168152602001908152602001600020600c01805490508110156119b457600360008560001916600019168152602001908152602001600020600c018181548110151561193f57fe5b906000526020600020900160009054906101000a900473ffffffffffffffffffffffffffffffffffffffff1673ffffffffffffffffffffffffffffffffffffffff168373ffffffffffffffffffffffffffffffffffffffff1614156119a757600191506119b4565b80806001019150506118eb565b811515611a8a57600090505b600360008560001916600019168152602001908152602001600020600d0180549050811015611a8957600360008560001916600019168152602001908152602001600020600d0181815481101515611a1457fe5b906000526020600020900160009054906101000a900473ffffffffffffffffffffffffffffffffffffffff1673ffffffffffffffffffffffffffffffffffffffff168373ffffffffffffffffffffffffffffffffffffffff161415611a7c5760019150611a89565b80806001019150506119c0565b5b811515611b1157600360008560001916600019168152602001908152602001600020600c018054806001018281611ac19190613eb1565b9160005260206000209001600085909190916101000a81548173ffffffffffffffffffffffffffffffffffffffff021916908373ffffffffffffffffffffffffffffffffffffffff160217905550505b50505050565b600080600080600160009054906101000a900473ffffffffffffffffffffffffffffffffffffffff1673ffffffffffffffffffffffffffffffffffffffff163373ffffffffffffffffffffffffffffffffffffffff161480611ba457503273ffffffffffffffffffffffffffffffffffffffff163373ffffffffffffffffffffffffffffffffffffffff16145b1515611baf57600080fd5b6003600086600019166000191681526020019081526020016000206008015460036000876000191660001916815260200190815260200160002060090154600360008860001916600019168152602001908152602001600020600a0154600360008960001916600019168152602001908152602001600020600b015493509350935093509193509193565b600160009054906101000a900473ffffffffffffffffffffffffffffffffffffffff1673ffffffffffffffffffffffffffffffffffffffff163373ffffffffffffffffffffffffffffffffffffffff16141515611c9657600080fd5b3273ffffffffffffffffffffffffffffffffffffffff1660036000856000191660001916815260200190815260200160002060020160009054906101000a900473ffffffffffffffffffffffffffffffffffffffff1673ffffffffffffffffffffffffffffffffffffffff16141515611d0e57600080fd5b6001811480611d1d5750600281145b80611d285750600381145b1515611d3057fe5b8173ffffffffffffffffffffffffffffffffffffffff16600360008560001916600019168152602001908152602001600020600e0160008473ffffffffffffffffffffffffffffffffffffffff1673ffffffffffffffffffffffffffffffffffffffff16815260200190815260200160002060010160009054906101000a900473ffffffffffffffffffffffffffffffffffffffff1673ffffffffffffffffffffffffffffffffffffffff16141515611de857600080fd5b80600360008560001916600019168152602001908152602001600020600e0160008473ffffffffffffffffffffffffffffffffffffffff1673ffffffffffffffffffffffffffffffffffffffff16815260200190815260200160002060030181905550505050565b600080600160009054906101000a900473ffffffffffffffffffffffffffffffffffffffff1673ffffffffffffffffffffffffffffffffffffffff163373ffffffffffffffffffffffffffffffffffffffff161480611eda57503273ffffffffffffffffffffffffffffffffffffffff163373ffffffffffffffffffffffffffffffffffffffff16145b1515611ee557600080fd5b635d66300042101515611ef757600080fd5b60009150600090505b600360008560001916600019168152602001908152602001600020600c0180549050811015611fc9578273ffffffffffffffffffffffffffffffffffffffff16600360008660001916600019168152602001908152602001600020600c0182815481101515611f6b57fe5b906000526020600020900160009054906101000a900473ffffffffffffffffffffffffffffffffffffffff1673ffffffffffffffffffffffffffffffffffffffff161415611fbc5760019150611fc9565b8080600101915050611f00565b81151561205057600360008560001916600019168152602001908152602001600020600c0180548060010182816120009190613eb1565b9160005260206000209001600085909190916101000a81548173ffffffffffffffffffffffffffffffffffffffff021916908373ffffffffffffffffffffffffffffffffffffffff160217905550505b50505050565b600080600080600160009054906101000a900473ffffffffffffffffffffffffffffffffffffffff1673ffffffffffffffffffffffffffffffffffffffff163373ffffffffffffffffffffffffffffffffffffffff161415156120b857600080fd5b6000915060009050600073ffffffffffffffffffffffffffffffffffffffff1660036000876000191660001916815260200190815260200160002060020160009054906101000a900473ffffffffffffffffffffffffffffffffffffffff1673ffffffffffffffffffffffffffffffffffffffff161415156121b057600191503273ffffffffffffffffffffffffffffffffffffffff1660036000876000191660001916815260200190815260200160002060020160009054906101000a900473ffffffffffffffffffffffffffffffffffffffff1673ffffffffffffffffffffffffffffffffffffffff1614156121af57600190505b5b8181935093505050915091565b60006121c7613edd565b600160009054906101000a900473ffffffffffffffffffffffffffffffffffffffff1673ffffffffffffffffffffffffffffffffffffffff163373ffffffffffffffffffffffffffffffffffffffff16148061224e57503273ffffffffffffffffffffffffffffffffffffffff163373ffffffffffffffffffffffffffffffffffffffff16145b151561225957600080fd5b635d6630004210151561226b57600080fd5b896040518082805190602001908083835b6020831015156122a1578051825260208201915060208101905060208303925061227c565b6001836020036101000a03801982511681845116808217855250505050505090500191505060405180910390209150600060036000846000191660001916815260200190815260200160002060010180546001816001161561010002031660029004905014801561234457506000600360008460001916600019168152602001908152602001600020600001805460018160011615610100020316600290049050145b151561234f57600080fd5b6101c0604051908101604052808c81526020018b81526020018a73ffffffffffffffffffffffffffffffffffffffff1681526020018981526020018815158152602001878152602001868152602001858152602001848152602001600081526020016000815260200160008152602001828152602001828152506003600084600019166000191681526020019081526020016000206000820151816000019080519060200190612400929190613ef1565b50602082015181600101908051906020019061241d929190613ef1565b5060408201518160020160006101000a81548173ffffffffffffffffffffffffffffffffffffffff021916908373ffffffffffffffffffffffffffffffffffffffff1602179055506060820151816003015560808201518160040160006101000a81548160ff02191690831515021790555060a0820151816005015560c0820151816006015560e082015181600701556101008201518160080155610120820151816009015561014082015181600a015561016082015181600b015561018082015181600c0190805190602001906124f6929190613f71565b506101a082015181600d019080519060200190612514929190613f71565b509050506002805480600101828161252c9190613ffb565b9160005260206000209001600084909190915090600019169055505050505050505050505050565b600080600160009054906101000a900473ffffffffffffffffffffffffffffffffffffffff1673ffffffffffffffffffffffffffffffffffffffff163373ffffffffffffffffffffffffffffffffffffffff1614806125de57503273ffffffffffffffffffffffffffffffffffffffff163373ffffffffffffffffffffffffffffffffffffffff16145b15156125e957600080fd5b635d663000421015156125fb57600080fd5b600360008b60001916600019168152602001908152602001600020600e0160008a73ffffffffffffffffffffffffffffffffffffffff1673ffffffffffffffffffffffffffffffffffffffff168152602001908152602001600020915087826000019080519060200190612670929190614027565b50868260010160006101000a81548173ffffffffffffffffffffffffffffffffffffffff021916908373ffffffffffffffffffffffffffffffffffffffff160217905550848260030181905550838260040181905550828260050181905550600090505b855181101561272c578160020180548060010182816126f391906140a7565b91600052602060002090016000888481518110151561270e57fe5b906020019060200201519091909150555080806001019150506126d4565b50505050505050505050565b600080600080600080612749613e44565b612751613e44565b612759613e44565b6000612763613e58565b600080600160009054906101000a900473ffffffffffffffffffffffffffffffffffffffff1673ffffffffffffffffffffffffffffffffffffffff163373ffffffffffffffffffffffffffffffffffffffff1614806127ed57503273ffffffffffffffffffffffffffffffffffffffff163373ffffffffffffffffffffffffffffffffffffffff16145b15156127f857600080fd5b8f6040518082805190602001908083835b60208310151561282e5780518252602082019150602081019050602083039250612809565b6001836020036101000a03801982511681845116808217855250505050505090500191505060405180910390209c50329b50600360008e600019166000191681526020019081526020016000209a5060009950600098505b8a600c01805490508910156129d4578a600c01898154811015156128a657fe5b906000526020600020900160009054906101000a900473ffffffffffffffffffffffffffffffffffffffff1673ffffffffffffffffffffffffffffffffffffffff168c73ffffffffffffffffffffffffffffffffffffffff1614156129c7578a600c0160018c600c01805490500381548110151561292057fe5b906000526020600020900160009054906101000a900473ffffffffffffffffffffffffffffffffffffffff168b600c018a81548110151561295d57fe5b906000526020600020900160006101000a81548173ffffffffffffffffffffffffffffffffffffffff021916908373ffffffffffffffffffffffffffffffffffffffff1602179055508a600c018054809190600190036129bd91906140d3565b50600199506129d4565b8880600101995050612886565b8915156129e057600080fd5b8a600d0180548060010182816129f69190613eb1565b916000526020600020900160008e909190916101000a81548173ffffffffffffffffffffffffffffffffffffffff021916908373ffffffffffffffffffffffffffffffffffffffff160217905550508a600e0160008d73ffffffffffffffffffffffffffffffffffffffff1673ffffffffffffffffffffffffffffffffffffffff16815260200190815260200160002097508e886000019080519060200190612aa0929190614027565b508b8860010160006101000a81548173ffffffffffffffffffffffffffffffffffffffff021916908373ffffffffffffffffffffffffffffffffffffffff1602179055508d886002019080519060200190612afc9291906140ff565b504288600401819055504288600501819055506000809054906101000a900473ffffffffffffffffffffffffffffffffffffffff1673ffffffffffffffffffffffffffffffffffffffff16638f359d708e8d60020160009054906101000a900473ffffffffffffffffffffffffffffffffffffffff166040518363ffffffff167c01000000000000000000000000000000000000000000000000000000000281526004018083600019166000191681526020018273ffffffffffffffffffffffffffffffffffffffff1673ffffffffffffffffffffffffffffffffffffffff16815260200192505050602060405180830381600087803b1515612bfe57600080fd5b5af11515612c0b57600080fd5b505050604051805190501561310f578660049080519060200190612c309291906140ff565b508560069080519060200190612c479291906140ff565b508460059080519060200190612c5e9291906140ff565b50600093505b600360008e60001916600019168152602001908152602001600020600d0180549050841015612f62578a600e0160008c600d0186815481101515612ca457fe5b906000526020600020900160009054906101000a900473ffffffffffffffffffffffffffffffffffffffff1673ffffffffffffffffffffffffffffffffffffffff1673ffffffffffffffffffffffffffffffffffffffff16815260200190815260200160002060c06040519081016040529081600082018054600181600116156101000203166002900480601f016020809104026020016040519081016040528092919081815260200182805460018160011615610100020316600290048015612daf5780601f10612d8457610100808354040283529160200191612daf565b820191906000526020600020905b815481529060010190602001808311612d9257829003601f168201915b505050505081526020016001820160009054906101000a900473ffffffffffffffffffffffffffffffffffffffff1673ffffffffffffffffffffffffffffffffffffffff1673ffffffffffffffffffffffffffffffffffffffff16815260200160028201805480602002602001604051908101604052809291908181526020018280548015612e5d57602002820191906000526020600020905b815481526020019060010190808311612e49575b505050505081526020016003820154815260200160048201548152602001600582015481525050925060048054806001018281612e9a91906140a7565b9160005260206000209001600085604001516000815181101515612eba57fe5b906020019060200201519091909150555060068054806001018281612edf91906140a7565b9160005260206000209001600085604001516001815181101515612eff57fe5b906020019060200201519091909150555060058054806001018281612f2491906140a7565b9160005260206000209001600085604001516002815181101515612f4457fe5b90602001906020020151909190915055508380600101945050612c64565b6000809054906101000a900473ffffffffffffffffffffffffffffffffffffffff1673ffffffffffffffffffffffffffffffffffffffff16637e762b616004600660056040518463ffffffff167c010000000000000000000000000000000000000000000000000000000002815260040180806020018060200180602001848103845287818154815260200191508054801561301d57602002820191906000526020600020905b815481526020019060010190808311613009575b5050848103835286818154815260200191508054801561305c57602002820191906000526020600020905b815481526020019060010190808311613048575b5050848103825285818154815260200191508054801561309b57602002820191906000526020600020905b815481526020019060010190808311613087575b505096505050505050506040805180830381600087803b15156130bd57600080fd5b5af115156130ca57600080fd5b5050506040518051906020018051905080925081935050508a600801548b600a01819055508a600901548b600b0181905550818b60080181905550808b600901819055505b60018b60040160006101000a81548160ff0219169083151502179055508a60070160008154809291906001019190505550428b600501819055506000809054906101000a900473ffffffffffffffffffffffffffffffffffffffff1673ffffffffffffffffffffffffffffffffffffffff1663ba3717528e8d60020160009054906101000a900473ffffffffffffffffffffffffffffffffffffffff166040518363ffffffff167c01000000000000000000000000000000000000000000000000000000000281526004018083600019166000191681526020018273ffffffffffffffffffffffffffffffffffffffff1673ffffffffffffffffffffffffffffffffffffffff16815260200192505050600060405180830381600087803b151561323857600080fd5b5af1151561324557600080fd5b50505050505050505050505050505050505050565b600760009054906101000a900473ffffffffffffffffffffffffffffffffffffffff1673ffffffffffffffffffffffffffffffffffffffff163373ffffffffffffffffffffffffffffffffffffffff161415156132b657600080fd5b600073ffffffffffffffffffffffffffffffffffffffff168173ffffffffffffffffffffffffffffffffffffffff16141515156132f257600080fd5b8073ffffffffffffffffffffffffffffffffffffffff16600760009054906101000a900473ffffffffffffffffffffffffffffffffffffffff1673ffffffffffffffffffffffffffffffffffffffff167f8be0079c531659141344cd1fd0a4f28419497f9722a3daafe3b4186f6b6457e060405160405180910390a380600760006101000a81548173ffffffffffffffffffffffffffffffffffffffff021916908373ffffffffffffffffffffffffffffffffffffffff16021790555050565b6133ba613edd565b6133c2613edd565b600160009054906101000a900473ffffffffffffffffffffffffffffffffffffffff1673ffffffffffffffffffffffffffffffffffffffff163373ffffffffffffffffffffffffffffffffffffffff16148061344957503273ffffffffffffffffffffffffffffffffffffffff163373ffffffffffffffffffffffffffffffffffffffff16145b151561345457600080fd5b600360008460001916600019168152602001908152602001600020600c01600360008560001916600019168152602001908152602001600020600d018180548060200260200160405190810160405280929190818152602001828054801561351157602002820191906000526020600020905b8160009054906101000a900473ffffffffffffffffffffffffffffffffffffffff1673ffffffffffffffffffffffffffffffffffffffff16815260200190600101908083116134c7575b505050505091508080548060200260200160405190810160405280929190818152602001828054801561359957602002820191906000526020600020905b8160009054906101000a900473ffffffffffffffffffffffffffffffffffffffff1673ffffffffffffffffffffffffffffffffffffffff168152602001906001019080831161354f575b5050505050905091509150915091565b6000806000600160009054906101000a900473ffffffffffffffffffffffffffffffffffffffff1673ffffffffffffffffffffffffffffffffffffffff163373ffffffffffffffffffffffffffffffffffffffff16148061363557503273ffffffffffffffffffffffffffffffffffffffff163373ffffffffffffffffffffffffffffffffffffffff16145b151561364057600080fd5b635d6630004210151561365257600080fd5b6003600087600019166000191681526020019081526020016000209250600091505b84518210156137065782600c0180548060010182816136939190613eb1565b9160005260206000209001600087858151811015156136ae57fe5b90602001906020020151909190916101000a81548173ffffffffffffffffffffffffffffffffffffffff021916908373ffffffffffffffffffffffffffffffffffffffff160217905550508180600101925050613674565b600090505b835181101561379d5782600d01805480600101828161372a9190613eb1565b91600052602060002090016000868481518110151561374557fe5b90602001906020020151909190916101000a81548173ffffffffffffffffffffffffffffffffffffffff021916908373ffffffffffffffffffffffffffffffffffffffff16021790555050808060010191505061370b565b505050505050565b600080600160009054906101000a900473ffffffffffffffffffffffffffffffffffffffff1673ffffffffffffffffffffffffffffffffffffffff163373ffffffffffffffffffffffffffffffffffffffff16148061382f57503273ffffffffffffffffffffffffffffffffffffffff163373ffffffffffffffffffffffffffffffffffffffff16145b151561383a57600080fd5b600360008460001916600019168152602001908152602001600020600c0180549050600360008560001916600019168152602001908152602001600020600d018054905091509150915091565b6000613891613edd565b6000600160009054906101000a900473ffffffffffffffffffffffffffffffffffffffff1673ffffffffffffffffffffffffffffffffffffffff163373ffffffffffffffffffffffffffffffffffffffff16148061391a57503273ffffffffffffffffffffffffffffffffffffffff163373ffffffffffffffffffffffffffffffffffffffff16145b151561392557600080fd5b329250846040518082805190602001908083835b60208310151561395e5780518252602082019150602081019050602083039250613939565b6001836020036101000a03801982511681845116808217855250505050505090500191505060405180910390209050600073ffffffffffffffffffffffffffffffffffffffff1660036000836000191660001916815260200190815260200160002060020160009054906101000a900473ffffffffffffffffffffffffffffffffffffffff1673ffffffffffffffffffffffffffffffffffffffff161415613cdc576101c0604051908101604052808781526020018681526020013373ffffffffffffffffffffffffffffffffffffffff1681526020014281526020016000151581526020014281526020018581526020016000815260200160008152602001600081526020016000815260200160008152602001838152602001838152506003600083600019166000191681526020019081526020016000206000820151816000019080519060200190613ab4929190613ef1565b506020820151816001019080519060200190613ad1929190613ef1565b5060408201518160020160006101000a81548173ffffffffffffffffffffffffffffffffffffffff021916908373ffffffffffffffffffffffffffffffffffffffff1602179055506060820151816003015560808201518160040160006101000a81548160ff02191690831515021790555060a0820151816005015560c0820151816006015560e082015181600701556101008201518160080155610120820151816009015561014082015181600a015561016082015181600b015561018082015181600c019080519060200190613baa929190613f71565b506101a082015181600d019080519060200190613bc8929190613f71565b5090505060028054806001018281613be09190613ffb565b9160005260206000209001600083909190915090600019169055503273ffffffffffffffffffffffffffffffffffffffff163373ffffffffffffffffffffffffffffffffffffffff161415613cd7576000809054906101000a900473ffffffffffffffffffffffffffffffffffffffff1673ffffffffffffffffffffffffffffffffffffffff16639b2dd74f826040518263ffffffff167c0100000000000000000000000000000000000000000000000000000000028152600401808260001916600019168152602001915050600060405180830381600087803b1515613cc657600080fd5b5af11515613cd357600080fd5b5050505b613d88565b8273ffffffffffffffffffffffffffffffffffffffff1660036000836000191660001916815260200190815260200160002060020160009054906101000a900473ffffffffffffffffffffffffffffffffffffffff1673ffffffffffffffffffffffffffffffffffffffff16141515613d5457600080fd5b856003600083600019166000191681526020019081526020016000206000019080519060200190613d86929190614027565b505b505050505050565b602060405190810160405280600081525090565b6101c060405190810160405280613db961414c565b8152602001613dc661414c565b8152602001600073ffffffffffffffffffffffffffffffffffffffff1681526020016000815260200160001515815260200160008152602001600081526020016000815260200160008152602001600081526020016000815260200160008152602001613e31614160565b8152602001613e3e614160565b81525090565b602060405190810160405280600081525090565b60c060405190810160405280613e6c61414c565b8152602001600073ffffffffffffffffffffffffffffffffffffffff168152602001613e96614174565b81526020016000815260200160008152602001600081525090565b815481835581811511613ed857818360005260206000209182019101613ed79190614188565b5b505050565b602060405190810160405280600081525090565b828054600181600116156101000203166002900490600052602060002090601f016020900481019282601f10613f3257805160ff1916838001178555613f60565b82800160010185558215613f60579182015b82811115613f5f578251825591602001919060010190613f44565b5b509050613f6d9190614188565b5090565b828054828255906000526020600020908101928215613fea579160200282015b82811115613fe95782518260006101000a81548173ffffffffffffffffffffffffffffffffffffffff021916908373ffffffffffffffffffffffffffffffffffffffff16021790555091602001919060010190613f91565b5b509050613ff791906141ad565b5090565b8154818355818115116140225781836000526020600020918201910161402191906141f0565b5b505050565b828054600181600116156101000203166002900490600052602060002090601f016020900481019282601f1061406857805160ff1916838001178555614096565b82800160010185558215614096579182015b8281111561409557825182559160200191906001019061407a565b5b5090506140a39190614188565b5090565b8154818355818115116140ce578183600052602060002091820191016140cd9190614188565b5b505050565b8154818355818115116140fa578183600052602060002091820191016140f99190614188565b5b505050565b82805482825590600052602060002090810192821561413b579160200282015b8281111561413a57825182559160200191906001019061411f565b5b5090506141489190614188565b5090565b602060405190810160405280600081525090565b602060405190810160405280600081525090565b602060405190810160405280600081525090565b6141aa91905b808211156141a657600081600090555060010161418e565b5090565b90565b6141ed91905b808211156141e957600081816101000a81549073ffffffffffffffffffffffffffffffffffffffff0219169055506001016141b3565b5090565b90565b61421291905b8082111561420e5760008160009055506001016141f6565b5090565b905600a165627a7a72305820949e279d1d9854d1012e11c6bfd9fc16312e5fc93ef60afd1bd102c3f9c4c0520029",
  "source": "pragma solidity 0.4.21;\nimport \"./Root.sol\";\n\ncontract Commits {\n    uint256 private constant MIGRATION_END_TIMESTAMP = 1566978048;\n    Root private root;\n    address private rootAddress;\n    bytes32[] private allCommitsArray;\n    mapping (bytes32 => Commit) private storedData;\n\n    uint256[] quality;\n    uint256[] confidence;\n    uint256[] complexity;\n\n    address private owner;\n\n    struct Commit {\n        string title;\n        string url;\n        address author;\n        uint256 creationDate;\n        bool isReadNeeded;\n        uint256 lastModificationDate;\n        uint256 numberReviews;\n        uint256 currentNumberReviews;\n        uint256 score;\n        uint256 weightedComplexity;\n        uint256 previousScore;\n        uint256 previousComplexity;\n        address[] pendingComments;\n        address[] finishedComments;\n        mapping (address => Comment) commitComments;\n    }\n    struct Comment{\n        string text;\n        address author;\n        uint256[] points;\n        uint256 vote; //0 => no vote, 1 => dont agree, 2 => agree, 3 => report abuse\n        uint256 creationDate;\n        uint256 lastModificationDate;\n    }\n    event OwnershipTransferred(address indexed previousOwner, address indexed newOwner);\n\n    function Commits() public {\n        owner = msg.sender;\n    }\n    modifier onlyOwner() {\n        require(msg.sender == owner);\n        _;\n    }\n    modifier onlyRoot() {\n        require(msg.sender == rootAddress);\n        _;\n    }\n    modifier onlyDapp() {\n        require (msg.sender == rootAddress || msg.sender == tx.origin);\n        _;\n    }\n\n    function init(address _root) public {\n        require(rootAddress == uint80(0));\n        root = Root(_root);\n        rootAddress = _root;\n    }\n\n    function transferOwnership(address newOwner) public onlyOwner {\n        require(newOwner != address(0));\n        emit OwnershipTransferred(owner, newOwner);\n        owner = newOwner;\n    }\n    function setRootAddress(address a) public onlyOwner {\n        root = Root(a);\n        rootAddress = a;\n    }\n\n    function setNewCommit (string _title, string _url, uint256 _users) public onlyDapp {\n        address auth = tx.origin;\n        address[] memory a;\n        bytes32 _id = keccak256(_url);\n        if(storedData[_id].author == address(0)){\n            storedData[_id] = Commit(_title, _url, msg.sender, block.timestamp, false, block.timestamp,_users, 0, 0, 0, 0, 0, a,a);\n            allCommitsArray.push(_id);\n            if(msg.sender == tx.origin){\n                root.setNewCommit(_id);\n            }\n        } else {\n            require(storedData[_id].author == auth);\n            storedData[_id].title = _title;\n        }\n    }\n    function notifyCommit(bytes32 url,address a) public onlyRoot {\n        require(storedData[url].author == tx.origin);\n        bool saved = false;\n        for(uint256 i = 0; i < storedData[url].pendingComments.length; i++){\n            if(a == storedData[url].pendingComments[i]){\n                saved = true;\n                break;\n            }\n        }\n        if(!saved){\n            for(i = 0; i < storedData[url].finishedComments.length; i++){\n                if(a == storedData[url].finishedComments[i]){\n                    saved = true;\n                    break;\n                }\n            }\n        }\n        if(!saved){\n            storedData[url].pendingComments.push(a);\n        }\n    }\n    function getDetailsCommits(bytes32 _url) public onlyDapp view returns(string, string, address, uint, uint, bool, uint256, uint256, uint256){\n        bytes32 id = _url;\n        Commit memory data = storedData[id];\n        return (data.url,\n                data.title,\n                data.author,\n                data.creationDate,\n                data.lastModificationDate,\n                data.isReadNeeded,\n                data.numberReviews,\n                data.currentNumberReviews,\n                data.score\n        );\n    }\n    function getCommitScore(bytes32 _id) public onlyDapp view returns(uint256, uint256){\n        return(storedData[_id].score, storedData[_id].weightedComplexity);\n    }\n    function getNumbers() public onlyDapp view returns(uint){\n        return allCommitsArray.length;\n    }\n    function getAllCommitsId(uint index) public onlyDapp view returns(bytes32){\n        return allCommitsArray[index];\n    }\n    function getNumbersNeedUrl(bytes32 _url) public onlyDapp view returns (uint, uint){\n        return (storedData[_url].pendingComments.length,\n                storedData[_url].finishedComments.length\n        );\n    }\n    function getCommentsOfCommit(bytes32 _url) public onlyDapp view returns(address[],address[]){\n        return (\n            storedData[_url].pendingComments,\n            storedData[_url].finishedComments\n        );\n    }\n    function getCommentDetail(bytes32 url, address a) public onlyDapp view returns(string, uint256, uint, uint, address, uint256[]){\n        Comment memory comment = storedData[url].commitComments[a];\n        return(\n            comment.text,\n            comment.vote,\n            comment.creationDate,\n            comment.lastModificationDate,\n            comment.author,\n            comment.points\n        );\n    }\n\n    function setReview(string _url,string _text, uint256[] points) onlyDapp public{\n        bytes32 url = keccak256(_url);\n        address author = tx.origin;\n\n        Commit storage commit = storedData[url];\n        bool saved = false;\n        for (uint256 j = 0;j < commit.pendingComments.length; j++){\n            if (author == commit.pendingComments[j]){\n                commit.pendingComments[j] = commit.pendingComments[commit.pendingComments.length-1];\n                commit.pendingComments.length--;\n                saved = true;\n                break;\n            }\n        }\n        require(saved);\n        commit.finishedComments.push(author);\n        Comment storage comment = commit.commitComments[author];\n        comment.text = _text;\n        comment.author = author;\n        comment.points = points;\n        comment.creationDate = block.timestamp;\n        comment.lastModificationDate = block.timestamp;\n\n        if(root.checkCommitSeason(url, commit.author)) {\n            uint256[] memory qualityArray;\n            uint256[] memory complexityArray;\n            uint256[] memory confidenceArray;\n            quality = qualityArray;\n            complexity = complexityArray;\n            confidence = confidenceArray;\n            for(uint256 i = 0; i < storedData[url].finishedComments.length; i++) {\n                Comment memory reviewerComment = commit.commitComments[commit.finishedComments[i]];\n                quality.push(reviewerComment.points[0]);\n                complexity.push(reviewerComment.points[1]);\n                confidence.push(reviewerComment.points[2]);\n            }\n            uint256 commitScore;\n            uint256 commitComplexity;\n            (commitScore, commitComplexity) = root.calculatePonderation(quality, complexity, confidence);\n            commit.previousScore = commit.score;\n            commit.previousComplexity = commit.weightedComplexity;\n            commit.score = commitScore;\n            commit.weightedComplexity = commitComplexity;\n        }\n        commit.isReadNeeded = true;\n        commit.currentNumberReviews ++;\n        commit.lastModificationDate = block.timestamp;\n        //score per commit\n        root.setReview(url, commit.author);\n    }\n    function setVote(bytes32 url, address user, uint256 vote) public onlyRoot {\n        require(storedData[url].author == tx.origin);\n        assert(vote == 1 || vote == 2 || vote == 3);\n        require(storedData[url].commitComments[user].author == user);\n        storedData[url].commitComments[user].vote = vote;\n    }\n    function readCommit(bytes32 _url) public onlyRoot {\n        if(storedData[_url].author == tx.origin){\n            storedData[_url].isReadNeeded = false;\n        }\n    }\n    function isCommit(bytes32 _url) public onlyRoot view returns(bool,bool){\n        bool yes = false;\n        bool auth = false;\n        if(storedData[_url].author != address(0)){\n            yes = true;\n            if(storedData[_url].author == tx.origin){\n                auth = true;\n            }\n        }\n        return (yes,auth);\n    }\n\n    function setAllCommitData(string title, string url, address author, uint creationDate, bool needRead, uint lastMod, uint256 numberReview, uint256 currentReviews, uint256 score) public onlyDapp {\n        require (block.timestamp < MIGRATION_END_TIMESTAMP);\n        bytes32 _id = keccak256(url);\n        address[] memory a;\n        require (bytes(storedData[_id].url).length == 0 && bytes(storedData[_id].title).length == 0);\n        storedData[_id] = Commit(title, url, author, creationDate, needRead, lastMod, numberReview, currentReviews, score, 0, 0, 0, a, a);\n        allCommitsArray.push(_id);\n    }\n\n    function setAllCommitDataTwo(bytes32 url, address[] pendingComments, address[] finishedComments) public onlyDapp {\n        require (block.timestamp < MIGRATION_END_TIMESTAMP);\n        Commit storage data = storedData[url];\n        for(uint i = 0; i < pendingComments.length; i++) {\n            data.pendingComments.push(pendingComments[i]);\n        }\n        for(uint j = 0; j < finishedComments.length; j++) {\n            data.finishedComments.push(finishedComments[j]);\n        }\n    }\n\n    function setAllCommentData(bytes32 url, address user, string txt, address author, uint256[] points, uint256 vote, uint creationDate, uint lastMod) public onlyDapp {\n        require (block.timestamp < MIGRATION_END_TIMESTAMP);\n        Comment storage data = storedData[url].commitComments[user];\n        data.text = txt;\n        data.author = author;\n        data.vote = vote;\n        data.creationDate = creationDate;\n        data.lastModificationDate = lastMod;\n        for(uint i = 0; i < points.length; i++) {\n            data.points.push(points[i]);\n        }\n    }\n\n    function setPendingCommentsData(bytes32 url, address hash)  public onlyDapp {\n        require (block.timestamp < MIGRATION_END_TIMESTAMP);\n        bool found = false;\n        for (uint i = 0; i < storedData[url].pendingComments.length; i++){\n            if(storedData[url].pendingComments[i] == hash){\n                found = true;\n                break;\n            }\n        }\n        if(!found){\n            storedData[url].pendingComments.push(hash);\n        }\n    }\n\n    function getCommitScores(bytes32 url) public onlyDapp view returns (uint256, uint256, uint256, uint256) {\n        return(storedData[url].score, storedData[url].weightedComplexity, storedData[url].previousScore, storedData[url].previousComplexity);\n    }\n}\n",
  "sourcePath": "/home/rdemera/Descargas/BrightByteMigracion04-04/contracts/Commits.sol",
  "compiler": {
    "name": "solc",
    "version": "0.4.21+commit.dfe3193c.Emscripten.clang"
  },
  "schemaVersion": "3.0.10",
  "updatedAt": "2019-08-23T10:13:18.712Z",
  "devdoc": {
    "methods": {}
  },
  "userdoc": {
    "methods": {}
  }
}